{
  "_format": "hh-sol-artifact-1",
  "contractName": "Characters",
  "sourceName": "contracts/Characters.sol",
  "abi": [
    {
      "inputs": [],
      "stateMutability": "nonpayable",
      "type": "constructor"
    },
    {
      "inputs": [],
      "name": "Brian",
      "outputs": [
        {
          "internalType": "uint256",
          "name": "health",
          "type": "uint256"
        },
        {
          "internalType": "uint256",
          "name": "attack",
          "type": "uint256"
        },
        {
          "internalType": "uint256",
          "name": "manaCost",
          "type": "uint256"
        },
        {
          "internalType": "uint256",
          "name": "id",
          "type": "uint256"
        },
        {
          "internalType": "string",
          "name": "name",
          "type": "string"
        },
        {
          "internalType": "string",
          "name": "description",
          "type": "string"
        },
        {
          "internalType": "bool",
          "name": "taunt",
          "type": "bool"
        },
        {
          "internalType": "bool",
          "name": "windfury",
          "type": "bool"
        },
        {
          "internalType": "bool",
          "name": "divineshield",
          "type": "bool"
        },
        {
          "internalType": "bool",
          "name": "stealth",
          "type": "bool"
        },
        {
          "internalType": "bool",
          "name": "poisonious",
          "type": "bool"
        }
      ],
      "stateMutability": "view",
      "type": "function"
    },
    {
      "inputs": [],
      "name": "CrazedAlchemist",
      "outputs": [
        {
          "internalType": "uint256",
          "name": "health",
          "type": "uint256"
        },
        {
          "internalType": "uint256",
          "name": "attack",
          "type": "uint256"
        },
        {
          "internalType": "uint256",
          "name": "manaCost",
          "type": "uint256"
        },
        {
          "internalType": "uint256",
          "name": "id",
          "type": "uint256"
        },
        {
          "internalType": "string",
          "name": "name",
          "type": "string"
        },
        {
          "internalType": "string",
          "name": "description",
          "type": "string"
        },
        {
          "internalType": "bool",
          "name": "taunt",
          "type": "bool"
        },
        {
          "internalType": "bool",
          "name": "windfury",
          "type": "bool"
        },
        {
          "internalType": "bool",
          "name": "divineshield",
          "type": "bool"
        },
        {
          "internalType": "bool",
          "name": "stealth",
          "type": "bool"
        },
        {
          "internalType": "bool",
          "name": "poisonious",
          "type": "bool"
        }
      ],
      "stateMutability": "view",
      "type": "function"
    },
    {
      "inputs": [],
      "name": "CrazedWretch",
      "outputs": [
        {
          "internalType": "uint256",
          "name": "health",
          "type": "uint256"
        },
        {
          "internalType": "uint256",
          "name": "attack",
          "type": "uint256"
        },
        {
          "internalType": "uint256",
          "name": "manaCost",
          "type": "uint256"
        },
        {
          "internalType": "uint256",
          "name": "id",
          "type": "uint256"
        },
        {
          "internalType": "string",
          "name": "name",
          "type": "string"
        },
        {
          "internalType": "string",
          "name": "description",
          "type": "string"
        },
        {
          "internalType": "bool",
          "name": "taunt",
          "type": "bool"
        },
        {
          "internalType": "bool",
          "name": "windfury",
          "type": "bool"
        },
        {
          "internalType": "bool",
          "name": "divineshield",
          "type": "bool"
        },
        {
          "internalType": "bool",
          "name": "stealth",
          "type": "bool"
        },
        {
          "internalType": "bool",
          "name": "poisonious",
          "type": "bool"
        }
      ],
      "stateMutability": "view",
      "type": "function"
    },
    {
      "inputs": [],
      "name": "DerangedDocter",
      "outputs": [
        {
          "internalType": "uint256",
          "name": "health",
          "type": "uint256"
        },
        {
          "internalType": "uint256",
          "name": "attack",
          "type": "uint256"
        },
        {
          "internalType": "uint256",
          "name": "manaCost",
          "type": "uint256"
        },
        {
          "internalType": "uint256",
          "name": "id",
          "type": "uint256"
        },
        {
          "internalType": "string",
          "name": "name",
          "type": "string"
        },
        {
          "internalType": "string",
          "name": "description",
          "type": "string"
        },
        {
          "internalType": "bool",
          "name": "taunt",
          "type": "bool"
        },
        {
          "internalType": "bool",
          "name": "windfury",
          "type": "bool"
        },
        {
          "internalType": "bool",
          "name": "divineshield",
          "type": "bool"
        },
        {
          "internalType": "bool",
          "name": "stealth",
          "type": "bool"
        },
        {
          "internalType": "bool",
          "name": "poisonious",
          "type": "bool"
        }
      ],
      "stateMutability": "view",
      "type": "function"
    },
    {
      "inputs": [],
      "name": "Grizzly",
      "outputs": [
        {
          "internalType": "uint256",
          "name": "health",
          "type": "uint256"
        },
        {
          "internalType": "uint256",
          "name": "attack",
          "type": "uint256"
        },
        {
          "internalType": "uint256",
          "name": "manaCost",
          "type": "uint256"
        },
        {
          "internalType": "uint256",
          "name": "id",
          "type": "uint256"
        },
        {
          "internalType": "string",
          "name": "name",
          "type": "string"
        },
        {
          "internalType": "string",
          "name": "description",
          "type": "string"
        },
        {
          "internalType": "bool",
          "name": "taunt",
          "type": "bool"
        },
        {
          "internalType": "bool",
          "name": "windfury",
          "type": "bool"
        },
        {
          "internalType": "bool",
          "name": "divineshield",
          "type": "bool"
        },
        {
          "internalType": "bool",
          "name": "stealth",
          "type": "bool"
        },
        {
          "internalType": "bool",
          "name": "poisonious",
          "type": "bool"
        }
      ],
      "stateMutability": "view",
      "type": "function"
    },
    {
      "inputs": [],
      "name": "Gruul",
      "outputs": [
        {
          "internalType": "uint256",
          "name": "health",
          "type": "uint256"
        },
        {
          "internalType": "uint256",
          "name": "attack",
          "type": "uint256"
        },
        {
          "internalType": "uint256",
          "name": "manaCost",
          "type": "uint256"
        },
        {
          "internalType": "uint256",
          "name": "id",
          "type": "uint256"
        },
        {
          "internalType": "string",
          "name": "name",
          "type": "string"
        },
        {
          "internalType": "string",
          "name": "description",
          "type": "string"
        },
        {
          "internalType": "bool",
          "name": "taunt",
          "type": "bool"
        },
        {
          "internalType": "bool",
          "name": "windfury",
          "type": "bool"
        },
        {
          "internalType": "bool",
          "name": "divineshield",
          "type": "bool"
        },
        {
          "internalType": "bool",
          "name": "stealth",
          "type": "bool"
        },
        {
          "internalType": "bool",
          "name": "poisonious",
          "type": "bool"
        }
      ],
      "stateMutability": "view",
      "type": "function"
    },
    {
      "inputs": [],
      "name": "Invincible",
      "outputs": [
        {
          "internalType": "uint256",
          "name": "health",
          "type": "uint256"
        },
        {
          "internalType": "uint256",
          "name": "attack",
          "type": "uint256"
        },
        {
          "internalType": "uint256",
          "name": "manaCost",
          "type": "uint256"
        },
        {
          "internalType": "uint256",
          "name": "id",
          "type": "uint256"
        },
        {
          "internalType": "string",
          "name": "name",
          "type": "string"
        },
        {
          "internalType": "string",
          "name": "description",
          "type": "string"
        },
        {
          "internalType": "bool",
          "name": "taunt",
          "type": "bool"
        },
        {
          "internalType": "bool",
          "name": "windfury",
          "type": "bool"
        },
        {
          "internalType": "bool",
          "name": "divineshield",
          "type": "bool"
        },
        {
          "internalType": "bool",
          "name": "stealth",
          "type": "bool"
        },
        {
          "internalType": "bool",
          "name": "poisonious",
          "type": "bool"
        }
      ],
      "stateMutability": "view",
      "type": "function"
    },
    {
      "inputs": [],
      "name": "LeperGnome",
      "outputs": [
        {
          "internalType": "uint256",
          "name": "health",
          "type": "uint256"
        },
        {
          "internalType": "uint256",
          "name": "attack",
          "type": "uint256"
        },
        {
          "internalType": "uint256",
          "name": "manaCost",
          "type": "uint256"
        },
        {
          "internalType": "uint256",
          "name": "id",
          "type": "uint256"
        },
        {
          "internalType": "string",
          "name": "name",
          "type": "string"
        },
        {
          "internalType": "string",
          "name": "description",
          "type": "string"
        },
        {
          "internalType": "bool",
          "name": "taunt",
          "type": "bool"
        },
        {
          "internalType": "bool",
          "name": "windfury",
          "type": "bool"
        },
        {
          "internalType": "bool",
          "name": "divineshield",
          "type": "bool"
        },
        {
          "internalType": "bool",
          "name": "stealth",
          "type": "bool"
        },
        {
          "internalType": "bool",
          "name": "poisonious",
          "type": "bool"
        }
      ],
      "stateMutability": "view",
      "type": "function"
    },
    {
      "inputs": [],
      "name": "Mistress",
      "outputs": [
        {
          "internalType": "uint256",
          "name": "health",
          "type": "uint256"
        },
        {
          "internalType": "uint256",
          "name": "attack",
          "type": "uint256"
        },
        {
          "internalType": "uint256",
          "name": "manaCost",
          "type": "uint256"
        },
        {
          "internalType": "uint256",
          "name": "id",
          "type": "uint256"
        },
        {
          "internalType": "string",
          "name": "name",
          "type": "string"
        },
        {
          "internalType": "string",
          "name": "description",
          "type": "string"
        },
        {
          "internalType": "bool",
          "name": "taunt",
          "type": "bool"
        },
        {
          "internalType": "bool",
          "name": "windfury",
          "type": "bool"
        },
        {
          "internalType": "bool",
          "name": "divineshield",
          "type": "bool"
        },
        {
          "internalType": "bool",
          "name": "stealth",
          "type": "bool"
        },
        {
          "internalType": "bool",
          "name": "poisonious",
          "type": "bool"
        }
      ],
      "stateMutability": "view",
      "type": "function"
    },
    {
      "inputs": [],
      "name": "Shrinkmeister",
      "outputs": [
        {
          "internalType": "uint256",
          "name": "health",
          "type": "uint256"
        },
        {
          "internalType": "uint256",
          "name": "attack",
          "type": "uint256"
        },
        {
          "internalType": "uint256",
          "name": "manaCost",
          "type": "uint256"
        },
        {
          "internalType": "uint256",
          "name": "id",
          "type": "uint256"
        },
        {
          "internalType": "string",
          "name": "name",
          "type": "string"
        },
        {
          "internalType": "string",
          "name": "description",
          "type": "string"
        },
        {
          "internalType": "bool",
          "name": "taunt",
          "type": "bool"
        },
        {
          "internalType": "bool",
          "name": "windfury",
          "type": "bool"
        },
        {
          "internalType": "bool",
          "name": "divineshield",
          "type": "bool"
        },
        {
          "internalType": "bool",
          "name": "stealth",
          "type": "bool"
        },
        {
          "internalType": "bool",
          "name": "poisonious",
          "type": "bool"
        }
      ],
      "stateMutability": "view",
      "type": "function"
    },
    {
      "inputs": [],
      "name": "SpawnOfNzoth",
      "outputs": [
        {
          "internalType": "uint256",
          "name": "health",
          "type": "uint256"
        },
        {
          "internalType": "uint256",
          "name": "attack",
          "type": "uint256"
        },
        {
          "internalType": "uint256",
          "name": "manaCost",
          "type": "uint256"
        },
        {
          "internalType": "uint256",
          "name": "id",
          "type": "uint256"
        },
        {
          "internalType": "string",
          "name": "name",
          "type": "string"
        },
        {
          "internalType": "string",
          "name": "description",
          "type": "string"
        },
        {
          "internalType": "bool",
          "name": "taunt",
          "type": "bool"
        },
        {
          "internalType": "bool",
          "name": "windfury",
          "type": "bool"
        },
        {
          "internalType": "bool",
          "name": "divineshield",
          "type": "bool"
        },
        {
          "internalType": "bool",
          "name": "stealth",
          "type": "bool"
        },
        {
          "internalType": "bool",
          "name": "poisonious",
          "type": "bool"
        }
      ],
      "stateMutability": "view",
      "type": "function"
    },
    {
      "inputs": [],
      "name": "ZombieChow",
      "outputs": [
        {
          "internalType": "uint256",
          "name": "health",
          "type": "uint256"
        },
        {
          "internalType": "uint256",
          "name": "attack",
          "type": "uint256"
        },
        {
          "internalType": "uint256",
          "name": "manaCost",
          "type": "uint256"
        },
        {
          "internalType": "uint256",
          "name": "id",
          "type": "uint256"
        },
        {
          "internalType": "string",
          "name": "name",
          "type": "string"
        },
        {
          "internalType": "string",
          "name": "description",
          "type": "string"
        },
        {
          "internalType": "bool",
          "name": "taunt",
          "type": "bool"
        },
        {
          "internalType": "bool",
          "name": "windfury",
          "type": "bool"
        },
        {
          "internalType": "bool",
          "name": "divineshield",
          "type": "bool"
        },
        {
          "internalType": "bool",
          "name": "stealth",
          "type": "bool"
        },
        {
          "internalType": "bool",
          "name": "poisonious",
          "type": "bool"
        }
      ],
      "stateMutability": "view",
      "type": "function"
    },
    {
      "inputs": [
        {
          "internalType": "uint256",
          "name": "id",
          "type": "uint256"
        }
      ],
      "name": "getCharacter",
      "outputs": [
        {
          "internalType": "uint256",
          "name": "",
          "type": "uint256"
        },
        {
          "internalType": "uint256",
          "name": "",
          "type": "uint256"
        },
        {
          "internalType": "uint256",
          "name": "",
          "type": "uint256"
        },
        {
          "internalType": "uint256",
          "name": "",
          "type": "uint256"
        },
        {
          "internalType": "string",
          "name": "",
          "type": "string"
        },
        {
          "internalType": "string",
          "name": "",
          "type": "string"
        },
        {
          "internalType": "bool",
          "name": "",
          "type": "bool"
        },
        {
          "internalType": "bool",
          "name": "",
          "type": "bool"
        },
        {
          "internalType": "bool",
          "name": "",
          "type": "bool"
        },
        {
          "internalType": "bool",
          "name": "",
          "type": "bool"
        },
        {
          "internalType": "bool",
          "name": "",
          "type": "bool"
        }
      ],
      "stateMutability": "view",
      "type": "function"
    }
  ],
  "bytecode": "0x60806040523462005704576200001462005709565b60018152600260208201526001604082015260016060820152620000376200572a565b60088152673232b332b73232b960c11b602082015260808201526200005b6200574a565b602581527f476976652061646a7573746564206d696e696f6e73202b312f2b3120616e64206020820152641d185d5b9d60da1b604082015260a0820152600060c0820152600060e08201526000610100820152600061012082015260006101408201528051600155602081015160025560408101516003556060810151600455608081015180519060018060401b03821162002912578190620001006005546200576a565b601f8111620056ae575b50602090601f83116001146200561f5760009262005613575b50508160011b916000199060031b1c1916176005555b60a08101518051906001600160401b038211620029125781906200015f6006546200576a565b601f8111620055b2575b50602090601f8311600114620055345760009262005528575b50508160011b916000199060031b1c1916176006555b60c081015115159063ff00000060075462ff000061ff0060e0850151151560081b1661010085015115159260ff64ff000000006101406101208901511515980151151560201b1697169064ffffffffff191617179160101b16179160181b1617176007556200020662005709565b60038152602081016003815260408201600381526060830190600282526200022d6200572a565b92600a845269666c657463686c696e6760b01b602085015260808501938452620002566200574a565b602681527f41667465722074686973206d696e6f6e2061747461636b732061206865726f2c602082015265081059185c1d60d21b604082015260a0860152600060c0860152600060e086015260006101008601526000610120860152600061014086015284516008555160095551600a5551600b555180519060018060401b03821162002912578190620002ec600c546200576a565b601f8111620054c7575b50602090601f831160011462005449576000926200543d575b50508160011b916000199060031b1c191617600c555b60a08101518051906001600160401b038211620029125781906200034b600d546200576a565b601f8111620053dc575b50602090601f83116001146200535e5760009262005352575b50508160011b916000199060031b1c191617600d555b60c0810151151590600e5461ff0060e0830151151560081b1662ff0000610100840151151560101b169160ff64ff0000000061014063ff000000610120880151151560181b16960151151560201b1695169064ffffffffff19161717171717600e55620003f062005709565b60058152600360208201526004604082015260036060820152620004136200572a565b60048152635965746960e01b6020820152608082015260405180602081011060018060401b036020830111176200291257602081016040526000815260a0820152600060c0820152600060e08201526000610100820152600061012082015260006101408201528051600f55602081015160105560408101516011556060810151601255608081015180519060018060401b03821162002912578190620004bc6013546200576a565b601f8111620052f1575b50602090601f8311600114620052735760009262005267575b50508160011b916000199060031b1c1916176013555b60a08101518051906001600160401b038211620029125781906200051b6014546200576a565b601f811162005206575b50602090601f831160011462005188576000926200517c575b50508160011b916000199060031b1c1916176014555b60c081015115159060155461ff0060e0830151151560081b1662ff0000610100840151151560101b169160ff64ff0000000061014063ff000000610120880151151560181b16960151151560201b1695169064ffffffffff19161717171717601555620005c062005709565b60038152600260208201526002604082015260046060820152620005e36200572a565b600581526429b1b930b160d91b60208201526080820152620006046200572a565b601981527f4465617468726174746c653a206761696e20322061726d6f7200000000000000602082015260a0820152600060c0820152600060e08201526000610100820152600061012082015260006101408201528051601655602081015160175560408101516018556060810151601955608081015180519060018060401b038211620029125781906200069b601a546200576a565b601f81116200511b575b50602090601f83116001146200509d5760009262005091575b50508160011b916000199060031b1c191617601a555b60a08101518051906001600160401b03821162002912578190620006fa601b546200576a565b601f811162005030575b50602090601f831160011462004fb25760009262004fa6575b50508160011b916000199060031b1c191617601b555b60c0810151151590601c5461ff0060e0830151151560081b1662ff0000610100840151151560101b169160ff64ff0000000061014063ff000000610120880151151560181b16960151151560201b1695169064ffffffffff19161717171717601c556200079f62005709565b600c815260208101600c81526040820160058152606083019060058252620007c66200572a565b926009845268446561746877696e6760b81b602085015260808501938452620007ee6200574a565b603a81527f426174746c656372793a2044657374726f7920616c6c206f74686572206d696e60208201527f696f6e7320616e64206469736361726420796f75722068616e64000000000000604082015260a0860152600060c0860152600060e08601526000610100860152600061012086015260006101408601528451601d5551601e5551601f55516020555180519060018060401b038211620029125781906200089b6021546200576a565b601f811162004f45575b50602090601f831160011462004ec75760009262004ebb575b50508160011b916000199060031b1c1916176021555b60a08101518051906001600160401b03821162002912578190620008fa6022546200576a565b601f811162004e5a575b50602090601f831160011462004ddc5760009262004dd0575b50508160011b916000199060031b1c1916176022555b60c081015115159060235461ff0060e0830151151560081b1662ff0000610100840151151560101b169160ff64ff0000000061014063ff000000610120880151151560181b16960151151560201b1695169064ffffffffff191617171717176023556200099f62005709565b60088152600460208201526007604082015260066060820152620009c26200572a565b600a815269696e76696e6369626c6560b01b6020820152608082015260405180608081011060018060401b03608083011117620029125760808101604052604f81527f5265626f726e2c426174746c6563727920616e64204465617468726174746c6560208201527f3a204769766520612072616e646f6d20667269656e646c79206d696e696f6e2060408201526e0acd4bcacd48185b990815185d5b9d608a1b606082015260a0820152600060c0820152600060e08201526000610100820152600061012082015260006101408201528051602455602081015160255560408101516026556060810151602755608081015180519060018060401b0382116200291257819062000ad56028546200576a565b601f811162004d6f575b50602090601f831160011462004cf15760009262004ce5575b50508160011b916000199060031b1c1916176028555b60a08101518051906001600160401b0382116200291257819062000b346029546200576a565b601f811162004c84575b50602090601f831160011462004c065760009262004bfa575b50508160011b916000199060031b1c1916176029555b60c0810151151590602a5461ff0060e0830151151560081b1662ff0000610100840151151560101b169160ff64ff0000000061014063ff000000610120880151151560181b16960151151560201b1695169064ffffffffff19161717171717602a5562000bd962005709565b600481526020810160028152604082016003815260608301906007825262000c006200572a565b926011845270109c9a585b88109c9bdb9e995099585c99607a1b60208501526080850193845262000c306200572a565b601c81527f596f757220626174746c65637279207472696767657220747769636500000000602082015260a0860152600060c0860152600060e08601526000610100860152600061012086015260006101408601528451602b5551602c5551602d5551602e555180519060018060401b0382116200291257819062000cb7602f546200576a565b601f811162004b99575b50602090601f831160011462004b1b5760009262004b0f575b50508160011b916000199060031b1c191617602f555b60a08101518051906001600160401b0382116200291257819062000d166030546200576a565b601f811162004aae575b50602090601f831160011462004a305760009262004a24575b50508160011b916000199060031b1c1916176030555b60c081015115159060315461ff0060e0830151151560081b1662ff0000610100840151151560101b169160ff64ff0000000061014063ff000000610120880151151560181b16960151151560201b1695169064ffffffffff1916171717171760315562000dbb62005709565b6002815260036020820152600260408201526008606082015262000dde6200572a565b600d81526c29b43934b735b6b2b4b9ba32b960991b6020820152608082015262000e076200572a565b601781527f476976652061206d696e696f6e202d322041747461636b000000000000000000602082015260a0820152600060c0820152600060e08201526000610100820152600061012082015260006101408201528051603255602081015160335560408101516034556060810151603555608081015180519060018060401b0382116200291257819062000e9e6036546200576a565b601f8111620049c3575b50602090601f8311600114620049455760009262004939575b50508160011b916000199060031b1c1916176036555b60a08101518051906001600160401b0382116200291257819062000efd6037546200576a565b601f8111620048d8575b50602090601f83116001146200485a576000926200484e575b50508160011b916000199060031b1c1916176037555b60c081015115159060385461ff0060e0830151151560081b1662ff0000610100840151151560101b169160ff64ff0000000061014063ff000000610120880151151560181b16960151151560201b1695169064ffffffffff1916171717171760385562000fa262005709565b600481526020810160018152604082016002815260608301906009825262000fc96200572a565b92600d84526c086e4c2f4cac840aee4cae8c6d609b1b60208501526080850193845262000ff56200574a565b602681527f486173202b322041747461636b20616e6420436861726765207768696c652064602082015265185b5859d95960d21b604082015260a0860152600060c0860152600060e0860152600061010086015260006101208601526000610140860152845160395551603a5551603b5551603c555180519060018060401b038211620029125781906200108b603d546200576a565b601f8111620047ed575b50602090601f83116001146200476f5760009262004763575b50508160011b916000199060031b1c191617603d555b60a08101518051906001600160401b03821162002912578190620010ea603e546200576a565b601f811162004702575b50602090601f8311600114620046845760009262004678575b50508160011b916000199060031b1c191617603e555b60c0810151151590603f5461ff0060e0830151151560081b1662ff0000610100840151151560101b169160ff64ff0000000061014063ff000000610120880151151560181b16960151151560201b1695169064ffffffffff19161717171717603f556200118f62005709565b600281526002602082015260026040820152600a6060820152620011b26200572a565b601081526f10dc985e995908105b18da195b5a5cdd60821b60208201526080820152620011de6200574a565b603181527f426174746c656372793a2053776170207468652041747461636b20616e64204860208201527032b0b63a341037b310309036b4b734b7b760791b604082015260a0820152600060c0820152600060e08201526000610100820152600061012082015260006101408201528051604055602081015160415560408101516042556060810151604355608081015180519060018060401b038211620029125781906200128f6044546200576a565b601f811162004617575b50602090601f831160011462004599576000926200458d575b50508160011b916000199060031b1c1916176044555b60a08101518051906001600160401b03821162002912578190620012ee6045546200576a565b601f81116200452c575b50602090601f8311600114620044ae57600092620044a2575b50508160011b916000199060031b1c1916176045555b60c081015115159060465461ff0060e0830151151560081b1662ff0000610100840151151560101b169160ff64ff0000000061014063ff000000610120880151151560181b16960151151560201b1695169064ffffffffff191617171717176046556200139362005709565b600381526002602082015260016040820152600b6060820152620013b66200572a565b600b81526a5a6f6d6269652043686f7760a81b60208201526080820152620013dd6200574a565b602f81527f4465617468726174746c653a20526573746f72652035204865616c746820746f60208201526e2074686520656e656d79204865726f60881b604082015260a0820152600060c0820152600060e08201526000610100820152600061012082015260006101408201528051604755602081015160485560408101516049556060810151604a55608081015180519060018060401b038211620029125781906200148c604b546200576a565b601f811162004441575b50602090601f8311600114620043c357600092620043b7575b50508160011b916000199060031b1c191617604b555b60a08101518051906001600160401b03821162002912578190620014eb604c546200576a565b601f811162004356575b50602090601f8311600114620042d857600092620042cc575b50508160011b916000199060031b1c191617604c555b60c0810151151590604d5461ff0060e0830151151560081b1662ff0000610100840151151560101b169160ff64ff0000000061014063ff000000610120880151151560181b16960151151560201b1695169064ffffffffff19161717171717604d556200159062005709565b60078152602081016007815260408201600881526060830190600c8252620015b76200572a565b92600584526411dc9d5d5b60da1b602085015260808501938452620015db6200574a565b602281527f61742074686520656e64206f662065616368207475726e206761696e202b312f6020820152612b3160f01b604082015260a0860152600060c0860152600060e08601526000610100860152600061012086015260006101408601528451604e5551604f5551605055516051555180519060018060401b038211620029125781906200166d6052546200576a565b601f81116200426b575b50602090601f8311600114620041ed57600092620041e1575b50508160011b916000199060031b1c1916176052555b60a08101518051906001600160401b03821162002912578190620016cc6053546200576a565b601f811162004180575b50602090601f83116001146200410257600092620040f6575b50508160011b916000199060031b1c1916176053555b60c081015115159060545461ff0060e0830151151560081b1662ff0000610100840151151560101b169160ff64ff0000000061014063ff000000610120880151151560181b16960151151560201b1695169064ffffffffff191617171717176054556200177162005709565b600281526002602082015260036040820152600d6060820152620017946200572a565b600f81526e0a6e0c2eedc40decc409c4eb4dee8d608b1b60208201526080820152620017bf6200574a565b602481527f4465617468726174746c653a206769766520796f7572206d696e696f6e73202b602082015263312f2b3160e01b604082015260a0820152600060c0820152600060e08201526000610100820152600061012082015260006101408201528051605555602081015160565560408101516057556060810151605855608081015180519060018060401b03821162002912578190620018636059546200576a565b601f811162004095575b50602090601f831160011462004017576000926200400b575b50508160011b916000199060031b1c1916176059555b60a08101518051906001600160401b03821162002912578190620018c2605a546200576a565b601f811162003faa575b50602090601f831160011462003f2c5760009262003f20575b50508160011b916000199060031b1c191617605a555b60c0810151151590605b5461ff0060e0830151151560081b1662ff0000610100840151151560101b169160ff64ff0000000061014063ff000000610120880151151560181b16960151151560201b1695169064ffffffffff19161717171717605b556200196762005709565b60018152602081016002815260408201600181526060830190600e82526200198e6200572a565b92600b84526a4c6570657220476e6f6d6560a81b602085015260808501938452620019b86200574a565b602c81527f4465617468726174746c653a204465616c20322064616d61676520746f20746860208201526b6520656e656d79206865726f60a01b604082015260a0860152600060c0860152600060e08601526000610100860152600061012086015260006101408601528451605c5551605d5551605e5551605f555180519060018060401b0382116200291257819062001a546060546200576a565b601f811162003ebf575b50602090601f831160011462003e415760009262003e35575b50508160011b916000199060031b1c1916176060555b60a08101518051906001600160401b0382116200291257819062001ab36061546200576a565b601f811162003dd4575b50602090601f831160011462003d565760009262003d4a575b50508160011b916000199060031b1c1916176061555b60c081015115159060625461ff0060e0830151151560081b1662ff0000610100840151151560101b169160ff64ff0000000061014063ff000000610120880151151560181b16960151151560201b1695169064ffffffffff1916171717171760625562001b5862005709565b600881526008602082015260086040820152600f606082015262001b7b6200572a565b600f81526e2232b930b733b2b2102237b1ba37b960891b6020820152608082015262001ba66200574a565b602a81527f4465617468726174746c653a20526573746f72652038206865616c746820746f60208201526920796f7572206865726f60b01b604082015260a0820152600060c0820152600060e08201526000610100820152600061012082015260006101408201528051606355602081015160645560408101516065556060810151606655608081015180519060018060401b0382116200291257819062001c506067546200576a565b601f811162003ce9575b50602090601f831160011462003c6b5760009262003c5f575b50508160011b916000199060031b1c1916176067555b60a08101518051906001600160401b0382116200291257819062001caf6068546200576a565b601f811162003bfe575b50602090601f831160011462003b805760009262003b74575b50508160011b916000199060031b1c1916176068555b60c081015115159060695461ff0060e0830151151560081b1662ff0000610100840151151560101b169160ff64ff0000000061014063ff000000610120880151151560181b16960151151560201b1695169064ffffffffff1916171717171760695562001d5462005709565b600281526020810160028152604082016001815260608301906010825262001d7b6200572a565b92601484527f4d69737472657373206f66204d6978747572657300000000000000000000000060208501526080850193845262001db76200574a565b602981527f4465617468726174746c653a20526573746f72652034206865616c7420746f2060208201526865616368206865726f60b81b604082015260a0860152600060c0860152600060e08601526000610100860152600061012086015260006101408601528451606a5551606b5551606c5551606d555180519060018060401b0382116200291257819062001e50606e546200576a565b601f811162003b13575b50602090601f831160011462003a955760009262003a89575b50508160011b916000199060031b1c191617606e555b60a08101518051906001600160401b0382116200291257819062001eaf606f546200576a565b601f811162003a28575b50602090601f8311600114620039aa576000926200399e575b50508160011b916000199060031b1c191617606f555b60c081015115159060705461ff0060e0830151151560081b1662ff0000610100840151151560101b169160ff64ff0000000061014063ff000000610120880151151560181b16960151151560201b1695169064ffffffffff1916171717171760705562001f5462005709565b6003815260036020820152600360408201526011606082015262001f776200572a565b600f81526e49726f6e667572204772697a7a6c7960881b6020820152608082015262001fa26200572a565b60058152641d185d5b9d60da1b602082015260a0820152600160c0820152600060e08201526000610100820152600061012082015260006101408201528051607155602081015160725560408101516073556060810151607455608081015180519060018060401b03821162002912578190620020216075546200576a565b601f81116200393d575b50602090601f8311600114620038bf57600092620038b3575b50508160011b916000199060031b1c1916176075555b60a08101518051906001600160401b03821162002912578190620020806076546200576a565b601f811162003852575b50602090601f8311600114620037d457600092620037c8575b50508160011b916000199060031b1c1916176076555b60c081015115159060775461ff0060e0830151151560081b1662ff0000610100840151151560101b169160ff64ff0000000061014063ff000000610120880151151560181b16960151151560201b1695169064ffffffffff191617171717176077556000546801000000000000000081101562002912576001810180600055811015620028fc5760008052600702600080516020620097518339815191528101907f290decd9548b62a8d60345a988386fc84ba6bc95484008f6362f93160ef3e56201620036de575b506000546801000000000000000081101562002912576001810180600055811015620028fc5760008052600702600080516020620097518339815191528101907f290decd9548b62a8d60345a988386fc84ba6bc95484008f6362f93160ef3e55b01620035f4575b506000546801000000000000000081101562002912576001810180600055811015620028fc5760008052600702600080516020620097518339815191528101907f290decd9548b62a8d60345a988386fc84ba6bc95484008f6362f93160ef3e554016200350a575b506000546801000000000000000081101562002912576001810180600055811015620028fc5760008052600702600080516020620097518339815191528101907f290decd9548b62a8d60345a988386fc84ba6bc95484008f6362f93160ef3e54d0162003420575b506000546801000000000000000081101562002912576001810180600055811015620028fc5760008052600702600080516020620097518339815191528101907f290decd9548b62a8d60345a988386fc84ba6bc95484008f6362f93160ef3e5460162003336575b506000546801000000000000000081101562002912576001810180600055811015620028fc5760008052600702600080516020620097518339815191528101907f290decd9548b62a8d60345a988386fc84ba6bc95484008f6362f93160ef3e53f016200324c575b506000546801000000000000000081101562002912576001810180600055811015620028fc5760008052600702600080516020620097518339815191528101907f290decd9548b62a8d60345a988386fc84ba6bc95484008f6362f93160ef3e5380162003162575b506000546801000000000000000081101562002912576001810180600055811015620028fc5760008052600702600080516020620097518339815191528101907f290decd9548b62a8d60345a988386fc84ba6bc95484008f6362f93160ef3e5310162003078575b506000546801000000000000000081101562002912576001810180600055811015620028fc5760008052600702600080516020620097518339815191528101907f290decd9548b62a8d60345a988386fc84ba6bc95484008f6362f93160ef3e52a0162002f8e575b506000546801000000000000000081101562002912576001810180600055811015620028fc5760008052600702600080516020620097518339815191528101907f290decd9548b62a8d60345a988386fc84ba6bc95484008f6362f93160ef3e5230162002ea4575b506000546801000000000000000081101562002912576001810180600055811015620028fc5760008052600702600080516020620097518339815191528101907f290decd9548b62a8d60345a988386fc84ba6bc95484008f6362f93160ef3e51c0162002dba575b506000546801000000000000000081101562002912576001810180600055811015620028fc5760008052600702600080516020620097518339815191528101907f290decd9548b62a8d60345a988386fc84ba6bc95484008f6362f93160ef3e5150162002cd0575b506000546801000000000000000081101562002912576001810180600055811015620028fc5760008052600702600080516020620097518339815191528101907f290decd9548b62a8d60345a988386fc84ba6bc95484008f6362f93160ef3e50e0162002be6575b506000546801000000000000000081101562002912576001810180600055811015620028fc5760008052600702600080516020620097518339815191528101907f290decd9548b62a8d60345a988386fc84ba6bc95484008f6362f93160ef3e5070162002afc575b506000546801000000000000000081101562002912576001810180600055811015620028fc5760008052600702600080516020620097518339815191528101907f290decd9548b62a8d60345a988386fc84ba6bc95484008f6362f93160ef3e5000162002a12575b506000546801000000000000000081101562002912576001810180600055811015620028fc5760008052600702600080516020620097518339815191528101907f290decd9548b62a8d60345a988386fc84ba6bc95484008f6362f93160ef3e4f90162002928575b506000546801000000000000000081101562002912576001810180600055811015620028fc5760008052600702600080516020620097518339815191528101907f290decd9548b62a8d60345a988386fc84ba6bc95484008f6362f93160ef3e4f20162002812575b6040516117ff908162007e528239f35b6006620028f5916071548155607254600182015560735460028201556074546003820155620028446004820162007c0d565b620028526005820162007d2f565b016200286f60ff60775416829060ff801983541691151516179055565b607754815461ff001916600891821c60ff16151590911b61ff0016178155607754815462ff00001916601091821c60ff16151590911b62ff000016178155607754815463ff0000001916601891821c60ff16151590911b63ff0000001617815560ff60775460201c1664ff00000000825491151560201b169064ff000000001916179055565b3862002802565b634e487b7160e01b600052603260045260246000fd5b634e487b7160e01b600052604160045260246000fd5b600662002a0b91606a548155606b546001820155606c546002820155606d5460038201556200295a60048201620079c9565b620029686005820162007aeb565b016200298560ff60705416829060ff801983541691151516179055565b607054815461ff001916600891821c60ff16151590911b61ff0016178155607054815462ff00001916601091821c60ff16151590911b62ff000016178155607054815463ff0000001916601891821c60ff16151590911b63ff0000001617815560ff60705460201c1664ff00000000825491151560201b169064ff000000001916179055565b386200279a565b600662002af591606354815560645460018201556065546002820155606654600382015562002a446004820162007785565b62002a5260058201620078a7565b0162002a6f60ff60695416829060ff801983541691151516179055565b606954815461ff001916600891821c60ff16151590911b61ff0016178155606954815462ff00001916601091821c60ff16151590911b62ff000016178155606954815463ff0000001916601891821c60ff16151590911b63ff0000001617815560ff60695460201c1664ff00000000825491151560201b169064ff000000001916179055565b3862002732565b600662002bdf91605c548155605d546001820155605e546002820155605f54600382015562002b2e6004820162007541565b62002b3c6005820162007663565b0162002b5960ff60625416829060ff801983541691151516179055565b606254815461ff001916600891821c60ff16151590911b61ff0016178155606254815462ff00001916601091821c60ff16151590911b62ff000016178155606254815463ff0000001916601891821c60ff16151590911b63ff0000001617815560ff60625460201c1664ff00000000825491151560201b169064ff000000001916179055565b38620026ca565b600662002cc991605554815560565460018201556057546002820155605854600382015562002c1860048201620072fd565b62002c26600582016200741f565b0162002c4360ff605b5416829060ff801983541691151516179055565b605b54815461ff001916600891821c60ff16151590911b61ff0016178155605b54815462ff00001916601091821c60ff16151590911b62ff000016178155605b54815463ff0000001916601891821c60ff16151590911b63ff0000001617815560ff605b5460201c1664ff00000000825491151560201b169064ff000000001916179055565b3862002662565b600662002db391604e548155604f5460018201556050546002820155605154600382015562002d0260048201620070b9565b62002d1060058201620071db565b0162002d2d60ff60545416829060ff801983541691151516179055565b605454815461ff001916600891821c60ff16151590911b61ff0016178155605454815462ff00001916601091821c60ff16151590911b62ff000016178155605454815463ff0000001916601891821c60ff16151590911b63ff0000001617815560ff60545460201c1664ff00000000825491151560201b169064ff000000001916179055565b38620025fa565b600662002e9d91604754815560485460018201556049546002820155604a54600382015562002dec6004820162006e75565b62002dfa6005820162006f97565b0162002e1760ff604d5416829060ff801983541691151516179055565b604d54815461ff001916600891821c60ff16151590911b61ff0016178155604d54815462ff00001916601091821c60ff16151590911b62ff000016178155604d54815463ff0000001916601891821c60ff16151590911b63ff0000001617815560ff604d5460201c1664ff00000000825491151560201b169064ff000000001916179055565b3862002592565b600662002f8791604054815560415460018201556042546002820155604354600382015562002ed66004820162006c31565b62002ee46005820162006d53565b0162002f0160ff60465416829060ff801983541691151516179055565b604654815461ff001916600891821c60ff16151590911b61ff0016178155604654815462ff00001916601091821c60ff16151590911b62ff000016178155604654815463ff0000001916601891821c60ff16151590911b63ff0000001617815560ff60465460201c1664ff00000000825491151560201b169064ff000000001916179055565b386200252a565b600662003071916039548155603a546001820155603b546002820155603c54600382015562002fc060048201620069ed565b62002fce6005820162006b0f565b0162002feb60ff603f5416829060ff801983541691151516179055565b603f54815461ff001916600891821c60ff16151590911b61ff0016178155603f54815462ff00001916601091821c60ff16151590911b62ff000016178155603f54815463ff0000001916601891821c60ff16151590911b63ff0000001617815560ff603f5460201c1664ff00000000825491151560201b169064ff000000001916179055565b38620024c2565b60066200315b916032548155603354600182015560345460028201556035546003820155620030aa60048201620067a9565b620030b860058201620068cb565b01620030d560ff60385416829060ff801983541691151516179055565b603854815461ff001916600891821c60ff16151590911b61ff0016178155603854815462ff00001916601091821c60ff16151590911b62ff000016178155603854815463ff0000001916601891821c60ff16151590911b63ff0000001617815560ff60385460201c1664ff00000000825491151560201b169064ff000000001916179055565b386200245a565b60066200324591602b548155602c546001820155602d546002820155602e546003820155620031946004820162006565565b620031a26005820162006687565b01620031bf60ff60315416829060ff801983541691151516179055565b603154815461ff001916600891821c60ff16151590911b61ff0016178155603154815462ff00001916601091821c60ff16151590911b62ff000016178155603154815463ff0000001916601891821c60ff16151590911b63ff0000001617815560ff60315460201c1664ff00000000825491151560201b169064ff000000001916179055565b38620023f2565b60066200332f9160245481556025546001820155602654600282015560275460038201556200327e6004820162006321565b6200328c6005820162006443565b01620032a960ff602a5416829060ff801983541691151516179055565b602a54815461ff001916600891821c60ff16151590911b61ff0016178155602a54815462ff00001916601091821c60ff16151590911b62ff000016178155602a54815463ff0000001916601891821c60ff16151590911b63ff0000001617815560ff602a5460201c1664ff00000000825491151560201b169064ff000000001916179055565b386200238a565b60066200341991601d548155601e546001820155601f54600282015560205460038201556200336860048201620060dd565b6200337660058201620061ff565b016200339360ff60235416829060ff801983541691151516179055565b602354815461ff001916600891821c60ff16151590911b61ff0016178155602354815462ff00001916601091821c60ff16151590911b62ff000016178155602354815463ff0000001916601891821c60ff16151590911b63ff0000001617815560ff60235460201c1664ff00000000825491151560201b169064ff000000001916179055565b3862002322565b600662003503916016548155601754600182015560185460028201556019546003820155620034526004820162005e99565b620034606005820162005fbb565b016200347d60ff601c5416829060ff801983541691151516179055565b601c54815461ff001916600891821c60ff16151590911b61ff0016178155601c54815462ff00001916601091821c60ff16151590911b62ff000016178155601c54815463ff0000001916601891821c60ff16151590911b63ff0000001617815560ff601c5460201c1664ff00000000825491151560201b169064ff000000001916179055565b38620022ba565b6006620035ed91600f5481556010546001820155601154600282015560125460038201556200353c6004820162005c55565b6200354a6005820162005d77565b016200356760ff60155416829060ff801983541691151516179055565b601554815461ff001916600891821c60ff16151590911b61ff0016178155601554815462ff00001916601091821c60ff16151590911b62ff000016178155601554815463ff0000001916601891821c60ff16151590911b63ff0000001617815560ff60155460201c1664ff00000000825491151560201b169064ff000000001916179055565b3862002252565b6006620036d79160085481556009546001820155600a546002820155600b546003820155620036266004820162005a11565b620036346005820162005b33565b016200365160ff600e5416829060ff801983541691151516179055565b600e54815461ff001916600891821c60ff16151590911b61ff0016178155600e54815462ff00001916601091821c60ff16151590911b62ff000016178155600e54815463ff0000001916601891821c60ff16151590911b63ff0000001617815560ff600e5460201c1664ff00000000825491151560201b169064ff000000001916179055565b38620021ea565b6006620037c19160015481556002546001820155600354600282015560045460038201556200371060048201620057a7565b6200371e60058201620058eb565b016200373b60ff60075416829060ff801983541691151516179055565b600754815461ff001916600891821c60ff16151590911b61ff0016178155600754815462ff00001916601091821c60ff16151590911b62ff000016178155600754815463ff0000001916601891821c60ff16151590911b63ff0000001617815560ff60075460201c1664ff00000000825491151560201b169064ff000000001916179055565b3862002182565b015190503880620020a3565b6076600090815293506000805160206200973183398151915291905b601f198416851062003836576001945083601f198116106200381c575b505050811b01607655620020b9565b015160001960f88460031b161c191690553880806200380d565b81810151835560209485019460019093019290910190620037f0565b607660005290915060008051602062009731833981519152601f840160051c810160208510620038ab575b90849392915b601f830160051c820181106200389b5750506200208a565b6000815585945060010162003883565b50806200387d565b01519050388062002044565b6075600090815293506000805160206200991183398151915291905b601f198416851062003921576001945083601f1981161062003907575b505050811b016075556200205a565b015160001960f88460031b161c19169055388080620038f8565b81810151835560209485019460019093019290910190620038db565b607560005290915060008051602062009911833981519152601f840160051c81016020851062003996575b90849392915b601f830160051c82018110620039865750506200202b565b600081558594506001016200396e565b508062003968565b01519050388062001ed2565b606f600090815293506000805160206200997183398151915291905b601f198416851062003a0c576001945083601f19811610620039f2575b505050811b01606f5562001ee8565b015160001960f88460031b161c19169055388080620039e3565b81810151835560209485019460019093019290910190620039c6565b606f60005290915060008051602062009971833981519152601f840160051c81016020851062003a81575b90849392915b601f830160051c8201811062003a7157505062001eb9565b6000815585945060010162003a59565b508062003a53565b01519050388062001e73565b606e60009081529350600080516020620096b183398151915291905b601f198416851062003af7576001945083601f1981161062003add575b505050811b01606e5562001e89565b015160001960f88460031b161c1916905538808062003ace565b8181015183556020948501946001909301929091019062003ab1565b606e600052909150600080516020620096b1833981519152601f840160051c81016020851062003b6c575b90849392915b601f830160051c8201811062003b5c57505062001e5a565b6000815585945060010162003b44565b508062003b3e565b01519050388062001cd2565b606860009081529350600080516020620098f183398151915291905b601f198416851062003be2576001945083601f1981161062003bc8575b505050811b0160685562001ce8565b015160001960f88460031b161c1916905538808062003bb9565b8181015183556020948501946001909301929091019062003b9c565b6068600052909150600080516020620098f1833981519152601f840160051c81016020851062003c57575b90849392915b601f830160051c8201811062003c4757505062001cb9565b6000815585945060010162003c2f565b508062003c29565b01519050388062001c73565b6067600090815293506000805160206200985183398151915291905b601f198416851062003ccd576001945083601f1981161062003cb3575b505050811b0160675562001c89565b015160001960f88460031b161c1916905538808062003ca4565b8181015183556020948501946001909301929091019062003c87565b606760005290915060008051602062009851833981519152601f840160051c81016020851062003d42575b90849392915b601f830160051c8201811062003d3257505062001c5a565b6000815585945060010162003d1a565b508062003d14565b01519050388062001ad6565b60616000908152935060008051602062009a1183398151915291905b601f198416851062003db8576001945083601f1981161062003d9e575b505050811b0160615562001aec565b015160001960f88460031b161c1916905538808062003d8f565b8181015183556020948501946001909301929091019062003d72565b606160005290915060008051602062009a11833981519152601f840160051c81016020851062003e2d575b90849392915b601f830160051c8201811062003e1d57505062001abd565b6000815585945060010162003e05565b508062003dff565b01519050388062001a77565b606060009081529350600080516020620098b183398151915291905b601f198416851062003ea3576001945083601f1981161062003e89575b505050811b0160605562001a8d565b015160001960f88460031b161c1916905538808062003e7a565b8181015183556020948501946001909301929091019062003e5d565b6060600052909150600080516020620098b1833981519152601f840160051c81016020851062003f18575b90849392915b601f830160051c8201811062003f0857505062001a5e565b6000815585945060010162003ef0565b508062003eea565b015190503880620018e5565b605a600090815293506000805160206200967183398151915291905b601f198416851062003f8e576001945083601f1981161062003f74575b505050811b01605a55620018fb565b015160001960f88460031b161c1916905538808062003f65565b8181015183556020948501946001909301929091019062003f48565b605a60005290915060008051602062009671833981519152601f840160051c81016020851062004003575b90849392915b601f830160051c8201811062003ff3575050620018cc565b6000815585945060010162003fdb565b508062003fd5565b01519050388062001886565b605960009081529350600080516020620099f183398151915291905b601f198416851062004079576001945083601f198116106200405f575b505050811b016059556200189c565b015160001960f88460031b161c1916905538808062004050565b8181015183556020948501946001909301929091019062004033565b6059600052909150600080516020620099f1833981519152601f840160051c810160208510620040ee575b90849392915b601f830160051c82018110620040de5750506200186d565b60008155859450600101620040c6565b5080620040c0565b015190503880620016ef565b605360009081529350600080516020620096d183398151915291905b601f198416851062004164576001945083601f198116106200414a575b505050811b0160535562001705565b015160001960f88460031b161c191690553880806200413b565b818101518355602094850194600190930192909101906200411e565b6053600052909150600080516020620096d1833981519152601f840160051c810160208510620041d9575b90849392915b601f830160051c82018110620041c9575050620016d6565b60008155859450600101620041b1565b5080620041ab565b01519050388062001690565b6052600090815293506000805160206200965183398151915291905b601f19841685106200424f576001945083601f1981161062004235575b505050811b01605255620016a6565b015160001960f88460031b161c1916905538808062004226565b8181015183556020948501946001909301929091019062004209565b605260005290915060008051602062009651833981519152601f840160051c810160208510620042c4575b90849392915b601f830160051c82018110620042b457505062001677565b600081558594506001016200429c565b508062004296565b0151905038806200150e565b604c600090815293506000805160206200979183398151915291905b601f19841685106200433a576001945083601f1981161062004320575b505050811b01604c5562001524565b015160001960f88460031b161c1916905538808062004311565b81810151835560209485019460019093019290910190620042f4565b604c60005290915060008051602062009791833981519152601f840160051c810160208510620043af575b90849392915b601f830160051c820181106200439f575050620014f5565b6000815585945060010162004387565b508062004381565b015190503880620014af565b604b6000908152935060008051602062009a5183398151915291905b601f198416851062004425576001945083601f198116106200440b575b505050811b01604b55620014c5565b015160001960f88460031b161c19169055388080620043fc565b81810151835560209485019460019093019290910190620043df565b604b60005290915060008051602062009a51833981519152601f840160051c8101602085106200449a575b90849392915b601f830160051c820181106200448a57505062001496565b6000815585945060010162004472565b50806200446c565b01519050388062001311565b6045600090815293506000805160206200981183398151915291905b601f198416851062004510576001945083601f19811610620044f6575b505050811b0160455562001327565b015160001960f88460031b161c19169055388080620044e7565b81810151835560209485019460019093019290910190620044ca565b604560005290915060008051602062009811833981519152601f840160051c81016020851062004585575b90849392915b601f830160051c8201811062004575575050620012f8565b600081558594506001016200455d565b508062004557565b015190503880620012b2565b604460009081529350600080516020620097d183398151915291905b601f1984168510620045fb576001945083601f19811610620045e1575b505050811b01604455620012c8565b015160001960f88460031b161c19169055388080620045d2565b81810151835560209485019460019093019290910190620045b5565b6044600052909150600080516020620097d1833981519152601f840160051c81016020851062004670575b90849392915b601f830160051c820181106200466057505062001299565b6000815585945060010162004648565b508062004642565b0151905038806200110d565b603e600090815293506000805160206200999183398151915291905b601f1984168510620046e6576001945083601f19811610620046cc575b505050811b01603e5562001123565b015160001960f88460031b161c19169055388080620046bd565b81810151835560209485019460019093019290910190620046a0565b603e60005290915060008051602062009991833981519152601f840160051c8101602085106200475b575b90849392915b601f830160051c820181106200474b575050620010f4565b6000815585945060010162004733565b50806200472d565b015190503880620010ae565b603d6000908152935060008051602062009a3183398151915291905b601f1984168510620047d1576001945083601f19811610620047b7575b505050811b01603d55620010c4565b015160001960f88460031b161c19169055388080620047a8565b818101518355602094850194600190930192909101906200478b565b603d60005290915060008051602062009a31833981519152601f840160051c81016020851062004846575b90849392915b601f830160051c820181106200483657505062001095565b600081558594506001016200481e565b508062004818565b01519050388062000f20565b603760009081529350600080516020620099b183398151915291905b601f1984168510620048bc576001945083601f19811610620048a2575b505050811b0160375562000f36565b015160001960f88460031b161c1916905538808062004893565b8181015183556020948501946001909301929091019062004876565b6037600052909150600080516020620099b1833981519152601f840160051c81016020851062004931575b90849392915b601f830160051c820181106200492157505062000f07565b6000815585945060010162004909565b508062004903565b01519050388062000ec1565b6036600090815293506000805160206200971183398151915291905b601f1984168510620049a7576001945083601f198116106200498d575b505050811b0160365562000ed7565b015160001960f88460031b161c191690553880806200497e565b8181015183556020948501946001909301929091019062004961565b603660005290915060008051602062009711833981519152601f840160051c81016020851062004a1c575b90849392915b601f830160051c8201811062004a0c57505062000ea8565b60008155859450600101620049f4565b5080620049ee565b01519050388062000d39565b6030600090815293506000805160206200995183398151915291905b601f198416851062004a92576001945083601f1981161062004a78575b505050811b0160305562000d4f565b015160001960f88460031b161c1916905538808062004a69565b8181015183556020948501946001909301929091019062004a4c565b603060005290915060008051602062009951833981519152601f840160051c81016020851062004b07575b90849392915b601f830160051c8201811062004af757505062000d20565b6000815585945060010162004adf565b508062004ad9565b01519050388062000cda565b602f600090815293506000805160206200969183398151915291905b601f198416851062004b7d576001945083601f1981161062004b63575b505050811b01602f5562000cf0565b015160001960f88460031b161c1916905538808062004b54565b8181015183556020948501946001909301929091019062004b37565b602f60005290915060008051602062009691833981519152601f840160051c81016020851062004bf2575b90849392915b601f830160051c8201811062004be257505062000cc1565b6000815585945060010162004bca565b508062004bc4565b01519050388062000b57565b6029600090815293506000805160206200989183398151915291905b601f198416851062004c68576001945083601f1981161062004c4e575b505050811b0160295562000b6d565b015160001960f88460031b161c1916905538808062004c3f565b8181015183556020948501946001909301929091019062004c22565b602960005290915060008051602062009891833981519152601f840160051c81016020851062004cdd575b90849392915b601f830160051c8201811062004ccd57505062000b3e565b6000815585945060010162004cb5565b508062004caf565b01519050388062000af8565b60286000908152935060008051602062009a7183398151915291905b601f198416851062004d53576001945083601f1981161062004d39575b505050811b0160285562000b0e565b015160001960f88460031b161c1916905538808062004d2a565b8181015183556020948501946001909301929091019062004d0d565b602860005290915060008051602062009a71833981519152601f840160051c81016020851062004dc8575b90849392915b601f830160051c8201811062004db857505062000adf565b6000815585945060010162004da0565b508062004d9a565b0151905038806200091d565b6022600090815293506000805160206200977183398151915291905b601f198416851062004e3e576001945083601f1981161062004e24575b505050811b0160225562000933565b015160001960f88460031b161c1916905538808062004e15565b8181015183556020948501946001909301929091019062004df8565b602260005290915060008051602062009771833981519152601f840160051c81016020851062004eb3575b90849392915b601f830160051c8201811062004ea357505062000904565b6000815585945060010162004e8b565b508062004e85565b015190503880620008be565b6021600090815293506000805160206200987183398151915291905b601f198416851062004f29576001945083601f1981161062004f0f575b505050811b01602155620008d4565b015160001960f88460031b161c1916905538808062004f00565b8181015183556020948501946001909301929091019062004ee3565b602160005290915060008051602062009871833981519152601f840160051c81016020851062004f9e575b90849392915b601f830160051c8201811062004f8e575050620008a5565b6000815585945060010162004f76565b508062004f70565b0151905038806200071d565b601b60009081529350600080516020620097b183398151915291905b601f198416851062005014576001945083601f1981161062004ffa575b505050811b01601b5562000733565b015160001960f88460031b161c1916905538808062004feb565b8181015183556020948501946001909301929091019062004fce565b601b600052909150600080516020620097b1833981519152601f840160051c81016020851062005089575b90849392915b601f830160051c820181106200507957505062000704565b6000815585945060010162005061565b50806200505b565b015190503880620006be565b601a60009081529350600080516020620098d183398151915291905b601f1984168510620050ff576001945083601f19811610620050e5575b505050811b01601a55620006d4565b015160001960f88460031b161c19169055388080620050d6565b81810151835560209485019460019093019290910190620050b9565b601a600052909150600080516020620098d1833981519152601f840160051c81016020851062005174575b90849392915b601f830160051c8201811062005164575050620006a5565b600081558594506001016200514c565b508062005146565b0151905038806200053e565b601460009081529350600080516020620099d183398151915291905b601f1984168510620051ea576001945083601f19811610620051d0575b505050811b0160145562000554565b015160001960f88460031b161c19169055388080620051c1565b81810151835560209485019460019093019290910190620051a4565b6014600052909150600080516020620099d1833981519152601f840160051c8101602085106200525f575b90849392915b601f830160051c820181106200524f57505062000525565b6000815585945060010162005237565b508062005231565b015190503880620004df565b6013600090815293506000805160206200983183398151915291905b601f1984168510620052d5576001945083601f19811610620052bb575b505050811b01601355620004f5565b015160001960f88460031b161c19169055388080620052ac565b818101518355602094850194600190930192909101906200528f565b601360005290915060008051602062009831833981519152601f840160051c8101602085106200534a575b90849392915b601f830160051c820181106200533a575050620004c6565b6000815585945060010162005322565b50806200531c565b0151905038806200036e565b600d60009081529350600080516020620097f183398151915291905b601f1984168510620053c0576001945083601f19811610620053a6575b505050811b01600d5562000384565b015160001960f88460031b161c1916905538808062005397565b818101518355602094850194600190930192909101906200537a565b600d600052909150600080516020620097f1833981519152601f840160051c81016020851062005435575b90849392915b601f830160051c820181106200542557505062000355565b600081558594506001016200540d565b508062005407565b0151905038806200030f565b600c60009081529350600080516020620096f183398151915291905b601f1984168510620054ab576001945083601f1981161062005491575b505050811b01600c5562000325565b015160001960f88460031b161c1916905538808062005482565b8181015183556020948501946001909301929091019062005465565b600c600052909150600080516020620096f1833981519152601f840160051c81016020851062005520575b90849392915b601f830160051c8201811062005510575050620002f6565b60008155859450600101620054f8565b5080620054f2565b01519050388062000182565b6006600090815293506000805160206200993183398151915291905b601f198416851062005596576001945083601f198116106200557c575b505050811b0160065562000198565b015160001960f88460031b161c191690553880806200556d565b8181015183556020948501946001909301929091019062005550565b600660005290915060008051602062009931833981519152601f840160051c8101602085106200560b575b90849392915b601f830160051c82018110620055fb57505062000169565b60008155859450600101620055e3565b5080620055dd565b01519050388062000123565b6005600090815293507f036b6384b5eca791c62761152d0c79bb0604c104a5fb6f4eb0703f3154bb3db091905b601f198416851062005692576001945083601f1981161062005678575b505050811b0160055562000139565b015160001960f88460031b161c1916905538808062005669565b818101518355602094850194600190930192909101906200564c565b90915060056000526020600020601f840160051c810160208510620056fc575b90849392915b601f830160051c82018110620056ec5750506200010a565b60008155859450600101620056d4565b5080620056ce565b600080fd5b6040519061016082016001600160401b038111838210176200291257604052565b60408051919082016001600160401b038111838210176200291257604052565b60405190606082016001600160401b038111838210176200291257604052565b90600182811c921680156200579c575b60208310146200578657565b634e487b7160e01b600052602260045260246000fd5b91607f16916200577a565b6005808214620058e757620057bd81546200576a565b906001600160401b03821162002912578190620057db84546200576a565b601f811162005890575b50600090601f8311600114620058205760009262005814575b50508160011b916000199060031b1c1916179055565b015490503880620057fe565b81526020808220858352818320935090601f1985169083905b828210620058765750509084600195949392106200585c575b505050811b019055565b015460001960f88460031b161c1916905538808062005852565b849581929585015481556001809101960194019062005839565b909150600084815260208120601f8501841c81019260208610620058dc575b90601f869594939201841c01915b828110620058cd575050620057e5565b818155859450600101620058bd565b9092508290620058af565b5050565b6006811462005a0e57620059016006546200576a565b6001600160401b03811162002912576200591c82546200576a565b601f8111620059c1575b50806000601f8211600114620059615760009162005954575b508160011b916000199060031b1c1916179055565b905060060154386200593f565b838152602080822092506000805160206200993183398151915290601f1985169083905b828210620059a75750509084600195949392106200585c57505050811b019055565b849581929585015481556001809101960194019062005985565b600083815260208120601f840160051c8101926020851062005a03575b601f0160051c01915b828110620059f757505062005926565b818155600101620059e7565b9092508290620059de565b50565b600c811462005a0e5762005a27600c546200576a565b6001600160401b038111620029125762005a4282546200576a565b601f811162005ae6575b50806000601f821160011462005a865760009162005a7957508160011b916000199060031b1c1916179055565b9050600c0154386200593f565b83815260208082209250600080516020620096f183398151915290601f1985169083905b82821062005acc5750509084600195949392106200585c57505050811b019055565b849581929585015481556001809101960194019062005aaa565b600083815260208120601f840160051c8101926020851062005b28575b601f0160051c01915b82811062005b1c57505062005a4c565b81815560010162005b0c565b909250829062005b03565b600d811462005a0e5762005b49600d546200576a565b6001600160401b038111620029125762005b6482546200576a565b601f811162005c08575b50806000601f821160011462005ba85760009162005b9b57508160011b916000199060031b1c1916179055565b9050600d0154386200593f565b83815260208082209250600080516020620097f183398151915290601f1985169083905b82821062005bee5750509084600195949392106200585c57505050811b019055565b849581929585015481556001809101960194019062005bcc565b600083815260208120601f840160051c8101926020851062005c4a575b601f0160051c01915b82811062005c3e57505062005b6e565b81815560010162005c2e565b909250829062005c25565b6013811462005a0e5762005c6b6013546200576a565b6001600160401b038111620029125762005c8682546200576a565b601f811162005d2a575b50806000601f821160011462005cca5760009162005cbd57508160011b916000199060031b1c1916179055565b905060130154386200593f565b838152602080822092506000805160206200983183398151915290601f1985169083905b82821062005d105750509084600195949392106200585c57505050811b019055565b849581929585015481556001809101960194019062005cee565b600083815260208120601f840160051c8101926020851062005d6c575b601f0160051c01915b82811062005d6057505062005c90565b81815560010162005d50565b909250829062005d47565b6014811462005a0e5762005d8d6014546200576a565b6001600160401b038111620029125762005da882546200576a565b601f811162005e4c575b50806000601f821160011462005dec5760009162005ddf57508160011b916000199060031b1c1916179055565b905060140154386200593f565b83815260208082209250600080516020620099d183398151915290601f1985169083905b82821062005e325750509084600195949392106200585c57505050811b019055565b849581929585015481556001809101960194019062005e10565b600083815260208120601f840160051c8101926020851062005e8e575b601f0160051c01915b82811062005e8257505062005db2565b81815560010162005e72565b909250829062005e69565b601a811462005a0e5762005eaf601a546200576a565b6001600160401b038111620029125762005eca82546200576a565b601f811162005f6e575b50806000601f821160011462005f0e5760009162005f0157508160011b916000199060031b1c1916179055565b9050601a0154386200593f565b83815260208082209250600080516020620098d183398151915290601f1985169083905b82821062005f545750509084600195949392106200585c57505050811b019055565b849581929585015481556001809101960194019062005f32565b600083815260208120601f840160051c8101926020851062005fb0575b601f0160051c01915b82811062005fa457505062005ed4565b81815560010162005f94565b909250829062005f8b565b601b811462005a0e5762005fd1601b546200576a565b6001600160401b038111620029125762005fec82546200576a565b601f811162006090575b50806000601f821160011462006030576000916200602357508160011b916000199060031b1c1916179055565b9050601b0154386200593f565b83815260208082209250600080516020620097b183398151915290601f1985169083905b828210620060765750509084600195949392106200585c57505050811b019055565b849581929585015481556001809101960194019062006054565b600083815260208120601f840160051c81019260208510620060d2575b601f0160051c01915b828110620060c657505062005ff6565b818155600101620060b6565b9092508290620060ad565b6021811462005a0e57620060f36021546200576a565b6001600160401b03811162002912576200610e82546200576a565b601f8111620061b2575b50806000601f821160011462006152576000916200614557508160011b916000199060031b1c1916179055565b905060210154386200593f565b838152602080822092506000805160206200987183398151915290601f1985169083905b828210620061985750509084600195949392106200585c57505050811b019055565b849581929585015481556001809101960194019062006176565b600083815260208120601f840160051c81019260208510620061f4575b601f0160051c01915b828110620061e857505062006118565b818155600101620061d8565b9092508290620061cf565b6022811462005a0e57620062156022546200576a565b6001600160401b03811162002912576200623082546200576a565b601f8111620062d4575b50806000601f821160011462006274576000916200626757508160011b916000199060031b1c1916179055565b905060220154386200593f565b838152602080822092506000805160206200977183398151915290601f1985169083905b828210620062ba5750509084600195949392106200585c57505050811b019055565b849581929585015481556001809101960194019062006298565b600083815260208120601f840160051c8101926020851062006316575b601f0160051c01915b8281106200630a5750506200623a565b818155600101620062fa565b9092508290620062f1565b6028811462005a0e57620063376028546200576a565b6001600160401b03811162002912576200635282546200576a565b601f8111620063f6575b50806000601f821160011462006396576000916200638957508160011b916000199060031b1c1916179055565b905060280154386200593f565b8381526020808220925060008051602062009a7183398151915290601f1985169083905b828210620063dc5750509084600195949392106200585c57505050811b019055565b8495819295850154815560018091019601940190620063ba565b600083815260208120601f840160051c8101926020851062006438575b601f0160051c01915b8281106200642c5750506200635c565b8181556001016200641c565b909250829062006413565b6029811462005a0e57620064596029546200576a565b6001600160401b03811162002912576200647482546200576a565b601f811162006518575b50806000601f8211600114620064b857600091620064ab57508160011b916000199060031b1c1916179055565b905060290154386200593f565b838152602080822092506000805160206200989183398151915290601f1985169083905b828210620064fe5750509084600195949392106200585c57505050811b019055565b8495819295850154815560018091019601940190620064dc565b600083815260208120601f840160051c810192602085106200655a575b601f0160051c01915b8281106200654e5750506200647e565b8181556001016200653e565b909250829062006535565b602f811462005a0e576200657b602f546200576a565b6001600160401b03811162002912576200659682546200576a565b601f81116200663a575b50806000601f8211600114620065da57600091620065cd57508160011b916000199060031b1c1916179055565b9050602f0154386200593f565b838152602080822092506000805160206200969183398151915290601f1985169083905b828210620066205750509084600195949392106200585c57505050811b019055565b8495819295850154815560018091019601940190620065fe565b600083815260208120601f840160051c810192602085106200667c575b601f0160051c01915b82811062006670575050620065a0565b81815560010162006660565b909250829062006657565b6030811462005a0e576200669d6030546200576a565b6001600160401b0381116200291257620066b882546200576a565b601f81116200675c575b50806000601f8211600114620066fc57600091620066ef57508160011b916000199060031b1c1916179055565b905060300154386200593f565b838152602080822092506000805160206200995183398151915290601f1985169083905b828210620067425750509084600195949392106200585c57505050811b019055565b849581929585015481556001809101960194019062006720565b600083815260208120601f840160051c810192602085106200679e575b601f0160051c01915b82811062006792575050620066c2565b81815560010162006782565b909250829062006779565b6036811462005a0e57620067bf6036546200576a565b6001600160401b0381116200291257620067da82546200576a565b601f81116200687e575b50806000601f82116001146200681e576000916200681157508160011b916000199060031b1c1916179055565b905060360154386200593f565b838152602080822092506000805160206200971183398151915290601f1985169083905b828210620068645750509084600195949392106200585c57505050811b019055565b849581929585015481556001809101960194019062006842565b600083815260208120601f840160051c81019260208510620068c0575b601f0160051c01915b828110620068b4575050620067e4565b818155600101620068a4565b90925082906200689b565b6037811462005a0e57620068e16037546200576a565b6001600160401b0381116200291257620068fc82546200576a565b601f8111620069a0575b50806000601f821160011462006940576000916200693357508160011b916000199060031b1c1916179055565b905060370154386200593f565b83815260208082209250600080516020620099b183398151915290601f1985169083905b828210620069865750509084600195949392106200585c57505050811b019055565b849581929585015481556001809101960194019062006964565b600083815260208120601f840160051c81019260208510620069e2575b601f0160051c01915b828110620069d657505062006906565b818155600101620069c6565b9092508290620069bd565b603d811462005a0e5762006a03603d546200576a565b6001600160401b038111620029125762006a1e82546200576a565b601f811162006ac2575b50806000601f821160011462006a625760009162006a5557508160011b916000199060031b1c1916179055565b9050603d0154386200593f565b8381526020808220925060008051602062009a3183398151915290601f1985169083905b82821062006aa85750509084600195949392106200585c57505050811b019055565b849581929585015481556001809101960194019062006a86565b600083815260208120601f840160051c8101926020851062006b04575b601f0160051c01915b82811062006af857505062006a28565b81815560010162006ae8565b909250829062006adf565b603e811462005a0e5762006b25603e546200576a565b6001600160401b038111620029125762006b4082546200576a565b601f811162006be4575b50806000601f821160011462006b845760009162006b7757508160011b916000199060031b1c1916179055565b9050603e0154386200593f565b838152602080822092506000805160206200999183398151915290601f1985169083905b82821062006bca5750509084600195949392106200585c57505050811b019055565b849581929585015481556001809101960194019062006ba8565b600083815260208120601f840160051c8101926020851062006c26575b601f0160051c01915b82811062006c1a57505062006b4a565b81815560010162006c0a565b909250829062006c01565b6044811462005a0e5762006c476044546200576a565b6001600160401b038111620029125762006c6282546200576a565b601f811162006d06575b50806000601f821160011462006ca65760009162006c9957508160011b916000199060031b1c1916179055565b905060440154386200593f565b83815260208082209250600080516020620097d183398151915290601f1985169083905b82821062006cec5750509084600195949392106200585c57505050811b019055565b849581929585015481556001809101960194019062006cca565b600083815260208120601f840160051c8101926020851062006d48575b601f0160051c01915b82811062006d3c57505062006c6c565b81815560010162006d2c565b909250829062006d23565b6045811462005a0e5762006d696045546200576a565b6001600160401b038111620029125762006d8482546200576a565b601f811162006e28575b50806000601f821160011462006dc85760009162006dbb57508160011b916000199060031b1c1916179055565b905060450154386200593f565b838152602080822092506000805160206200981183398151915290601f1985169083905b82821062006e0e5750509084600195949392106200585c57505050811b019055565b849581929585015481556001809101960194019062006dec565b600083815260208120601f840160051c8101926020851062006e6a575b601f0160051c01915b82811062006e5e57505062006d8e565b81815560010162006e4e565b909250829062006e45565b604b811462005a0e5762006e8b604b546200576a565b6001600160401b038111620029125762006ea682546200576a565b601f811162006f4a575b50806000601f821160011462006eea5760009162006edd57508160011b916000199060031b1c1916179055565b9050604b0154386200593f565b8381526020808220925060008051602062009a5183398151915290601f1985169083905b82821062006f305750509084600195949392106200585c57505050811b019055565b849581929585015481556001809101960194019062006f0e565b600083815260208120601f840160051c8101926020851062006f8c575b601f0160051c01915b82811062006f8057505062006eb0565b81815560010162006f70565b909250829062006f67565b604c811462005a0e5762006fad604c546200576a565b6001600160401b038111620029125762006fc882546200576a565b601f81116200706c575b50806000601f82116001146200700c5760009162006fff57508160011b916000199060031b1c1916179055565b9050604c0154386200593f565b838152602080822092506000805160206200979183398151915290601f1985169083905b828210620070525750509084600195949392106200585c57505050811b019055565b849581929585015481556001809101960194019062007030565b600083815260208120601f840160051c81019260208510620070ae575b601f0160051c01915b828110620070a257505062006fd2565b81815560010162007092565b909250829062007089565b6052811462005a0e57620070cf6052546200576a565b6001600160401b0381116200291257620070ea82546200576a565b601f81116200718e575b50806000601f82116001146200712e576000916200712157508160011b916000199060031b1c1916179055565b905060520154386200593f565b838152602080822092506000805160206200965183398151915290601f1985169083905b828210620071745750509084600195949392106200585c57505050811b019055565b849581929585015481556001809101960194019062007152565b600083815260208120601f840160051c81019260208510620071d0575b601f0160051c01915b828110620071c4575050620070f4565b818155600101620071b4565b9092508290620071ab565b6053811462005a0e57620071f16053546200576a565b6001600160401b03811162002912576200720c82546200576a565b601f8111620072b0575b50806000601f821160011462007250576000916200724357508160011b916000199060031b1c1916179055565b905060530154386200593f565b83815260208082209250600080516020620096d183398151915290601f1985169083905b828210620072965750509084600195949392106200585c57505050811b019055565b849581929585015481556001809101960194019062007274565b600083815260208120601f840160051c81019260208510620072f2575b601f0160051c01915b828110620072e657505062007216565b818155600101620072d6565b9092508290620072cd565b6059811462005a0e57620073136059546200576a565b6001600160401b03811162002912576200732e82546200576a565b601f8111620073d2575b50806000601f821160011462007372576000916200736557508160011b916000199060031b1c1916179055565b905060590154386200593f565b83815260208082209250600080516020620099f183398151915290601f1985169083905b828210620073b85750509084600195949392106200585c57505050811b019055565b849581929585015481556001809101960194019062007396565b600083815260208120601f840160051c8101926020851062007414575b601f0160051c01915b8281106200740857505062007338565b818155600101620073f8565b9092508290620073ef565b605a811462005a0e5762007435605a546200576a565b6001600160401b03811162002912576200745082546200576a565b601f8111620074f4575b50806000601f821160011462007494576000916200748757508160011b916000199060031b1c1916179055565b9050605a0154386200593f565b838152602080822092506000805160206200967183398151915290601f1985169083905b828210620074da5750509084600195949392106200585c57505050811b019055565b8495819295850154815560018091019601940190620074b8565b600083815260208120601f840160051c8101926020851062007536575b601f0160051c01915b8281106200752a5750506200745a565b8181556001016200751a565b909250829062007511565b6060811462005a0e57620075576060546200576a565b6001600160401b03811162002912576200757282546200576a565b601f811162007616575b50806000601f8211600114620075b657600091620075a957508160011b916000199060031b1c1916179055565b905060600154386200593f565b83815260208082209250600080516020620098b183398151915290601f1985169083905b828210620075fc5750509084600195949392106200585c57505050811b019055565b8495819295850154815560018091019601940190620075da565b600083815260208120601f840160051c8101926020851062007658575b601f0160051c01915b8281106200764c5750506200757c565b8181556001016200763c565b909250829062007633565b6061811462005a0e57620076796061546200576a565b6001600160401b03811162002912576200769482546200576a565b601f811162007738575b50806000601f8211600114620076d857600091620076cb57508160011b916000199060031b1c1916179055565b905060610154386200593f565b8381526020808220925060008051602062009a1183398151915290601f1985169083905b8282106200771e5750509084600195949392106200585c57505050811b019055565b8495819295850154815560018091019601940190620076fc565b600083815260208120601f840160051c810192602085106200777a575b601f0160051c01915b8281106200776e5750506200769e565b8181556001016200775e565b909250829062007755565b6067811462005a0e576200779b6067546200576a565b6001600160401b0381116200291257620077b682546200576a565b601f81116200785a575b50806000601f8211600114620077fa57600091620077ed57508160011b916000199060031b1c1916179055565b905060670154386200593f565b838152602080822092506000805160206200985183398151915290601f1985169083905b828210620078405750509084600195949392106200585c57505050811b019055565b84958192958501548155600180910196019401906200781e565b600083815260208120601f840160051c810192602085106200789c575b601f0160051c01915b82811062007890575050620077c0565b81815560010162007880565b909250829062007877565b6068811462005a0e57620078bd6068546200576a565b6001600160401b0381116200291257620078d882546200576a565b601f81116200797c575b50806000601f82116001146200791c576000916200790f57508160011b916000199060031b1c1916179055565b905060680154386200593f565b83815260208082209250600080516020620098f183398151915290601f1985169083905b828210620079625750509084600195949392106200585c57505050811b019055565b849581929585015481556001809101960194019062007940565b600083815260208120601f840160051c81019260208510620079be575b601f0160051c01915b828110620079b2575050620078e2565b818155600101620079a2565b909250829062007999565b606e811462005a0e57620079df606e546200576a565b6001600160401b0381116200291257620079fa82546200576a565b601f811162007a9e575b50806000601f821160011462007a3e5760009162007a3157508160011b916000199060031b1c1916179055565b9050606e0154386200593f565b83815260208082209250600080516020620096b183398151915290601f1985169083905b82821062007a845750509084600195949392106200585c57505050811b019055565b849581929585015481556001809101960194019062007a62565b600083815260208120601f840160051c8101926020851062007ae0575b601f0160051c01915b82811062007ad457505062007a04565b81815560010162007ac4565b909250829062007abb565b606f811462005a0e5762007b01606f546200576a565b6001600160401b038111620029125762007b1c82546200576a565b601f811162007bc0575b50806000601f821160011462007b605760009162007b5357508160011b916000199060031b1c1916179055565b9050606f0154386200593f565b838152602080822092506000805160206200997183398151915290601f1985169083905b82821062007ba65750509084600195949392106200585c57505050811b019055565b849581929585015481556001809101960194019062007b84565b600083815260208120601f840160051c8101926020851062007c02575b601f0160051c01915b82811062007bf657505062007b26565b81815560010162007be6565b909250829062007bdd565b6075811462005a0e5762007c236075546200576a565b6001600160401b038111620029125762007c3e82546200576a565b601f811162007ce2575b50806000601f821160011462007c825760009162007c7557508160011b916000199060031b1c1916179055565b905060750154386200593f565b838152602080822092506000805160206200991183398151915290601f1985169083905b82821062007cc85750509084600195949392106200585c57505050811b019055565b849581929585015481556001809101960194019062007ca6565b600083815260208120601f840160051c8101926020851062007d24575b601f0160051c01915b82811062007d1857505062007c48565b81815560010162007d08565b909250829062007cff565b6076811462005a0e5762007d456076546200576a565b6001600160401b038111620029125762007d6082546200576a565b601f811162007e04575b50806000601f821160011462007da45760009162007d9757508160011b916000199060031b1c1916179055565b905060760154386200593f565b838152602080822092506000805160206200973183398151915290601f1985169083905b82821062007dea5750509084600195949392106200585c57505050811b019055565b849581929585015481556001809101960194019062007dc8565b600083815260208120601f840160051c8101926020851062007e46575b601f0160051c01915b82811062007e3a57505062007d6a565b81815560010162007e2a565b909250829062007e2156fe60806040908082526004918236101561001757600080fd5b600091823560e01c90816303013922146114685750806309477f75146112bd578063304e4660146111125780635ef08cef14610f675780637cc60f2f14610dbc5780637f673dd714610c115780638e09eca314610a66578063a157541b146108bb578063abb3244114610710578063cadc643a14610566578063d83b853f146103bb578063dabb05311461028c5763eda0bed3146100b457600080fd5b3461028857816003193601126102885760555490605654906057549260585494825181605954986001938a851c858c169b8c1561027e575b60209c8d8310811461026b57918d93918793828552908160001461024d5750600114610210575b5061012092500384611614565b85519382605a548c81841c94848316918215610206575b861082146101f357508488529081156101d3575060011461019e575b60ff8c61019a8d8d8d8d8d8d8d61016c828f0383611614565b605b54998a94519a8b9a1c169660ff8560181c169660ff8660101c169660ff808860081c169716958c61175d565b0390f35b9250605a83528a83205b8284106101c057505050820188018161016c84610153565b80548685018d0152928b019281016101a8565b60ff19168d880152505050151560051b8301890190508161016c84610153565b634e487b7160e01b845260229052602483fd5b95607f1695610137565b6059865283862086925088905b8284106102365750505091610120928201018c92610113565b80548985018701528894509285019289910161021d565b60ff191684860152508d9390151560051b8301019050610120610113565b634e487b7160e01b865260228552602486fd5b90607f16906100ec565b5080fd5b5082346103b75760203660031901126103b757803583548110156103a45783805260076020852091020182519061016082019482861067ffffffffffffffff8711176103915750839461019a939452805482526001810154936020830194855260028201549580840196875261030f60038401549260608601938452840161164c565b906080850191825260066103256005860161164c565b948560a088015201549360ff85161515918260c088015260ff8660081c161515938460e089015260ff8760101c16151595866101008a015260ff808960181c16151598896101208c015260201c1615159889610140820152519a519b519051915192519b8c9b8c61175d565b634e487b7160e01b815260418452602490fd5b634e487b7160e01b845260328252602484fd5b8280fd5b5034610288578160031936011261028857604e5490604f54906050549260515494825181605254986001938a851c858c169b8c1561055c575b60209c8d8310811461026b57918d93918793828552908160001461053e5750600114610501575b5061042892500384611614565b855193826053548c81841c948483169182156104f7575b861082146101f357508488529081156104d757506001146104a2575b60ff8c61019a8d8d8d8d8d8d8d610474828f0383611614565b605454998a94519a8b9a1c169660ff8560181c169660ff8660101c169660ff808860081c169716958c61175d565b9250605383528a83205b8284106104c45750505082018801816104748461045b565b80548685018d0152928b019281016104ac565b60ff19168d880152505050151560051b830189019050816104748461045b565b95607f169561043f565b6052865283862086925088905b8284106105275750505091610428928201018c9261041b565b80548985018701528894509285019289910161050e565b60ff191684860152508d9390151560051b830101905061042861041b565b90607f16906103f4565b5034610288578160031936011261028857805490604154906042549260435494825181604454986001938a851c858c169b8c15610706575b60209c8d8310811461026b57918d9391879382855290816000146106e857506001146106ab575b506105d292500384611614565b855193826045548c81841c948483169182156106a1575b861082146101f35750848852908115610681575060011461064c575b60ff8c61019a8d8d8d8d8d8d8d61061e828f0383611614565b604654998a94519a8b9a1c169660ff8560181c169660ff8660101c169660ff808860081c169716958c61175d565b9250604583528a83205b82841061066e57505050820188018161061e84610605565b80548685018d0152928b01928101610656565b60ff19168d880152505050151560051b8301890190508161061e84610605565b95607f16956105e9565b6044865283862086925088905b8284106106d157505050916105d2928201018c926105c5565b8054898501870152889450928501928991016106b8565b60ff191684860152508d9390151560051b83010190506105d26105c5565b90607f169061059e565b5034610288578160031936011261028857606a5490606b5490606c5492606d5494825181606e54986001938a851c858c169b8c156108b1575b60209c8d8310811461026b57918d9391879382855290816000146108935750600114610856575b5061077d92500384611614565b85519382606f548c81841c9484831691821561084c575b861082146101f3575084885290811561082c57506001146107f7575b60ff8c61019a8d8d8d8d8d8d8d6107c9828f0383611614565b607054998a94519a8b9a1c169660ff8560181c169660ff8660101c169660ff808860081c169716958c61175d565b9250606f83528a83205b8284106108195750505082018801816107c9846107b0565b80548685018d0152928b01928101610801565b60ff19168d880152505050151560051b830189019050816107c9846107b0565b95607f1695610794565b606e865283862086925088905b82841061087c575050509161077d928201018c92610770565b805489850187015288945092850192899101610863565b60ff191684860152508d9390151560051b830101905061077d610770565b90607f1690610749565b503461028857816003193601126102885760635490606454906065549260665494825181606754986001938a851c858c169b8c15610a5c575b60209c8d8310811461026b57918d939187938285529081600014610a3e5750600114610a01575b5061092892500384611614565b855193826068548c81841c948483169182156109f7575b861082146101f357508488529081156109d757506001146109a2575b60ff8c61019a8d8d8d8d8d8d8d610974828f0383611614565b606954998a94519a8b9a1c169660ff8560181c169660ff8660101c169660ff808860081c169716958c61175d565b9250606883528a83205b8284106109c45750505082018801816109748461095b565b80548685018d0152928b019281016109ac565b60ff19168d880152505050151560051b830189019050816109748461095b565b95607f169561093f565b6067865283862086925088905b828410610a275750505091610928928201018c9261091b565b805489850187015288945092850192899101610a0e565b60ff191684860152508d9390151560051b830101905061092861091b565b90607f16906108f4565b5034610288578160031936011261028857604754906048549060495492604a5494825181604b54986001938a851c858c169b8c15610c07575b60209c8d8310811461026b57918d939187938285529081600014610be95750600114610bac575b50610ad392500384611614565b85519382604c548c81841c94848316918215610ba2575b861082146101f35750848852908115610b825750600114610b4d575b60ff8c61019a8d8d8d8d8d8d8d610b1f828f0383611614565b604d54998a94519a8b9a1c169660ff8560181c169660ff8660101c169660ff808860081c169716958c61175d565b9250604c83528a83205b828410610b6f575050508201880181610b1f84610b06565b80548685018d0152928b01928101610b57565b60ff19168d880152505050151560051b83018901905081610b1f84610b06565b95607f1695610aea565b604b865283862086925088905b828410610bd25750505091610ad3928201018c92610ac6565b805489850187015288945092850192899101610bb9565b60ff191684860152508d9390151560051b8301019050610ad3610ac6565b90607f1690610a9f565b503461028857816003193601126102885760395490603a5490603b5492603c5494825181603d54986001938a851c858c169b8c15610db2575b60209c8d8310811461026b57918d939187938285529081600014610d945750600114610d57575b50610c7e92500384611614565b85519382603e548c81841c94848316918215610d4d575b861082146101f35750848852908115610d2d5750600114610cf8575b60ff8c61019a8d8d8d8d8d8d8d610cca828f0383611614565b603f54998a94519a8b9a1c169660ff8560181c169660ff8660101c169660ff808860081c169716958c61175d565b9250603e83528a83205b828410610d1a575050508201880181610cca84610cb1565b80548685018d0152928b01928101610d02565b60ff19168d880152505050151560051b83018901905081610cca84610cb1565b95607f1695610c95565b603d865283862086925088905b828410610d7d5750505091610c7e928201018c92610c71565b805489850187015288945092850192899101610d64565b60ff191684860152508d9390151560051b8301019050610c7e610c71565b90607f1690610c4a565b503461028857816003193601126102885760245490602554906026549260275494825181602854986001938a851c858c169b8c15610f5d575b60209c8d8310811461026b57918d939187938285529081600014610f3f5750600114610f02575b50610e2992500384611614565b855193826029548c81841c94848316918215610ef8575b861082146101f35750848852908115610ed85750600114610ea3575b60ff8c61019a8d8d8d8d8d8d8d610e75828f0383611614565b602a54998a94519a8b9a1c169660ff8560181c169660ff8660101c169660ff808860081c169716958c61175d565b9250602983528a83205b828410610ec5575050508201880181610e7584610e5c565b80548685018d0152928b01928101610ead565b60ff19168d880152505050151560051b83018901905081610e7584610e5c565b95607f1695610e40565b6028865283862086925088905b828410610f285750505091610e29928201018c92610e1c565b805489850187015288945092850192899101610f0f565b60ff191684860152508d9390151560051b8301019050610e29610e1c565b90607f1690610df5565b503461028857816003193601126102885760715490607254906073549260745494825181607554986001938a851c858c169b8c15611108575b60209c8d8310811461026b57918d9391879382855290816000146110ea57506001146110ad575b50610fd492500384611614565b855193826076548c81841c948483169182156110a3575b861082146101f35750848852908115611083575060011461104e575b60ff8c61019a8d8d8d8d8d8d8d611020828f0383611614565b607754998a94519a8b9a1c169660ff8560181c169660ff8660101c169660ff808860081c169716958c61175d565b9250607683528a83205b82841061107057505050820188018161102084611007565b80548685018d0152928b01928101611058565b60ff19168d880152505050151560051b8301890190508161102084611007565b95607f1695610feb565b6075865283862086925088905b8284106110d35750505091610fd4928201018c92610fc7565b8054898501870152889450928501928991016110ba565b60ff191684860152508d9390151560051b8301019050610fd4610fc7565b90607f1690610fa0565b5034610288578160031936011261028857605c5490605d5490605e5492605f5494825181606054986001938a851c858c169b8c156112b3575b60209c8d8310811461026b57918d9391879382855290816000146112955750600114611258575b5061117f92500384611614565b855193826061548c81841c9484831691821561124e575b861082146101f3575084885290811561122e57506001146111f9575b60ff8c61019a8d8d8d8d8d8d8d6111cb828f0383611614565b606254998a94519a8b9a1c169660ff8560181c169660ff8660101c169660ff808860081c169716958c61175d565b9250606183528a83205b82841061121b5750505082018801816111cb846111b2565b80548685018d0152928b01928101611203565b60ff19168d880152505050151560051b830189019050816111cb846111b2565b95607f1695611196565b6060865283862086925088905b82841061127e575050509161117f928201018c92611172565b805489850187015288945092850192899101611265565b60ff191684860152508d9390151560051b830101905061117f611172565b90607f169061114b565b5034610288578160031936011261028857602b5490602c5490602d5492602e5494825181602f54986001938a851c858c169b8c1561145e575b60209c8d8310811461026b57918d9391879382855290816000146114405750600114611403575b5061132a92500384611614565b855193826030548c81841c948483169182156113f9575b861082146101f357508488529081156113d957506001146113a4575b60ff8c61019a8d8d8d8d8d8d8d611376828f0383611614565b603154998a94519a8b9a1c169660ff8560181c169660ff8660101c169660ff808860081c169716958c61175d565b9250603083528a83205b8284106113c65750505082018801816113768461135d565b80548685018d0152928b019281016113ae565b60ff19168d880152505050151560051b830189019050816113768461135d565b95607f1695611341565b602f865283862086925088905b828410611429575050509161132a928201018c9261131d565b805489850187015288945092850192899101611410565b60ff191684860152508d9390151560051b830101905061132a61131d565b90607f16906112f6565b92919050346102885781600319360112610288576032549060335491603454936035549581603654986001938a851c858c169b8c1561160a575b60209c8d8310811461026b57918d9391879382855290816000146115ec57506001146115af575b506114d692500384611614565b855193826037548c81841c948483169182156115a5575b861082146101f357508488529081156115855750600114611550575b60ff8c61019a8d8d8d8d8d8d8d611522828f0383611614565b603854998a94519a8b9a1c169660ff8560181c169660ff8660101c169660ff808860081c169716958c61175d565b9250603783528a83205b82841061157257505050820188018161152284611509565b80548685018d0152928b0192810161155a565b60ff19168d880152505050151560051b8301890190508161152284611509565b95607f16956114ed565b6036865283862086925088905b8284106115d557505050916114d6928201018c926114c9565b8054898501870152889450928501928991016115bc565b60ff191684860152508d9390151560051b83010190506114d66114c9565b90607f16906114a2565b90601f8019910116810190811067ffffffffffffffff82111761163657604052565b634e487b7160e01b600052604160045260246000fd5b90604051906000835490600182811c90808416968715611713575b60209485841089146116ff57879884899798995290816000146116dd575060011461169e575b50505061169c92500383611614565b565b600090815285812095935091905b8183106116c557505061169c935082010138808061168d565b855488840185015294850194879450918301916116ac565b9250505061169c94925060ff191682840152151560051b82010138808061168d565b634e487b7160e01b85526022600452602485fd5b91607f1691611667565b919082519283825260005b848110611749575050826000602080949584010152601f8019910116010190565b602081830181015184830182015201611728565b99969b9a97949093610140999693611795936117a3968d5260208d015260408c015260608b01526101608060808c01528a019061171d565b9088820360a08a015261171d565b97151560c0870152151560e086015215156101008501521515610120840152151591015256fea26469706673582212207e13e1a5321eac933726de81aa341843dffb447eb3c701518dd49049ec6db2eb64736f6c63430008100033a9144a5e7efd259b8b0d55467f4696ed47ec83317d61501b76366dbcca65ce73e8c3abd4193a84ec8a3fff3eeb3ecbcbd0979e0c977ac1dee06c6e01a60aca1ba813484aef6fb598f9f753daf162068ff39ccea4075cb95e1a30f86995b5b7ee9930d9ff0dee0ef5ca2f7710ea66b8f84dd0f5f5351ecffe72b952cd9db7142a4c83efb3982afbd500ab7c66d02b996df5fdc3d20660e61600390aad6d5f7f1edf6966c971051c3d54ec59162606531493a51404a002842f56009d7e5cf4a8c74a11f94e20a93c79f6ec743a1954ec4fc2c08429ae2122118bf234b2185c81b8b5732705f5241370a28908c2fe1303cb223f03b90d857fd0573f003f79fefed4290decd9548b62a8d60345a988386fc84ba6bc95484008f6362f93160ef3e56361035b26e3e9eee00e0d72fd1ee8ddca6894550dca6916ea2ac6baa90d11e51042859d4f253f4d4a28ee9a59f9c9683a9404da2c5d329c733ab84f150db798a83ad8aa4f87544323a9d1e5dd902f40c356527a7955687113db5f9a85ad579dc19b22d3d61959b4d3528b1d8ba932c96fbe302b36a1aad1d95cab54f9e0a135ead7b6990105719101dabeb77144f2a3385c8033acd3af97e9423a695e81ad1eb5a80a8fcc11760162f08bb091d2c9389d07f2b73d0e996161dfac6f1043b5fc0b66de8ffda797e3de9c05e8fc57b3bf0ec28a930d40b0d285d93c06501cf6a0909787eeb91fe3101235e4a76063c7023ecb40f923f97916639c598592fa30d6ae3a6357012c1a3ae0a17d304c9920310382d968ebcc4b1771f41c6b304205b570cb7c14ce178f56e2e8d86ab33ebc0ae081ba8556a00cd122038841867181caac41c7ae758795765c6664a5d39bf63841c71ff191e9189522bad8ebff5d4eca98057c384a7d1c54f3a1b2e5e67b2617b8224fdfd1ea7234eea573a6ff665ff63ea2153420d844928b4421650203c77babc8b33d7f2e7b450e2966db0c220977539a8d93986a7b9e6294572ea6736696119c195c1a9f5eae642d3c5fcd44e49deaf652222313e28459528d920b65115c16c04f3efc82aaedc97be59f3f377c0d3f6ff97a59c90d62cc7236ba3a37cd85351bf564556780cf8c1157a220f31f0cbb39f2babe526038520877fc7c33d81accf578af4a06c5fa6b0d038cae36e127118d800d6614d35eed73733ee453164a3b48076eb3138f466adeeb9dec7bb31f7042a7b7dd785cd69714a189dffb3fd7d7174edc9ece837694ce50f7078f7c31aece6d7b5282bd9a3661ae061feed1dbda4e52ab073b1f9285be6e155d9c38d4ecd73956b9e00d8f8bc5e44f7184df1387cdd652e7726b8ccda3db4859e02f31bff0ecb75dd1820844c57b6762233d4e26853b3a7b8157bbd9f41f280a0f1cee9bece66cfdbd22e3f37d348a3d8e19074452862cd65fd4b9a11f0336d1ac6d1dc317b0af156a929edf60c351f3df2d53ed643fdd750aef9eda90dc7c8759a104a8e16da923a2d88192e5070f37b4571d58682c0d66212ec634d495f33de3f77ab5",
  "linkReferences": {},
  "deployedLinkReferences": {}
}