{
  "_format": "hh-sol-artifact-1",
  "contractName": "Characters",
  "sourceName": "contracts/Characters.sol",
  "abi": [
    {
      "inputs": [],
      "stateMutability": "nonpayable",
      "type": "constructor"
    },
    {
      "inputs": [
        {
          "internalType": "uint256",
          "name": "",
          "type": "uint256"
        }
      ],
      "name": "champsMap",
      "outputs": [
        {
          "internalType": "uint8",
          "name": "health",
          "type": "uint8"
        },
        {
          "internalType": "uint8",
          "name": "attack",
          "type": "uint8"
        },
        {
          "internalType": "uint8",
          "name": "manaCost",
          "type": "uint8"
        },
        {
          "internalType": "uint8",
          "name": "id",
          "type": "uint8"
        },
        {
          "internalType": "string",
          "name": "name",
          "type": "string"
        },
        {
          "internalType": "string",
          "name": "description",
          "type": "string"
        },
        {
          "internalType": "bool",
          "name": "taunt",
          "type": "bool"
        },
        {
          "internalType": "bool",
          "name": "windfury",
          "type": "bool"
        },
        {
          "internalType": "bool",
          "name": "divineshield",
          "type": "bool"
        },
        {
          "internalType": "bool",
          "name": "stealth",
          "type": "bool"
        },
        {
          "internalType": "bool",
          "name": "poisonious",
          "type": "bool"
        },
        {
          "internalType": "bool",
          "name": "asleep",
          "type": "bool"
        }
      ],
      "stateMutability": "view",
      "type": "function"
    },
    {
      "inputs": [
        {
          "internalType": "uint256",
          "name": "id",
          "type": "uint256"
        }
      ],
      "name": "getCharacter",
      "outputs": [
        {
          "internalType": "uint8",
          "name": "",
          "type": "uint8"
        },
        {
          "internalType": "uint8",
          "name": "",
          "type": "uint8"
        },
        {
          "internalType": "uint8",
          "name": "",
          "type": "uint8"
        },
        {
          "internalType": "uint8",
          "name": "",
          "type": "uint8"
        },
        {
          "internalType": "string",
          "name": "",
          "type": "string"
        },
        {
          "internalType": "string",
          "name": "",
          "type": "string"
        },
        {
          "internalType": "bool",
          "name": "",
          "type": "bool"
        },
        {
          "internalType": "bool",
          "name": "",
          "type": "bool"
        },
        {
          "internalType": "bool",
          "name": "",
          "type": "bool"
        },
        {
          "internalType": "bool",
          "name": "",
          "type": "bool"
        },
        {
          "internalType": "bool",
          "name": "",
          "type": "bool"
        },
        {
          "internalType": "bool",
          "name": "",
          "type": "bool"
        }
      ],
      "stateMutability": "view",
      "type": "function"
    },
    {
      "inputs": [
        {
          "internalType": "uint8",
          "name": "_id",
          "type": "uint8"
        }
      ],
      "name": "getNewChampId",
      "outputs": [
        {
          "internalType": "uint8",
          "name": "",
          "type": "uint8"
        },
        {
          "internalType": "uint8",
          "name": "",
          "type": "uint8"
        }
      ],
      "stateMutability": "view",
      "type": "function"
    }
  ],
  "bytecode": "0x608060405234620035e15762000014620035e6565b600181526002602082015260016040820152600160608201526200003762003607565b60088152672232b332b73232b960c11b602082015260808201526200005b62003627565b602581527f476976652061646a7573746564206d696e696f6e73202b312f2b3120616e64206020820152641d185d5b9d60da1b604082015260a0820152600060c0820152600060e08201526000610100820152600061012082015260006101408201526001610160820152600080526000602052604060002060ff82511681549062ff000061ff00602086015160081b1660408601519263ff000000606088015160181b169463ffffffff191617179160101b1617178155608082015191825160018060401b038111620020b5576001830154600181811c91168015620035d6575b60208210146200209457601f81116200358a575b506020601f82116001146200351757819293946000926200350b575b50508160011b916000199060031b1c19161760018301555b60a08101518051906001600160401b038211620020b55760028401548060011c90600181161562003500575b60011660208210146200209457601f8111620034b4575b50602090601f83116001146200343d5760039392916000918362003431575b50508160011b9160001990851b1c19161760028401555b60c08101511515908284015461ff0060e0830151151560081b1662ff0000610100840151151560101b169063ff000000610120850151151560181b169260ff65ff000000000061016064ff00000000610140890151151560201b16970151151560281b1696169065ffffffffffff191617171717171791015562000281620035e6565b60038152600360208201526003604082015260026060820152620002a462003607565b600a815269466c657463686c696e6760b01b60208201526080820152620002ca62003627565b602781527f41667465722074686973206d696e696f6e2061747461636b732061206865726f6020820152660b081059185c1d60ca1b604082015260a0820152600060c0820152600060e0820152600061010082015260006101208201526000610140820152600161016082015260016000526000602052604060002060ff82511681549061ff00602085015160081b1662ff0000604086015160101b169163ff000000606087015160181b169363ffffffff1916171717178155608082015191825160018060401b038111620020b5576001830154600181811c9116801562003426575b60208210146200209457601f8111620033da575b506020601f82116001146200336757819293946000926200335b575b50508160011b916000199060031b1c19161760018301555b60a08101518051906001600160401b038211620020b5576002840154600181811c9116801562003350575b60208210146200209457601f811162003304575b50602090601f83116001146200328d5760039392916000918362003281575b50508160011b9160001990851b1c19161760028401555b60c08101511515908284015461ff0060e0830151151560081b1662ff0000610100840151151560101b169063ff000000610120850151151560181b169260ff65ff000000000061016064ff00000000610140890151151560201b16970151151560281b1696169065ffffffffffff1916171717171717910155620004ee620035e6565b600581526003602082015260046040820152600360608201526200051162003607565b60048152635965746960e01b6020820152608082015260405180602081011060018060401b03602083011117620020b557602081016040526000815260a0820152600060c0820152600060e0820152600061010082015260006101208201526000610140820152600161016082015260026000526000602052604060002060ff82511681549061ff00602085015160081b1662ff0000604086015160101b169163ff000000606087015160181b169363ffffffff1916171717178155608082015191825160018060401b038111620020b5576001830154600181811c9116801562003276575b60208210146200209457601f81116200322a575b506020601f8211600114620031b75781929394600092620031ab575b50508160011b916000199060031b1c19161760018301555b60a08101518051906001600160401b038211620020b5576002840154600181811c91168015620031a0575b60208210146200209457601f811162003154575b50602090601f8311600114620030dd57600393929160009183620030d1575b50508160011b9160001990851b1c19161760028401555b60c08101511515908284015461ff0060e0830151151560081b1662ff0000610100840151151560101b169063ff000000610120850151151560181b169260ff65ff000000000061016064ff00000000610140890151151560201b16970151151560281b1696169065ffffffffffff191617171717171791015562000737620035e6565b600381526002602082015260026040820152600460608201526200075a62003607565b600581526429b1b930b160d91b602082015260808201526200077b62003607565b601981527f4465617468726174746c653a206761696e20322061726d6f7200000000000000602082015260a0820152600060c0820152600060e0820152600061010082015260006101208201526000610140820152600161016082015260036000526000602052604060002060ff82511681549061ff00602085015160081b1662ff0000604086015160101b169163ff000000606087015160181b169363ffffffff1916171717178155608082015191825160018060401b038111620020b5576001830154600181811c91168015620030c6575b60208210146200209457601f81116200307a575b506020601f821160011462003007578192939460009262002ffb575b50508160011b916000199060031b1c19161760018301555b60a08101518051906001600160401b038211620020b5576002840154600181811c9116801562002ff0575b60208210146200209457601f811162002fa4575b50602090601f831160011462002f2d5760039392916000918362002f21575b50508160011b9160001990851b1c19161760028401555b60c08101511515908284015461ff0060e0830151151560081b1662ff0000610100840151151560101b169063ff000000610120850151151560181b169260ff65ff000000000061016064ff00000000610140890151151560201b16970151151560281b1696169065ffffffffffff19161717171717179101556200098f620035e6565b600c8152600c60208201526005604082015260056060820152620009b262003607565b6009815268446561746877696e6760b81b60208201526080820152620009d762003627565b603a81527f426174746c656372793a2044657374726f7920616c6c206f74686572206d696e60208201527f696f6e7320616e64206469736361726420796f75722068616e64000000000000604082015260a0820152600060c0820152600060e0820152600061010082015260006101208201526000610140820152600161016082015260046000526000602052604060002060ff82511681549061ff00602085015160081b1662ff0000604086015160101b169163ff000000606087015160181b169363ffffffff1916171717178155608082015191825160018060401b038111620020b5576001830154600181811c9116801562002f16575b60208210146200209457601f811162002eca575b506020601f821160011462002e57578192939460009262002e4b575b50508160011b916000199060031b1c19161760018301555b60a08101518051906001600160401b038211620020b5576002840154600181811c9116801562002e40575b60208210146200209457601f811162002df4575b50602090601f831160011462002d7d5760039392916000918362002d71575b50508160011b9160001990851b1c19161760028401555b60c08101511515908284015461ff0060e0830151151560081b1662ff0000610100840151151560101b169063ff000000610120850151151560181b169260ff65ff000000000061016064ff00000000610140890151151560201b16970151151560281b1696169065ffffffffffff191617171717171791015562000c11620035e6565b6004815260056020820152600760408201526006606082015262000c3462003607565b600a815269496e76696e6369626c6560b01b6020820152608082015260405180608081011060018060401b03608083011117620020b55760808101604052605081527f5265626f726e2c20426174746c6563727920616e64204465617468726174746c60208201527f653a204769766520612072616e646f6d20667269656e646c79206d696e696f6e60408201526f080acd4bcacd48185b990815185d5b9d60821b606082015260a0820152600060c0820152600060e0820152600061010082015260006101208201526000610140820152600161016082015260056000526000602052604060002060ff82511681549061ff00602085015160081b1662ff0000604086015160101b169163ff000000606087015160181b169363ffffffff1916171717178155608082015191825160018060401b038111620020b5576001830154600181811c9116801562002d66575b60208210146200209457601f811162002d1a575b506020601f821160011462002ca7578192939460009262002c9b575b50508160011b916000199060031b1c19161760018301555b60a08101518051906001600160401b038211620020b5576002840154600181811c9116801562002c90575b60208210146200209457601f811162002c44575b50602090601f831160011462002bcd5760039392916000918362002bc1575b50508160011b9160001990851b1c19161760028401555b60c08101511515908284015461ff0060e0830151151560081b1662ff0000610100840151151560101b169063ff000000610120850151151560181b169260ff65ff000000000061016064ff00000000610140890151151560201b16970151151560281b1696169065ffffffffffff191617171717171791015562000ec5620035e6565b6004815260026020820152600360408201526007606082015262000ee862003607565b6011815270109c9a585b88109c9bdb9e995099585c99607a1b6020820152608082015262000f1562003607565b601c81527f596f757220626174746c65637279207472696767657220747769636500000000602082015260a0820152600060c0820152600060e0820152600061010082015260006101208201526000610140820152600161016082015260066000526000602052604060002060ff82511681549061ff00602085015160081b1662ff0000604086015160101b169163ff000000606087015160181b169363ffffffff1916171717178155608082015191825160018060401b038111620020b5576001830154600181811c9116801562002bb6575b60208210146200209457601f811162002b6a575b506020601f821160011462002af7578192939460009262002aeb575b50508160011b916000199060031b1c19161760018301555b60a08101518051906001600160401b038211620020b5576002840154600181811c9116801562002ae0575b60208210146200209457601f811162002a94575b50602090601f831160011462002a1d5760039392916000918362002a11575b50508160011b9160001990851b1c19161760028401555b60c08101511515908284015461ff0060e0830151151560081b1662ff0000610100840151151560101b169063ff000000610120850151151560181b169260ff65ff000000000061016064ff00000000610140890151151560201b16970151151560281b1696169065ffffffffffff191617171717171791015562001129620035e6565b600281526003602082015260026040820152600860608201526200114c62003607565b600d81526c29b43934b735b6b2b4b9ba32b960991b602082015260808201526200117562003607565b601781527f476976652061206d696e696f6e202d322041747461636b000000000000000000602082015260a0820152600060c0820152600060e0820152600061010082015260006101208201526000610140820152600161016082015260076000526000602052604060002060ff82511681549061ff00602085015160081b1662ff0000604086015160101b169163ff000000606087015160181b169363ffffffff1916171717178155608082015191825160018060401b038111620020b5576001830154600181811c9116801562002a06575b60208210146200209457601f8111620029ba575b506020601f82116001146200294757819293946000926200293b575b50508160011b916000199060031b1c19161760018301555b60a08101518051906001600160401b038211620020b5576002840154600181811c9116801562002930575b60208210146200209457601f8111620028e4575b50602090601f83116001146200286d5760039392916000918362002861575b50508160011b9160001990851b1c19161760028401555b60c08101511515908284015461ff0060e0830151151560081b1662ff0000610100840151151560101b169063ff000000610120850151151560181b169260ff65ff000000000061016064ff00000000610140890151151560201b16970151151560281b1696169065ffffffffffff191617171717171791015562001389620035e6565b60048152600160208201526002604082015260096060820152620013ac62003607565b600d81526c086e4c2f4cac840aee4cae8c6d609b1b60208201526080820152620013d562003627565b602681527f486173202b322041747461636b20616e6420436861726765207768696c652064602082015265185b5859d95960d21b604082015260a0820152600060c0820152600060e0820152600061010082015260006101208201526000610140820152600161016082015260086000526000602052604060002060ff82511681549061ff00602085015160081b1662ff0000604086015160101b169163ff000000606087015160181b169363ffffffff1916171717178155608082015191825160018060401b038111620020b5576001830154600181811c9116801562002856575b60208210146200209457601f81116200280a575b506020601f82116001146200279757819293946000926200278b575b50508160011b916000199060031b1c19161760018301555b60a08101518051906001600160401b038211620020b5576002840154600181811c9116801562002780575b60208210146200209457601f811162002734575b50602090601f8311600114620026bd57600393929160009183620026b1575b50508160011b9160001990851b1c19161760028401555b60c08101511515908284015461ff0060e0830151151560081b1662ff0000610100840151151560101b169063ff000000610120850151151560181b169260ff65ff000000000061016064ff00000000610140890151151560201b16970151151560281b1696169065ffffffffffff1916171717171717910155620015f8620035e6565b600281526002602082015260026040820152600a60608201526200161b62003607565b601081526f10dc985e995908105b18da195b5a5cdd60821b602082015260808201526200164762003627565b603181527f426174746c656372793a2053776170207468652041747461636b20616e64204860208201527032b0b63a341037b310309036b4b734b7b760791b604082015260a0820152600060c0820152600060e0820152600061010082015260006101208201526000610140820152600161016082015260096000526000602052604060002060ff82511681549061ff00602085015160081b1662ff0000604086015160101b169163ff000000606087015160181b169363ffffffff1916171717178155608082015191825160018060401b038111620020b5576001830154600181811c91168015620026a6575b60208210146200209457601f81116200265a575b506020601f8211600114620025e75781929394600092620025db575b50508160011b916000199060031b1c19161760018301555b60a08101518051906001600160401b038211620020b5576002840154600181811c91168015620025d0575b60208210146200209457601f811162002584575b50602090601f83116001146200250d5760039392916000918362002501575b50508160011b9160001990851b1c19161760028401555b60c08101511515908284015461ff0060e0830151151560081b1662ff0000610100840151151560101b169063ff000000610120850151151560181b169260ff65ff000000000061016064ff00000000610140890151151560201b16970151151560281b1696169065ffffffffffff191617171717171791015562001875620035e6565b600381526002602082015260016040820152600b60608201526200189862003607565b600b81526a5a6f6d6269652043686f7760a81b60208201526080820152620018bf62003627565b602f81527f4465617468726174746c653a20526573746f72652035204865616c746820746f60208201526e2074686520656e656d79204865726f60881b604082015260a0820152600060c0820152600060e08201526000610100820152600061012082015260006101408201526001610160820152600a6000526000602052604060002060ff82511681549061ff00602085015160081b1662ff0000604086015160101b169163ff000000606087015160181b169363ffffffff1916171717178155608082015191825160018060401b038111620020b5576001830154600181811c91168015620024f6575b60208210146200209457601f8111620024aa575b506020601f82116001146200243757819293946000926200242b575b50508160011b916000199060031b1c19161760018301555b60a08101518051906001600160401b038211620020b5576002840154600181811c9116801562002420575b60208210146200209457601f8111620023d4575b50602090601f83116001146200235d5760039392916000918362002351575b50508160011b9160001990851b1c19161760028401555b60c08101511515908284015461ff0060e0830151151560081b1662ff0000610100840151151560101b169063ff000000610120850151151560181b169260ff65ff000000000061016064ff00000000610140890151151560201b16970151151560281b1696169065ffffffffffff191617171717171791015562001aeb620035e6565b600781526007602082015260086040820152600c606082015262001b0e62003607565b600581526411dc9d5d5b60da1b6020820152608082015262001b2f62003627565b602281527f61742074686520656e64206f662065616368207475726e206761696e202b312f6020820152612b3160f01b604082015260a0820152600060c0820152600060e08201526000610100820152600061012082015260006101408201526001610160820152600b6000526000602052604060002060ff82511681549061ff00602085015160081b1662ff0000604086015160101b169163ff000000606087015160181b169363ffffffff1916171717178155608082015191825160018060401b038111620020b5576001830154600181811c9116801562002346575b60208210146200209457601f8111620022fa575b506020601f82116001146200228757819293946000926200227b575b50508160011b916000199060031b1c19161760018301555b60a08101518051906001600160401b038211620020b5576002840154600181811c9116801562002270575b60208210146200209457601f811162002224575b50602090601f8311600114620021ad57600393929160009183620021a1575b50508160011b9160001990851b1c19161760028401555b60c08101511515908284015461ff0060e0830151151560081b1662ff0000610100840151151560101b169063ff000000610120850151151560181b169260ff65ff000000000061016064ff00000000610140890151151560201b16970151151560281b1696169065ffffffffffff191617171717171791015562001d4e620035e6565b600281526002602082015260036040820152600d606082015262001d7162003607565b600f81526e0a6e0c2eedc40decc409c4eb4dee8d608b1b6020820152608082015262001d9c62003627565b602481527f4465617468726174746c653a206769766520796f7572206d696e696f6e73202b602082015263312f2b3160e01b604082015260a0820152600060c0820152600060e08201526000610100820152600061012082015260006101408201526001610160820152600c6000526000602052604060002060ff82511681549061ff00602085015160081b1662ff0000604086015160101b169163ff000000606087015160181b169363ffffffff1916171717178155608082015191825160018060401b038111620020b5576001830154600181811c9116801562002196575b60208210146200209457601f81116200214a575b506020601f8211600114620020d75781929394600092620020cb575b50508160011b916000199060031b1c19161760018301555b60a08101518051906001600160401b038211620020b5576002840154600181811c91168015620020aa575b60208210146200209457601f811162002044575b50602090601f831160011462001fcf5760039392916000918362001fc3575b50508160011b9160001990851b1c19161760028401555b60c08101511515908284015461ff0060e0830151151560081b1662ff0000610100840151151560101b169063ff000000610120850151151560181b169260ff65ff000000000061016064ff00000000610140890151151560201b16970151151560281b1696169065ffffffffffff19161717171717179101556040516104c89081620036488239f35b01519050388062001f23565b90601f198316916002860160005260206000209260005b8181106200202b575091600193918560039796941062002012575b505050811b01600284015562001f3a565b015160001983871b60f8161c1916905538808062002001565b9293602060018192878601518155019501930162001fe6565b600285016000526020600020601f840160051c8101916020851062002089575b601f0160051c01905b8181106200207c575062001f04565b600081556001016200206d565b909150819062002064565b634e487b7160e01b600052602260045260246000fd5b90607f169062001ef0565b634e487b7160e01b600052604160045260246000fd5b01519050388062001ead565b6001840160005260206000209060005b601f1984168110620021315750600193949583601f1981161062002117575b505050811b01600183015562001ec5565b015160001960f88460031b161c1916905538808062002106565b9091602060018192858a015181550193019101620020e7565b600184016000526020600020601f830160051c8101602084106200218e575b601f830160051c820181106200218157505062001e91565b6000815560010162002169565b508062002169565b90607f169062001e7d565b01519050388062001cb4565b906002850160005260206000209160005b601f19851681106200220b575091839160019360039695601f19811610620021f2575b505050811b01600284015562001ccb565b015160001983871b60f8161c19169055388080620021e1565b91926020600181928685015181550194019201620021be565b600285016000526020600020601f840160051c81016020851062002268575b601f830160051c820181106200225b57505062001c95565b6000815560010162002243565b508062002243565b90607f169062001c81565b01519050388062001c3e565b6001840160005260206000209060005b601f1984168110620022e15750600193949583601f19811610620022c7575b505050811b01600183015562001c56565b015160001960f88460031b161c19169055388080620022b6565b9091602060018192858a01518155019301910162002297565b600184016000526020600020601f830160051c8101602084106200233e575b601f830160051c820181106200233157505062001c22565b6000815560010162002319565b508062002319565b90607f169062001c0e565b01519050388062001a51565b906002850160005260206000209160005b601f1985168110620023bb575091839160019360039695601f19811610620023a2575b505050811b01600284015562001a68565b015160001983871b60f8161c1916905538808062002391565b919260206001819286850151815501940192016200236e565b600285016000526020600020601f840160051c81016020851062002418575b601f830160051c820181106200240b57505062001a32565b60008155600101620023f3565b5080620023f3565b90607f169062001a1e565b015190503880620019db565b6001840160005260206000209060005b601f1984168110620024915750600193949583601f1981161062002477575b505050811b016001830155620019f3565b015160001960f88460031b161c1916905538808062002466565b9091602060018192858a01518155019301910162002447565b600184016000526020600020601f830160051c810160208410620024ee575b601f830160051c82018110620024e1575050620019bf565b60008155600101620024c9565b5080620024c9565b90607f1690620019ab565b015190503880620017db565b906002850160005260206000209160005b601f19851681106200256b575091839160019360039695601f1981161062002552575b505050811b016002840155620017f2565b015160001983871b60f8161c1916905538808062002541565b919260206001819286850151815501940192016200251e565b600285016000526020600020601f840160051c810160208510620025c8575b601f830160051c82018110620025bb575050620017bc565b60008155600101620025a3565b5080620025a3565b90607f1690620017a8565b01519050388062001765565b6001840160005260206000209060005b601f1984168110620026415750600193949583601f1981161062002627575b505050811b0160018301556200177d565b015160001960f88460031b161c1916905538808062002616565b9091602060018192858a015181550193019101620025f7565b600184016000526020600020601f830160051c8101602084106200269e575b601f830160051c820181106200269157505062001749565b6000815560010162002679565b508062002679565b90607f169062001735565b0151905038806200155e565b906002850160005260206000209160005b601f19851681106200271b575091839160019360039695601f1981161062002702575b505050811b01600284015562001575565b015160001983871b60f8161c19169055388080620026f1565b91926020600181928685015181550194019201620026ce565b600285016000526020600020601f840160051c81016020851062002778575b601f830160051c820181106200276b5750506200153f565b6000815560010162002753565b508062002753565b90607f16906200152b565b015190503880620014e8565b6001840160005260206000209060005b601f1984168110620027f15750600193949583601f19811610620027d7575b505050811b01600183015562001500565b015160001960f88460031b161c19169055388080620027c6565b9091602060018192858a015181550193019101620027a7565b600184016000526020600020601f830160051c8101602084106200284e575b601f830160051c8201811062002841575050620014cc565b6000815560010162002829565b508062002829565b90607f1690620014b8565b015190503880620012ef565b906002850160005260206000209160005b601f1985168110620028cb575091839160019360039695601f19811610620028b2575b505050811b01600284015562001306565b015160001983871b60f8161c19169055388080620028a1565b919260206001819286850151815501940192016200287e565b600285016000526020600020601f840160051c81016020851062002928575b601f830160051c820181106200291b575050620012d0565b6000815560010162002903565b508062002903565b90607f1690620012bc565b01519050388062001279565b6001840160005260206000209060005b601f1984168110620029a15750600193949583601f1981161062002987575b505050811b01600183015562001291565b015160001960f88460031b161c1916905538808062002976565b9091602060018192858a01518155019301910162002957565b600184016000526020600020601f830160051c810160208410620029fe575b601f830160051c82018110620029f15750506200125d565b60008155600101620029d9565b5080620029d9565b90607f169062001249565b0151905038806200108f565b906002850160005260206000209160005b601f198516811062002a7b575091839160019360039695601f1981161062002a62575b505050811b016002840155620010a6565b015160001983871b60f8161c1916905538808062002a51565b9192602060018192868501518155019401920162002a2e565b600285016000526020600020601f840160051c81016020851062002ad8575b601f830160051c8201811062002acb57505062001070565b6000815560010162002ab3565b508062002ab3565b90607f16906200105c565b01519050388062001019565b6001840160005260206000209060005b601f198416811062002b515750600193949583601f1981161062002b37575b505050811b01600183015562001031565b015160001960f88460031b161c1916905538808062002b26565b9091602060018192858a01518155019301910162002b07565b600184016000526020600020601f830160051c81016020841062002bae575b601f830160051c8201811062002ba157505062000ffd565b6000815560010162002b89565b508062002b89565b90607f169062000fe9565b01519050388062000e2b565b906002850160005260206000209160005b601f198516811062002c2b575091839160019360039695601f1981161062002c12575b505050811b01600284015562000e42565b015160001983871b60f8161c1916905538808062002c01565b9192602060018192868501518155019401920162002bde565b600285016000526020600020601f840160051c81016020851062002c88575b601f830160051c8201811062002c7b57505062000e0c565b6000815560010162002c63565b508062002c63565b90607f169062000df8565b01519050388062000db5565b6001840160005260206000209060005b601f198416811062002d015750600193949583601f1981161062002ce7575b505050811b01600183015562000dcd565b015160001960f88460031b161c1916905538808062002cd6565b9091602060018192858a01518155019301910162002cb7565b600184016000526020600020601f830160051c81016020841062002d5e575b601f830160051c8201811062002d5157505062000d99565b6000815560010162002d39565b508062002d39565b90607f169062000d85565b01519050388062000b77565b906002850160005260206000209160005b601f198516811062002ddb575091839160019360039695601f1981161062002dc2575b505050811b01600284015562000b8e565b015160001983871b60f8161c1916905538808062002db1565b9192602060018192868501518155019401920162002d8e565b600285016000526020600020601f840160051c81016020851062002e38575b601f830160051c8201811062002e2b57505062000b58565b6000815560010162002e13565b508062002e13565b90607f169062000b44565b01519050388062000b01565b6001840160005260206000209060005b601f198416811062002eb15750600193949583601f1981161062002e97575b505050811b01600183015562000b19565b015160001960f88460031b161c1916905538808062002e86565b9091602060018192858a01518155019301910162002e67565b600184016000526020600020601f830160051c81016020841062002f0e575b601f830160051c8201811062002f0157505062000ae5565b6000815560010162002ee9565b508062002ee9565b90607f169062000ad1565b015190503880620008f5565b906002850160005260206000209160005b601f198516811062002f8b575091839160019360039695601f1981161062002f72575b505050811b0160028401556200090c565b015160001983871b60f8161c1916905538808062002f61565b9192602060018192868501518155019401920162002f3e565b600285016000526020600020601f840160051c81016020851062002fe8575b601f830160051c8201811062002fdb575050620008d6565b6000815560010162002fc3565b508062002fc3565b90607f1690620008c2565b0151905038806200087f565b6001840160005260206000209060005b601f1984168110620030615750600193949583601f1981161062003047575b505050811b01600183015562000897565b015160001960f88460031b161c1916905538808062003036565b9091602060018192858a01518155019301910162003017565b600184016000526020600020601f830160051c810160208410620030be575b601f830160051c82018110620030b157505062000863565b6000815560010162003099565b508062003099565b90607f16906200084f565b0151905038806200069d565b906002850160005260206000209160005b601f19851681106200313b575091839160019360039695601f1981161062003122575b505050811b016002840155620006b4565b015160001983871b60f8161c1916905538808062003111565b91926020600181928685015181550194019201620030ee565b600285016000526020600020601f840160051c81016020851062003198575b601f830160051c820181106200318b5750506200067e565b6000815560010162003173565b508062003173565b90607f16906200066a565b01519050388062000627565b6001840160005260206000209060005b601f1984168110620032115750600193949583601f19811610620031f7575b505050811b0160018301556200063f565b015160001960f88460031b161c19169055388080620031e6565b9091602060018192858a015181550193019101620031c7565b600184016000526020600020601f830160051c8101602084106200326e575b601f830160051c82018110620032615750506200060b565b6000815560010162003249565b508062003249565b90607f1690620005f7565b01519050388062000454565b906002850160005260206000209160005b601f1985168110620032eb575091839160019360039695601f19811610620032d2575b505050811b0160028401556200046b565b015160001983871b60f8161c19169055388080620032c1565b919260206001819286850151815501940192016200329e565b600285016000526020600020601f840160051c81016020851062003348575b601f830160051c820181106200333b57505062000435565b6000815560010162003323565b508062003323565b90607f169062000421565b015190503880620003de565b6001840160005260206000209060005b601f1984168110620033c15750600193949583601f19811610620033a7575b505050811b016001830155620003f6565b015160001960f88460031b161c1916905538808062003396565b9091602060018192858a01518155019301910162003377565b600184016000526020600020601f830160051c8101602084106200341e575b601f830160051c8201811062003411575050620003c2565b60008155600101620033f9565b5080620033f9565b90607f1690620003ae565b015190503880620001e7565b906002850160005260206000209160005b601f19851681106200349b575091839160019360039695601f1981161062003482575b505050811b016002840155620001fe565b015160001983871b60f8161c1916905538808062003471565b919260206001819286850151815501940192016200344e565b600285016000526020600020601f840160051c810160208510620034f8575b601f830160051c82018110620034eb575050620001c8565b60008155600101620034d3565b5080620034d3565b90607f1690620001b1565b0151905038806200016d565b6001840160005260206000209060005b601f1984168110620035715750600193949583601f1981161062003557575b505050811b01600183015562000185565b015160001960f88460031b161c1916905538808062003546565b9091602060018192858a01518155019301910162003527565b600184016000526020600020601f830160051c810160208410620035ce575b601f830160051c82018110620035c157505062000151565b60008155600101620035a9565b5080620035a9565b90607f16906200013d565b600080fd5b6040519061018082016001600160401b03811183821017620020b557604052565b60408051919082016001600160401b03811183821017620020b557604052565b60405190606082016001600160401b03811183821017620020b55760405256fe60806040818152600436101561001457600080fd5b600091823560e01c908163179ad919146101d7575080634e66a6601461014a5763dabb05311461004357600080fd5b346101465760203660031901126101465780916004358152806020522081519161006c836102c4565b81549280808060ff9485881682526020820195808960081c16875281830197818a60101c16895281606085019a60181c168a52600181016100ac906102f7565b60808501908152926100c0600283016102f7565b918260a087015260030154938385161515938460c088015280808080808a60081c161515998a60e08d0152818160101c161515610100819d0152818160181c161515610120819e0152818160201c161515610140819f015260281c1615159c8d61016082015251169c51169c51169c5116905191519b8c9b6101429b8d610412565b0390f35b5080fd5b5034610146576020366003190112610146578091600435815280602052209061014282549161017b600185016102f7565b93600361018a600283016102f7565b910154915194859460ff93848160281c1694808260201c1694818360181c1694828460101c169483808660081c16951693808260181c1691818160101c1691808260081c1691168d610412565b905082346102c15760203660031901126102c1576004359060ff9182811680910361014657818591849352806020522092610211816102c4565b8354908282168152828260081c16602082015261016083600388840197828660101c16895282606086019660181c16865261024e600182016102f7565b608086015261025f600282016102f7565b60a08601520154818116151560c0850152818160081c16151560e0850152818160101c161515610100850152818160181c161515610120850152818160201c16151561014085015260281c161515910152511691511682519182526020820152f35b80fd5b610180810190811067ffffffffffffffff8211176102e157604052565b634e487b7160e01b600052604160045260246000fd5b9060405191600090805490600182811c918184169384156103c8575b60209485851081146103b457848952908115610396575060011461035a575b50505050829003601f01601f1916820167ffffffffffffffff8111838210176102e157604052565b909293506000528260002091836000935b838510610382575050505083010138808080610332565b80548886018301529301928490820161036b565b60ff191688860152505050151560051b840101905038808080610332565b634e487b7160e01b87526022600452602487fd5b92607f1692610313565b919082519283825260005b8481106103fe575050826000602080949584010152601f8019910116010190565b6020818301810151848301820152016103dd565b9a979490610464948c6101609c999f9e9b989560ff6040918161045698818098168652166020850152169101521660608c01526101808060808d01528b01906103d2565b9089820360a08b01526103d2565b98151560c0880152151560e0870152151561010086015215156101208501521515610140840152151591015256fea2646970667358221220bb083a59865564836ae2d934429cd0d82095bb8210204e1c3d6ab552a3682cee64736f6c63430008100033",
  "linkReferences": {},
  "deployedLinkReferences": {}
}