{
  "_format": "hh-sol-artifact-1",
  "contractName": "Characters",
  "sourceName": "contracts/Characters.sol",
  "abi": [
    {
      "inputs": [],
      "stateMutability": "nonpayable",
      "type": "constructor"
    },
    {
      "inputs": [],
      "name": "Brian",
      "outputs": [
        {
          "internalType": "uint256",
          "name": "health",
          "type": "uint256"
        },
        {
          "internalType": "uint256",
          "name": "attack",
          "type": "uint256"
        },
        {
          "internalType": "uint256",
          "name": "manaCost",
          "type": "uint256"
        },
        {
          "internalType": "uint256",
          "name": "id",
          "type": "uint256"
        },
        {
          "internalType": "string",
          "name": "name",
          "type": "string"
        },
        {
          "internalType": "string",
          "name": "description",
          "type": "string"
        },
        {
          "internalType": "bool",
          "name": "taunt",
          "type": "bool"
        },
        {
          "internalType": "bool",
          "name": "windfury",
          "type": "bool"
        },
        {
          "internalType": "bool",
          "name": "divineshield",
          "type": "bool"
        },
        {
          "internalType": "bool",
          "name": "stealth",
          "type": "bool"
        },
        {
          "internalType": "bool",
          "name": "poisonious",
          "type": "bool"
        }
      ],
      "stateMutability": "view",
      "type": "function"
    },
    {
      "inputs": [],
      "name": "Invincible",
      "outputs": [
        {
          "internalType": "uint256",
          "name": "health",
          "type": "uint256"
        },
        {
          "internalType": "uint256",
          "name": "attack",
          "type": "uint256"
        },
        {
          "internalType": "uint256",
          "name": "manaCost",
          "type": "uint256"
        },
        {
          "internalType": "uint256",
          "name": "id",
          "type": "uint256"
        },
        {
          "internalType": "string",
          "name": "name",
          "type": "string"
        },
        {
          "internalType": "string",
          "name": "description",
          "type": "string"
        },
        {
          "internalType": "bool",
          "name": "taunt",
          "type": "bool"
        },
        {
          "internalType": "bool",
          "name": "windfury",
          "type": "bool"
        },
        {
          "internalType": "bool",
          "name": "divineshield",
          "type": "bool"
        },
        {
          "internalType": "bool",
          "name": "stealth",
          "type": "bool"
        },
        {
          "internalType": "bool",
          "name": "poisonious",
          "type": "bool"
        }
      ],
      "stateMutability": "view",
      "type": "function"
    },
    {
      "inputs": [
        {
          "internalType": "uint256",
          "name": "id",
          "type": "uint256"
        }
      ],
      "name": "getCharacter",
      "outputs": [
        {
          "internalType": "uint256",
          "name": "",
          "type": "uint256"
        },
        {
          "internalType": "uint256",
          "name": "",
          "type": "uint256"
        },
        {
          "internalType": "uint256",
          "name": "",
          "type": "uint256"
        },
        {
          "internalType": "uint256",
          "name": "",
          "type": "uint256"
        },
        {
          "internalType": "string",
          "name": "",
          "type": "string"
        },
        {
          "internalType": "string",
          "name": "",
          "type": "string"
        },
        {
          "internalType": "bool",
          "name": "",
          "type": "bool"
        },
        {
          "internalType": "bool",
          "name": "",
          "type": "bool"
        },
        {
          "internalType": "bool",
          "name": "",
          "type": "bool"
        },
        {
          "internalType": "bool",
          "name": "",
          "type": "bool"
        },
        {
          "internalType": "bool",
          "name": "",
          "type": "bool"
        }
      ],
      "stateMutability": "view",
      "type": "function"
    }
  ],
  "bytecode": "0x6080604052346200240a57620000146200240f565b600181526002602082015260016040820152600160608201526200003762002430565b60088152673232b332b73232b960c11b602082015260808201526200005b62002450565b602581527f476976652061646a7573746564206d696e696f6e73202b312f2b3120616e64206020820152641d185d5b9d60da1b604082015260a0820152600060c0820152600060e08201526000610100820152600061012082015260006101408201528051600155602081015160025560408101516003556060810151600455608081015180519060018060401b038211620011985781906200010060055462002470565b601f8111620023b4575b50602090601f8311600114620023255760009262002319575b50508160011b916000199060031b1c1916176005555b60a08101518051906001600160401b038211620011985781906200015f60065462002470565b601f8111620022b8575b50602090601f83116001146200223a576000926200222e575b50508160011b916000199060031b1c1916176006555b60c081015115159063ff00000060075462ff000061ff0060e0850151151560081b1661010085015115159260ff64ff000000006101406101208901511515980151151560201b1697169064ffffffffff191617179160101b16179160181b161717600755620002066200240f565b60038152602081016003815260408201600381526060830190600282526200022d62002430565b92600a845269666c657463686c696e6760b01b6020850152608085019384526200025662002450565b602681527f41667465722074686973206d696e6f6e2061747461636b732061206865726f2c602082015265081059185c1d60d21b604082015260a0860152600060c0860152600060e086015260006101008601526000610120860152600061014086015284516008555160095551600a5551600b555180519060018060401b03821162001198578190620002ec600c5462002470565b601f8111620021cd575b50602090601f83116001146200214f5760009262002143575b50508160011b916000199060031b1c191617600c555b60a08101518051906001600160401b038211620011985781906200034b600d5462002470565b601f8111620020e2575b50602090601f8311600114620020645760009262002058575b50508160011b916000199060031b1c191617600d555b60c0810151151590600e5461ff0060e0830151151560081b1662ff0000610100840151151560101b169160ff64ff0000000061014063ff000000610120880151151560181b16960151151560201b1695169064ffffffffff19161717171717600e55620003f06200240f565b600581526003602082015260046040820152600360608201526200041362002430565b60048152635965746960e01b6020820152608082015260405180602081011060018060401b036020830111176200119857602081016040526000815260a0820152600060c0820152600060e08201526000610100820152600061012082015260006101408201528051600f55602081015160105560408101516011556060810151601255608081015180519060018060401b03821162001198578190620004bc60135462002470565b601f811162001ff7575b50602090601f831160011462001f795760009262001f6d575b50508160011b916000199060031b1c1916176013555b60a08101518051906001600160401b038211620011985781906200051b60145462002470565b601f811162001f0c575b50602090601f831160011462001e8e5760009262001e82575b50508160011b916000199060031b1c1916176014555b60c081015115159060155461ff0060e0830151151560081b1662ff0000610100840151151560101b169160ff64ff0000000061014063ff000000610120880151151560181b16960151151560201b1695169064ffffffffff19161717171717601555620005c06200240f565b6003815260208101600281526040820160028152606083019060048252620005e762002430565b92600584526429b1b930b160d91b6020850152608085019384526200060b62002430565b601981527f4465617468726174746c653a206761696e20322061726d6f7200000000000000602082015260a0860152600060c0860152600060e086015260006101008601526000610120860152600061014086015284516016555160175551601855516019555180519060018060401b0382116200119857819062000692601a5462002470565b601f811162001e21575b50602090601f831160011462001da35760009262001d97575b50508160011b916000199060031b1c191617601a555b60a08101518051906001600160401b03821162001198578190620006f1601b5462002470565b601f811162001d36575b50602090601f831160011462001cb85760009262001cac575b50508160011b916000199060031b1c191617601b555b60c0810151151590601c5461ff0060e0830151151560081b1662ff0000610100840151151560101b169160ff64ff0000000061014063ff000000610120880151151560181b16960151151560201b1695169064ffffffffff19161717171717601c55620007966200240f565b600c815260208101600c81526040820160058152606083019060058252620007bd62002430565b926009845268446561746877696e6760b81b602085015260808501938452620007e562002450565b603a81527f426174746c656372793a2044657374726f7920616c6c206f74686572206d696e60208201527f696f6e7320616e64206469736361726420796f75722068616e64000000000000604082015260a0860152600060c0860152600060e08601526000610100860152600061012086015260006101408601528451601d5551601e5551601f55516020555180519060018060401b038211620011985781906200089260215462002470565b601f811162001c4b575b50602090601f831160011462001bcd5760009262001bc1575b50508160011b916000199060031b1c1916176021555b60a08101518051906001600160401b03821162001198578190620008f160225462002470565b601f811162001b60575b50602090601f831160011462001ae25760009262001ad6575b50508160011b916000199060031b1c1916176022555b60c081015115159060235461ff0060e0830151151560081b1662ff0000610100840151151560101b169160ff64ff0000000061014063ff000000610120880151151560181b16960151151560201b1695169064ffffffffff19161717171717602355620009966200240f565b60088152600460208201526007604082015260066060820152620009b962002430565b600a815269696e76696e6369626c6560b01b6020820152608082015260405180608081011060018060401b03608083011117620011985760808101604052604f81527f5265626f726e2c426174746c6563727920616e64204465617468726174746c6560208201527f3a204769766520612072616e646f6d20667269656e646c79206d696e696f6e2060408201526e0acd4bcacd48185b990815185d5b9d608a1b606082015260a0820152600060c0820152600060e08201526000610100820152600061012082015260006101408201528051602455602081015160255560408101516026556060810151602755608081015180519060018060401b0382116200119857819062000acc60285462002470565b601f811162001a75575b50602090601f8311600114620019f757600092620019eb575b50508160011b916000199060031b1c1916176028555b60a08101518051906001600160401b0382116200119857819062000b2b60295462002470565b601f81116200198a575b50602090601f83116001146200190c5760009262001900575b50508160011b916000199060031b1c1916176029555b60c0810151151590602a5461ff0060e0830151151560081b1662ff0000610100840151151560101b169160ff64ff0000000061014063ff000000610120880151151560181b16960151151560201b1695169064ffffffffff19161717171717602a5562000bd06200240f565b6004815260026020820152600360408201526007606082015262000bf362002430565b6011815270109c9a585b88109c9bdb9e995099585c99607a1b6020820152608082015262000c2062002430565b601c81527f596f757220626174746c65637279207472696767657220747769636500000000602082015260a0820152600060c0820152600060e08201526000610100820152600061012082015260006101408201528051602b556020810151602c556040810151602d556060810151602e55608081015180519060018060401b0382116200119857819062000cb7602f5462002470565b601f81116200189f575b50602090601f8311600114620018215760009262001815575b50508160011b916000199060031b1c191617602f555b60a08101518051906001600160401b0382116200119857819062000d1660305462002470565b601f8111620017b4575b50602090601f831160011462001736576000926200172a575b50508160011b916000199060031b1c1916176030555b60c081015115159060315461ff0060e0830151151560081b1662ff0000610100840151151560101b169160ff64ff0000000061014063ff000000610120880151151560181b16960151151560201b1695169064ffffffffff19161717171717603155600054680100000000000000008110156200119857600181018060005581101562001182576000805260070260008051602062003bd38339815191528101907f290decd9548b62a8d60345a988386fc84ba6bc95484008f6362f93160ef3e5620162001640575b50600054680100000000000000008110156200119857600181018060005581101562001182576000805260070260008051602062003bd38339815191528101907f290decd9548b62a8d60345a988386fc84ba6bc95484008f6362f93160ef3e55b0162001556575b50600054680100000000000000008110156200119857600181018060005581101562001182576000805260070260008051602062003bd38339815191528101907f290decd9548b62a8d60345a988386fc84ba6bc95484008f6362f93160ef3e554016200146c575b50600054680100000000000000008110156200119857600181018060005581101562001182576000805260070260008051602062003bd38339815191528101907f290decd9548b62a8d60345a988386fc84ba6bc95484008f6362f93160ef3e54d0162001382575b50600054680100000000000000008110156200119857600181018060005581101562001182576000805260070260008051602062003bd38339815191528101907f290decd9548b62a8d60345a988386fc84ba6bc95484008f6362f93160ef3e5460162001298575b50600054680100000000000000008110156200119857600181018060005581101562001182576000805260070260008051602062003bd38339815191528101907f290decd9548b62a8d60345a988386fc84ba6bc95484008f6362f93160ef3e53f01620011ae575b50600054680100000000000000008110156200119857600181018060005581101562001182576000805260070260008051602062003bd38339815191528101907f290decd9548b62a8d60345a988386fc84ba6bc95484008f6362f93160ef3e5380162001098575b6040516106e39081620034b08239f35b60066200117b91602b548155602c546001820155602d546002820155602e546003820155620010ca600482016200326b565b620010d8600582016200338d565b01620010f560ff60315416829060ff801983541691151516179055565b603154815461ff001916600891821c60ff16151590911b61ff0016178155603154815462ff00001916601091821c60ff16151590911b62ff000016178155603154815463ff0000001916601891821c60ff16151590911b63ff0000001617815560ff60315460201c1664ff00000000825491151560201b169064ff000000001916179055565b3862001088565b634e487b7160e01b600052603260045260246000fd5b634e487b7160e01b600052604160045260246000fd5b600662001291916024548155602554600182015560265460028201556027546003820155620011e06004820162003027565b620011ee6005820162003149565b016200120b60ff602a5416829060ff801983541691151516179055565b602a54815461ff001916600891821c60ff16151590911b61ff0016178155602a54815462ff00001916601091821c60ff16151590911b62ff000016178155602a54815463ff0000001916601891821c60ff16151590911b63ff0000001617815560ff602a5460201c1664ff00000000825491151560201b169064ff000000001916179055565b3862001020565b60066200137b91601d548155601e546001820155601f5460028201556020546003820155620012ca6004820162002de3565b620012d86005820162002f05565b01620012f560ff60235416829060ff801983541691151516179055565b602354815461ff001916600891821c60ff16151590911b61ff0016178155602354815462ff00001916601091821c60ff16151590911b62ff000016178155602354815463ff0000001916601891821c60ff16151590911b63ff0000001617815560ff60235460201c1664ff00000000825491151560201b169064ff000000001916179055565b3862000fb8565b600662001465916016548155601754600182015560185460028201556019546003820155620013b46004820162002b9f565b620013c26005820162002cc1565b01620013df60ff601c5416829060ff801983541691151516179055565b601c54815461ff001916600891821c60ff16151590911b61ff0016178155601c54815462ff00001916601091821c60ff16151590911b62ff000016178155601c54815463ff0000001916601891821c60ff16151590911b63ff0000001617815560ff601c5460201c1664ff00000000825491151560201b169064ff000000001916179055565b3862000f50565b60066200154f91600f5481556010546001820155601154600282015560125460038201556200149e600482016200295b565b620014ac6005820162002a7d565b01620014c960ff60155416829060ff801983541691151516179055565b601554815461ff001916600891821c60ff16151590911b61ff0016178155601554815462ff00001916601091821c60ff16151590911b62ff000016178155601554815463ff0000001916601891821c60ff16151590911b63ff0000001617815560ff60155460201c1664ff00000000825491151560201b169064ff000000001916179055565b3862000ee8565b6006620016399160085481556009546001820155600a546002820155600b546003820155620015886004820162002717565b620015966005820162002839565b01620015b360ff600e5416829060ff801983541691151516179055565b600e54815461ff001916600891821c60ff16151590911b61ff0016178155600e54815462ff00001916601091821c60ff16151590911b62ff000016178155600e54815463ff0000001916601891821c60ff16151590911b63ff0000001617815560ff600e5460201c1664ff00000000825491151560201b169064ff000000001916179055565b3862000e80565b6006620017239160015481556002546001820155600354600282015560045460038201556200167260048201620024ad565b6200168060058201620025f1565b016200169d60ff60075416829060ff801983541691151516179055565b600754815461ff001916600891821c60ff16151590911b61ff0016178155600754815462ff00001916601091821c60ff16151590911b62ff000016178155600754815463ff0000001916601891821c60ff16151590911b63ff0000001617815560ff60075460201c1664ff00000000825491151560201b169064ff000000001916179055565b3862000e18565b01519050388062000d39565b60306000908152935060008051602062003cf383398151915291905b601f198416851062001798576001945083601f198116106200177e575b505050811b0160305562000d4f565b015160001960f88460031b161c191690553880806200176f565b8181015183556020948501946001909301929091019062001752565b603060005290915060008051602062003cf3833981519152601f840160051c8101602085106200180d575b90849392915b601f830160051c82018110620017fd57505062000d20565b60008155859450600101620017e5565b5080620017df565b01519050388062000cda565b602f6000908152935060008051602062003b9383398151915291905b601f198416851062001883576001945083601f1981161062001869575b505050811b01602f5562000cf0565b015160001960f88460031b161c191690553880806200185a565b818101518355602094850194600190930192909101906200183d565b602f60005290915060008051602062003b93833981519152601f840160051c810160208510620018f8575b90849392915b601f830160051c82018110620018e857505062000cc1565b60008155859450600101620018d0565b5080620018ca565b01519050388062000b4e565b60296000908152935060008051602062003c9383398151915291905b601f19841685106200196e576001945083601f1981161062001954575b505050811b0160295562000b64565b015160001960f88460031b161c1916905538808062001945565b8181015183556020948501946001909301929091019062001928565b602960005290915060008051602062003c93833981519152601f840160051c810160208510620019e3575b90849392915b601f830160051c82018110620019d357505062000b35565b60008155859450600101620019bb565b5080620019b5565b01519050388062000aef565b60286000908152935060008051602062003d3383398151915291905b601f198416851062001a59576001945083601f1981161062001a3f575b505050811b0160285562000b05565b015160001960f88460031b161c1916905538808062001a30565b8181015183556020948501946001909301929091019062001a13565b602860005290915060008051602062003d33833981519152601f840160051c81016020851062001ace575b90849392915b601f830160051c8201811062001abe57505062000ad6565b6000815585945060010162001aa6565b508062001aa0565b01519050388062000914565b60226000908152935060008051602062003bf383398151915291905b601f198416851062001b44576001945083601f1981161062001b2a575b505050811b016022556200092a565b015160001960f88460031b161c1916905538808062001b1b565b8181015183556020948501946001909301929091019062001afe565b602260005290915060008051602062003bf3833981519152601f840160051c81016020851062001bb9575b90849392915b601f830160051c8201811062001ba9575050620008fb565b6000815585945060010162001b91565b508062001b8b565b015190503880620008b5565b60216000908152935060008051602062003c7383398151915291905b601f198416851062001c2f576001945083601f1981161062001c15575b505050811b01602155620008cb565b015160001960f88460031b161c1916905538808062001c06565b8181015183556020948501946001909301929091019062001be9565b602160005290915060008051602062003c73833981519152601f840160051c81016020851062001ca4575b90849392915b601f830160051c8201811062001c945750506200089c565b6000815585945060010162001c7c565b508062001c76565b01519050388062000714565b601b6000908152935060008051602062003c1383398151915291905b601f198416851062001d1a576001945083601f1981161062001d00575b505050811b01601b556200072a565b015160001960f88460031b161c1916905538808062001cf1565b8181015183556020948501946001909301929091019062001cd4565b601b60005290915060008051602062003c13833981519152601f840160051c81016020851062001d8f575b90849392915b601f830160051c8201811062001d7f575050620006fb565b6000815585945060010162001d67565b508062001d61565b015190503880620006b5565b601a6000908152935060008051602062003cb383398151915291905b601f198416851062001e05576001945083601f1981161062001deb575b505050811b01601a55620006cb565b015160001960f88460031b161c1916905538808062001ddc565b8181015183556020948501946001909301929091019062001dbf565b601a60005290915060008051602062003cb3833981519152601f840160051c81016020851062001e7a575b90849392915b601f830160051c8201811062001e6a5750506200069c565b6000815585945060010162001e52565b508062001e4c565b0151905038806200053e565b60146000908152935060008051602062003d1383398151915291905b601f198416851062001ef0576001945083601f1981161062001ed6575b505050811b0160145562000554565b015160001960f88460031b161c1916905538808062001ec7565b8181015183556020948501946001909301929091019062001eaa565b601460005290915060008051602062003d13833981519152601f840160051c81016020851062001f65575b90849392915b601f830160051c8201811062001f5557505062000525565b6000815585945060010162001f3d565b508062001f37565b015190503880620004df565b60136000908152935060008051602062003c5383398151915291905b601f198416851062001fdb576001945083601f1981161062001fc1575b505050811b01601355620004f5565b015160001960f88460031b161c1916905538808062001fb2565b8181015183556020948501946001909301929091019062001f95565b601360005290915060008051602062003c53833981519152601f840160051c81016020851062002050575b90849392915b601f830160051c8201811062002040575050620004c6565b6000815585945060010162002028565b508062002022565b0151905038806200036e565b600d6000908152935060008051602062003c3383398151915291905b601f1984168510620020c6576001945083601f19811610620020ac575b505050811b01600d5562000384565b015160001960f88460031b161c191690553880806200209d565b8181015183556020948501946001909301929091019062002080565b600d60005290915060008051602062003c33833981519152601f840160051c8101602085106200213b575b90849392915b601f830160051c820181106200212b57505062000355565b6000815585945060010162002113565b50806200210d565b0151905038806200030f565b600c6000908152935060008051602062003bb383398151915291905b601f1984168510620021b1576001945083601f1981161062002197575b505050811b01600c5562000325565b015160001960f88460031b161c1916905538808062002188565b818101518355602094850194600190930192909101906200216b565b600c60005290915060008051602062003bb3833981519152601f840160051c81016020851062002226575b90849392915b601f830160051c8201811062002216575050620002f6565b60008155859450600101620021fe565b5080620021f8565b01519050388062000182565b60066000908152935060008051602062003cd383398151915291905b601f19841685106200229c576001945083601f1981161062002282575b505050811b0160065562000198565b015160001960f88460031b161c1916905538808062002273565b8181015183556020948501946001909301929091019062002256565b600660005290915060008051602062003cd3833981519152601f840160051c81016020851062002311575b90849392915b601f830160051c820181106200230157505062000169565b60008155859450600101620022e9565b5080620022e3565b01519050388062000123565b6005600090815293507f036b6384b5eca791c62761152d0c79bb0604c104a5fb6f4eb0703f3154bb3db091905b601f198416851062002398576001945083601f198116106200237e575b505050811b0160055562000139565b015160001960f88460031b161c191690553880806200236f565b8181015183556020948501946001909301929091019062002352565b90915060056000526020600020601f840160051c81016020851062002402575b90849392915b601f830160051c82018110620023f25750506200010a565b60008155859450600101620023da565b5080620023d4565b600080fd5b6040519061016082016001600160401b038111838210176200119857604052565b60408051919082016001600160401b038111838210176200119857604052565b60405190606082016001600160401b038111838210176200119857604052565b90600182811c92168015620024a2575b60208310146200248c57565b634e487b7160e01b600052602260045260246000fd5b91607f169162002480565b6005808214620025ed57620024c3815462002470565b906001600160401b03821162001198578190620024e1845462002470565b601f811162002596575b50600090601f831160011462002526576000926200251a575b50508160011b916000199060031b1c1916179055565b01549050388062002504565b81526020808220858352818320935090601f1985169083905b8282106200257c57505090846001959493921062002562575b505050811b019055565b015460001960f88460031b161c1916905538808062002558565b84958192958501548155600180910196019401906200253f565b909150600084815260208120601f8501841c81019260208610620025e2575b90601f869594939201841c01915b828110620025d3575050620024eb565b818155859450600101620025c3565b9092508290620025b5565b5050565b6006811462002714576200260760065462002470565b6001600160401b038111620011985762002622825462002470565b601f8111620026c7575b50806000601f821160011462002667576000916200265a575b508160011b916000199060031b1c1916179055565b9050600601543862002645565b8381526020808220925060008051602062003cd383398151915290601f1985169083905b828210620026ad5750509084600195949392106200256257505050811b019055565b84958192958501548155600180910196019401906200268b565b600083815260208120601f840160051c8101926020851062002709575b601f0160051c01915b828110620026fd5750506200262c565b818155600101620026ed565b9092508290620026e4565b50565b600c811462002714576200272d600c5462002470565b6001600160401b038111620011985762002748825462002470565b601f8111620027ec575b50806000601f82116001146200278c576000916200277f57508160011b916000199060031b1c1916179055565b9050600c01543862002645565b8381526020808220925060008051602062003bb383398151915290601f1985169083905b828210620027d25750509084600195949392106200256257505050811b019055565b8495819295850154815560018091019601940190620027b0565b600083815260208120601f840160051c810192602085106200282e575b601f0160051c01915b8281106200282257505062002752565b81815560010162002812565b909250829062002809565b600d811462002714576200284f600d5462002470565b6001600160401b03811162001198576200286a825462002470565b601f81116200290e575b50806000601f8211600114620028ae57600091620028a157508160011b916000199060031b1c1916179055565b9050600d01543862002645565b8381526020808220925060008051602062003c3383398151915290601f1985169083905b828210620028f45750509084600195949392106200256257505050811b019055565b8495819295850154815560018091019601940190620028d2565b600083815260208120601f840160051c8101926020851062002950575b601f0160051c01915b8281106200294457505062002874565b81815560010162002934565b90925082906200292b565b6013811462002714576200297160135462002470565b6001600160401b03811162001198576200298c825462002470565b601f811162002a30575b50806000601f8211600114620029d057600091620029c357508160011b916000199060031b1c1916179055565b9050601301543862002645565b8381526020808220925060008051602062003c5383398151915290601f1985169083905b82821062002a165750509084600195949392106200256257505050811b019055565b8495819295850154815560018091019601940190620029f4565b600083815260208120601f840160051c8101926020851062002a72575b601f0160051c01915b82811062002a6657505062002996565b81815560010162002a56565b909250829062002a4d565b60148114620027145762002a9360145462002470565b6001600160401b038111620011985762002aae825462002470565b601f811162002b52575b50806000601f821160011462002af25760009162002ae557508160011b916000199060031b1c1916179055565b9050601401543862002645565b8381526020808220925060008051602062003d1383398151915290601f1985169083905b82821062002b385750509084600195949392106200256257505050811b019055565b849581929585015481556001809101960194019062002b16565b600083815260208120601f840160051c8101926020851062002b94575b601f0160051c01915b82811062002b8857505062002ab8565b81815560010162002b78565b909250829062002b6f565b601a8114620027145762002bb5601a5462002470565b6001600160401b038111620011985762002bd0825462002470565b601f811162002c74575b50806000601f821160011462002c145760009162002c0757508160011b916000199060031b1c1916179055565b9050601a01543862002645565b8381526020808220925060008051602062003cb383398151915290601f1985169083905b82821062002c5a5750509084600195949392106200256257505050811b019055565b849581929585015481556001809101960194019062002c38565b600083815260208120601f840160051c8101926020851062002cb6575b601f0160051c01915b82811062002caa57505062002bda565b81815560010162002c9a565b909250829062002c91565b601b8114620027145762002cd7601b5462002470565b6001600160401b038111620011985762002cf2825462002470565b601f811162002d96575b50806000601f821160011462002d365760009162002d2957508160011b916000199060031b1c1916179055565b9050601b01543862002645565b8381526020808220925060008051602062003c1383398151915290601f1985169083905b82821062002d7c5750509084600195949392106200256257505050811b019055565b849581929585015481556001809101960194019062002d5a565b600083815260208120601f840160051c8101926020851062002dd8575b601f0160051c01915b82811062002dcc57505062002cfc565b81815560010162002dbc565b909250829062002db3565b60218114620027145762002df960215462002470565b6001600160401b038111620011985762002e14825462002470565b601f811162002eb8575b50806000601f821160011462002e585760009162002e4b57508160011b916000199060031b1c1916179055565b9050602101543862002645565b8381526020808220925060008051602062003c7383398151915290601f1985169083905b82821062002e9e5750509084600195949392106200256257505050811b019055565b849581929585015481556001809101960194019062002e7c565b600083815260208120601f840160051c8101926020851062002efa575b601f0160051c01915b82811062002eee57505062002e1e565b81815560010162002ede565b909250829062002ed5565b60228114620027145762002f1b60225462002470565b6001600160401b038111620011985762002f36825462002470565b601f811162002fda575b50806000601f821160011462002f7a5760009162002f6d57508160011b916000199060031b1c1916179055565b9050602201543862002645565b8381526020808220925060008051602062003bf383398151915290601f1985169083905b82821062002fc05750509084600195949392106200256257505050811b019055565b849581929585015481556001809101960194019062002f9e565b600083815260208120601f840160051c810192602085106200301c575b601f0160051c01915b8281106200301057505062002f40565b81815560010162003000565b909250829062002ff7565b6028811462002714576200303d60285462002470565b6001600160401b038111620011985762003058825462002470565b601f8111620030fc575b50806000601f82116001146200309c576000916200308f57508160011b916000199060031b1c1916179055565b9050602801543862002645565b8381526020808220925060008051602062003d3383398151915290601f1985169083905b828210620030e25750509084600195949392106200256257505050811b019055565b8495819295850154815560018091019601940190620030c0565b600083815260208120601f840160051c810192602085106200313e575b601f0160051c01915b8281106200313257505062003062565b81815560010162003122565b909250829062003119565b6029811462002714576200315f60295462002470565b6001600160401b03811162001198576200317a825462002470565b601f81116200321e575b50806000601f8211600114620031be57600091620031b157508160011b916000199060031b1c1916179055565b9050602901543862002645565b8381526020808220925060008051602062003c9383398151915290601f1985169083905b828210620032045750509084600195949392106200256257505050811b019055565b8495819295850154815560018091019601940190620031e2565b600083815260208120601f840160051c8101926020851062003260575b601f0160051c01915b8281106200325457505062003184565b81815560010162003244565b90925082906200323b565b602f8114620027145762003281602f5462002470565b6001600160401b03811162001198576200329c825462002470565b601f811162003340575b50806000601f8211600114620032e057600091620032d357508160011b916000199060031b1c1916179055565b9050602f01543862002645565b8381526020808220925060008051602062003b9383398151915290601f1985169083905b828210620033265750509084600195949392106200256257505050811b019055565b849581929585015481556001809101960194019062003304565b600083815260208120601f840160051c8101926020851062003382575b601f0160051c01915b82811062003376575050620032a6565b81815560010162003366565b90925082906200335d565b603081146200271457620033a360305462002470565b6001600160401b0381116200119857620033be825462002470565b601f811162003462575b50806000601f82116001146200340257600091620033f557508160011b916000199060031b1c1916179055565b9050603001543862002645565b8381526020808220925060008051602062003cf383398151915290601f1985169083905b828210620034485750509084600195949392106200256257505050811b019055565b849581929585015481556001809101960194019062003426565b600083815260208120601f840160051c81019260208510620034a4575b601f0160051c01915b82811062003498575050620033c8565b81815560010162003488565b90925082906200347f56fe6080604081815260048036101561001557600080fd5b600092833560e01c90816309477f751461034c575080637cc60f2f146101755763dabb05311461004457600080fd5b34610171576020366003190112610171578035835481101561015e5783805260076020852091020182519061016082019482861067ffffffffffffffff87111761014b5750839461014793945280548252600181015493602083019485526002820154958084019687526100c5600384015492606086019384528401610530565b906080850191825260066100db60058601610530565b948560a088015201549360ff85161515918260c088015260ff8660081c161515938460e089015260ff8760101c16151595866101008a015260ff808960181c16151598896101208c015260201c1615159889610140820152519a519b519051915192519b8c9b8c610641565b0390f35b634e487b7160e01b815260418452602490fd5b634e487b7160e01b845260328252602484fd5b8280fd5b5091903461034857816003193601126103485760245490602554906026549260275494825181602854986001938a851c858c169b8c1561033e575b60209c8d8310811461032b57918d93918793828552908160001461030d57506001146102d0575b506101e4925003846104f8565b855193826029548c81841c948483169182156102c6575b861082146102b35750848852908115610293575060011461025e575b60ff8c6101478d8d8d8d8d8d8d610230828f03836104f8565b602a54998a94519a8b9a1c169660ff8560181c169660ff8660101c169660ff808860081c169716958c610641565b9250602983528a83205b82841061028057505050820188018161023084610217565b80548685018d0152928b01928101610268565b60ff19168d880152505050151560051b8301890190508161023084610217565b634e487b7160e01b845260229052602483fd5b95607f16956101fb565b6028865283862086925088905b8284106102f657505050916101e4928201018c926101d7565b8054898501870152889450928501928991016102dd565b60ff191684860152508d9390151560051b83010190506101e46101d7565b634e487b7160e01b865260228552602486fd5b90607f16906101b0565b5080fd5b9050838334610348578160031936011261034857602b5490602c5491602d5493602e549581602f54986001938a851c858c169b8c156104ee575b60209c8d8310811461032b57918d9391879382855290816000146104d05750600114610493575b506103ba925003846104f8565b855193826030548c81841c94848316918215610489575b861082146102b357508488529081156104695750600114610434575b60ff8c6101478d8d8d8d8d8d8d610406828f03836104f8565b603154998a94519a8b9a1c169660ff8560181c169660ff8660101c169660ff808860081c169716958c610641565b9250603083528a83205b828410610456575050508201880181610406846103ed565b80548685018d0152928b0192810161043e565b60ff19168d880152505050151560051b83018901905081610406846103ed565b95607f16956103d1565b602f865283862086925088905b8284106104b957505050916103ba928201018c926103ad565b8054898501870152889450928501928991016104a0565b60ff191684860152508d9390151560051b83010190506103ba6103ad565b90607f1690610386565b90601f8019910116810190811067ffffffffffffffff82111761051a57604052565b634e487b7160e01b600052604160045260246000fd5b90604051906000835490600182811c908084169687156105f7575b60209485841089146105e357879884899798995290816000146105c15750600114610582575b505050610580925003836104f8565b565b600090815285812095935091905b8183106105a95750506105809350820101388080610571565b85548884018501529485019487945091830191610590565b9250505061058094925060ff191682840152151560051b820101388080610571565b634e487b7160e01b85526022600452602485fd5b91607f169161054b565b919082519283825260005b84811061062d575050826000602080949584010152601f8019910116010190565b60208183018101518483018201520161060c565b99969b9a9794909361014099969361067993610687968d5260208d015260408c015260608b01526101608060808c01528a0190610601565b9088820360a08a0152610601565b97151560c0870152151560e086015215156101008501521515610120840152151591015256fea2646970667358221220d776dd4f6580d332e826193f5b51193ab9a0f3b5ddb9d05b5630444d1b70d24b64736f6c63430008100033a813484aef6fb598f9f753daf162068ff39ccea4075cb95e1a30f86995b5b7eedf6966c971051c3d54ec59162606531493a51404a002842f56009d7e5cf4a8c7290decd9548b62a8d60345a988386fc84ba6bc95484008f6362f93160ef3e56361035b26e3e9eee00e0d72fd1ee8ddca6894550dca6916ea2ac6baa90d11e5103ad8aa4f87544323a9d1e5dd902f40c356527a7955687113db5f9a85ad579dc1d7b6990105719101dabeb77144f2a3385c8033acd3af97e9423a695e81ad1eb566de8ffda797e3de9c05e8fc57b3bf0ec28a930d40b0d285d93c06501cf6a0903a6357012c1a3ae0a17d304c9920310382d968ebcc4b1771f41c6b304205b570cb7c14ce178f56e2e8d86ab33ebc0ae081ba8556a00cd122038841867181caac057c384a7d1c54f3a1b2e5e67b2617b8224fdfd1ea7234eea573a6ff665ff63ef652222313e28459528d920b65115c16c04f3efc82aaedc97be59f3f377c0d3f6ff97a59c90d62cc7236ba3a37cd85351bf564556780cf8c1157a220f31f0cbbce6d7b5282bd9a3661ae061feed1dbda4e52ab073b1f9285be6e155d9c38d4ece16da923a2d88192e5070f37b4571d58682c0d66212ec634d495f33de3f77ab5",
  "linkReferences": {},
  "deployedLinkReferences": {}
}