{
  "_format": "hh-sol-artifact-1",
  "contractName": "Characters",
  "sourceName": "contracts/Characters.sol",
  "abi": [
    {
      "inputs": [],
      "stateMutability": "nonpayable",
      "type": "constructor"
    },
    {
      "inputs": [],
      "name": "Brian",
      "outputs": [
        {
          "internalType": "uint256",
          "name": "health",
          "type": "uint256"
        },
        {
          "internalType": "uint256",
          "name": "attack",
          "type": "uint256"
        },
        {
          "internalType": "uint256",
          "name": "manaCost",
          "type": "uint256"
        },
        {
          "internalType": "uint256",
          "name": "id",
          "type": "uint256"
        },
        {
          "internalType": "string",
          "name": "name",
          "type": "string"
        },
        {
          "internalType": "string",
          "name": "description",
          "type": "string"
        },
        {
          "internalType": "bool",
          "name": "taunt",
          "type": "bool"
        },
        {
          "internalType": "bool",
          "name": "windfury",
          "type": "bool"
        },
        {
          "internalType": "bool",
          "name": "divineshield",
          "type": "bool"
        },
        {
          "internalType": "bool",
          "name": "stealth",
          "type": "bool"
        },
        {
          "internalType": "bool",
          "name": "poisonious",
          "type": "bool"
        },
        {
          "internalType": "bool",
          "name": "asleep",
          "type": "bool"
        }
      ],
      "stateMutability": "view",
      "type": "function"
    },
    {
      "inputs": [],
      "name": "CrazedAlchemist",
      "outputs": [
        {
          "internalType": "uint256",
          "name": "health",
          "type": "uint256"
        },
        {
          "internalType": "uint256",
          "name": "attack",
          "type": "uint256"
        },
        {
          "internalType": "uint256",
          "name": "manaCost",
          "type": "uint256"
        },
        {
          "internalType": "uint256",
          "name": "id",
          "type": "uint256"
        },
        {
          "internalType": "string",
          "name": "name",
          "type": "string"
        },
        {
          "internalType": "string",
          "name": "description",
          "type": "string"
        },
        {
          "internalType": "bool",
          "name": "taunt",
          "type": "bool"
        },
        {
          "internalType": "bool",
          "name": "windfury",
          "type": "bool"
        },
        {
          "internalType": "bool",
          "name": "divineshield",
          "type": "bool"
        },
        {
          "internalType": "bool",
          "name": "stealth",
          "type": "bool"
        },
        {
          "internalType": "bool",
          "name": "poisonious",
          "type": "bool"
        },
        {
          "internalType": "bool",
          "name": "asleep",
          "type": "bool"
        }
      ],
      "stateMutability": "view",
      "type": "function"
    },
    {
      "inputs": [],
      "name": "CrazedWretch",
      "outputs": [
        {
          "internalType": "uint256",
          "name": "health",
          "type": "uint256"
        },
        {
          "internalType": "uint256",
          "name": "attack",
          "type": "uint256"
        },
        {
          "internalType": "uint256",
          "name": "manaCost",
          "type": "uint256"
        },
        {
          "internalType": "uint256",
          "name": "id",
          "type": "uint256"
        },
        {
          "internalType": "string",
          "name": "name",
          "type": "string"
        },
        {
          "internalType": "string",
          "name": "description",
          "type": "string"
        },
        {
          "internalType": "bool",
          "name": "taunt",
          "type": "bool"
        },
        {
          "internalType": "bool",
          "name": "windfury",
          "type": "bool"
        },
        {
          "internalType": "bool",
          "name": "divineshield",
          "type": "bool"
        },
        {
          "internalType": "bool",
          "name": "stealth",
          "type": "bool"
        },
        {
          "internalType": "bool",
          "name": "poisonious",
          "type": "bool"
        },
        {
          "internalType": "bool",
          "name": "asleep",
          "type": "bool"
        }
      ],
      "stateMutability": "view",
      "type": "function"
    },
    {
      "inputs": [],
      "name": "DerangedDocter",
      "outputs": [
        {
          "internalType": "uint256",
          "name": "health",
          "type": "uint256"
        },
        {
          "internalType": "uint256",
          "name": "attack",
          "type": "uint256"
        },
        {
          "internalType": "uint256",
          "name": "manaCost",
          "type": "uint256"
        },
        {
          "internalType": "uint256",
          "name": "id",
          "type": "uint256"
        },
        {
          "internalType": "string",
          "name": "name",
          "type": "string"
        },
        {
          "internalType": "string",
          "name": "description",
          "type": "string"
        },
        {
          "internalType": "bool",
          "name": "taunt",
          "type": "bool"
        },
        {
          "internalType": "bool",
          "name": "windfury",
          "type": "bool"
        },
        {
          "internalType": "bool",
          "name": "divineshield",
          "type": "bool"
        },
        {
          "internalType": "bool",
          "name": "stealth",
          "type": "bool"
        },
        {
          "internalType": "bool",
          "name": "poisonious",
          "type": "bool"
        },
        {
          "internalType": "bool",
          "name": "asleep",
          "type": "bool"
        }
      ],
      "stateMutability": "view",
      "type": "function"
    },
    {
      "inputs": [],
      "name": "Grizzly",
      "outputs": [
        {
          "internalType": "uint256",
          "name": "health",
          "type": "uint256"
        },
        {
          "internalType": "uint256",
          "name": "attack",
          "type": "uint256"
        },
        {
          "internalType": "uint256",
          "name": "manaCost",
          "type": "uint256"
        },
        {
          "internalType": "uint256",
          "name": "id",
          "type": "uint256"
        },
        {
          "internalType": "string",
          "name": "name",
          "type": "string"
        },
        {
          "internalType": "string",
          "name": "description",
          "type": "string"
        },
        {
          "internalType": "bool",
          "name": "taunt",
          "type": "bool"
        },
        {
          "internalType": "bool",
          "name": "windfury",
          "type": "bool"
        },
        {
          "internalType": "bool",
          "name": "divineshield",
          "type": "bool"
        },
        {
          "internalType": "bool",
          "name": "stealth",
          "type": "bool"
        },
        {
          "internalType": "bool",
          "name": "poisonious",
          "type": "bool"
        },
        {
          "internalType": "bool",
          "name": "asleep",
          "type": "bool"
        }
      ],
      "stateMutability": "view",
      "type": "function"
    },
    {
      "inputs": [],
      "name": "Gruul",
      "outputs": [
        {
          "internalType": "uint256",
          "name": "health",
          "type": "uint256"
        },
        {
          "internalType": "uint256",
          "name": "attack",
          "type": "uint256"
        },
        {
          "internalType": "uint256",
          "name": "manaCost",
          "type": "uint256"
        },
        {
          "internalType": "uint256",
          "name": "id",
          "type": "uint256"
        },
        {
          "internalType": "string",
          "name": "name",
          "type": "string"
        },
        {
          "internalType": "string",
          "name": "description",
          "type": "string"
        },
        {
          "internalType": "bool",
          "name": "taunt",
          "type": "bool"
        },
        {
          "internalType": "bool",
          "name": "windfury",
          "type": "bool"
        },
        {
          "internalType": "bool",
          "name": "divineshield",
          "type": "bool"
        },
        {
          "internalType": "bool",
          "name": "stealth",
          "type": "bool"
        },
        {
          "internalType": "bool",
          "name": "poisonious",
          "type": "bool"
        },
        {
          "internalType": "bool",
          "name": "asleep",
          "type": "bool"
        }
      ],
      "stateMutability": "view",
      "type": "function"
    },
    {
      "inputs": [],
      "name": "Invincible",
      "outputs": [
        {
          "internalType": "uint256",
          "name": "health",
          "type": "uint256"
        },
        {
          "internalType": "uint256",
          "name": "attack",
          "type": "uint256"
        },
        {
          "internalType": "uint256",
          "name": "manaCost",
          "type": "uint256"
        },
        {
          "internalType": "uint256",
          "name": "id",
          "type": "uint256"
        },
        {
          "internalType": "string",
          "name": "name",
          "type": "string"
        },
        {
          "internalType": "string",
          "name": "description",
          "type": "string"
        },
        {
          "internalType": "bool",
          "name": "taunt",
          "type": "bool"
        },
        {
          "internalType": "bool",
          "name": "windfury",
          "type": "bool"
        },
        {
          "internalType": "bool",
          "name": "divineshield",
          "type": "bool"
        },
        {
          "internalType": "bool",
          "name": "stealth",
          "type": "bool"
        },
        {
          "internalType": "bool",
          "name": "poisonious",
          "type": "bool"
        },
        {
          "internalType": "bool",
          "name": "asleep",
          "type": "bool"
        }
      ],
      "stateMutability": "view",
      "type": "function"
    },
    {
      "inputs": [],
      "name": "LeperGnome",
      "outputs": [
        {
          "internalType": "uint256",
          "name": "health",
          "type": "uint256"
        },
        {
          "internalType": "uint256",
          "name": "attack",
          "type": "uint256"
        },
        {
          "internalType": "uint256",
          "name": "manaCost",
          "type": "uint256"
        },
        {
          "internalType": "uint256",
          "name": "id",
          "type": "uint256"
        },
        {
          "internalType": "string",
          "name": "name",
          "type": "string"
        },
        {
          "internalType": "string",
          "name": "description",
          "type": "string"
        },
        {
          "internalType": "bool",
          "name": "taunt",
          "type": "bool"
        },
        {
          "internalType": "bool",
          "name": "windfury",
          "type": "bool"
        },
        {
          "internalType": "bool",
          "name": "divineshield",
          "type": "bool"
        },
        {
          "internalType": "bool",
          "name": "stealth",
          "type": "bool"
        },
        {
          "internalType": "bool",
          "name": "poisonious",
          "type": "bool"
        },
        {
          "internalType": "bool",
          "name": "asleep",
          "type": "bool"
        }
      ],
      "stateMutability": "view",
      "type": "function"
    },
    {
      "inputs": [],
      "name": "Mistress",
      "outputs": [
        {
          "internalType": "uint256",
          "name": "health",
          "type": "uint256"
        },
        {
          "internalType": "uint256",
          "name": "attack",
          "type": "uint256"
        },
        {
          "internalType": "uint256",
          "name": "manaCost",
          "type": "uint256"
        },
        {
          "internalType": "uint256",
          "name": "id",
          "type": "uint256"
        },
        {
          "internalType": "string",
          "name": "name",
          "type": "string"
        },
        {
          "internalType": "string",
          "name": "description",
          "type": "string"
        },
        {
          "internalType": "bool",
          "name": "taunt",
          "type": "bool"
        },
        {
          "internalType": "bool",
          "name": "windfury",
          "type": "bool"
        },
        {
          "internalType": "bool",
          "name": "divineshield",
          "type": "bool"
        },
        {
          "internalType": "bool",
          "name": "stealth",
          "type": "bool"
        },
        {
          "internalType": "bool",
          "name": "poisonious",
          "type": "bool"
        },
        {
          "internalType": "bool",
          "name": "asleep",
          "type": "bool"
        }
      ],
      "stateMutability": "view",
      "type": "function"
    },
    {
      "inputs": [],
      "name": "Shrinkmeister",
      "outputs": [
        {
          "internalType": "uint256",
          "name": "health",
          "type": "uint256"
        },
        {
          "internalType": "uint256",
          "name": "attack",
          "type": "uint256"
        },
        {
          "internalType": "uint256",
          "name": "manaCost",
          "type": "uint256"
        },
        {
          "internalType": "uint256",
          "name": "id",
          "type": "uint256"
        },
        {
          "internalType": "string",
          "name": "name",
          "type": "string"
        },
        {
          "internalType": "string",
          "name": "description",
          "type": "string"
        },
        {
          "internalType": "bool",
          "name": "taunt",
          "type": "bool"
        },
        {
          "internalType": "bool",
          "name": "windfury",
          "type": "bool"
        },
        {
          "internalType": "bool",
          "name": "divineshield",
          "type": "bool"
        },
        {
          "internalType": "bool",
          "name": "stealth",
          "type": "bool"
        },
        {
          "internalType": "bool",
          "name": "poisonious",
          "type": "bool"
        },
        {
          "internalType": "bool",
          "name": "asleep",
          "type": "bool"
        }
      ],
      "stateMutability": "view",
      "type": "function"
    },
    {
      "inputs": [],
      "name": "SpawnOfNzoth",
      "outputs": [
        {
          "internalType": "uint256",
          "name": "health",
          "type": "uint256"
        },
        {
          "internalType": "uint256",
          "name": "attack",
          "type": "uint256"
        },
        {
          "internalType": "uint256",
          "name": "manaCost",
          "type": "uint256"
        },
        {
          "internalType": "uint256",
          "name": "id",
          "type": "uint256"
        },
        {
          "internalType": "string",
          "name": "name",
          "type": "string"
        },
        {
          "internalType": "string",
          "name": "description",
          "type": "string"
        },
        {
          "internalType": "bool",
          "name": "taunt",
          "type": "bool"
        },
        {
          "internalType": "bool",
          "name": "windfury",
          "type": "bool"
        },
        {
          "internalType": "bool",
          "name": "divineshield",
          "type": "bool"
        },
        {
          "internalType": "bool",
          "name": "stealth",
          "type": "bool"
        },
        {
          "internalType": "bool",
          "name": "poisonious",
          "type": "bool"
        },
        {
          "internalType": "bool",
          "name": "asleep",
          "type": "bool"
        }
      ],
      "stateMutability": "view",
      "type": "function"
    },
    {
      "inputs": [],
      "name": "ZombieChow",
      "outputs": [
        {
          "internalType": "uint256",
          "name": "health",
          "type": "uint256"
        },
        {
          "internalType": "uint256",
          "name": "attack",
          "type": "uint256"
        },
        {
          "internalType": "uint256",
          "name": "manaCost",
          "type": "uint256"
        },
        {
          "internalType": "uint256",
          "name": "id",
          "type": "uint256"
        },
        {
          "internalType": "string",
          "name": "name",
          "type": "string"
        },
        {
          "internalType": "string",
          "name": "description",
          "type": "string"
        },
        {
          "internalType": "bool",
          "name": "taunt",
          "type": "bool"
        },
        {
          "internalType": "bool",
          "name": "windfury",
          "type": "bool"
        },
        {
          "internalType": "bool",
          "name": "divineshield",
          "type": "bool"
        },
        {
          "internalType": "bool",
          "name": "stealth",
          "type": "bool"
        },
        {
          "internalType": "bool",
          "name": "poisonious",
          "type": "bool"
        },
        {
          "internalType": "bool",
          "name": "asleep",
          "type": "bool"
        }
      ],
      "stateMutability": "view",
      "type": "function"
    },
    {
      "inputs": [
        {
          "internalType": "uint256",
          "name": "id",
          "type": "uint256"
        }
      ],
      "name": "getCharacter",
      "outputs": [
        {
          "internalType": "uint256",
          "name": "",
          "type": "uint256"
        },
        {
          "internalType": "uint256",
          "name": "",
          "type": "uint256"
        },
        {
          "internalType": "uint256",
          "name": "",
          "type": "uint256"
        },
        {
          "internalType": "uint256",
          "name": "",
          "type": "uint256"
        },
        {
          "internalType": "string",
          "name": "",
          "type": "string"
        },
        {
          "internalType": "string",
          "name": "",
          "type": "string"
        },
        {
          "internalType": "bool",
          "name": "",
          "type": "bool"
        },
        {
          "internalType": "bool",
          "name": "",
          "type": "bool"
        },
        {
          "internalType": "bool",
          "name": "",
          "type": "bool"
        },
        {
          "internalType": "bool",
          "name": "",
          "type": "bool"
        },
        {
          "internalType": "bool",
          "name": "",
          "type": "bool"
        },
        {
          "internalType": "bool",
          "name": "",
          "type": "bool"
        }
      ],
      "stateMutability": "view",
      "type": "function"
    }
  ],
  "bytecode": "0x608060405234620055b45762000014620055b9565b6001815260026020820152600160408201526001606082015262000037620055da565b60088152673232b332b73232b960c11b602082015260808201526200005b620055fa565b602581527f476976652061646a7573746564206d696e696f6e73202b312f2b3120616e64206020820152641d185d5b9d60da1b604082015260a0820152600060c0820152600060e082015260006101008201526000610120820152600061014082015260016101608201528051600155602081015160025560408101516003556060810151600455608081015180519060018060401b0382116200298c578190620001086005546200561a565b601f81116200555e575b50602090601f8311600114620054cf57600092620054c3575b50508160011b916000199060031b1c1916176005555b60a08101518051906001600160401b0382116200298c578190620001676006546200561a565b601f811162005462575b50602090601f8311600114620053e457600092620053d8575b50508160011b916000199060031b1c1916176006555b60c081015115159060075463ff00000061ff0060e0840151151560081b1662ff000061010085015115159161012086015115159460ff65ff000000000061016064ff000000006101408b0151151560201b16990151151560281b1698169065ffffffffffff191617179160101b16179160181b1617171760075562000224620055b9565b6003815260036020820152600360408201526002606082015262000247620055da565b600a815269666c657463686c696e6760b01b602082015260808201526200026d620055fa565b602681527f41667465722074686973206d696e6f6e2061747461636b732061206865726f2c602082015265081059185c1d60d21b604082015260a0820152600060c0820152600060e08201526000610100820152600061012082015260006101408201526001610160820152805160085560208101516009556040810151600a556060810151600b55608081015180519060018060401b0382116200298c5781906200031b600c546200561a565b601f811162005377575b50602090601f8311600114620052f957600092620052ed575b50508160011b916000199060031b1c191617600c555b60a08101518051906001600160401b0382116200298c5781906200037a600d546200561a565b601f81116200528c575b50602090601f83116001146200520e5760009262005202575b50508160011b916000199060031b1c191617600d555b60c0810151151590600e5461ff0060e0830151151560081b1662ff0000610100840151151560101b169063ff000000610120850151151560181b169260ff65ff000000000061016064ff00000000610140890151151560201b16970151151560281b1696169065ffffffffffff1916171717171717600e5562000435620055b9565b6005815260036020820152600460408201526003606082015262000458620055da565b60048152635965746960e01b6020820152608082015260405180602081011060018060401b036020830111176200298c57602081016040526000815260a0820152600060c0820152600060e082015260006101008201526000610120820152600061014082015260016101608201528051600f55602081015160105560408101516011556060810151601255608081015180519060018060401b0382116200298c578190620005096013546200561a565b601f8111620051a1575b50602090601f8311600114620051235760009262005117575b50508160011b916000199060031b1c1916176013555b60a08101518051906001600160401b0382116200298c578190620005686014546200561a565b601f8111620050b6575b50602090601f831160011462005038576000926200502c575b50508160011b916000199060031b1c1916176014555b60c081015115159060155461ff0060e0830151151560081b1662ff0000610100840151151560101b169063ff000000610120850151151560181b169260ff65ff000000000061016064ff00000000610140890151151560201b16970151151560281b1696169065ffffffffffff191617171717171760155562000623620055b9565b60038152602081016002815260408201600281526060830190600482526200064a620055da565b92600584526429b1b930b160d91b6020850152608085019384526200066e620055da565b601981527f4465617468726174746c653a206761696e20322061726d6f7200000000000000602082015260a0860152600060c0860152600060e0860152600061010086015260006101208601526000610140860152600161016086015284516016555160175551601855516019555180519060018060401b0382116200298c578190620006fd601a546200561a565b601f811162004fcb575b50602090601f831160011462004f4d5760009262004f41575b50508160011b916000199060031b1c191617601a555b60a08101518051906001600160401b0382116200298c5781906200075c601b546200561a565b601f811162004ee0575b50602090601f831160011462004e625760009262004e56575b50508160011b916000199060031b1c191617601b555b60c0810151151590601c5461ff0060e0830151151560081b1662ff0000610100840151151560101b169063ff000000610120850151151560181b169260ff65ff000000000061016064ff00000000610140890151151560201b16970151151560281b1696169065ffffffffffff1916171717171717601c5562000817620055b9565b600c8152600c602082015260056040820152600560608201526200083a620055da565b6009815268446561746877696e6760b81b602082015260808201526200085f620055fa565b603a81527f426174746c656372793a2044657374726f7920616c6c206f74686572206d696e60208201527f696f6e7320616e64206469736361726420796f75722068616e64000000000000604082015260a0820152600060c0820152600060e082015260006101008201526000610120820152600061014082015260016101608201528051601d556020810151601e556040810151601f556060810151602055608081015180519060018060401b0382116200298c578190620009246021546200561a565b601f811162004df5575b50602090601f831160011462004d775760009262004d6b575b50508160011b916000199060031b1c1916176021555b60a08101518051906001600160401b0382116200298c578190620009836022546200561a565b601f811162004d0a575b50602090601f831160011462004c8c5760009262004c80575b50508160011b916000199060031b1c1916176022555b60c081015115159060235461ff0060e0830151151560081b1662ff0000610100840151151560101b169063ff000000610120850151151560181b169260ff65ff000000000061016064ff00000000610140890151151560201b16970151151560281b1696169065ffffffffffff191617171717171760235562000a3e620055b9565b6004815260056020820152600760408201526006606082015262000a61620055da565b600a815269696e76696e6369626c6560b01b6020820152608082015260405180608081011060018060401b036080830111176200298c5760808101604052604f81527f5265626f726e2c426174746c6563727920616e64204465617468726174746c6560208201527f3a204769766520612072616e646f6d20667269656e646c79206d696e696f6e2060408201526e0acd4bcacd48185b990815185d5b9d608a1b606082015260a0820152600060c0820152600060e082015260006101008201526000610120820152600061014082015260016101608201528051602455602081015160255560408101516026556060810151602755608081015180519060018060401b0382116200298c57819062000b7c6028546200561a565b601f811162004c1f575b50602090601f831160011462004ba15760009262004b95575b50508160011b916000199060031b1c1916176028555b60a08101518051906001600160401b0382116200298c57819062000bdb6029546200561a565b601f811162004b34575b50602090601f831160011462004ab65760009262004aaa575b50508160011b916000199060031b1c1916176029555b60c0810151151590602a5461ff0060e0830151151560081b1662ff0000610100840151151560101b169063ff000000610120850151151560181b169260ff65ff000000000061016064ff00000000610140890151151560201b16970151151560281b1696169065ffffffffffff1916171717171717602a5562000c96620055b9565b600481526020810160028152604082016003815260608301906007825262000cbd620055da565b926011845270109c9a585b88109c9bdb9e995099585c99607a1b60208501526080850193845262000ced620055da565b601c81527f596f757220626174746c65637279207472696767657220747769636500000000602082015260a0860152600060c0860152600060e086015260006101008601526000610120860152600061014086015260016101608601528451602b5551602c5551602d5551602e555180519060018060401b0382116200298c57819062000d7c602f546200561a565b601f811162004a49575b50602090601f8311600114620049cb57600092620049bf575b50508160011b916000199060031b1c191617602f555b60a08101518051906001600160401b0382116200298c57819062000ddb6030546200561a565b601f81116200495e575b50602090601f8311600114620048e057600092620048d4575b50508160011b916000199060031b1c1916176030555b60c081015115159060315461ff0060e0830151151560081b1662ff0000610100840151151560101b169063ff000000610120850151151560181b169260ff65ff000000000061016064ff00000000610140890151151560201b16970151151560281b1696169065ffffffffffff191617171717171760315562000e96620055b9565b6002815260036020820152600260408201526008606082015262000eb9620055da565b600d81526c29b43934b735b6b2b4b9ba32b960991b6020820152608082015262000ee2620055da565b601781527f476976652061206d696e696f6e202d322041747461636b000000000000000000602082015260a0820152600060c0820152600060e082015260006101008201526000610120820152600061014082015260016101608201528051603255602081015160335560408101516034556060810151603555608081015180519060018060401b0382116200298c57819062000f816036546200561a565b601f811162004873575b50602090601f8311600114620047f557600092620047e9575b50508160011b916000199060031b1c1916176036555b60a08101518051906001600160401b0382116200298c57819062000fe06037546200561a565b601f811162004788575b50602090601f83116001146200470a57600092620046fe575b50508160011b916000199060031b1c1916176037555b60c081015115159060385461ff0060e0830151151560081b1662ff0000610100840151151560101b169063ff000000610120850151151560181b169260ff65ff000000000061016064ff00000000610140890151151560201b16970151151560281b1696169065ffffffffffff19161717171717176038556200109b620055b9565b6004815260208101600181526040820160028152606083019060098252620010c2620055da565b92600d84526c086e4c2f4cac840aee4cae8c6d609b1b602085015260808501938452620010ee620055fa565b602681527f486173202b322041747461636b20616e6420436861726765207768696c652064602082015265185b5859d95960d21b604082015260a0860152600060c0860152600060e08601526000610100860152600061012086015260006101408601526001610160860152845160395551603a5551603b5551603c555180519060018060401b0382116200298c5781906200118c603d546200561a565b601f81116200469d575b50602090601f83116001146200461f5760009262004613575b50508160011b916000199060031b1c191617603d555b60a08101518051906001600160401b0382116200298c578190620011eb603e546200561a565b601f8111620045b2575b50602090601f8311600114620045345760009262004528575b50508160011b916000199060031b1c191617603e555b60c0810151151590603f5461ff0060e0830151151560081b1662ff0000610100840151151560101b169063ff000000610120850151151560181b169260ff65ff000000000061016064ff00000000610140890151151560201b16970151151560281b1696169065ffffffffffff1916171717171717603f55620012a6620055b9565b600281526002602082015260026040820152600a6060820152620012c9620055da565b601081526f10dc985e995908105b18da195b5a5cdd60821b60208201526080820152620012f5620055fa565b603181527f426174746c656372793a2053776170207468652041747461636b20616e64204860208201527032b0b63a341037b310309036b4b734b7b760791b604082015260a0820152600060c0820152600060e082015260006101008201526000610120820152600061014082015260016101608201528051604055602081015160415560408101516042556060810151604355608081015180519060018060401b0382116200298c578190620013ae6044546200561a565b601f8111620044c7575b50602090601f831160011462004449576000926200443d575b50508160011b916000199060031b1c1916176044555b60a08101518051906001600160401b0382116200298c5781906200140d6045546200561a565b601f8111620043dc575b50602090601f83116001146200435e5760009262004352575b50508160011b916000199060031b1c1916176045555b60c081015115159060465461ff0060e0830151151560081b1662ff0000610100840151151560101b169063ff000000610120850151151560181b169260ff65ff000000000061016064ff00000000610140890151151560201b16970151151560281b1696169065ffffffffffff1916171717171717604655620014c8620055b9565b60038152602081016002815260408201600181526060830190600b8252620014ef620055da565b92600b84526a5a6f6d6269652043686f7760a81b60208501526080850193845262001519620055fa565b602f81527f4465617468726174746c653a20526573746f72652035204865616c746820746f60208201526e2074686520656e656d79204865726f60881b604082015260a0860152600060c0860152600060e086015260006101008601526000610120860152600061014086015260016101608601528451604755516048555160495551604a555180519060018060401b0382116200298c578190620015c0604b546200561a565b601f8111620042f1575b50602090601f8311600114620042735760009262004267575b50508160011b916000199060031b1c191617604b555b60a08101518051906001600160401b0382116200298c5781906200161f604c546200561a565b601f811162004206575b50602090601f831160011462004188576000926200417c575b50508160011b916000199060031b1c191617604c555b60c0810151151590604d5461ff0060e0830151151560081b1662ff0000610100840151151560101b169063ff000000610120850151151560181b169260ff65ff000000000061016064ff00000000610140890151151560201b16970151151560281b1696169065ffffffffffff1916171717171717604d55620016da620055b9565b600781526007602082015260086040820152600c6060820152620016fd620055da565b600581526411dc9d5d5b60da1b602082015260808201526200171e620055fa565b602281527f61742074686520656e64206f662065616368207475726e206761696e202b312f6020820152612b3160f01b604082015260a0820152600060c0820152600060e082015260006101008201526000610120820152600061014082015260016101608201528051604e556020810151604f5560408101516050556060810151605155608081015180519060018060401b0382116200298c578190620017c86052546200561a565b601f81116200411b575b50602090601f83116001146200409d5760009262004091575b50508160011b916000199060031b1c1916176052555b60a08101518051906001600160401b0382116200298c578190620018276053546200561a565b601f811162004030575b50602090601f831160011462003fb25760009262003fa6575b50508160011b916000199060031b1c1916176053555b60c081015115159060545461ff0060e0830151151560081b1662ff0000610100840151151560101b169063ff000000610120850151151560181b169260ff65ff000000000061016064ff00000000610140890151151560201b16970151151560281b1696169065ffffffffffff1916171717171717605455620018e2620055b9565b60028152602081016002815260408201600381526060830190600d825262001909620055da565b92600f84526e0a6e0c2eedc40decc409c4eb4dee8d608b1b60208501526080850193845262001937620055fa565b602481527f4465617468726174746c653a206769766520796f7572206d696e696f6e73202b602082015263312f2b3160e01b604082015260a0860152600060c0860152600060e0860152600061010086015260006101208601526000610140860152600161016086015284516055555160565551605755516058555180519060018060401b0382116200298c578190620019d36059546200561a565b601f811162003f45575b50602090601f831160011462003ec75760009262003ebb575b50508160011b916000199060031b1c1916176059555b60a08101518051906001600160401b0382116200298c57819062001a32605a546200561a565b601f811162003e5a575b50602090601f831160011462003ddc5760009262003dd0575b50508160011b916000199060031b1c191617605a555b60c0810151151590605b5461ff0060e0830151151560081b1662ff0000610100840151151560101b169063ff000000610120850151151560181b169260ff65ff000000000061016064ff00000000610140890151151560201b16970151151560281b1696169065ffffffffffff1916171717171717605b5562001aed620055b9565b60018152602081016002815260408201600181526060830190600e825262001b14620055da565b92600b84526a4c6570657220476e6f6d6560a81b60208501526080850193845262001b3e620055fa565b602c81527f4465617468726174746c653a204465616c20322064616d61676520746f20746860208201526b6520656e656d79206865726f60a01b604082015260a0860152600060c0860152600060e086015260006101008601526000610120860152600061014086015260016101608601528451605c5551605d5551605e5551605f555180519060018060401b0382116200298c57819062001be26060546200561a565b601f811162003d6f575b50602090601f831160011462003cf15760009262003ce5575b50508160011b916000199060031b1c1916176060555b60a08101518051906001600160401b0382116200298c57819062001c416061546200561a565b601f811162003c84575b50602090601f831160011462003c065760009262003bfa575b50508160011b916000199060031b1c1916176061555b60c081015115159060625461ff0060e0830151151560081b1662ff0000610100840151151560101b169063ff000000610120850151151560181b169260ff65ff000000000061016064ff00000000610140890151151560201b16970151151560281b1696169065ffffffffffff191617171717171760625562001cfc620055b9565b60088152602081016008815260408201600881526060830190600f825262001d23620055da565b92600f84526e2232b930b733b2b2102237b1ba37b960891b60208501526080850193845262001d51620055fa565b602a81527f4465617468726174746c653a20526573746f72652038206865616c746820746f60208201526920796f7572206865726f60b01b604082015260a0860152600060c0860152600060e0860152600061010086015260006101208601526000610140860152600161016086015284516063555160645551606555516066555180519060018060401b0382116200298c57819062001df36067546200561a565b601f811162003b99575b50602090601f831160011462003b1b5760009262003b0f575b50508160011b916000199060031b1c1916176067555b60a08101518051906001600160401b0382116200298c57819062001e526068546200561a565b601f811162003aae575b50602090601f831160011462003a305760009262003a24575b50508160011b916000199060031b1c1916176068555b60c081015115159060695461ff0060e0830151151560081b1662ff0000610100840151151560101b169063ff000000610120850151151560181b169260ff65ff000000000061016064ff00000000610140890151151560201b16970151151560281b1696169065ffffffffffff191617171717171760695562001f0d620055b9565b600281526020810160028152604082016001815260608301906010825262001f34620055da565b92601484527f4d69737472657373206f66204d6978747572657300000000000000000000000060208501526080850193845262001f70620055fa565b602981527f4465617468726174746c653a20526573746f72652034206865616c7420746f2060208201526865616368206865726f60b81b604082015260a0860152600060c0860152600060e086015260006101008601526000610120860152600061014086015260016101608601528451606a5551606b5551606c5551606d555180519060018060401b0382116200298c57819062002011606e546200561a565b601f8111620039c3575b50602090601f8311600114620039455760009262003939575b50508160011b916000199060031b1c191617606e555b60a08101518051906001600160401b0382116200298c57819062002070606f546200561a565b601f8111620038d8575b50602090601f83116001146200385a576000926200384e575b50508160011b916000199060031b1c191617606f555b60c081015115159060705461ff0060e0830151151560081b1662ff0000610100840151151560101b169063ff000000610120850151151560181b169260ff65ff000000000061016064ff00000000610140890151151560201b16970151151560281b1696169065ffffffffffff19161717171717176070556200212b620055b9565b600381526003602082015260036040820152601160608201526200214e620055da565b600f81526e49726f6e667572204772697a7a6c7960881b6020820152608082015262002179620055da565b60058152641d185d5b9d60da1b602082015260a0820152600160c0820152600060e082015260006101008201526000610120820152600061014082015260016101608201528051607155602081015160725560408101516073556060810151607455608081015180519060018060401b0382116200298c578190620022006075546200561a565b601f8111620037ed575b50602090601f83116001146200376f5760009262003763575b50508160011b916000199060031b1c1916176075555b60a08101518051906001600160401b0382116200298c5781906200225f6076546200561a565b601f8111620036f1575b50602090601f8311600114620036625760009262003656575b50508160011b916000199060031b1c1916176076555b60c081015115159060775461ff0060e0830151151560081b1662ff0000610100840151151560101b169063ff000000610120850151151560181b169260ff65ff000000000061016064ff00000000610140890151151560201b16970151151560281b1696169065ffffffffffff1916171717171717607755600054680100000000000000008110156200298c57600181018060005581101562002976576000805260070260008051602062008d028339815191528101907f290decd9548b62a8d60345a988386fc84ba6bc95484008f6362f93160ef3e5620162003547575b50600054680100000000000000008110156200298c57600181018060005581101562002976576000805260070260008051602062008d028339815191528101907f290decd9548b62a8d60345a988386fc84ba6bc95484008f6362f93160ef3e55b0162003438575b50600054680100000000000000008110156200298c57600181018060005581101562002976576000805260070260008051602062008d028339815191528101907f290decd9548b62a8d60345a988386fc84ba6bc95484008f6362f93160ef3e5540162003329575b50600054680100000000000000008110156200298c57600181018060005581101562002976576000805260070260008051602062008d028339815191528101907f290decd9548b62a8d60345a988386fc84ba6bc95484008f6362f93160ef3e54d016200321a575b50600054680100000000000000008110156200298c57600181018060005581101562002976576000805260070260008051602062008d028339815191528101907f290decd9548b62a8d60345a988386fc84ba6bc95484008f6362f93160ef3e546016200310b575b50600054680100000000000000008110156200298c57600181018060005581101562002976576000805260070260008051602062008d028339815191528101907f290decd9548b62a8d60345a988386fc84ba6bc95484008f6362f93160ef3e53f0162002ffc575b50600054680100000000000000008110156200298c57600181018060005581101562002976576000805260070260008051602062008d028339815191528101907f290decd9548b62a8d60345a988386fc84ba6bc95484008f6362f93160ef3e5380162002eed575b50600054680100000000000000008110156200298c57600181018060005581101562002976576000805260070260008051602062008d028339815191528101907f290decd9548b62a8d60345a988386fc84ba6bc95484008f6362f93160ef3e5310162002dde575b50600054680100000000000000008110156200298c57600181018060005581101562002976576000805260070260008051602062008d028339815191528101907f290decd9548b62a8d60345a988386fc84ba6bc95484008f6362f93160ef3e52a0162002ccf575b50600054680100000000000000008110156200298c57600181018060005581101562002976576000805260070260008051602062008d028339815191528101907f290decd9548b62a8d60345a988386fc84ba6bc95484008f6362f93160ef3e5230162002bc0575b50600054680100000000000000008110156200298c57600181018060005581101562002976576000805260070260008051602062008d028339815191528101907f290decd9548b62a8d60345a988386fc84ba6bc95484008f6362f93160ef3e51c0162002ab1575b50600054680100000000000000008110156200298c57600181018060005581101562002976576000805260070260008051602062008d028339815191528101907f290decd9548b62a8d60345a988386fc84ba6bc95484008f6362f93160ef3e51501620029a2575b50600054680100000000000000008110156200298c57600181018060005581101562002976576000805260070260008051602062008d028339815191528101907f290decd9548b62a8d60345a988386fc84ba6bc95484008f6362f93160ef3e50e0162002867575b6040516118309081620073f28239f35b60066200296f9160555481556056546001820155605754600282015560585460038201556200289960048201620071ad565b620028a760058201620072cf565b01620028c460ff605b5416829060ff801983541691151516179055565b605b54815461ff001916600891821c60ff16151590911b61ff0016178155605b54815462ff00001916601091821c60ff16151590911b62ff000016178155605b54815463ff0000001916601891821c60ff16151590911b63ff00000016178155605b54815460ff60201b1916602091821c60ff16151590911b64ff000000001617815560ff605b5460281c1665ff0000000000825491151560281b169065ff00000000001916179055565b3862002857565b634e487b7160e01b600052603260045260246000fd5b634e487b7160e01b600052604160045260246000fd5b600662002aaa91604e548155604f54600182015560505460028201556051546003820155620029d46004820162006f69565b620029e2600582016200708b565b01620029ff60ff60545416829060ff801983541691151516179055565b605454815461ff001916600891821c60ff16151590911b61ff0016178155605454815462ff00001916601091821c60ff16151590911b62ff000016178155605454815463ff0000001916601891821c60ff16151590911b63ff00000016178155605454815460ff60201b1916602091821c60ff16151590911b64ff000000001617815560ff60545460281c1665ff0000000000825491151560281b169065ff00000000001916179055565b38620027ef565b600662002bb991604754815560485460018201556049546002820155604a54600382015562002ae36004820162006d25565b62002af16005820162006e47565b0162002b0e60ff604d5416829060ff801983541691151516179055565b604d54815461ff001916600891821c60ff16151590911b61ff0016178155604d54815462ff00001916601091821c60ff16151590911b62ff000016178155604d54815463ff0000001916601891821c60ff16151590911b63ff00000016178155604d54815460ff60201b1916602091821c60ff16151590911b64ff000000001617815560ff604d5460281c1665ff0000000000825491151560281b169065ff00000000001916179055565b3862002787565b600662002cc891604054815560415460018201556042546002820155604354600382015562002bf26004820162006ae1565b62002c006005820162006c03565b0162002c1d60ff60465416829060ff801983541691151516179055565b604654815461ff001916600891821c60ff16151590911b61ff0016178155604654815462ff00001916601091821c60ff16151590911b62ff000016178155604654815463ff0000001916601891821c60ff16151590911b63ff00000016178155604654815460ff60201b1916602091821c60ff16151590911b64ff000000001617815560ff60465460281c1665ff0000000000825491151560281b169065ff00000000001916179055565b386200271f565b600662002dd7916039548155603a546001820155603b546002820155603c54600382015562002d01600482016200689d565b62002d0f60058201620069bf565b0162002d2c60ff603f5416829060ff801983541691151516179055565b603f54815461ff001916600891821c60ff16151590911b61ff0016178155603f54815462ff00001916601091821c60ff16151590911b62ff000016178155603f54815463ff0000001916601891821c60ff16151590911b63ff00000016178155603f54815460ff60201b1916602091821c60ff16151590911b64ff000000001617815560ff603f5460281c1665ff0000000000825491151560281b169065ff00000000001916179055565b38620026b7565b600662002ee691603254815560335460018201556034546002820155603554600382015562002e106004820162006659565b62002e1e600582016200677b565b0162002e3b60ff60385416829060ff801983541691151516179055565b603854815461ff001916600891821c60ff16151590911b61ff0016178155603854815462ff00001916601091821c60ff16151590911b62ff000016178155603854815463ff0000001916601891821c60ff16151590911b63ff00000016178155603854815460ff60201b1916602091821c60ff16151590911b64ff000000001617815560ff60385460281c1665ff0000000000825491151560281b169065ff00000000001916179055565b386200264f565b600662002ff591602b548155602c546001820155602d546002820155602e54600382015562002f1f6004820162006415565b62002f2d6005820162006537565b0162002f4a60ff60315416829060ff801983541691151516179055565b603154815461ff001916600891821c60ff16151590911b61ff0016178155603154815462ff00001916601091821c60ff16151590911b62ff000016178155603154815463ff0000001916601891821c60ff16151590911b63ff00000016178155603154815460ff60201b1916602091821c60ff16151590911b64ff000000001617815560ff60315460281c1665ff0000000000825491151560281b169065ff00000000001916179055565b38620025e7565b6006620031049160245481556025546001820155602654600282015560275460038201556200302e60048201620061d1565b6200303c60058201620062f3565b016200305960ff602a5416829060ff801983541691151516179055565b602a54815461ff001916600891821c60ff16151590911b61ff0016178155602a54815462ff00001916601091821c60ff16151590911b62ff000016178155602a54815463ff0000001916601891821c60ff16151590911b63ff00000016178155602a54815460ff60201b1916602091821c60ff16151590911b64ff000000001617815560ff602a5460281c1665ff0000000000825491151560281b169065ff00000000001916179055565b386200257f565b60066200321391601d548155601e546001820155601f54600282015560205460038201556200313d6004820162005f8d565b6200314b60058201620060af565b016200316860ff60235416829060ff801983541691151516179055565b602354815461ff001916600891821c60ff16151590911b61ff0016178155602354815462ff00001916601091821c60ff16151590911b62ff000016178155602354815463ff0000001916601891821c60ff16151590911b63ff00000016178155602354815460ff60201b1916602091821c60ff16151590911b64ff000000001617815560ff60235460281c1665ff0000000000825491151560281b169065ff00000000001916179055565b3862002517565b6006620033229160165481556017546001820155601854600282015560195460038201556200324c6004820162005d49565b6200325a6005820162005e6b565b016200327760ff601c5416829060ff801983541691151516179055565b601c54815461ff001916600891821c60ff16151590911b61ff0016178155601c54815462ff00001916601091821c60ff16151590911b62ff000016178155601c54815463ff0000001916601891821c60ff16151590911b63ff00000016178155601c54815460ff60201b1916602091821c60ff16151590911b64ff000000001617815560ff601c5460281c1665ff0000000000825491151560281b169065ff00000000001916179055565b38620024af565b60066200343191600f5481556010546001820155601154600282015560125460038201556200335b6004820162005b05565b620033696005820162005c27565b016200338660ff60155416829060ff801983541691151516179055565b601554815461ff001916600891821c60ff16151590911b61ff0016178155601554815462ff00001916601091821c60ff16151590911b62ff000016178155601554815463ff0000001916601891821c60ff16151590911b63ff00000016178155601554815460ff60201b1916602091821c60ff16151590911b64ff000000001617815560ff60155460281c1665ff0000000000825491151560281b169065ff00000000001916179055565b3862002447565b6006620035409160085481556009546001820155600a546002820155600b5460038201556200346a60048201620058c1565b6200347860058201620059e3565b016200349560ff600e5416829060ff801983541691151516179055565b600e54815461ff001916600891821c60ff16151590911b61ff0016178155600e54815462ff00001916601091821c60ff16151590911b62ff000016178155600e54815463ff0000001916601891821c60ff16151590911b63ff00000016178155600e54815460ff60201b1916602091821c60ff16151590911b64ff000000001617815560ff600e5460281c1665ff0000000000825491151560281b169065ff00000000001916179055565b38620023df565b60066200364f916001548155600254600182015560035460028201556004546003820155620035796004820162005657565b62003587600582016200579b565b01620035a460ff60075416829060ff801983541691151516179055565b600754815461ff001916600891821c60ff16151590911b61ff0016178155600754815462ff00001916601091821c60ff16151590911b62ff000016178155600754815463ff0000001916601891821c60ff16151590911b63ff00000016178155600754815460ff60201b1916602091821c60ff16151590911b64ff000000001617815560ff60075460281c1665ff0000000000825491151560281b169065ff00000000001916179055565b3862002377565b01519050388062002282565b6076600090815293507fb5732705f5241370a28908c2fe1303cb223f03b90d857fd0573f003f79fefed491905b601f1984168510620036d5576001945083601f19811610620036bb575b505050811b0160765562002298565b015160001960f88460031b161c19169055388080620036ac565b818101518355602094850194600190930192909101906200368f565b60766000529091507fb5732705f5241370a28908c2fe1303cb223f03b90d857fd0573f003f79fefed4601f840160051c8101602085106200375b575b90849392915b601f830160051c820181106200374b57505062002269565b6000815585945060010162003733565b50806200372d565b01519050388062002223565b60756000908152935060008051602062008ec283398151915291905b601f1984168510620037d1576001945083601f19811610620037b7575b505050811b0160755562002239565b015160001960f88460031b161c19169055388080620037a8565b818101518355602094850194600190930192909101906200378b565b607560005290915060008051602062008ec2833981519152601f840160051c81016020851062003846575b90849392915b601f830160051c82018110620038365750506200220a565b600081558594506001016200381e565b508062003818565b01519050388062002093565b606f6000908152935060008051602062008f2283398151915291905b601f1984168510620038bc576001945083601f19811610620038a2575b505050811b01606f55620020a9565b015160001960f88460031b161c1916905538808062003893565b8181015183556020948501946001909301929091019062003876565b606f60005290915060008051602062008f22833981519152601f840160051c81016020851062003931575b90849392915b601f830160051c82018110620039215750506200207a565b6000815585945060010162003909565b508062003903565b01519050388062002034565b606e6000908152935060008051602062008c8283398151915291905b601f1984168510620039a7576001945083601f198116106200398d575b505050811b01606e556200204a565b015160001960f88460031b161c191690553880806200397e565b8181015183556020948501946001909301929091019062003961565b606e60005290915060008051602062008c82833981519152601f840160051c81016020851062003a1c575b90849392915b601f830160051c8201811062003a0c5750506200201b565b60008155859450600101620039f4565b5080620039ee565b01519050388062001e75565b60686000908152935060008051602062008ea283398151915291905b601f198416851062003a92576001945083601f1981161062003a78575b505050811b0160685562001e8b565b015160001960f88460031b161c1916905538808062003a69565b8181015183556020948501946001909301929091019062003a4c565b606860005290915060008051602062008ea2833981519152601f840160051c81016020851062003b07575b90849392915b601f830160051c8201811062003af757505062001e5c565b6000815585945060010162003adf565b508062003ad9565b01519050388062001e16565b60676000908152935060008051602062008e0283398151915291905b601f198416851062003b7d576001945083601f1981161062003b63575b505050811b0160675562001e2c565b015160001960f88460031b161c1916905538808062003b54565b8181015183556020948501946001909301929091019062003b37565b606760005290915060008051602062008e02833981519152601f840160051c81016020851062003bf2575b90849392915b601f830160051c8201811062003be257505062001dfd565b6000815585945060010162003bca565b508062003bc4565b01519050388062001c64565b60616000908152935060008051602062008fc283398151915291905b601f198416851062003c68576001945083601f1981161062003c4e575b505050811b0160615562001c7a565b015160001960f88460031b161c1916905538808062003c3f565b8181015183556020948501946001909301929091019062003c22565b606160005290915060008051602062008fc2833981519152601f840160051c81016020851062003cdd575b90849392915b601f830160051c8201811062003ccd57505062001c4b565b6000815585945060010162003cb5565b508062003caf565b01519050388062001c05565b60606000908152935060008051602062008e6283398151915291905b601f198416851062003d53576001945083601f1981161062003d39575b505050811b0160605562001c1b565b015160001960f88460031b161c1916905538808062003d2a565b8181015183556020948501946001909301929091019062003d0d565b606060005290915060008051602062008e62833981519152601f840160051c81016020851062003dc8575b90849392915b601f830160051c8201811062003db857505062001bec565b6000815585945060010162003da0565b508062003d9a565b01519050388062001a55565b605a6000908152935060008051602062008c4283398151915291905b601f198416851062003e3e576001945083601f1981161062003e24575b505050811b01605a5562001a6b565b015160001960f88460031b161c1916905538808062003e15565b8181015183556020948501946001909301929091019062003df8565b605a60005290915060008051602062008c42833981519152601f840160051c81016020851062003eb3575b90849392915b601f830160051c8201811062003ea357505062001a3c565b6000815585945060010162003e8b565b508062003e85565b015190503880620019f6565b60596000908152935060008051602062008fa283398151915291905b601f198416851062003f29576001945083601f1981161062003f0f575b505050811b0160595562001a0c565b015160001960f88460031b161c1916905538808062003f00565b8181015183556020948501946001909301929091019062003ee3565b605960005290915060008051602062008fa2833981519152601f840160051c81016020851062003f9e575b90849392915b601f830160051c8201811062003f8e575050620019dd565b6000815585945060010162003f76565b508062003f70565b0151905038806200184a565b60536000908152935060008051602062008ca283398151915291905b601f198416851062004014576001945083601f1981161062003ffa575b505050811b0160535562001860565b015160001960f88460031b161c1916905538808062003feb565b8181015183556020948501946001909301929091019062003fce565b605360005290915060008051602062008ca2833981519152601f840160051c81016020851062004089575b90849392915b601f830160051c820181106200407957505062001831565b6000815585945060010162004061565b50806200405b565b015190503880620017eb565b60526000908152935060008051602062008c2283398151915291905b601f1984168510620040ff576001945083601f19811610620040e5575b505050811b0160525562001801565b015160001960f88460031b161c19169055388080620040d6565b81810151835560209485019460019093019290910190620040b9565b605260005290915060008051602062008c22833981519152601f840160051c81016020851062004174575b90849392915b601f830160051c8201811062004164575050620017d2565b600081558594506001016200414c565b508062004146565b01519050388062001642565b604c6000908152935060008051602062008d4283398151915291905b601f1984168510620041ea576001945083601f19811610620041d0575b505050811b01604c5562001658565b015160001960f88460031b161c19169055388080620041c1565b81810151835560209485019460019093019290910190620041a4565b604c60005290915060008051602062008d42833981519152601f840160051c8101602085106200425f575b90849392915b601f830160051c820181106200424f57505062001629565b6000815585945060010162004237565b508062004231565b015190503880620015e3565b604b600090815293506000805160206200900283398151915291905b601f1984168510620042d5576001945083601f19811610620042bb575b505050811b01604b55620015f9565b015160001960f88460031b161c19169055388080620042ac565b818101518355602094850194600190930192909101906200428f565b604b60005290915060008051602062009002833981519152601f840160051c8101602085106200434a575b90849392915b601f830160051c820181106200433a575050620015ca565b6000815585945060010162004322565b50806200431c565b01519050388062001430565b60456000908152935060008051602062008dc283398151915291905b601f1984168510620043c0576001945083601f19811610620043a6575b505050811b0160455562001446565b015160001960f88460031b161c1916905538808062004397565b818101518355602094850194600190930192909101906200437a565b604560005290915060008051602062008dc2833981519152601f840160051c81016020851062004435575b90849392915b601f830160051c820181106200442557505062001417565b600081558594506001016200440d565b508062004407565b015190503880620013d1565b60446000908152935060008051602062008d8283398151915291905b601f1984168510620044ab576001945083601f1981161062004491575b505050811b01604455620013e7565b015160001960f88460031b161c1916905538808062004482565b8181015183556020948501946001909301929091019062004465565b604460005290915060008051602062008d82833981519152601f840160051c81016020851062004520575b90849392915b601f830160051c8201811062004510575050620013b8565b60008155859450600101620044f8565b5080620044f2565b0151905038806200120e565b603e6000908152935060008051602062008f4283398151915291905b601f198416851062004596576001945083601f198116106200457c575b505050811b01603e5562001224565b015160001960f88460031b161c191690553880806200456d565b8181015183556020948501946001909301929091019062004550565b603e60005290915060008051602062008f42833981519152601f840160051c8101602085106200460b575b90849392915b601f830160051c82018110620045fb575050620011f5565b60008155859450600101620045e3565b5080620045dd565b015190503880620011af565b603d6000908152935060008051602062008fe283398151915291905b601f198416851062004681576001945083601f1981161062004667575b505050811b01603d55620011c5565b015160001960f88460031b161c1916905538808062004658565b818101518355602094850194600190930192909101906200463b565b603d60005290915060008051602062008fe2833981519152601f840160051c810160208510620046f6575b90849392915b601f830160051c82018110620046e657505062001196565b60008155859450600101620046ce565b5080620046c8565b01519050388062001003565b60376000908152935060008051602062008f6283398151915291905b601f19841685106200476c576001945083601f1981161062004752575b505050811b0160375562001019565b015160001960f88460031b161c1916905538808062004743565b8181015183556020948501946001909301929091019062004726565b603760005290915060008051602062008f62833981519152601f840160051c810160208510620047e1575b90849392915b601f830160051c82018110620047d157505062000fea565b60008155859450600101620047b9565b5080620047b3565b01519050388062000fa4565b60366000908152935060008051602062008ce283398151915291905b601f198416851062004857576001945083601f198116106200483d575b505050811b0160365562000fba565b015160001960f88460031b161c191690553880806200482e565b8181015183556020948501946001909301929091019062004811565b603660005290915060008051602062008ce2833981519152601f840160051c810160208510620048cc575b90849392915b601f830160051c82018110620048bc57505062000f8b565b60008155859450600101620048a4565b50806200489e565b01519050388062000dfe565b60306000908152935060008051602062008f0283398151915291905b601f198416851062004942576001945083601f1981161062004928575b505050811b0160305562000e14565b015160001960f88460031b161c1916905538808062004919565b81810151835560209485019460019093019290910190620048fc565b603060005290915060008051602062008f02833981519152601f840160051c810160208510620049b7575b90849392915b601f830160051c82018110620049a757505062000de5565b600081558594506001016200498f565b508062004989565b01519050388062000d9f565b602f6000908152935060008051602062008c6283398151915291905b601f198416851062004a2d576001945083601f1981161062004a13575b505050811b01602f5562000db5565b015160001960f88460031b161c1916905538808062004a04565b81810151835560209485019460019093019290910190620049e7565b602f60005290915060008051602062008c62833981519152601f840160051c81016020851062004aa2575b90849392915b601f830160051c8201811062004a9257505062000d86565b6000815585945060010162004a7a565b508062004a74565b01519050388062000bfe565b60296000908152935060008051602062008e4283398151915291905b601f198416851062004b18576001945083601f1981161062004afe575b505050811b0160295562000c14565b015160001960f88460031b161c1916905538808062004aef565b8181015183556020948501946001909301929091019062004ad2565b602960005290915060008051602062008e42833981519152601f840160051c81016020851062004b8d575b90849392915b601f830160051c8201811062004b7d57505062000be5565b6000815585945060010162004b65565b508062004b5f565b01519050388062000b9f565b6028600090815293506000805160206200902283398151915291905b601f198416851062004c03576001945083601f1981161062004be9575b505050811b0160285562000bb5565b015160001960f88460031b161c1916905538808062004bda565b8181015183556020948501946001909301929091019062004bbd565b602860005290915060008051602062009022833981519152601f840160051c81016020851062004c78575b90849392915b601f830160051c8201811062004c6857505062000b86565b6000815585945060010162004c50565b508062004c4a565b015190503880620009a6565b60226000908152935060008051602062008d2283398151915291905b601f198416851062004cee576001945083601f1981161062004cd4575b505050811b01602255620009bc565b015160001960f88460031b161c1916905538808062004cc5565b8181015183556020948501946001909301929091019062004ca8565b602260005290915060008051602062008d22833981519152601f840160051c81016020851062004d63575b90849392915b601f830160051c8201811062004d535750506200098d565b6000815585945060010162004d3b565b508062004d35565b01519050388062000947565b60216000908152935060008051602062008e2283398151915291905b601f198416851062004dd9576001945083601f1981161062004dbf575b505050811b016021556200095d565b015160001960f88460031b161c1916905538808062004db0565b8181015183556020948501946001909301929091019062004d93565b602160005290915060008051602062008e22833981519152601f840160051c81016020851062004e4e575b90849392915b601f830160051c8201811062004e3e5750506200092e565b6000815585945060010162004e26565b508062004e20565b0151905038806200077f565b601b6000908152935060008051602062008d6283398151915291905b601f198416851062004ec4576001945083601f1981161062004eaa575b505050811b01601b5562000795565b015160001960f88460031b161c1916905538808062004e9b565b8181015183556020948501946001909301929091019062004e7e565b601b60005290915060008051602062008d62833981519152601f840160051c81016020851062004f39575b90849392915b601f830160051c8201811062004f2957505062000766565b6000815585945060010162004f11565b508062004f0b565b01519050388062000720565b601a6000908152935060008051602062008e8283398151915291905b601f198416851062004faf576001945083601f1981161062004f95575b505050811b01601a5562000736565b015160001960f88460031b161c1916905538808062004f86565b8181015183556020948501946001909301929091019062004f69565b601a60005290915060008051602062008e82833981519152601f840160051c81016020851062005024575b90849392915b601f830160051c820181106200501457505062000707565b6000815585945060010162004ffc565b508062004ff6565b0151905038806200058b565b60146000908152935060008051602062008f8283398151915291905b601f19841685106200509a576001945083601f1981161062005080575b505050811b01601455620005a1565b015160001960f88460031b161c1916905538808062005071565b8181015183556020948501946001909301929091019062005054565b601460005290915060008051602062008f82833981519152601f840160051c8101602085106200510f575b90849392915b601f830160051c82018110620050ff57505062000572565b60008155859450600101620050e7565b5080620050e1565b0151905038806200052c565b60136000908152935060008051602062008de283398151915291905b601f198416851062005185576001945083601f198116106200516b575b505050811b0160135562000542565b015160001960f88460031b161c191690553880806200515c565b818101518355602094850194600190930192909101906200513f565b601360005290915060008051602062008de2833981519152601f840160051c810160208510620051fa575b90849392915b601f830160051c82018110620051ea57505062000513565b60008155859450600101620051d2565b5080620051cc565b0151905038806200039d565b600d6000908152935060008051602062008da283398151915291905b601f198416851062005270576001945083601f1981161062005256575b505050811b01600d55620003b3565b015160001960f88460031b161c1916905538808062005247565b818101518355602094850194600190930192909101906200522a565b600d60005290915060008051602062008da2833981519152601f840160051c810160208510620052e5575b90849392915b601f830160051c82018110620052d557505062000384565b60008155859450600101620052bd565b5080620052b7565b0151905038806200033e565b600c6000908152935060008051602062008cc283398151915291905b601f19841685106200535b576001945083601f1981161062005341575b505050811b01600c5562000354565b015160001960f88460031b161c1916905538808062005332565b8181015183556020948501946001909301929091019062005315565b600c60005290915060008051602062008cc2833981519152601f840160051c810160208510620053d0575b90849392915b601f830160051c82018110620053c057505062000325565b60008155859450600101620053a8565b5080620053a2565b0151905038806200018a565b60066000908152935060008051602062008ee283398151915291905b601f198416851062005446576001945083601f198116106200542c575b505050811b01600655620001a0565b015160001960f88460031b161c191690553880806200541d565b8181015183556020948501946001909301929091019062005400565b600660005290915060008051602062008ee2833981519152601f840160051c810160208510620054bb575b90849392915b601f830160051c82018110620054ab57505062000171565b6000815585945060010162005493565b50806200548d565b0151905038806200012b565b6005600090815293507f036b6384b5eca791c62761152d0c79bb0604c104a5fb6f4eb0703f3154bb3db091905b601f198416851062005542576001945083601f1981161062005528575b505050811b0160055562000141565b015160001960f88460031b161c1916905538808062005519565b81810151835560209485019460019093019290910190620054fc565b90915060056000526020600020601f840160051c810160208510620055ac575b90849392915b601f830160051c820181106200559c57505062000112565b6000815585945060010162005584565b50806200557e565b600080fd5b6040519061018082016001600160401b038111838210176200298c57604052565b60408051919082016001600160401b038111838210176200298c57604052565b60405190606082016001600160401b038111838210176200298c57604052565b90600182811c921680156200564c575b60208310146200563657565b634e487b7160e01b600052602260045260246000fd5b91607f16916200562a565b600580821462005797576200566d81546200561a565b906001600160401b0382116200298c5781906200568b84546200561a565b601f811162005740575b50600090601f8311600114620056d057600092620056c4575b50508160011b916000199060031b1c1916179055565b015490503880620056ae565b81526020808220858352818320935090601f1985169083905b828210620057265750509084600195949392106200570c575b505050811b019055565b015460001960f88460031b161c1916905538808062005702565b8495819295850154815560018091019601940190620056e9565b909150600084815260208120601f8501841c810192602086106200578c575b90601f869594939201841c01915b8281106200577d57505062005695565b8181558594506001016200576d565b90925082906200575f565b5050565b60068114620058be57620057b16006546200561a565b6001600160401b0381116200298c57620057cc82546200561a565b601f811162005871575b50806000601f8211600114620058115760009162005804575b508160011b916000199060031b1c1916179055565b90506006015438620057ef565b8381526020808220925060008051602062008ee283398151915290601f1985169083905b828210620058575750509084600195949392106200570c57505050811b019055565b849581929585015481556001809101960194019062005835565b600083815260208120601f840160051c81019260208510620058b3575b601f0160051c01915b828110620058a7575050620057d6565b81815560010162005897565b90925082906200588e565b50565b600c8114620058be57620058d7600c546200561a565b6001600160401b0381116200298c57620058f282546200561a565b601f811162005996575b50806000601f821160011462005936576000916200592957508160011b916000199060031b1c1916179055565b9050600c015438620057ef565b8381526020808220925060008051602062008cc283398151915290601f1985169083905b8282106200597c5750509084600195949392106200570c57505050811b019055565b84958192958501548155600180910196019401906200595a565b600083815260208120601f840160051c81019260208510620059d8575b601f0160051c01915b828110620059cc575050620058fc565b818155600101620059bc565b9092508290620059b3565b600d8114620058be57620059f9600d546200561a565b6001600160401b0381116200298c5762005a1482546200561a565b601f811162005ab8575b50806000601f821160011462005a585760009162005a4b57508160011b916000199060031b1c1916179055565b9050600d015438620057ef565b8381526020808220925060008051602062008da283398151915290601f1985169083905b82821062005a9e5750509084600195949392106200570c57505050811b019055565b849581929585015481556001809101960194019062005a7c565b600083815260208120601f840160051c8101926020851062005afa575b601f0160051c01915b82811062005aee57505062005a1e565b81815560010162005ade565b909250829062005ad5565b60138114620058be5762005b1b6013546200561a565b6001600160401b0381116200298c5762005b3682546200561a565b601f811162005bda575b50806000601f821160011462005b7a5760009162005b6d57508160011b916000199060031b1c1916179055565b90506013015438620057ef565b8381526020808220925060008051602062008de283398151915290601f1985169083905b82821062005bc05750509084600195949392106200570c57505050811b019055565b849581929585015481556001809101960194019062005b9e565b600083815260208120601f840160051c8101926020851062005c1c575b601f0160051c01915b82811062005c1057505062005b40565b81815560010162005c00565b909250829062005bf7565b60148114620058be5762005c3d6014546200561a565b6001600160401b0381116200298c5762005c5882546200561a565b601f811162005cfc575b50806000601f821160011462005c9c5760009162005c8f57508160011b916000199060031b1c1916179055565b90506014015438620057ef565b8381526020808220925060008051602062008f8283398151915290601f1985169083905b82821062005ce25750509084600195949392106200570c57505050811b019055565b849581929585015481556001809101960194019062005cc0565b600083815260208120601f840160051c8101926020851062005d3e575b601f0160051c01915b82811062005d3257505062005c62565b81815560010162005d22565b909250829062005d19565b601a8114620058be5762005d5f601a546200561a565b6001600160401b0381116200298c5762005d7a82546200561a565b601f811162005e1e575b50806000601f821160011462005dbe5760009162005db157508160011b916000199060031b1c1916179055565b9050601a015438620057ef565b8381526020808220925060008051602062008e8283398151915290601f1985169083905b82821062005e045750509084600195949392106200570c57505050811b019055565b849581929585015481556001809101960194019062005de2565b600083815260208120601f840160051c8101926020851062005e60575b601f0160051c01915b82811062005e5457505062005d84565b81815560010162005e44565b909250829062005e3b565b601b8114620058be5762005e81601b546200561a565b6001600160401b0381116200298c5762005e9c82546200561a565b601f811162005f40575b50806000601f821160011462005ee05760009162005ed357508160011b916000199060031b1c1916179055565b9050601b015438620057ef565b8381526020808220925060008051602062008d6283398151915290601f1985169083905b82821062005f265750509084600195949392106200570c57505050811b019055565b849581929585015481556001809101960194019062005f04565b600083815260208120601f840160051c8101926020851062005f82575b601f0160051c01915b82811062005f7657505062005ea6565b81815560010162005f66565b909250829062005f5d565b60218114620058be5762005fa36021546200561a565b6001600160401b0381116200298c5762005fbe82546200561a565b601f811162006062575b50806000601f8211600114620060025760009162005ff557508160011b916000199060031b1c1916179055565b90506021015438620057ef565b8381526020808220925060008051602062008e2283398151915290601f1985169083905b828210620060485750509084600195949392106200570c57505050811b019055565b849581929585015481556001809101960194019062006026565b600083815260208120601f840160051c81019260208510620060a4575b601f0160051c01915b8281106200609857505062005fc8565b81815560010162006088565b90925082906200607f565b60228114620058be57620060c56022546200561a565b6001600160401b0381116200298c57620060e082546200561a565b601f811162006184575b50806000601f821160011462006124576000916200611757508160011b916000199060031b1c1916179055565b90506022015438620057ef565b8381526020808220925060008051602062008d2283398151915290601f1985169083905b8282106200616a5750509084600195949392106200570c57505050811b019055565b849581929585015481556001809101960194019062006148565b600083815260208120601f840160051c81019260208510620061c6575b601f0160051c01915b828110620061ba575050620060ea565b818155600101620061aa565b9092508290620061a1565b60288114620058be57620061e76028546200561a565b6001600160401b0381116200298c576200620282546200561a565b601f8111620062a6575b50806000601f821160011462006246576000916200623957508160011b916000199060031b1c1916179055565b90506028015438620057ef565b838152602080822092506000805160206200902283398151915290601f1985169083905b8282106200628c5750509084600195949392106200570c57505050811b019055565b84958192958501548155600180910196019401906200626a565b600083815260208120601f840160051c81019260208510620062e8575b601f0160051c01915b828110620062dc5750506200620c565b818155600101620062cc565b9092508290620062c3565b60298114620058be57620063096029546200561a565b6001600160401b0381116200298c576200632482546200561a565b601f8111620063c8575b50806000601f821160011462006368576000916200635b57508160011b916000199060031b1c1916179055565b90506029015438620057ef565b8381526020808220925060008051602062008e4283398151915290601f1985169083905b828210620063ae5750509084600195949392106200570c57505050811b019055565b84958192958501548155600180910196019401906200638c565b600083815260208120601f840160051c810192602085106200640a575b601f0160051c01915b828110620063fe5750506200632e565b818155600101620063ee565b9092508290620063e5565b602f8114620058be576200642b602f546200561a565b6001600160401b0381116200298c576200644682546200561a565b601f8111620064ea575b50806000601f82116001146200648a576000916200647d57508160011b916000199060031b1c1916179055565b9050602f015438620057ef565b8381526020808220925060008051602062008c6283398151915290601f1985169083905b828210620064d05750509084600195949392106200570c57505050811b019055565b8495819295850154815560018091019601940190620064ae565b600083815260208120601f840160051c810192602085106200652c575b601f0160051c01915b8281106200652057505062006450565b81815560010162006510565b909250829062006507565b60308114620058be576200654d6030546200561a565b6001600160401b0381116200298c576200656882546200561a565b601f81116200660c575b50806000601f8211600114620065ac576000916200659f57508160011b916000199060031b1c1916179055565b90506030015438620057ef565b8381526020808220925060008051602062008f0283398151915290601f1985169083905b828210620065f25750509084600195949392106200570c57505050811b019055565b8495819295850154815560018091019601940190620065d0565b600083815260208120601f840160051c810192602085106200664e575b601f0160051c01915b8281106200664257505062006572565b81815560010162006632565b909250829062006629565b60368114620058be576200666f6036546200561a565b6001600160401b0381116200298c576200668a82546200561a565b601f81116200672e575b50806000601f8211600114620066ce57600091620066c157508160011b916000199060031b1c1916179055565b90506036015438620057ef565b8381526020808220925060008051602062008ce283398151915290601f1985169083905b828210620067145750509084600195949392106200570c57505050811b019055565b8495819295850154815560018091019601940190620066f2565b600083815260208120601f840160051c8101926020851062006770575b601f0160051c01915b8281106200676457505062006694565b81815560010162006754565b90925082906200674b565b60378114620058be57620067916037546200561a565b6001600160401b0381116200298c57620067ac82546200561a565b601f811162006850575b50806000601f8211600114620067f057600091620067e357508160011b916000199060031b1c1916179055565b90506037015438620057ef565b8381526020808220925060008051602062008f6283398151915290601f1985169083905b828210620068365750509084600195949392106200570c57505050811b019055565b849581929585015481556001809101960194019062006814565b600083815260208120601f840160051c8101926020851062006892575b601f0160051c01915b82811062006886575050620067b6565b81815560010162006876565b90925082906200686d565b603d8114620058be57620068b3603d546200561a565b6001600160401b0381116200298c57620068ce82546200561a565b601f811162006972575b50806000601f821160011462006912576000916200690557508160011b916000199060031b1c1916179055565b9050603d015438620057ef565b8381526020808220925060008051602062008fe283398151915290601f1985169083905b828210620069585750509084600195949392106200570c57505050811b019055565b849581929585015481556001809101960194019062006936565b600083815260208120601f840160051c81019260208510620069b4575b601f0160051c01915b828110620069a8575050620068d8565b81815560010162006998565b90925082906200698f565b603e8114620058be57620069d5603e546200561a565b6001600160401b0381116200298c57620069f082546200561a565b601f811162006a94575b50806000601f821160011462006a345760009162006a2757508160011b916000199060031b1c1916179055565b9050603e015438620057ef565b8381526020808220925060008051602062008f4283398151915290601f1985169083905b82821062006a7a5750509084600195949392106200570c57505050811b019055565b849581929585015481556001809101960194019062006a58565b600083815260208120601f840160051c8101926020851062006ad6575b601f0160051c01915b82811062006aca575050620069fa565b81815560010162006aba565b909250829062006ab1565b60448114620058be5762006af76044546200561a565b6001600160401b0381116200298c5762006b1282546200561a565b601f811162006bb6575b50806000601f821160011462006b565760009162006b4957508160011b916000199060031b1c1916179055565b90506044015438620057ef565b8381526020808220925060008051602062008d8283398151915290601f1985169083905b82821062006b9c5750509084600195949392106200570c57505050811b019055565b849581929585015481556001809101960194019062006b7a565b600083815260208120601f840160051c8101926020851062006bf8575b601f0160051c01915b82811062006bec57505062006b1c565b81815560010162006bdc565b909250829062006bd3565b60458114620058be5762006c196045546200561a565b6001600160401b0381116200298c5762006c3482546200561a565b601f811162006cd8575b50806000601f821160011462006c785760009162006c6b57508160011b916000199060031b1c1916179055565b90506045015438620057ef565b8381526020808220925060008051602062008dc283398151915290601f1985169083905b82821062006cbe5750509084600195949392106200570c57505050811b019055565b849581929585015481556001809101960194019062006c9c565b600083815260208120601f840160051c8101926020851062006d1a575b601f0160051c01915b82811062006d0e57505062006c3e565b81815560010162006cfe565b909250829062006cf5565b604b8114620058be5762006d3b604b546200561a565b6001600160401b0381116200298c5762006d5682546200561a565b601f811162006dfa575b50806000601f821160011462006d9a5760009162006d8d57508160011b916000199060031b1c1916179055565b9050604b015438620057ef565b838152602080822092506000805160206200900283398151915290601f1985169083905b82821062006de05750509084600195949392106200570c57505050811b019055565b849581929585015481556001809101960194019062006dbe565b600083815260208120601f840160051c8101926020851062006e3c575b601f0160051c01915b82811062006e3057505062006d60565b81815560010162006e20565b909250829062006e17565b604c8114620058be5762006e5d604c546200561a565b6001600160401b0381116200298c5762006e7882546200561a565b601f811162006f1c575b50806000601f821160011462006ebc5760009162006eaf57508160011b916000199060031b1c1916179055565b9050604c015438620057ef565b8381526020808220925060008051602062008d4283398151915290601f1985169083905b82821062006f025750509084600195949392106200570c57505050811b019055565b849581929585015481556001809101960194019062006ee0565b600083815260208120601f840160051c8101926020851062006f5e575b601f0160051c01915b82811062006f5257505062006e82565b81815560010162006f42565b909250829062006f39565b60528114620058be5762006f7f6052546200561a565b6001600160401b0381116200298c5762006f9a82546200561a565b601f81116200703e575b50806000601f821160011462006fde5760009162006fd157508160011b916000199060031b1c1916179055565b90506052015438620057ef565b8381526020808220925060008051602062008c2283398151915290601f1985169083905b828210620070245750509084600195949392106200570c57505050811b019055565b849581929585015481556001809101960194019062007002565b600083815260208120601f840160051c8101926020851062007080575b601f0160051c01915b8281106200707457505062006fa4565b81815560010162007064565b90925082906200705b565b60538114620058be57620070a16053546200561a565b6001600160401b0381116200298c57620070bc82546200561a565b601f811162007160575b50806000601f82116001146200710057600091620070f357508160011b916000199060031b1c1916179055565b90506053015438620057ef565b8381526020808220925060008051602062008ca283398151915290601f1985169083905b828210620071465750509084600195949392106200570c57505050811b019055565b849581929585015481556001809101960194019062007124565b600083815260208120601f840160051c81019260208510620071a2575b601f0160051c01915b82811062007196575050620070c6565b81815560010162007186565b90925082906200717d565b60598114620058be57620071c36059546200561a565b6001600160401b0381116200298c57620071de82546200561a565b601f811162007282575b50806000601f821160011462007222576000916200721557508160011b916000199060031b1c1916179055565b90506059015438620057ef565b8381526020808220925060008051602062008fa283398151915290601f1985169083905b828210620072685750509084600195949392106200570c57505050811b019055565b849581929585015481556001809101960194019062007246565b600083815260208120601f840160051c81019260208510620072c4575b601f0160051c01915b828110620072b8575050620071e8565b818155600101620072a8565b90925082906200729f565b605a8114620058be57620072e5605a546200561a565b6001600160401b0381116200298c576200730082546200561a565b601f8111620073a4575b50806000601f821160011462007344576000916200733757508160011b916000199060031b1c1916179055565b9050605a015438620057ef565b8381526020808220925060008051602062008c4283398151915290601f1985169083905b8282106200738a5750509084600195949392106200570c57505050811b019055565b849581929585015481556001809101960194019062007368565b600083815260208120601f840160051c81019260208510620073e6575b601f0160051c01915b828110620073da5750506200730a565b818155600101620073ca565b9092508290620073c156fe608060408181526004908136101561001657600080fd5b600092833560e01c908163030139221461148a5750806309477f75146112dd578063304e4660146111305780635ef08cef14610f835780637cc60f2f14610dd65780637f673dd714610c295780638e09eca314610a7c578063a157541b146108cf578063abb3244114610722578063cadc643a14610576578063d83b853f146103c9578063dabb05311461028d5763eda0bed3146100b357600080fd5b346102895782600319360112610289576055549160565460575490605854845194879660595495600198878a1c908a891698891561027f575b6020998a8410811461026c57838c528b92918b90821561024f575050600114610213575b61011c9250038961163c565b8251988a605a5480831c93838216908115610209575b8b861082146101f65750848d529081156101d4575060011461019b575b5050506101638861019798999a038a61163c565b605b54915198899860ff948585818160281c169a1c1697868660181c1697878760101c1697808860081c169716958d611785565b0390f35b9a50605a8b52878b205b828c106101c1575050509787018501976101638861019761014f565b80548c8c018a01529a88019a81016101a5565b60ff19168a8d0152505050151560051b8801860198506101638861019761014f565b634e487b7160e01b845260229052602483fd5b94607f1694610132565b505060598b5288888c8c8282205b85831061023757505061011c9350820101610110565b909193838583549201015201910189908c8c93610221565b60ff19168482015261011c94151560051b84010191506101109050565b634e487b7160e01b8e526022855260248efd5b91607f16916100ec565b8280fd5b5082346103c65760203660031901126103c657823581548110156103b3578180526007602083209102019180519161018083019083821067ffffffffffffffff8311176103a0575090610197929181528354825260018401549360208301948552600281015495828401968752610311600383015491606086019283528301611674565b60808501908152600661032660058501611674565b938460a088015201549360ff938486161515918260c0890152858760081c161515938460e08a0152868860101c16151595866101008b0152878960181c16151597886101208c0152808a60201c161515998a6101408d015260281c161515998a610160820152519b519c519051915192519c8d9c8d611785565b634e487b7160e01b815260418652602490fd5b634e487b7160e01b825260328452602482fd5b80fd5b5034610289578260031936011261028957604e5491604f5460505490605154845194879660525495600198878a1c908a891698891561056c575b6020998a8410811461026c57838c528b92918b90821561054f575050600114610513575b6104339250038961163c565b8251988a60535480831c93838216908115610509575b8b861082146101f65750848d529081156104e757506001146104ae575b50505061047a8861019798999a038a61163c565b605454915198899860ff948585818160281c169a1c1697868660181c1697878760101c1697808860081c169716958d611785565b9a5060538b52878b205b828c106104d45750505097870185019761047a88610197610466565b80548c8c018a01529a88019a81016104b8565b60ff19168a8d0152505050151560051b88018601985061047a88610197610466565b94607f1694610449565b505060528b5288888c8c8282205b8583106105375750506104339350820101610427565b909193838583549201015201910189908c8c93610521565b60ff19168482015261043394151560051b84010191506104279050565b91607f1691610403565b503461028957826003193601126102895780549160415460425490604354845194879660445495600198878a1c908a8916988915610718575b6020998a8410811461026c57838c528b92918b9082156106fb5750506001146106bf575b6105df9250038961163c565b8251988a60455480831c938382169081156106b5575b8b861082146101f65750848d52908115610693575060011461065a575b5050506106268861019798999a038a61163c565b604654915198899860ff948585818160281c169a1c1697868660181c1697878760101c1697808860081c169716958d611785565b9a5060458b52878b205b828c106106805750505097870185019761062688610197610612565b80548c8c018a01529a88019a8101610664565b60ff19168a8d0152505050151560051b88018601985061062688610197610612565b94607f16946105f5565b505060448b5288888c8c8282205b8583106106e35750506105df93508201016105d3565b909193838583549201015201910189908c8c936106cd565b60ff1916848201526105df94151560051b84010191506105d39050565b91607f16916105af565b5034610289578260031936011261028957606a5491606b54606c5490606d548451948796606e5495600198878a1c908a89169889156108c5575b6020998a8410811461026c57838c528b92918b9082156108a857505060011461086c575b61078c9250038961163c565b8251988a606f5480831c93838216908115610862575b8b861082146101f65750848d529081156108405750600114610807575b5050506107d38861019798999a038a61163c565b607054915198899860ff948585818160281c169a1c1697868660181c1697878760101c1697808860081c169716958d611785565b9a50606f8b52878b205b828c1061082d575050509787018501976107d3886101976107bf565b80548c8c018a01529a88019a8101610811565b60ff19168a8d0152505050151560051b8801860198506107d3886101976107bf565b94607f16946107a2565b5050606e8b5288888c8c8282205b85831061089057505061078c9350820101610780565b909193838583549201015201910189908c8c9361087a565b60ff19168482015261078c94151560051b84010191506107809050565b91607f169161075c565b50346102895782600319360112610289576063549160645460655490606654845194879660675495600198878a1c908a8916988915610a72575b6020998a8410811461026c57838c528b92918b908215610a55575050600114610a19575b6109399250038961163c565b8251988a60685480831c93838216908115610a0f575b8b861082146101f65750848d529081156109ed57506001146109b4575b5050506109808861019798999a038a61163c565b606954915198899860ff948585818160281c169a1c1697868660181c1697878760101c1697808860081c169716958d611785565b9a5060688b52878b205b828c106109da575050509787018501976109808861019761096c565b80548c8c018a01529a88019a81016109be565b60ff19168a8d0152505050151560051b8801860198506109808861019761096c565b94607f169461094f565b505060678b5288888c8c8282205b858310610a3d575050610939935082010161092d565b909193838583549201015201910189908c8c93610a27565b60ff19168482015261093994151560051b840101915061092d9050565b91607f1691610909565b50346102895782600319360112610289576047549160485460495490604a548451948796604b5495600198878a1c908a8916988915610c1f575b6020998a8410811461026c57838c528b92918b908215610c02575050600114610bc6575b610ae69250038961163c565b8251988a604c5480831c93838216908115610bbc575b8b861082146101f65750848d52908115610b9a5750600114610b61575b505050610b2d8861019798999a038a61163c565b604d54915198899860ff948585818160281c169a1c1697868660181c1697878760101c1697808860081c169716958d611785565b9a50604c8b52878b205b828c10610b8757505050978701850197610b2d88610197610b19565b80548c8c018a01529a88019a8101610b6b565b60ff19168a8d0152505050151560051b880186019850610b2d88610197610b19565b94607f1694610afc565b5050604b8b5288888c8c8282205b858310610bea575050610ae69350820101610ada565b909193838583549201015201910189908c8c93610bd4565b60ff191684820152610ae694151560051b8401019150610ada9050565b91607f1691610ab6565b503461028957826003193601126102895760395491603a54603b5490603c548451948796603d5495600198878a1c908a8916988915610dcc575b6020998a8410811461026c57838c528b92918b908215610daf575050600114610d73575b610c939250038961163c565b8251988a603e5480831c93838216908115610d69575b8b861082146101f65750848d52908115610d475750600114610d0e575b505050610cda8861019798999a038a61163c565b603f54915198899860ff948585818160281c169a1c1697868660181c1697878760101c1697808860081c169716958d611785565b9a50603e8b52878b205b828c10610d3457505050978701850197610cda88610197610cc6565b80548c8c018a01529a88019a8101610d18565b60ff19168a8d0152505050151560051b880186019850610cda88610197610cc6565b94607f1694610ca9565b5050603d8b5288888c8c8282205b858310610d97575050610c939350820101610c87565b909193838583549201015201910189908c8c93610d81565b60ff191684820152610c9394151560051b8401019150610c879050565b91607f1691610c63565b50346102895782600319360112610289576024549160255460265490602754845194879660285495600198878a1c908a8916988915610f79575b6020998a8410811461026c57838c528b92918b908215610f5c575050600114610f20575b610e409250038961163c565b8251988a60295480831c93838216908115610f16575b8b861082146101f65750848d52908115610ef45750600114610ebb575b505050610e878861019798999a038a61163c565b602a54915198899860ff948585818160281c169a1c1697868660181c1697878760101c1697808860081c169716958d611785565b9a5060298b52878b205b828c10610ee157505050978701850197610e8788610197610e73565b80548c8c018a01529a88019a8101610ec5565b60ff19168a8d0152505050151560051b880186019850610e8788610197610e73565b94607f1694610e56565b505060288b5288888c8c8282205b858310610f44575050610e409350820101610e34565b909193838583549201015201910189908c8c93610f2e565b60ff191684820152610e4094151560051b8401019150610e349050565b91607f1691610e10565b50346102895782600319360112610289576071549160725460735490607454845194879660755495600198878a1c908a8916988915611126575b6020998a8410811461026c57838c528b92918b9082156111095750506001146110cd575b610fed9250038961163c565b8251988a60765480831c938382169081156110c3575b8b861082146101f65750848d529081156110a15750600114611068575b5050506110348861019798999a038a61163c565b607754915198899860ff948585818160281c169a1c1697868660181c1697878760101c1697808860081c169716958d611785565b9a5060768b52878b205b828c1061108e5750505097870185019761103488610197611020565b80548c8c018a01529a88019a8101611072565b60ff19168a8d0152505050151560051b88018601985061103488610197611020565b94607f1694611003565b505060758b5288888c8c8282205b8583106110f1575050610fed9350820101610fe1565b909193838583549201015201910189908c8c936110db565b60ff191684820152610fed94151560051b8401019150610fe19050565b91607f1691610fbd565b5034610289578260031936011261028957605c5491605d54605e5490605f54845194879660605495600198878a1c908a89169889156112d3575b6020998a8410811461026c57838c528b92918b9082156112b657505060011461127a575b61119a9250038961163c565b8251988a60615480831c93838216908115611270575b8b861082146101f65750848d5290811561124e5750600114611215575b5050506111e18861019798999a038a61163c565b606254915198899860ff948585818160281c169a1c1697868660181c1697878760101c1697808860081c169716958d611785565b9a5060618b52878b205b828c1061123b575050509787018501976111e1886101976111cd565b80548c8c018a01529a88019a810161121f565b60ff19168a8d0152505050151560051b8801860198506111e1886101976111cd565b94607f16946111b0565b505060608b5288888c8c8282205b85831061129e57505061119a935082010161118e565b909193838583549201015201910189908c8c93611288565b60ff19168482015261119a94151560051b840101915061118e9050565b91607f169161116a565b5034610289578260031936011261028957602b5491602c54602d5490602e548451948796602f5495600198878a1c908a8916988915611480575b6020998a8410811461026c57838c528b92918b908215611463575050600114611427575b6113479250038961163c565b8251988a60305480831c9383821690811561141d575b8b861082146101f65750848d529081156113fb57506001146113c2575b50505061138e8861019798999a038a61163c565b603154915198899860ff948585818160281c169a1c1697868660181c1697878760101c1697808860081c169716958d611785565b9a5060308b52878b205b828c106113e85750505097870185019761138e8861019761137a565b80548c8c018a01529a88019a81016113cc565b60ff19168a8d0152505050151560051b88018601985061138e8861019761137a565b94607f169461135d565b5050602f8b5288888c8c8282205b85831061144b575050611347935082010161133b565b909193838583549201015201910189908c8c93611435565b60ff19168482015261134794151560051b840101915061133b9050565b91607f1691611317565b9192905034611638578360031936011261163857603254926033546034549160355490879660365495600198878a1c908a891698891561162e575b6020998a8410811461026c57838c528b92918b9082156116115750506001146115d5575b6114f59250038961163c565b8251988a60375480831c938382169081156115cb575b8b861082146101f65750848d529081156115a95750600114611570575b50505061153c8861019798999a038a61163c565b603854915198899860ff948585818160281c169a1c1697868660181c1697878760101c1697808860081c169716958d611785565b9a5060378b52878b205b828c106115965750505097870185019761153c88610197611528565b80548c8c018a01529a88019a810161157a565b60ff19168a8d0152505050151560051b88018601985061153c88610197611528565b94607f169461150b565b505060368b5288888c8c8282205b8583106115f95750506114f593508201016114e9565b909193838583549201015201910189908c8c936115e3565b60ff1916848201526114f594151560051b84010191506114e99050565b91607f16916114c5565b8380fd5b90601f8019910116810190811067ffffffffffffffff82111761165e57604052565b634e487b7160e01b600052604160045260246000fd5b90604051906000835490600182811c9080841696871561173b575b6020948584108914611727578798848997989952908160001461170557506001146116c6575b5050506116c49250038361163c565b565b600090815285812095935091905b8183106116ed5750506116c493508201013880806116b5565b855488840185015294850194879450918301916116d4565b925050506116c494925060ff191682840152151560051b8201013880806116b5565b634e487b7160e01b85526022600452602485fd5b91607f169161168f565b919082519283825260005b848110611771575050826000602080949584010152601f8019910116010190565b602081830181015184830182015201611750565b9a979490936101609a979d9c9996936117be9360208e6117cc988152015260408d015260608c01526101808060808d01528b0190611745565b9089820360a08b0152611745565b98151560c0880152151560e0870152151561010086015215156101208501521515610140840152151591015256fea26469706673582212202e9374a38393735edc49f7636abe16e14cc7eae4675de546a49c4511c553d89f64736f6c63430008100033a9144a5e7efd259b8b0d55467f4696ed47ec83317d61501b76366dbcca65ce73e8c3abd4193a84ec8a3fff3eeb3ecbcbd0979e0c977ac1dee06c6e01a60aca1ba813484aef6fb598f9f753daf162068ff39ccea4075cb95e1a30f86995b5b7ee9930d9ff0dee0ef5ca2f7710ea66b8f84dd0f5f5351ecffe72b952cd9db7142a4c83efb3982afbd500ab7c66d02b996df5fdc3d20660e61600390aad6d5f7f1edf6966c971051c3d54ec59162606531493a51404a002842f56009d7e5cf4a8c74a11f94e20a93c79f6ec743a1954ec4fc2c08429ae2122118bf234b2185c81b8290decd9548b62a8d60345a988386fc84ba6bc95484008f6362f93160ef3e56361035b26e3e9eee00e0d72fd1ee8ddca6894550dca6916ea2ac6baa90d11e51042859d4f253f4d4a28ee9a59f9c9683a9404da2c5d329c733ab84f150db798a83ad8aa4f87544323a9d1e5dd902f40c356527a7955687113db5f9a85ad579dc19b22d3d61959b4d3528b1d8ba932c96fbe302b36a1aad1d95cab54f9e0a135ead7b6990105719101dabeb77144f2a3385c8033acd3af97e9423a695e81ad1eb5a80a8fcc11760162f08bb091d2c9389d07f2b73d0e996161dfac6f1043b5fc0b66de8ffda797e3de9c05e8fc57b3bf0ec28a930d40b0d285d93c06501cf6a0909787eeb91fe3101235e4a76063c7023ecb40f923f97916639c598592fa30d6ae3a6357012c1a3ae0a17d304c9920310382d968ebcc4b1771f41c6b304205b570cb7c14ce178f56e2e8d86ab33ebc0ae081ba8556a00cd122038841867181caac41c7ae758795765c6664a5d39bf63841c71ff191e9189522bad8ebff5d4eca98057c384a7d1c54f3a1b2e5e67b2617b8224fdfd1ea7234eea573a6ff665ff63ea2153420d844928b4421650203c77babc8b33d7f2e7b450e2966db0c220977539a8d93986a7b9e6294572ea6736696119c195c1a9f5eae642d3c5fcd44e49deaf652222313e28459528d920b65115c16c04f3efc82aaedc97be59f3f377c0d3f6ff97a59c90d62cc7236ba3a37cd85351bf564556780cf8c1157a220f31f0cbb39f2babe526038520877fc7c33d81accf578af4a06c5fa6b0d038cae36e127118d800d6614d35eed73733ee453164a3b48076eb3138f466adeeb9dec7bb31f7042a7b7dd785cd69714a189dffb3fd7d7174edc9ece837694ce50f7078f7c31aece6d7b5282bd9a3661ae061feed1dbda4e52ab073b1f9285be6e155d9c38d4ecd73956b9e00d8f8bc5e44f7184df1387cdd652e7726b8ccda3db4859e02f31bff0ecb75dd1820844c57b6762233d4e26853b3a7b8157bbd9f41f280a0f1cee9bece66cfdbd22e3f37d348a3d8e19074452862cd65fd4b9a11f0336d1ac6d1dc317b0af156a929edf60c351f3df2d53ed643fdd750aef9eda90dc7c8759a104a8e16da923a2d88192e5070f37b4571d58682c0d66212ec634d495f33de3f77ab5",
  "linkReferences": {},
  "deployedLinkReferences": {}
}