{
  "_format": "hh-sol-artifact-1",
  "contractName": "Hearthstone",
  "sourceName": "contracts/Hearthstone.sol",
  "abi": [
    {
      "inputs": [
        {
          "internalType": "address",
          "name": "_address",
          "type": "address"
        }
      ],
      "stateMutability": "nonpayable",
      "type": "constructor"
    },
    {
      "anonymous": false,
      "inputs": [
        {
          "components": [
            {
              "internalType": "uint256",
              "name": "health",
              "type": "uint256"
            },
            {
              "internalType": "uint256",
              "name": "attack",
              "type": "uint256"
            },
            {
              "internalType": "uint256",
              "name": "manaCost",
              "type": "uint256"
            },
            {
              "internalType": "uint256",
              "name": "id",
              "type": "uint256"
            },
            {
              "internalType": "string",
              "name": "name",
              "type": "string"
            },
            {
              "internalType": "string",
              "name": "description",
              "type": "string"
            },
            {
              "internalType": "bool",
              "name": "taunt",
              "type": "bool"
            },
            {
              "internalType": "bool",
              "name": "windfury",
              "type": "bool"
            },
            {
              "internalType": "bool",
              "name": "divineshield",
              "type": "bool"
            },
            {
              "internalType": "bool",
              "name": "stealth",
              "type": "bool"
            },
            {
              "internalType": "bool",
              "name": "poisonious",
              "type": "bool"
            }
          ],
          "indexed": false,
          "internalType": "struct Hearthstone.Champs",
          "name": "str",
          "type": "tuple"
        }
      ],
      "name": "drawn",
      "type": "event"
    },
    {
      "anonymous": false,
      "inputs": [
        {
          "components": [
            {
              "internalType": "uint256",
              "name": "health",
              "type": "uint256"
            },
            {
              "internalType": "uint256",
              "name": "attack",
              "type": "uint256"
            },
            {
              "internalType": "uint256",
              "name": "manaCost",
              "type": "uint256"
            },
            {
              "internalType": "uint256",
              "name": "id",
              "type": "uint256"
            },
            {
              "internalType": "string",
              "name": "name",
              "type": "string"
            },
            {
              "internalType": "string",
              "name": "description",
              "type": "string"
            },
            {
              "internalType": "bool",
              "name": "taunt",
              "type": "bool"
            },
            {
              "internalType": "bool",
              "name": "windfury",
              "type": "bool"
            },
            {
              "internalType": "bool",
              "name": "divineshield",
              "type": "bool"
            },
            {
              "internalType": "bool",
              "name": "stealth",
              "type": "bool"
            },
            {
              "internalType": "bool",
              "name": "poisonious",
              "type": "bool"
            }
          ],
          "indexed": false,
          "internalType": "struct Hearthstone.Champs",
          "name": "str",
          "type": "tuple"
        }
      ],
      "name": "playMinionEvent",
      "type": "event"
    },
    {
      "inputs": [
        {
          "internalType": "uint256",
          "name": "_handCardChosen",
          "type": "uint256"
        },
        {
          "internalType": "uint256",
          "name": "_posistion",
          "type": "uint256"
        },
        {
          "internalType": "uint256",
          "name": "_player",
          "type": "uint256"
        }
      ],
      "name": "ability",
      "outputs": [],
      "stateMutability": "nonpayable",
      "type": "function"
    },
    {
      "inputs": [
        {
          "internalType": "uint256",
          "name": "minion",
          "type": "uint256"
        },
        {
          "internalType": "uint256",
          "name": "target",
          "type": "uint256"
        },
        {
          "internalType": "uint256",
          "name": "_player",
          "type": "uint256"
        },
        {
          "internalType": "uint256",
          "name": "_chosen",
          "type": "uint256"
        }
      ],
      "name": "attack",
      "outputs": [],
      "stateMutability": "nonpayable",
      "type": "function"
    },
    {
      "inputs": [
        {
          "internalType": "uint256",
          "name": "minion",
          "type": "uint256"
        },
        {
          "internalType": "uint256",
          "name": "target",
          "type": "uint256"
        },
        {
          "internalType": "uint256",
          "name": "chosen",
          "type": "uint256"
        }
      ],
      "name": "battleCryWithChooseOption",
      "outputs": [],
      "stateMutability": "nonpayable",
      "type": "function"
    },
    {
      "inputs": [
        {
          "internalType": "uint256",
          "name": "_player",
          "type": "uint256"
        }
      ],
      "name": "boardSize",
      "outputs": [
        {
          "internalType": "uint256",
          "name": "",
          "type": "uint256"
        }
      ],
      "stateMutability": "view",
      "type": "function"
    },
    {
      "inputs": [],
      "name": "charC",
      "outputs": [
        {
          "internalType": "contract Characters",
          "name": "",
          "type": "address"
        }
      ],
      "stateMutability": "view",
      "type": "function"
    },
    {
      "inputs": [],
      "name": "clear",
      "outputs": [],
      "stateMutability": "nonpayable",
      "type": "function"
    },
    {
      "inputs": [
        {
          "internalType": "string",
          "name": "_username",
          "type": "string"
        }
      ],
      "name": "createGame",
      "outputs": [],
      "stateMutability": "nonpayable",
      "type": "function"
    },
    {
      "inputs": [
        {
          "internalType": "uint256",
          "name": "_player",
          "type": "uint256"
        }
      ],
      "name": "drawCards",
      "outputs": [],
      "stateMutability": "nonpayable",
      "type": "function"
    },
    {
      "inputs": [
        {
          "internalType": "uint256",
          "name": "_player",
          "type": "uint256"
        }
      ],
      "name": "endTurn",
      "outputs": [],
      "stateMutability": "nonpayable",
      "type": "function"
    },
    {
      "inputs": [
        {
          "internalType": "address",
          "name": "",
          "type": "address"
        }
      ],
      "name": "games",
      "outputs": [
        {
          "internalType": "uint256",
          "name": "gameId",
          "type": "uint256"
        },
        {
          "components": [
            {
              "components": [
                {
                  "internalType": "uint256",
                  "name": "health",
                  "type": "uint256"
                },
                {
                  "internalType": "uint256",
                  "name": "attack",
                  "type": "uint256"
                },
                {
                  "internalType": "uint256",
                  "name": "manaCost",
                  "type": "uint256"
                },
                {
                  "internalType": "uint256",
                  "name": "id",
                  "type": "uint256"
                },
                {
                  "internalType": "string",
                  "name": "name",
                  "type": "string"
                },
                {
                  "internalType": "string",
                  "name": "description",
                  "type": "string"
                },
                {
                  "internalType": "bool",
                  "name": "taunt",
                  "type": "bool"
                },
                {
                  "internalType": "bool",
                  "name": "windfury",
                  "type": "bool"
                },
                {
                  "internalType": "bool",
                  "name": "divineshield",
                  "type": "bool"
                },
                {
                  "internalType": "bool",
                  "name": "stealth",
                  "type": "bool"
                },
                {
                  "internalType": "bool",
                  "name": "poisonious",
                  "type": "bool"
                }
              ],
              "internalType": "struct Hearthstone.Champs[7]",
              "name": "player1Row",
              "type": "tuple[7]"
            },
            {
              "components": [
                {
                  "internalType": "uint256",
                  "name": "health",
                  "type": "uint256"
                },
                {
                  "internalType": "uint256",
                  "name": "attack",
                  "type": "uint256"
                },
                {
                  "internalType": "uint256",
                  "name": "manaCost",
                  "type": "uint256"
                },
                {
                  "internalType": "uint256",
                  "name": "id",
                  "type": "uint256"
                },
                {
                  "internalType": "string",
                  "name": "name",
                  "type": "string"
                },
                {
                  "internalType": "string",
                  "name": "description",
                  "type": "string"
                },
                {
                  "internalType": "bool",
                  "name": "taunt",
                  "type": "bool"
                },
                {
                  "internalType": "bool",
                  "name": "windfury",
                  "type": "bool"
                },
                {
                  "internalType": "bool",
                  "name": "divineshield",
                  "type": "bool"
                },
                {
                  "internalType": "bool",
                  "name": "stealth",
                  "type": "bool"
                },
                {
                  "internalType": "bool",
                  "name": "poisonious",
                  "type": "bool"
                }
              ],
              "internalType": "struct Hearthstone.Champs[7]",
              "name": "player2Row",
              "type": "tuple[7]"
            }
          ],
          "internalType": "struct Hearthstone.Board",
          "name": "board",
          "type": "tuple"
        }
      ],
      "stateMutability": "view",
      "type": "function"
    },
    {
      "inputs": [
        {
          "internalType": "uint256",
          "name": "id",
          "type": "uint256"
        }
      ],
      "name": "getAttack",
      "outputs": [
        {
          "internalType": "uint256",
          "name": "",
          "type": "uint256"
        }
      ],
      "stateMutability": "view",
      "type": "function"
    },
    {
      "inputs": [
        {
          "internalType": "uint256",
          "name": "_player",
          "type": "uint256"
        }
      ],
      "name": "getBoard",
      "outputs": [
        {
          "components": [
            {
              "internalType": "uint256",
              "name": "health",
              "type": "uint256"
            },
            {
              "internalType": "uint256",
              "name": "attack",
              "type": "uint256"
            },
            {
              "internalType": "uint256",
              "name": "manaCost",
              "type": "uint256"
            },
            {
              "internalType": "uint256",
              "name": "id",
              "type": "uint256"
            },
            {
              "internalType": "string",
              "name": "name",
              "type": "string"
            },
            {
              "internalType": "string",
              "name": "description",
              "type": "string"
            },
            {
              "internalType": "bool",
              "name": "taunt",
              "type": "bool"
            },
            {
              "internalType": "bool",
              "name": "windfury",
              "type": "bool"
            },
            {
              "internalType": "bool",
              "name": "divineshield",
              "type": "bool"
            },
            {
              "internalType": "bool",
              "name": "stealth",
              "type": "bool"
            },
            {
              "internalType": "bool",
              "name": "poisonious",
              "type": "bool"
            }
          ],
          "internalType": "struct Hearthstone.Champs[]",
          "name": "",
          "type": "tuple[]"
        }
      ],
      "stateMutability": "view",
      "type": "function"
    },
    {
      "inputs": [
        {
          "internalType": "uint256",
          "name": "_player",
          "type": "uint256"
        }
      ],
      "name": "getGame",
      "outputs": [
        {
          "components": [
            {
              "internalType": "uint256",
              "name": "gameId",
              "type": "uint256"
            },
            {
              "components": [
                {
                  "components": [
                    {
                      "internalType": "uint256",
                      "name": "health",
                      "type": "uint256"
                    },
                    {
                      "internalType": "uint256",
                      "name": "attack",
                      "type": "uint256"
                    },
                    {
                      "internalType": "uint256",
                      "name": "manaCost",
                      "type": "uint256"
                    },
                    {
                      "internalType": "uint256",
                      "name": "id",
                      "type": "uint256"
                    },
                    {
                      "internalType": "string",
                      "name": "name",
                      "type": "string"
                    },
                    {
                      "internalType": "string",
                      "name": "description",
                      "type": "string"
                    },
                    {
                      "internalType": "bool",
                      "name": "taunt",
                      "type": "bool"
                    },
                    {
                      "internalType": "bool",
                      "name": "windfury",
                      "type": "bool"
                    },
                    {
                      "internalType": "bool",
                      "name": "divineshield",
                      "type": "bool"
                    },
                    {
                      "internalType": "bool",
                      "name": "stealth",
                      "type": "bool"
                    },
                    {
                      "internalType": "bool",
                      "name": "poisonious",
                      "type": "bool"
                    }
                  ],
                  "internalType": "struct Hearthstone.Champs[7]",
                  "name": "player1Row",
                  "type": "tuple[7]"
                },
                {
                  "components": [
                    {
                      "internalType": "uint256",
                      "name": "health",
                      "type": "uint256"
                    },
                    {
                      "internalType": "uint256",
                      "name": "attack",
                      "type": "uint256"
                    },
                    {
                      "internalType": "uint256",
                      "name": "manaCost",
                      "type": "uint256"
                    },
                    {
                      "internalType": "uint256",
                      "name": "id",
                      "type": "uint256"
                    },
                    {
                      "internalType": "string",
                      "name": "name",
                      "type": "string"
                    },
                    {
                      "internalType": "string",
                      "name": "description",
                      "type": "string"
                    },
                    {
                      "internalType": "bool",
                      "name": "taunt",
                      "type": "bool"
                    },
                    {
                      "internalType": "bool",
                      "name": "windfury",
                      "type": "bool"
                    },
                    {
                      "internalType": "bool",
                      "name": "divineshield",
                      "type": "bool"
                    },
                    {
                      "internalType": "bool",
                      "name": "stealth",
                      "type": "bool"
                    },
                    {
                      "internalType": "bool",
                      "name": "poisonious",
                      "type": "bool"
                    }
                  ],
                  "internalType": "struct Hearthstone.Champs[7]",
                  "name": "player2Row",
                  "type": "tuple[7]"
                }
              ],
              "internalType": "struct Hearthstone.Board",
              "name": "board",
              "type": "tuple"
            },
            {
              "components": [
                {
                  "internalType": "string",
                  "name": "username",
                  "type": "string"
                },
                {
                  "internalType": "uint256",
                  "name": "health",
                  "type": "uint256"
                },
                {
                  "internalType": "uint256",
                  "name": "mana",
                  "type": "uint256"
                },
                {
                  "internalType": "uint256",
                  "name": "unspendMana",
                  "type": "uint256"
                },
                {
                  "components": [
                    {
                      "internalType": "uint256",
                      "name": "health",
                      "type": "uint256"
                    },
                    {
                      "internalType": "uint256",
                      "name": "attack",
                      "type": "uint256"
                    },
                    {
                      "internalType": "uint256",
                      "name": "manaCost",
                      "type": "uint256"
                    },
                    {
                      "internalType": "uint256",
                      "name": "id",
                      "type": "uint256"
                    },
                    {
                      "internalType": "string",
                      "name": "name",
                      "type": "string"
                    },
                    {
                      "internalType": "string",
                      "name": "description",
                      "type": "string"
                    },
                    {
                      "internalType": "bool",
                      "name": "taunt",
                      "type": "bool"
                    },
                    {
                      "internalType": "bool",
                      "name": "windfury",
                      "type": "bool"
                    },
                    {
                      "internalType": "bool",
                      "name": "divineshield",
                      "type": "bool"
                    },
                    {
                      "internalType": "bool",
                      "name": "stealth",
                      "type": "bool"
                    },
                    {
                      "internalType": "bool",
                      "name": "poisonious",
                      "type": "bool"
                    }
                  ],
                  "internalType": "struct Hearthstone.Champs[]",
                  "name": "minions",
                  "type": "tuple[]"
                },
                {
                  "components": [
                    {
                      "internalType": "uint256",
                      "name": "health",
                      "type": "uint256"
                    },
                    {
                      "internalType": "uint256",
                      "name": "attack",
                      "type": "uint256"
                    },
                    {
                      "internalType": "uint256",
                      "name": "manaCost",
                      "type": "uint256"
                    },
                    {
                      "internalType": "uint256",
                      "name": "id",
                      "type": "uint256"
                    },
                    {
                      "internalType": "string",
                      "name": "name",
                      "type": "string"
                    },
                    {
                      "internalType": "string",
                      "name": "description",
                      "type": "string"
                    },
                    {
                      "internalType": "bool",
                      "name": "taunt",
                      "type": "bool"
                    },
                    {
                      "internalType": "bool",
                      "name": "windfury",
                      "type": "bool"
                    },
                    {
                      "internalType": "bool",
                      "name": "divineshield",
                      "type": "bool"
                    },
                    {
                      "internalType": "bool",
                      "name": "stealth",
                      "type": "bool"
                    },
                    {
                      "internalType": "bool",
                      "name": "poisonious",
                      "type": "bool"
                    }
                  ],
                  "internalType": "struct Hearthstone.Champs[]",
                  "name": "hand",
                  "type": "tuple[]"
                }
              ],
              "internalType": "struct Hearthstone.Player[2]",
              "name": "player",
              "type": "tuple[2]"
            }
          ],
          "internalType": "struct Hearthstone.Game",
          "name": "",
          "type": "tuple"
        }
      ],
      "stateMutability": "view",
      "type": "function"
    },
    {
      "inputs": [
        {
          "internalType": "uint256",
          "name": "_player",
          "type": "uint256"
        }
      ],
      "name": "getHand",
      "outputs": [
        {
          "components": [
            {
              "internalType": "uint256",
              "name": "health",
              "type": "uint256"
            },
            {
              "internalType": "uint256",
              "name": "attack",
              "type": "uint256"
            },
            {
              "internalType": "uint256",
              "name": "manaCost",
              "type": "uint256"
            },
            {
              "internalType": "uint256",
              "name": "id",
              "type": "uint256"
            },
            {
              "internalType": "string",
              "name": "name",
              "type": "string"
            },
            {
              "internalType": "string",
              "name": "description",
              "type": "string"
            },
            {
              "internalType": "bool",
              "name": "taunt",
              "type": "bool"
            },
            {
              "internalType": "bool",
              "name": "windfury",
              "type": "bool"
            },
            {
              "internalType": "bool",
              "name": "divineshield",
              "type": "bool"
            },
            {
              "internalType": "bool",
              "name": "stealth",
              "type": "bool"
            },
            {
              "internalType": "bool",
              "name": "poisonious",
              "type": "bool"
            }
          ],
          "internalType": "struct Hearthstone.Champs[]",
          "name": "",
          "type": "tuple[]"
        }
      ],
      "stateMutability": "view",
      "type": "function"
    },
    {
      "inputs": [],
      "name": "getHealthBot",
      "outputs": [
        {
          "internalType": "uint256",
          "name": "",
          "type": "uint256"
        }
      ],
      "stateMutability": "view",
      "type": "function"
    },
    {
      "inputs": [],
      "name": "getHealthPlayer",
      "outputs": [
        {
          "internalType": "uint256",
          "name": "",
          "type": "uint256"
        }
      ],
      "stateMutability": "view",
      "type": "function"
    },
    {
      "inputs": [
        {
          "internalType": "uint256",
          "name": "minionId",
          "type": "uint256"
        }
      ],
      "name": "getMinionById",
      "outputs": [
        {
          "components": [
            {
              "internalType": "uint256",
              "name": "health",
              "type": "uint256"
            },
            {
              "internalType": "uint256",
              "name": "attack",
              "type": "uint256"
            },
            {
              "internalType": "uint256",
              "name": "manaCost",
              "type": "uint256"
            },
            {
              "internalType": "uint256",
              "name": "id",
              "type": "uint256"
            },
            {
              "internalType": "string",
              "name": "name",
              "type": "string"
            },
            {
              "internalType": "string",
              "name": "description",
              "type": "string"
            },
            {
              "internalType": "bool",
              "name": "taunt",
              "type": "bool"
            },
            {
              "internalType": "bool",
              "name": "windfury",
              "type": "bool"
            },
            {
              "internalType": "bool",
              "name": "divineshield",
              "type": "bool"
            },
            {
              "internalType": "bool",
              "name": "stealth",
              "type": "bool"
            },
            {
              "internalType": "bool",
              "name": "poisonious",
              "type": "bool"
            }
          ],
          "internalType": "struct Hearthstone.Champs",
          "name": "",
          "type": "tuple"
        }
      ],
      "stateMutability": "nonpayable",
      "type": "function"
    },
    {
      "inputs": [
        {
          "internalType": "uint256",
          "name": "_player",
          "type": "uint256"
        }
      ],
      "name": "getPlayer",
      "outputs": [
        {
          "components": [
            {
              "internalType": "string",
              "name": "username",
              "type": "string"
            },
            {
              "internalType": "uint256",
              "name": "health",
              "type": "uint256"
            },
            {
              "internalType": "uint256",
              "name": "mana",
              "type": "uint256"
            },
            {
              "internalType": "uint256",
              "name": "unspendMana",
              "type": "uint256"
            },
            {
              "components": [
                {
                  "internalType": "uint256",
                  "name": "health",
                  "type": "uint256"
                },
                {
                  "internalType": "uint256",
                  "name": "attack",
                  "type": "uint256"
                },
                {
                  "internalType": "uint256",
                  "name": "manaCost",
                  "type": "uint256"
                },
                {
                  "internalType": "uint256",
                  "name": "id",
                  "type": "uint256"
                },
                {
                  "internalType": "string",
                  "name": "name",
                  "type": "string"
                },
                {
                  "internalType": "string",
                  "name": "description",
                  "type": "string"
                },
                {
                  "internalType": "bool",
                  "name": "taunt",
                  "type": "bool"
                },
                {
                  "internalType": "bool",
                  "name": "windfury",
                  "type": "bool"
                },
                {
                  "internalType": "bool",
                  "name": "divineshield",
                  "type": "bool"
                },
                {
                  "internalType": "bool",
                  "name": "stealth",
                  "type": "bool"
                },
                {
                  "internalType": "bool",
                  "name": "poisonious",
                  "type": "bool"
                }
              ],
              "internalType": "struct Hearthstone.Champs[]",
              "name": "minions",
              "type": "tuple[]"
            },
            {
              "components": [
                {
                  "internalType": "uint256",
                  "name": "health",
                  "type": "uint256"
                },
                {
                  "internalType": "uint256",
                  "name": "attack",
                  "type": "uint256"
                },
                {
                  "internalType": "uint256",
                  "name": "manaCost",
                  "type": "uint256"
                },
                {
                  "internalType": "uint256",
                  "name": "id",
                  "type": "uint256"
                },
                {
                  "internalType": "string",
                  "name": "name",
                  "type": "string"
                },
                {
                  "internalType": "string",
                  "name": "description",
                  "type": "string"
                },
                {
                  "internalType": "bool",
                  "name": "taunt",
                  "type": "bool"
                },
                {
                  "internalType": "bool",
                  "name": "windfury",
                  "type": "bool"
                },
                {
                  "internalType": "bool",
                  "name": "divineshield",
                  "type": "bool"
                },
                {
                  "internalType": "bool",
                  "name": "stealth",
                  "type": "bool"
                },
                {
                  "internalType": "bool",
                  "name": "poisonious",
                  "type": "bool"
                }
              ],
              "internalType": "struct Hearthstone.Champs[]",
              "name": "hand",
              "type": "tuple[]"
            }
          ],
          "internalType": "struct Hearthstone.Player",
          "name": "",
          "type": "tuple"
        }
      ],
      "stateMutability": "view",
      "type": "function"
    },
    {
      "inputs": [],
      "name": "getTurn",
      "outputs": [
        {
          "internalType": "uint8",
          "name": "",
          "type": "uint8"
        }
      ],
      "stateMutability": "view",
      "type": "function"
    },
    {
      "inputs": [],
      "name": "handSize",
      "outputs": [
        {
          "internalType": "uint256",
          "name": "",
          "type": "uint256"
        }
      ],
      "stateMutability": "view",
      "type": "function"
    },
    {
      "inputs": [
        {
          "internalType": "uint256",
          "name": "_player",
          "type": "uint256"
        },
        {
          "internalType": "uint256",
          "name": "_handIndex",
          "type": "uint256"
        }
      ],
      "name": "playMinion",
      "outputs": [],
      "stateMutability": "nonpayable",
      "type": "function"
    },
    {
      "inputs": [
        {
          "internalType": "uint256",
          "name": "minionId",
          "type": "uint256"
        },
        {
          "internalType": "uint256",
          "name": "_player",
          "type": "uint256"
        }
      ],
      "name": "playMinionById",
      "outputs": [],
      "stateMutability": "nonpayable",
      "type": "function"
    },
    {
      "inputs": [
        {
          "internalType": "uint256",
          "name": "_player",
          "type": "uint256"
        }
      ],
      "name": "playerDrawCard",
      "outputs": [],
      "stateMutability": "nonpayable",
      "type": "function"
    },
    {
      "inputs": [
        {
          "internalType": "uint256",
          "name": "id",
          "type": "uint256"
        },
        {
          "internalType": "uint256",
          "name": "_player",
          "type": "uint256"
        }
      ],
      "name": "showboardplace",
      "outputs": [
        {
          "internalType": "uint256[4]",
          "name": "",
          "type": "uint256[4]"
        },
        {
          "internalType": "string",
          "name": "",
          "type": "string"
        }
      ],
      "stateMutability": "view",
      "type": "function"
    },
    {
      "inputs": [
        {
          "internalType": "uint256",
          "name": "id",
          "type": "uint256"
        }
      ],
      "name": "showcard",
      "outputs": [
        {
          "internalType": "uint256[4]",
          "name": "",
          "type": "uint256[4]"
        },
        {
          "internalType": "string",
          "name": "",
          "type": "string"
        }
      ],
      "stateMutability": "view",
      "type": "function"
    },
    {
      "inputs": [
        {
          "internalType": "uint256",
          "name": "minion",
          "type": "uint256"
        },
        {
          "internalType": "uint256",
          "name": "chosen",
          "type": "uint256"
        },
        {
          "internalType": "uint256",
          "name": "player",
          "type": "uint256"
        }
      ],
      "name": "trigger",
      "outputs": [],
      "stateMutability": "nonpayable",
      "type": "function"
    },
    {
      "inputs": [
        {
          "internalType": "address",
          "name": "",
          "type": "address"
        }
      ],
      "name": "usernames",
      "outputs": [
        {
          "internalType": "string",
          "name": "",
          "type": "string"
        }
      ],
      "stateMutability": "view",
      "type": "function"
    }
  ],
  "bytecode": "0x60803461009457601f6129f638819003918201601f19168301916001600160401b038311848410176100995780849260209460405283398101031261009457516001600160a01b03811690819003610094576000600155600060055561010062ffffff19600654161760065560018060a01b031933816002541617600255600054161760005560405161294690816100b08239f35b600080fd5b634e487b7160e01b600052604160045260246000fdfe608080604052600436101561001357600080fd5b600090813560e01c90816304c51d5b146114225750806328e072441461140157806329b62c2c1461103c57806329d48b27146110045780632e4851b314610ed25780632ebc050414610d00578063361aeddf14610cb7578063428e866114610c8d57806345e09e5414610c5957806349045d0414610be457806352efea6e14610ba5578063605aa49914610b6b57806379131a1914610b0d5780638219b00c14610ad9578063848ae30114610a4f578063919d1f3f14610a255780639dbc88a3146109fe578063a2f77bcc14610899578063a52fcee2146106fa578063b6ead707146106d0578063cff840f0146105c9578063d47f269e14610579578063e55ae4e814610523578063ee91877c146104b8578063f7f39fb51461049b578063faa421cb146101635763ffa245cf1461014a57600080fd5b34610160576101583661198b565b505050604051f35b80fd5b50346101605761017236611463565b903383526003906020828152604085206063928385610196838360408c20016119d8565b50015492016101a582826119d8565b509260026101b7896005809701611b58565b5001541161046457876101fe876101f48589604060026101e38f8c6101dc878d6119d8565b5001611b58565b50015496338152858c5220016119d8565b500191825461209c565b9055828661021189836101dc87876119d8565b50015414610435575b600461022683836119d8565b50019461023888856101dc86866119d8565b508654600160401b811015610421579061025c610262926001998a82018155611b58565b90612277565b8880875b610367575b506101dc846102c0946102bb886102b460ff997fa76f195005ba54e5875e803ae21db8b4059e956d003be5f8fdd6210483c625279f988f84998f916040923383525220016119d8565b500161236b565b6119d8565b50926040519586958287528554838801528501546040870152600285015460608701528401546080860152600661031f610160948560a089015261030b610180890160048901611708565b888103601f190160c08a0152908701611708565b94015490828216151560e0870152828260081c161515610100870152828260101c161515610120870152828260181c1615156101408701521c161515908301520390a1604051f35b9061037e8584604089943381528d8c5220016119d8565b500154600019810190811161040d578a908210156104075750338a528786526103ac848360408d20016119d8565b50878201908183116103f3578b926103e86103cd8b948a6103ed9501611b58565b503386528c8b5261025c838b6101dc8c8b60408c20016119d8565b612077565b90610266565b634e487b7160e01b8c52601160045260248cfd5b9061026b565b634e487b7160e01b8b52601160045260248bfd5b634e487b7160e01b8b52604160045260248bfd5b33885285845261044a606760408a20016120f5565b33885285845261045f606d60408a20016120f5565b61021a565b60405162461bcd60e51b815260048101859052600f60248201526e6e6f7420656e6f756768206d616e6160881b6044820152606490fd5b5034610160576104b36104ad3661198b565b916124b9565b604051f35b5034610160576020366003190112610160576004356001600160a01b0381169081900361051f576105076040836105009361051b955260046020522060405192838092611708565b03826115a3565b6040519182916020835260208301906114a1565b0390f35b5080fd5b50346101605760203660031901126101605761056561055f61051b926105476119a5565b503381526003602052606360406004359220016119d8565b50611a62565b60405191829160208352602083019061192e565b5034610160576020366003190112610160576105b560056105ae61051b933381526003602052606360406004359220016119d8565b5001611a02565b604051918291602083526020830190611672565b503461016057602036600319011261016057805460405163dabb053160e01b8152600480359082015291908190839060249082906001600160a01b03165afa9182156106c3576020928290839284858687889189938a958b978c99610683575b506040519a9b506101409961063d8c61156c565b8b528b8d8c015260408b015260608a0152608089015260a0880152151560c0870152151560e0860152151561010085015215156101208401521515910152604051908152f35b99505050505050505050506106ae9150610140923d8091833e6106a681836115a3565b810190611eaf565b989a8b9a999891979296939593929190610629565b50604051903d90823e3d90fd5b50346101605780600319360112610160576064604060209233815260038452200154604051908152f35b503461016057600361070b3661198b565b909133855283602052600461075f61074a8261072d86606360408c20016119d8565b500154933389528760205260056101dc87606360408d20016119d8565b509333885286602052606360408920016119d8565b5001916001948591015414610775575b84604051f35b610780575b8061076f565b828214610813575b8161077a578282018092116107ff57826107a28383611b58565b50018054908482018092116107eb57556107bc8282611b58565b508054908482018092116107eb57556006916107d791611b58565b50019060ff1982541617905538808061077a565b634e487b7160e01b86526011600452602486fd5b634e487b7160e01b84526011600452602484fd5b6000198201828111610885578361082a8284611b58565b500180549085820180921161087157556108448183611b58565b5080549085820180921161087157556006906108609083611b58565b5001805460ff191684179055610788565b634e487b7160e01b87526011600452602487fd5b634e487b7160e01b85526011600452602485fd5b50346101605760209081600319360112610160576040516108b981611536565b8181526040516108c881611551565b6108d0611b15565b81526108da611b15565b8482015283820152604051906108ef82611551565b83835b604081106109ea5750506040015233815260038252604081206040519161091883611536565b8154835260019161092a83820161189a565b8585019081526040519161093d83611551565b60630183835b600282106109c557505050610977906040860192835260405195878752518787015251606060408701526080860190611904565b9051848203601f1901606086015260408201959092825b6002821061099c5786880387f35b909192939483806109b48a88859c038652895161192e565b99970195949391909101910161098e565b95600689829a9697986109d786611a62565b8152019301910190919795949397610943565b6109f26119a5565b818501520184906108f2565b5034610160578060031936011261016057546040516001600160a01b039091168152602090f35b50346101605780600319360112610160576068604060209233815260038452200154604051908152f35b503461016057602036600319011261016057610a90610a96916080604051610a7681611505565b369037338152600360205260686040600435922001611b58565b5061179e565b608060405191610aa583611505565b8051835260208101516020840152604081015160408401526060810151606084015201519061051b604051928392836114c6565b50346101605760203660031901126101605761051b610af96004356123d3565b6040519182916020835260208301906115df565b5034610160576020366003190112610160576004356001600160a01b0381169081900361051f57906040918152600360205220610b4e60018254920161189a565b9061051b6040519283928352604060208401526040830190611904565b5034610160576020366003190112610160576004610b9a602092338152600384526063604084359220016119d8565b500154604051908152f35b50346101605780600319360112610160573381526003602052610bcd606760408320016120f5565b33815260036020526104b3606d60408320016120f5565b5034610160576020366003190112610160573381526003602052610c25610c13600435606360408520016119d8565b506005610c1e611f4b565b9101611bd2565b7f114350837fa4fbc09f30bc6997d2929580625dfafecf29fb430024bd46694acb610c51610af9611f4b565b0390a1604051f35b5034610160576020366003190112610160576105b560046105ae61051b9333815260036020526063604084359220016119d8565b5034610160578060031936011261016057606a604060209233815260038452200154604051908152f35b50346101605760208060031936011261051f57600435825b60068110610cdd5783604051f35b610cfb90338552600384526103e8610c1384606360408920016119d8565b610ccf565b50346101605760208060031936011261051f576004356001600160401b0391828211610ece5736602383011215610ece5783826004013592610d41846115c4565b93610d4f60405195866115a3565b8085523660248284010111610eca578060248593018387013784010152338452600381526040842060638101604086209460698601948051918211610eb657610da282610d9c85546116ce565b85611b8b565b8490601f8311600114610e4957936001979593838994606694606c9a988d92610e3e575b5050600019600383901b1c191690851b1790555b601e60648201558260658201550155610df382546116ce565b601f8111610e1f575b5050600662109bdd60ea1b019055601e606a820155606b81018390550155604051f35b601f610e37928489528820910160051c810190611b74565b3880610dfc565b015190503880610dc6565b8389528589209190601f1984168a5b818110610e9f575084606694606c9a989460019c9a98948d98899510610e86575b505050811b019055610dda565b015160001960f88460031b161c19169055388080610e79565b929388600181928786015181550195019301610e58565b634e487b7160e01b88526041600452602488fd5b8280fd5b8380fd5b50346101605760208060031936011261051f576004358060ff6006541603610fcb57338352600390818352610f10610c1382606360408820016119d8565b338452818352600a6002610f2a83606360408920016119d8565b50015410610f64575b50505060065460ff811615600014610f585750600160ff196006541617600655604051f35b60ff1916600655604051f35b3384528183526002610f7c82606360408820016119d8565b5001805490600182018092116107eb5790610fc0929155338552828452826002610fac83606360408a20016119d8565b5001549433875252606360408620016119d8565b500155388080610f33565b60405162461bcd60e51b815260048101839052601160248201527034ba39903737ba103cb7bab9103a3ab93760791b6044820152606490fd5b5034610160576104b36110356004610c1e61101e36611463565b9390933387526003602052606360408820016119d8565b50926123d3565b503461016057608036600319011261016057604435600435602435826113fb5760015b3385526003928560209585875260639260016110868260046101dc868960408a20016119d8565b5001549533845287895260016110a78260046101dc8a8a60408b20016119d8565b5001549061029a81036111325750505050503386528385526110dc8360016110d4858560408c20016119d8565b50015461209c565b6110fb5750505050506201000062ffff00196006541617600655604051f35b60019361111b61112a94338952828852866110d4868660408d20016119d8565b953388525260408620016119d8565b500155604051f35b909192939897949596806111598360046101dc8c8f8f8e918e6040923383525220016119d8565b5054116113b557509850885b338952848852600461117c888860408d20016119d8565b50015460001981019081116112dc578a1015611203573389528488526111a7878760408c20016119d8565b5060018b0190818c1161040d57888860408d9e9d8a8e9f8f906103e86111f292846111d960049c8d61117c9d01611b58565b50913388525261025c838c6101dc8c8c8c8c20016119d8565b9f5050505050505050989798611165565b88995061123090989293969833845285895261122960046102b48c8a60408920016119d8565b878a61261b565b3382528387528061124c8460046101dc8a8a60408920016119d8565b50541161132a575050805b338852828652600461126e868660408c20016119d8565b5001546000198101908111611316578110156112f057338852828652611299858560408b20016119d8565b5060018201908183116112dc578761025c8460046101dc8b8f60408d918d6112ca6112d79d9c886103e89d01611b58565b50993383525220016119d8565b611257565b634e487b7160e01b8a52601160045260248afd5b50936102b4846104b397959461131194600494338c525260408a20016119d8565b61261b565b634e487b7160e01b89526011600452602489fd5b82975085858589856113818860046101dc889f9e60029f9e889f6113919f6101dc9d869f88886101dc8888604061136c9661137399829b3383525220016119d8565b505461209c565b973381528a8a5220016119d8565b5055338d525260408b20016119d8565b500154146113a1575b5050604051f35b6113ae91606435906124b9565b388061139a565b6113dc6113f49161136c8460046101dc8d9f999a9d8f8d90338d52528d60408c20016119d8565b91338552868a5260046101dc8c8a60408920016119d8565b5055611230565b8361105f565b5034610160578060031936011261016057602060ff60065416604051908152f35b90503461051f57610a909060046101dc608060636040610a969761144536611463565b94909761145181611505565b369037338152600360205220016119d8565b6040906003190112611479576004359060243590565b600080fd5b60005b8381106114915750506000910152565b8181015183820152602001611481565b906020916114ba8151809281855285808601910161147e565b601f01601f1916010190565b90600090825b600483106114ee575050509060a0828160806114eb95015201906114a1565b90565b6001908251815260208091019201920191906114cc565b608081019081106001600160401b0382111761152057604052565b634e487b7160e01b600052604160045260246000fd5b606081019081106001600160401b0382111761152057604052565b604081019081106001600160401b0382111761152057604052565b61016081019081106001600160401b0382111761152057604052565b60c081019081106001600160401b0382111761152057604052565b90601f801991011681019081106001600160401b0382111761152057604052565b6001600160401b03811161152057601f01601f191660200190565b908151815260208201516020820152604082015160408201526060820151606082015261163061161e60808401516101608060808601528401906114a1565b60a084015183820360a08501526114a1565b9160c0810151151560c083015260e0810151151560e0830152610100808201511515908301526101208082015115159083015261014080910151151591015290565b908082519081815260208091019281808460051b8301019501936000915b8483106116a05750505050505090565b90919293949584806116be600193601f198682030187528a516115df565b9801930193019194939290611690565b90600182811c921680156116fe575b60208310146116e857565b634e487b7160e01b600052602260045260246000fd5b91607f16916116dd565b9060009291805491611719836116ce565b91828252600193848116908160001461177b575060011461173b575b50505050565b90919394506000526020928360002092846000945b838610611767575050505001019038808080611735565b805485870183015294019385908201611750565b9294505050602093945060ff191683830152151560051b01019038808080611735565b906040516117ab8161156c565b61014060ff60068395805485526001810154602086015260028101546040860152600381015460608601526040516117ea816105008160048601611708565b6080860152604051611803816105008160058601611708565b60a08601520154818116151560c0850152818160081c16151560e0850152818160101c161515610100850152818160181c16151561012085015260201c161515910152565b906040519060e082018281106001600160401b03821117611520576040526000825b60079081831015611892579060206001926118848861179e565b81520195019101909361186a565b505050909150565b906040516118a781611551565b60206118c1603183956118b981611848565b855201611848565b910152565b60e08201918060005b600781106118de575050505090565b909192936118f4818560019303855286516115df565b94602090810194930191016118cf565b6114eb91602061191d83516040845260408401906118c6565b9201519060208184039101526118c6565b6114eb9160a061197a61194a845160c0855260c08501906114a1565b60208501516020850152604085015160408501526060850151606085015260808501518482036080860152611672565b9201519060a0818403910152611672565b606090600319011261147957600435906024359060443590565b604051906119b282611588565b606060a08382815260006020820152600060408201526000838201528260808201520152565b9060028110156119ec576006020190600090565b634e487b7160e01b600052603260045260246000fd5b9081546001600160401b03811161152057604051926020611a28818460051b01866115a3565b82855260009182528082208186015b848410611a45575050505050565b600783600192611a548561179e565b815201920193019290611a37565b90604051611a6f81611588565b60a06118c160058395604051611a89816105008185611708565b8552600181015460208601526002810154604086015260038101546060860152611ab560048201611a02565b608086015201611a02565b60405190611acd8261156c565b8161014060009182815282602082015282604082015282606082015260606080820152606060a08201528260c08201528260e082015282610100820152826101208201520152565b6040519060e08083018381106001600160401b03821117611520576040528260005b828110611b4357505050565b602090611b4e611ac0565b8184015201611b37565b80548210156119ec576000526007602060002091020190600090565b818110611b7f575050565b60008155600101611b74565b9190601f8111611b9a57505050565b611bc6926000526020600020906020601f840160051c83019310611bc8575b601f0160051c0190611b74565b565b9091508190611bb9565b908154600160401b81101561152057611bf2906001938482018155611b58565b611e4a5781518155602092838301518183015560408301516002830155606083015160038301556004820160808401519081516001600160401b0392838211611520578190611c4b82611c4586546116ce565b86611b8b565b8890601f8311600114611de757600092611ddc575b5050600019600383901b1c191690841b1790555b600583019160a085015195865192831161152057611c9683611c4586546116ce565b80601f8411600114611d675750918080600695936101409795611bc69a600094611d5c575b50501b916000199060031b1c19161790555b0191611ceb60c08201511515849060ff801983541691151516179055565b60e0810151835461ff00191690151560081b61ff0016178355610100810151835462ff0000191690151560101b62ff000016178355610120810151835463ff000000191690151560181b63ff000000161783550151815464ff00000000191690151560201b64ff0000000016179055565b015192503880611cbb565b9193949596601f1984168660005283600020936000905b828210611dc557505092600695928592611bc69a9996610140999610611dac575b505050811b019055611ccd565b015160001960f88460031b161c19169055388080611d9f565b808886978294978701518155019601940190611d7e565b015190503880611c60565b90869350601f19831691856000528a6000209260005b8c828210611e345750508411611e1b575b505050811b019055611c74565b015160001960f88460031b161c19169055388080611e0e565b8385015186558a97909501949384019301611dfd565b634e487b7160e01b600052600060045260246000fd5b81601f82011215611479578051611e76816115c4565b92611e8460405194856115a3565b81845260208284010111611479576114eb916020808501910161147e565b5190811515820361147957565b610160818303126114795780519260208201519260408301519260608101519260808201516001600160401b03908181116114795784611ef0918501611e60565b9360a084015191821161147957611f08918401611e60565b91611f1560c08201611ea2565b91611f2260e08301611ea2565b91611f306101008201611ea2565b916114eb610140611f446101208501611ea2565b9301611ea2565b611f53611ac0565b50600060018060a01b0381541660015491806005604094611f9b865160208101904282523360601b8982015283605482015260548152611f9281611505565b51902091612077565b60015506801561206f575b602485518095819363dabb053160e01b835260048301525afa91821561206357819382908384859086928794889689988a809c61202e575b505081519b611fec8d61156c565b8c5260208c01528a01526060890152608088015260a0870152151560c0860152151560e085015215156101008401521515610120830152151561014082015290565b9950995050995050505050505061204f92503d8091833e6106a681836115a3565b999a90989197929693959392913880611fde565b508251903d90823e3d90fd5b506001611fa6565b60001981146120865760010190565b634e487b7160e01b600052601160045260246000fd5b9190820391821161208657565b6120b381546116ce565b90816120bd575050565b81601f600093116001146120cf575055565b818352602083206120eb91601f0160051c810190600101611b74565b8160208120915555565b80549060008082558261210757505050565b6001917f24924924924924924924924924924924924924924924924924924924924924928411831661218b578152602081209160079384028301925b838110612151575050505050565b80838692558383820155836002820155836003820155612173600482016120a9565b61217f600582016120a9565b83600682015501612143565b634e487b7160e01b82526011600452602482fd5b90808214612273576121b181546116ce565b906001600160401b0382116115205781906121d082611c4586546116ce565b600090601f8311600114612207576000926121fc575b50508160011b916000199060031b1c1916179055565b0154905038806121e6565b81526020808220858352818320935090601f1985169083905b82821061225a575050908460019594939210612241575b505050811b019055565b015460001960f88460031b161c19169055388080612237565b8495819295850154815560018091019601940190612220565b5050565b9190611e4a57808203612288575050565b60ff600680611bc694845481556001850154600182015560028501546002820155600385015460038201556122c3600486016004830161219f565b6122d3600586016005830161219f565b0192016122ef82825416849060ff801983541691151516179055565b8054835461ff001916600891821c8416151590911b61ff00161783558054835462ff00001916601091821c8416151590911b62ff0000161783558054835463ff0000001916601891821c8416151590911b63ff000000161783555460201c1664ff00000000825491151560201b169064ff000000001916179055565b805480156123bd5760001901906123828282611b58565b611e4a5760068160008093558260018201558260028201558260038201556123ac600482016120a9565b6123b8600582016120a9565b015555565b634e487b7160e01b600052603160045260246000fd5b6123db611ac0565b506000805460405163dabb053160e01b815260048101939093528190839060249082906001600160a01b03165afa9081156124ad57809281828384859186938795889789809b612479575b50506040519a6124358c61156c565b8b5260208b015260408a01526060890152608088015260a0870152151560c0860152151560e085015215156101008401521515610120830152151561014082015290565b99509950505050505050505061249992503d8091833e6106a681836115a3565b989097919692959394939291903880612426565b604051903d90823e3d90fd5b929190600033815260039182602052600283612507886124df88606360408920016119d8565b506101dc6124f260049c8d809401611b58565b509933895285602052606360408a20016119d8565b50015414612518575b505050509050565b600181146125f1575b600281146125cb575b8083600592146125b1575b86811461259d575b14612587575b60018301908154928301809311612574575055600601805462ffff0019166201010017905590508038808080612510565b634e487b7160e01b815260118652602490fd5b60068301805461ff001916610100179055612543565b60068501805460ff1916600117905561253d565b60068501805463ff00000019166301000000179055612535565b83548381018091116125de57845561252a565b634e487b7160e01b835260118752602483fd5b600184018054908482018092116126085755612521565b634e487b7160e01b845260118852602484fd5b6000913383526003906020918083526063926040928261264e6126428888888c20016119d8565b50996004809b01611b58565b500190888254146128e4575b600b8254146128b8575b600e825414612835575b50600d815414612754575b600f815414612715575b54601014612695575b50505050505050565b33865281815260016126ab8686868a20016119d8565b500180549088820180921161270257553386525283206001926126d0929091016119d8565b5001908154928084018094116126ef575050553880808080808061268c565b634e487b7160e01b825260119052602490fd5b634e487b7160e01b885260118952602488fd5b338752828252600161272b8787878b20016119d8565b5001805490600882018092116127415755612683565b634e487b7160e01b895260118a52602489fd5b9697869594939291965b338752828852896127738787878b20016119d8565b500154600019810190811161282257811015612813573387528288526127a2818b6101dc8989898d20016119d8565b50805460019182820180921161280057838d6101dc8b8b8f8f8c8e928b9a6127d09a553383525220016119d8565b500180549182018092116127ed57556127e890612077565b61275e565b634e487b7160e01b895260118c52602489fd5b634e487b7160e01b8a5260118d5260248afd5b50979695909192939495612679565b634e487b7160e01b885260118b52602488fd5b338852838352600161284b8288888c20016119d8565b50015460011991908281019081116128a55761287b5750506201000062ffff001960065416176006555b3861266e565b612891600191338b5286865288888c20016119d8565b500180549182019182116127415755612875565b634e487b7160e01b8a5260118b5260248afd5b33885283835260016128ce8288888c20016119d8565b5001805490600582018092116128a55755612664565b33885283835260016128fa8888888c20016119d8565b5001805490600282018092116128a5575561265a56fea26469706673582212208d6bc4388f66c24444316bdfbb47c84b91ba1d035884f809243dbea0ea4bbf2464736f6c63430008100033",
  "linkReferences": {},
  "deployedLinkReferences": {}
}