{
  "_format": "hh-sol-artifact-1",
  "contractName": "Hearthstone",
  "sourceName": "contracts/Hearthstone.sol",
  "abi": [
    {
      "inputs": [
        {
          "internalType": "address",
          "name": "_address",
          "type": "address"
        }
      ],
      "stateMutability": "nonpayable",
      "type": "constructor"
    },
    {
      "anonymous": false,
      "inputs": [],
      "name": "attackEvent",
      "type": "event"
    },
    {
      "anonymous": false,
      "inputs": [
        {
          "indexed": false,
          "internalType": "uint256",
          "name": "player",
          "type": "uint256"
        },
        {
          "indexed": false,
          "internalType": "uint256",
          "name": "minion",
          "type": "uint256"
        }
      ],
      "name": "deathRattleEvent",
      "type": "event"
    },
    {
      "anonymous": false,
      "inputs": [
        {
          "components": [
            {
              "internalType": "uint256",
              "name": "health",
              "type": "uint256"
            },
            {
              "internalType": "uint256",
              "name": "attack",
              "type": "uint256"
            },
            {
              "internalType": "uint256",
              "name": "manaCost",
              "type": "uint256"
            },
            {
              "internalType": "uint256",
              "name": "id",
              "type": "uint256"
            },
            {
              "internalType": "string",
              "name": "name",
              "type": "string"
            },
            {
              "internalType": "string",
              "name": "description",
              "type": "string"
            },
            {
              "internalType": "bool",
              "name": "taunt",
              "type": "bool"
            },
            {
              "internalType": "bool",
              "name": "windfury",
              "type": "bool"
            },
            {
              "internalType": "bool",
              "name": "divineshield",
              "type": "bool"
            },
            {
              "internalType": "bool",
              "name": "stealth",
              "type": "bool"
            },
            {
              "internalType": "bool",
              "name": "poisonious",
              "type": "bool"
            }
          ],
          "indexed": false,
          "internalType": "struct Hearthstone.Champs",
          "name": "str",
          "type": "tuple"
        }
      ],
      "name": "drawn",
      "type": "event"
    },
    {
      "anonymous": false,
      "inputs": [],
      "name": "endTurnEvent",
      "type": "event"
    },
    {
      "anonymous": false,
      "inputs": [],
      "name": "gameCreatedEvent",
      "type": "event"
    },
    {
      "anonymous": false,
      "inputs": [
        {
          "components": [
            {
              "internalType": "uint256",
              "name": "health",
              "type": "uint256"
            },
            {
              "internalType": "uint256",
              "name": "attack",
              "type": "uint256"
            },
            {
              "internalType": "uint256",
              "name": "manaCost",
              "type": "uint256"
            },
            {
              "internalType": "uint256",
              "name": "id",
              "type": "uint256"
            },
            {
              "internalType": "string",
              "name": "name",
              "type": "string"
            },
            {
              "internalType": "string",
              "name": "description",
              "type": "string"
            },
            {
              "internalType": "bool",
              "name": "taunt",
              "type": "bool"
            },
            {
              "internalType": "bool",
              "name": "windfury",
              "type": "bool"
            },
            {
              "internalType": "bool",
              "name": "divineshield",
              "type": "bool"
            },
            {
              "internalType": "bool",
              "name": "stealth",
              "type": "bool"
            },
            {
              "internalType": "bool",
              "name": "poisonious",
              "type": "bool"
            }
          ],
          "indexed": false,
          "internalType": "struct Hearthstone.Champs",
          "name": "str",
          "type": "tuple"
        }
      ],
      "name": "playMinionEvent",
      "type": "event"
    },
    {
      "inputs": [
        {
          "internalType": "uint256",
          "name": "_handCardChosen",
          "type": "uint256"
        },
        {
          "internalType": "uint256",
          "name": "_posistion",
          "type": "uint256"
        },
        {
          "internalType": "uint256",
          "name": "_player",
          "type": "uint256"
        }
      ],
      "name": "ability",
      "outputs": [],
      "stateMutability": "nonpayable",
      "type": "function"
    },
    {
      "inputs": [
        {
          "internalType": "uint256",
          "name": "minion",
          "type": "uint256"
        },
        {
          "internalType": "uint256",
          "name": "target",
          "type": "uint256"
        },
        {
          "internalType": "uint256",
          "name": "_player",
          "type": "uint256"
        },
        {
          "internalType": "uint256",
          "name": "_chosen",
          "type": "uint256"
        }
      ],
      "name": "attack",
      "outputs": [],
      "stateMutability": "nonpayable",
      "type": "function"
    },
    {
      "inputs": [
        {
          "internalType": "uint256",
          "name": "minion",
          "type": "uint256"
        },
        {
          "internalType": "uint256",
          "name": "target",
          "type": "uint256"
        },
        {
          "internalType": "uint256",
          "name": "chosen",
          "type": "uint256"
        }
      ],
      "name": "battleCryWithChooseOption",
      "outputs": [],
      "stateMutability": "nonpayable",
      "type": "function"
    },
    {
      "inputs": [
        {
          "internalType": "uint256",
          "name": "_player",
          "type": "uint256"
        }
      ],
      "name": "boardSize",
      "outputs": [
        {
          "internalType": "uint256",
          "name": "",
          "type": "uint256"
        }
      ],
      "stateMutability": "view",
      "type": "function"
    },
    {
      "inputs": [],
      "name": "charC",
      "outputs": [
        {
          "internalType": "contract Characters",
          "name": "",
          "type": "address"
        }
      ],
      "stateMutability": "view",
      "type": "function"
    },
    {
      "inputs": [],
      "name": "clear",
      "outputs": [],
      "stateMutability": "nonpayable",
      "type": "function"
    },
    {
      "inputs": [
        {
          "internalType": "string",
          "name": "_username",
          "type": "string"
        }
      ],
      "name": "createGame",
      "outputs": [],
      "stateMutability": "nonpayable",
      "type": "function"
    },
    {
      "inputs": [
        {
          "internalType": "uint256",
          "name": "_player",
          "type": "uint256"
        }
      ],
      "name": "drawCards",
      "outputs": [],
      "stateMutability": "nonpayable",
      "type": "function"
    },
    {
      "inputs": [
        {
          "internalType": "uint256",
          "name": "_player",
          "type": "uint256"
        }
      ],
      "name": "endTurn",
      "outputs": [],
      "stateMutability": "nonpayable",
      "type": "function"
    },
    {
      "inputs": [
        {
          "internalType": "address",
          "name": "",
          "type": "address"
        }
      ],
      "name": "games",
      "outputs": [
        {
          "internalType": "uint256",
          "name": "gameId",
          "type": "uint256"
        },
        {
          "components": [
            {
              "components": [
                {
                  "internalType": "uint256",
                  "name": "health",
                  "type": "uint256"
                },
                {
                  "internalType": "uint256",
                  "name": "attack",
                  "type": "uint256"
                },
                {
                  "internalType": "uint256",
                  "name": "manaCost",
                  "type": "uint256"
                },
                {
                  "internalType": "uint256",
                  "name": "id",
                  "type": "uint256"
                },
                {
                  "internalType": "string",
                  "name": "name",
                  "type": "string"
                },
                {
                  "internalType": "string",
                  "name": "description",
                  "type": "string"
                },
                {
                  "internalType": "bool",
                  "name": "taunt",
                  "type": "bool"
                },
                {
                  "internalType": "bool",
                  "name": "windfury",
                  "type": "bool"
                },
                {
                  "internalType": "bool",
                  "name": "divineshield",
                  "type": "bool"
                },
                {
                  "internalType": "bool",
                  "name": "stealth",
                  "type": "bool"
                },
                {
                  "internalType": "bool",
                  "name": "poisonious",
                  "type": "bool"
                }
              ],
              "internalType": "struct Hearthstone.Champs[7]",
              "name": "player1Row",
              "type": "tuple[7]"
            },
            {
              "components": [
                {
                  "internalType": "uint256",
                  "name": "health",
                  "type": "uint256"
                },
                {
                  "internalType": "uint256",
                  "name": "attack",
                  "type": "uint256"
                },
                {
                  "internalType": "uint256",
                  "name": "manaCost",
                  "type": "uint256"
                },
                {
                  "internalType": "uint256",
                  "name": "id",
                  "type": "uint256"
                },
                {
                  "internalType": "string",
                  "name": "name",
                  "type": "string"
                },
                {
                  "internalType": "string",
                  "name": "description",
                  "type": "string"
                },
                {
                  "internalType": "bool",
                  "name": "taunt",
                  "type": "bool"
                },
                {
                  "internalType": "bool",
                  "name": "windfury",
                  "type": "bool"
                },
                {
                  "internalType": "bool",
                  "name": "divineshield",
                  "type": "bool"
                },
                {
                  "internalType": "bool",
                  "name": "stealth",
                  "type": "bool"
                },
                {
                  "internalType": "bool",
                  "name": "poisonious",
                  "type": "bool"
                }
              ],
              "internalType": "struct Hearthstone.Champs[7]",
              "name": "player2Row",
              "type": "tuple[7]"
            }
          ],
          "internalType": "struct Hearthstone.Board",
          "name": "board",
          "type": "tuple"
        }
      ],
      "stateMutability": "view",
      "type": "function"
    },
    {
      "inputs": [
        {
          "internalType": "uint256",
          "name": "id",
          "type": "uint256"
        }
      ],
      "name": "getAttack",
      "outputs": [
        {
          "internalType": "uint256",
          "name": "",
          "type": "uint256"
        }
      ],
      "stateMutability": "view",
      "type": "function"
    },
    {
      "inputs": [
        {
          "internalType": "uint256",
          "name": "_player",
          "type": "uint256"
        }
      ],
      "name": "getBoard",
      "outputs": [
        {
          "components": [
            {
              "internalType": "uint256",
              "name": "health",
              "type": "uint256"
            },
            {
              "internalType": "uint256",
              "name": "attack",
              "type": "uint256"
            },
            {
              "internalType": "uint256",
              "name": "manaCost",
              "type": "uint256"
            },
            {
              "internalType": "uint256",
              "name": "id",
              "type": "uint256"
            },
            {
              "internalType": "string",
              "name": "name",
              "type": "string"
            },
            {
              "internalType": "string",
              "name": "description",
              "type": "string"
            },
            {
              "internalType": "bool",
              "name": "taunt",
              "type": "bool"
            },
            {
              "internalType": "bool",
              "name": "windfury",
              "type": "bool"
            },
            {
              "internalType": "bool",
              "name": "divineshield",
              "type": "bool"
            },
            {
              "internalType": "bool",
              "name": "stealth",
              "type": "bool"
            },
            {
              "internalType": "bool",
              "name": "poisonious",
              "type": "bool"
            }
          ],
          "internalType": "struct Hearthstone.Champs[]",
          "name": "",
          "type": "tuple[]"
        }
      ],
      "stateMutability": "view",
      "type": "function"
    },
    {
      "inputs": [
        {
          "internalType": "uint256",
          "name": "_player",
          "type": "uint256"
        }
      ],
      "name": "getGame",
      "outputs": [
        {
          "components": [
            {
              "internalType": "uint256",
              "name": "gameId",
              "type": "uint256"
            },
            {
              "components": [
                {
                  "components": [
                    {
                      "internalType": "uint256",
                      "name": "health",
                      "type": "uint256"
                    },
                    {
                      "internalType": "uint256",
                      "name": "attack",
                      "type": "uint256"
                    },
                    {
                      "internalType": "uint256",
                      "name": "manaCost",
                      "type": "uint256"
                    },
                    {
                      "internalType": "uint256",
                      "name": "id",
                      "type": "uint256"
                    },
                    {
                      "internalType": "string",
                      "name": "name",
                      "type": "string"
                    },
                    {
                      "internalType": "string",
                      "name": "description",
                      "type": "string"
                    },
                    {
                      "internalType": "bool",
                      "name": "taunt",
                      "type": "bool"
                    },
                    {
                      "internalType": "bool",
                      "name": "windfury",
                      "type": "bool"
                    },
                    {
                      "internalType": "bool",
                      "name": "divineshield",
                      "type": "bool"
                    },
                    {
                      "internalType": "bool",
                      "name": "stealth",
                      "type": "bool"
                    },
                    {
                      "internalType": "bool",
                      "name": "poisonious",
                      "type": "bool"
                    }
                  ],
                  "internalType": "struct Hearthstone.Champs[7]",
                  "name": "player1Row",
                  "type": "tuple[7]"
                },
                {
                  "components": [
                    {
                      "internalType": "uint256",
                      "name": "health",
                      "type": "uint256"
                    },
                    {
                      "internalType": "uint256",
                      "name": "attack",
                      "type": "uint256"
                    },
                    {
                      "internalType": "uint256",
                      "name": "manaCost",
                      "type": "uint256"
                    },
                    {
                      "internalType": "uint256",
                      "name": "id",
                      "type": "uint256"
                    },
                    {
                      "internalType": "string",
                      "name": "name",
                      "type": "string"
                    },
                    {
                      "internalType": "string",
                      "name": "description",
                      "type": "string"
                    },
                    {
                      "internalType": "bool",
                      "name": "taunt",
                      "type": "bool"
                    },
                    {
                      "internalType": "bool",
                      "name": "windfury",
                      "type": "bool"
                    },
                    {
                      "internalType": "bool",
                      "name": "divineshield",
                      "type": "bool"
                    },
                    {
                      "internalType": "bool",
                      "name": "stealth",
                      "type": "bool"
                    },
                    {
                      "internalType": "bool",
                      "name": "poisonious",
                      "type": "bool"
                    }
                  ],
                  "internalType": "struct Hearthstone.Champs[7]",
                  "name": "player2Row",
                  "type": "tuple[7]"
                }
              ],
              "internalType": "struct Hearthstone.Board",
              "name": "board",
              "type": "tuple"
            },
            {
              "components": [
                {
                  "internalType": "string",
                  "name": "username",
                  "type": "string"
                },
                {
                  "internalType": "uint256",
                  "name": "health",
                  "type": "uint256"
                },
                {
                  "internalType": "uint256",
                  "name": "mana",
                  "type": "uint256"
                },
                {
                  "internalType": "uint256",
                  "name": "unspendMana",
                  "type": "uint256"
                },
                {
                  "components": [
                    {
                      "internalType": "uint256",
                      "name": "health",
                      "type": "uint256"
                    },
                    {
                      "internalType": "uint256",
                      "name": "attack",
                      "type": "uint256"
                    },
                    {
                      "internalType": "uint256",
                      "name": "manaCost",
                      "type": "uint256"
                    },
                    {
                      "internalType": "uint256",
                      "name": "id",
                      "type": "uint256"
                    },
                    {
                      "internalType": "string",
                      "name": "name",
                      "type": "string"
                    },
                    {
                      "internalType": "string",
                      "name": "description",
                      "type": "string"
                    },
                    {
                      "internalType": "bool",
                      "name": "taunt",
                      "type": "bool"
                    },
                    {
                      "internalType": "bool",
                      "name": "windfury",
                      "type": "bool"
                    },
                    {
                      "internalType": "bool",
                      "name": "divineshield",
                      "type": "bool"
                    },
                    {
                      "internalType": "bool",
                      "name": "stealth",
                      "type": "bool"
                    },
                    {
                      "internalType": "bool",
                      "name": "poisonious",
                      "type": "bool"
                    }
                  ],
                  "internalType": "struct Hearthstone.Champs[]",
                  "name": "minions",
                  "type": "tuple[]"
                },
                {
                  "components": [
                    {
                      "internalType": "uint256",
                      "name": "health",
                      "type": "uint256"
                    },
                    {
                      "internalType": "uint256",
                      "name": "attack",
                      "type": "uint256"
                    },
                    {
                      "internalType": "uint256",
                      "name": "manaCost",
                      "type": "uint256"
                    },
                    {
                      "internalType": "uint256",
                      "name": "id",
                      "type": "uint256"
                    },
                    {
                      "internalType": "string",
                      "name": "name",
                      "type": "string"
                    },
                    {
                      "internalType": "string",
                      "name": "description",
                      "type": "string"
                    },
                    {
                      "internalType": "bool",
                      "name": "taunt",
                      "type": "bool"
                    },
                    {
                      "internalType": "bool",
                      "name": "windfury",
                      "type": "bool"
                    },
                    {
                      "internalType": "bool",
                      "name": "divineshield",
                      "type": "bool"
                    },
                    {
                      "internalType": "bool",
                      "name": "stealth",
                      "type": "bool"
                    },
                    {
                      "internalType": "bool",
                      "name": "poisonious",
                      "type": "bool"
                    }
                  ],
                  "internalType": "struct Hearthstone.Champs[]",
                  "name": "hand",
                  "type": "tuple[]"
                }
              ],
              "internalType": "struct Hearthstone.Player[2]",
              "name": "player",
              "type": "tuple[2]"
            }
          ],
          "internalType": "struct Hearthstone.Game",
          "name": "",
          "type": "tuple"
        }
      ],
      "stateMutability": "view",
      "type": "function"
    },
    {
      "inputs": [
        {
          "internalType": "uint256",
          "name": "_player",
          "type": "uint256"
        }
      ],
      "name": "getHand",
      "outputs": [
        {
          "components": [
            {
              "internalType": "uint256",
              "name": "health",
              "type": "uint256"
            },
            {
              "internalType": "uint256",
              "name": "attack",
              "type": "uint256"
            },
            {
              "internalType": "uint256",
              "name": "manaCost",
              "type": "uint256"
            },
            {
              "internalType": "uint256",
              "name": "id",
              "type": "uint256"
            },
            {
              "internalType": "string",
              "name": "name",
              "type": "string"
            },
            {
              "internalType": "string",
              "name": "description",
              "type": "string"
            },
            {
              "internalType": "bool",
              "name": "taunt",
              "type": "bool"
            },
            {
              "internalType": "bool",
              "name": "windfury",
              "type": "bool"
            },
            {
              "internalType": "bool",
              "name": "divineshield",
              "type": "bool"
            },
            {
              "internalType": "bool",
              "name": "stealth",
              "type": "bool"
            },
            {
              "internalType": "bool",
              "name": "poisonious",
              "type": "bool"
            }
          ],
          "internalType": "struct Hearthstone.Champs[]",
          "name": "",
          "type": "tuple[]"
        }
      ],
      "stateMutability": "view",
      "type": "function"
    },
    {
      "inputs": [],
      "name": "getHealthBot",
      "outputs": [
        {
          "internalType": "uint256",
          "name": "",
          "type": "uint256"
        }
      ],
      "stateMutability": "view",
      "type": "function"
    },
    {
      "inputs": [],
      "name": "getHealthPlayer",
      "outputs": [
        {
          "internalType": "uint256",
          "name": "",
          "type": "uint256"
        }
      ],
      "stateMutability": "view",
      "type": "function"
    },
    {
      "inputs": [
        {
          "internalType": "uint256",
          "name": "minionId",
          "type": "uint256"
        }
      ],
      "name": "getMinionById",
      "outputs": [
        {
          "components": [
            {
              "internalType": "uint256",
              "name": "health",
              "type": "uint256"
            },
            {
              "internalType": "uint256",
              "name": "attack",
              "type": "uint256"
            },
            {
              "internalType": "uint256",
              "name": "manaCost",
              "type": "uint256"
            },
            {
              "internalType": "uint256",
              "name": "id",
              "type": "uint256"
            },
            {
              "internalType": "string",
              "name": "name",
              "type": "string"
            },
            {
              "internalType": "string",
              "name": "description",
              "type": "string"
            },
            {
              "internalType": "bool",
              "name": "taunt",
              "type": "bool"
            },
            {
              "internalType": "bool",
              "name": "windfury",
              "type": "bool"
            },
            {
              "internalType": "bool",
              "name": "divineshield",
              "type": "bool"
            },
            {
              "internalType": "bool",
              "name": "stealth",
              "type": "bool"
            },
            {
              "internalType": "bool",
              "name": "poisonious",
              "type": "bool"
            }
          ],
          "internalType": "struct Hearthstone.Champs",
          "name": "",
          "type": "tuple"
        }
      ],
      "stateMutability": "nonpayable",
      "type": "function"
    },
    {
      "inputs": [
        {
          "internalType": "uint256",
          "name": "_player",
          "type": "uint256"
        }
      ],
      "name": "getPlayer",
      "outputs": [
        {
          "components": [
            {
              "internalType": "string",
              "name": "username",
              "type": "string"
            },
            {
              "internalType": "uint256",
              "name": "health",
              "type": "uint256"
            },
            {
              "internalType": "uint256",
              "name": "mana",
              "type": "uint256"
            },
            {
              "internalType": "uint256",
              "name": "unspendMana",
              "type": "uint256"
            },
            {
              "components": [
                {
                  "internalType": "uint256",
                  "name": "health",
                  "type": "uint256"
                },
                {
                  "internalType": "uint256",
                  "name": "attack",
                  "type": "uint256"
                },
                {
                  "internalType": "uint256",
                  "name": "manaCost",
                  "type": "uint256"
                },
                {
                  "internalType": "uint256",
                  "name": "id",
                  "type": "uint256"
                },
                {
                  "internalType": "string",
                  "name": "name",
                  "type": "string"
                },
                {
                  "internalType": "string",
                  "name": "description",
                  "type": "string"
                },
                {
                  "internalType": "bool",
                  "name": "taunt",
                  "type": "bool"
                },
                {
                  "internalType": "bool",
                  "name": "windfury",
                  "type": "bool"
                },
                {
                  "internalType": "bool",
                  "name": "divineshield",
                  "type": "bool"
                },
                {
                  "internalType": "bool",
                  "name": "stealth",
                  "type": "bool"
                },
                {
                  "internalType": "bool",
                  "name": "poisonious",
                  "type": "bool"
                }
              ],
              "internalType": "struct Hearthstone.Champs[]",
              "name": "minions",
              "type": "tuple[]"
            },
            {
              "components": [
                {
                  "internalType": "uint256",
                  "name": "health",
                  "type": "uint256"
                },
                {
                  "internalType": "uint256",
                  "name": "attack",
                  "type": "uint256"
                },
                {
                  "internalType": "uint256",
                  "name": "manaCost",
                  "type": "uint256"
                },
                {
                  "internalType": "uint256",
                  "name": "id",
                  "type": "uint256"
                },
                {
                  "internalType": "string",
                  "name": "name",
                  "type": "string"
                },
                {
                  "internalType": "string",
                  "name": "description",
                  "type": "string"
                },
                {
                  "internalType": "bool",
                  "name": "taunt",
                  "type": "bool"
                },
                {
                  "internalType": "bool",
                  "name": "windfury",
                  "type": "bool"
                },
                {
                  "internalType": "bool",
                  "name": "divineshield",
                  "type": "bool"
                },
                {
                  "internalType": "bool",
                  "name": "stealth",
                  "type": "bool"
                },
                {
                  "internalType": "bool",
                  "name": "poisonious",
                  "type": "bool"
                }
              ],
              "internalType": "struct Hearthstone.Champs[]",
              "name": "hand",
              "type": "tuple[]"
            }
          ],
          "internalType": "struct Hearthstone.Player",
          "name": "",
          "type": "tuple"
        }
      ],
      "stateMutability": "view",
      "type": "function"
    },
    {
      "inputs": [],
      "name": "getTurn",
      "outputs": [
        {
          "internalType": "uint8",
          "name": "",
          "type": "uint8"
        }
      ],
      "stateMutability": "view",
      "type": "function"
    },
    {
      "inputs": [],
      "name": "handSize",
      "outputs": [
        {
          "internalType": "uint256",
          "name": "",
          "type": "uint256"
        }
      ],
      "stateMutability": "view",
      "type": "function"
    },
    {
      "inputs": [
        {
          "internalType": "uint256",
          "name": "_player",
          "type": "uint256"
        },
        {
          "internalType": "uint256",
          "name": "_handIndex",
          "type": "uint256"
        }
      ],
      "name": "playMinion",
      "outputs": [],
      "stateMutability": "nonpayable",
      "type": "function"
    },
    {
      "inputs": [
        {
          "internalType": "uint256",
          "name": "minionId",
          "type": "uint256"
        },
        {
          "internalType": "uint256",
          "name": "_player",
          "type": "uint256"
        }
      ],
      "name": "playMinionById",
      "outputs": [],
      "stateMutability": "nonpayable",
      "type": "function"
    },
    {
      "inputs": [
        {
          "internalType": "uint256",
          "name": "_player",
          "type": "uint256"
        }
      ],
      "name": "playerDrawCard",
      "outputs": [],
      "stateMutability": "nonpayable",
      "type": "function"
    },
    {
      "inputs": [
        {
          "internalType": "uint256",
          "name": "id",
          "type": "uint256"
        },
        {
          "internalType": "uint256",
          "name": "_player",
          "type": "uint256"
        }
      ],
      "name": "showboardplace",
      "outputs": [
        {
          "internalType": "uint256[4]",
          "name": "",
          "type": "uint256[4]"
        },
        {
          "internalType": "string",
          "name": "",
          "type": "string"
        }
      ],
      "stateMutability": "view",
      "type": "function"
    },
    {
      "inputs": [
        {
          "internalType": "uint256",
          "name": "id",
          "type": "uint256"
        }
      ],
      "name": "showcard",
      "outputs": [
        {
          "internalType": "uint256[4]",
          "name": "",
          "type": "uint256[4]"
        },
        {
          "internalType": "string",
          "name": "",
          "type": "string"
        }
      ],
      "stateMutability": "view",
      "type": "function"
    },
    {
      "inputs": [
        {
          "internalType": "uint256",
          "name": "minion",
          "type": "uint256"
        },
        {
          "internalType": "uint256",
          "name": "chosen",
          "type": "uint256"
        },
        {
          "internalType": "uint256",
          "name": "player",
          "type": "uint256"
        }
      ],
      "name": "trigger",
      "outputs": [],
      "stateMutability": "nonpayable",
      "type": "function"
    },
    {
      "inputs": [
        {
          "internalType": "address",
          "name": "",
          "type": "address"
        }
      ],
      "name": "usernames",
      "outputs": [
        {
          "internalType": "string",
          "name": "",
          "type": "string"
        }
      ],
      "stateMutability": "view",
      "type": "function"
    }
  ],
  "bytecode": "0x60803461009457601f612b1738819003918201601f19168301916001600160401b038311848410176100995780849260209460405283398101031261009457516001600160a01b03811690819003610094576000600155600060055561010062ffffff19600654161760065560018060a01b0319338160025416176002556000541617600055604051612a6790816100b08239f35b600080fd5b634e487b7160e01b600052604160045260246000fdfe608080604052600436101561001357600080fd5b600090813560e01c90816304c51d5b146115145750806328e07244146114f357806329b62c2c146110ad57806329d48b27146110755780632e4851b314610ef75780632ebc050414610d00578063361aeddf14610cb7578063428e866114610c8d57806345e09e5414610c5957806349045d0414610be457806352efea6e14610ba5578063605aa49914610b6b57806379131a1914610b0d5780638219b00c14610ad9578063848ae30114610a4f578063919d1f3f14610a255780639dbc88a3146109fe578063a2f77bcc14610899578063a52fcee2146106fa578063b6ead707146106d0578063cff840f0146105c9578063d47f269e14610579578063e55ae4e814610523578063ee91877c146104b8578063f7f39fb51461049b578063faa421cb146101635763ffa245cf1461014a57600080fd5b346101605761015836611a7d565b505050604051f35b80fd5b50346101605761017236611555565b903383526003906020828152604085206063928385610196838360408c2001611aca565b50015492016101a58282611aca565b509260026101b7896005809701611c4a565b5001541161046457876101fe876101f48589604060026101e38f8c6101dc878d611aca565b5001611c4a565b50015496338152858c522001611aca565b500191825461218e565b9055828661021189836101dc8787611aca565b50015414610435575b60046102268383611aca565b50019461023888856101dc8686611aca565b508654600160401b811015610421579061025c610262926001998a82018155611c4a565b90612369565b8880875b610367575b506101dc846102c0946102bb886102b460ff997fa76f195005ba54e5875e803ae21db8b4059e956d003be5f8fdd6210483c625279f988f84998f91604092338352522001611aca565b500161245d565b611aca565b50926040519586958287528554838801528501546040870152600285015460608701528401546080860152600661031f610160948560a089015261030b6101808901600489016117fa565b888103601f190160c08a01529087016117fa565b94015490828216151560e0870152828260081c161515610100870152828260101c161515610120870152828260181c1615156101408701521c161515908301520390a1604051f35b9061037e8584604089943381528d8c522001611aca565b500154600019810190811161040d578a908210156104075750338a528786526103ac848360408d2001611aca565b50878201908183116103f3578b926103e86103cd8b948a6103ed9501611c4a565b503386528c8b5261025c838b6101dc8c8b60408c2001611aca565b612169565b90610266565b634e487b7160e01b8c52601160045260248cfd5b9061026b565b634e487b7160e01b8b52601160045260248bfd5b634e487b7160e01b8b52604160045260248bfd5b33885285845261044a606760408a20016121e7565b33885285845261045f606d60408a20016121e7565b61021a565b60405162461bcd60e51b815260048101859052600f60248201526e6e6f7420656e6f756768206d616e6160881b6044820152606490fd5b5034610160576104b36104ad36611a7d565b916125ab565b604051f35b5034610160576020366003190112610160576004356001600160a01b0381169081900361051f576105076040836105009361051b9552600460205220604051928380926117fa565b0382611695565b604051918291602083526020830190611593565b0390f35b5080fd5b50346101605760203660031901126101605761056561055f61051b92610547611a97565b50338152600360205260636040600435922001611aca565b50611b54565b604051918291602083526020830190611a20565b5034610160576020366003190112610160576105b560056105ae61051b93338152600360205260636040600435922001611aca565b5001611af4565b604051918291602083526020830190611764565b503461016057602036600319011261016057805460405163dabb053160e01b8152600480359082015291908190839060249082906001600160a01b03165afa9182156106c3576020928290839284858687889189938a958b978c99610683575b506040519a9b506101409961063d8c61165e565b8b528b8d8c015260408b015260608a0152608089015260a0880152151560c0870152151560e0860152151561010085015215156101208401521515910152604051908152f35b99505050505050505050506106ae9150610140923d8091833e6106a68183611695565b810190611fa1565b989a8b9a999891979296939593929190610629565b50604051903d90823e3d90fd5b50346101605780600319360112610160576064604060209233815260038452200154604051908152f35b503461016057600361070b36611a7d565b909133855283602052600461075f61074a8261072d86606360408c2001611aca565b500154933389528760205260056101dc87606360408d2001611aca565b50933388528660205260636040892001611aca565b5001916001948591015414610775575b84604051f35b610780575b8061076f565b828214610813575b8161077a578282018092116107ff57826107a28383611c4a565b50018054908482018092116107eb57556107bc8282611c4a565b508054908482018092116107eb57556006916107d791611c4a565b50019060ff1982541617905538808061077a565b634e487b7160e01b86526011600452602486fd5b634e487b7160e01b84526011600452602484fd5b6000198201828111610885578361082a8284611c4a565b500180549085820180921161087157556108448183611c4a565b5080549085820180921161087157556006906108609083611c4a565b5001805460ff191684179055610788565b634e487b7160e01b87526011600452602487fd5b634e487b7160e01b85526011600452602485fd5b50346101605760209081600319360112610160576040516108b981611628565b8181526040516108c881611643565b6108d0611c07565b81526108da611c07565b8482015283820152604051906108ef82611643565b83835b604081106109ea5750506040015233815260038252604081206040519161091883611628565b8154835260019161092a83820161198c565b8585019081526040519161093d83611643565b60630183835b600282106109c5575050506109779060408601928352604051958787525187870152516060604087015260808601906119f6565b9051848203601f1901606086015260408201959092825b6002821061099c5786880387f35b909192939483806109b48a88859c0386528951611a20565b99970195949391909101910161098e565b95600689829a9697986109d786611b54565b8152019301910190919795949397610943565b6109f2611a97565b818501520184906108f2565b5034610160578060031936011261016057546040516001600160a01b039091168152602090f35b50346101605780600319360112610160576068604060209233815260038452200154604051908152f35b503461016057602036600319011261016057610a90610a96916080604051610a76816115f7565b369037338152600360205260686040600435922001611c4a565b50611890565b608060405191610aa5836115f7565b8051835260208101516020840152604081015160408401526060810151606084015201519061051b604051928392836115b8565b50346101605760203660031901126101605761051b610af96004356124c5565b6040519182916020835260208301906116d1565b5034610160576020366003190112610160576004356001600160a01b0381169081900361051f57906040918152600360205220610b4e60018254920161198c565b9061051b60405192839283526040602084015260408301906119f6565b5034610160576020366003190112610160576004610b9a60209233815260038452606360408435922001611aca565b500154604051908152f35b50346101605780600319360112610160573381526003602052610bcd606760408320016121e7565b33815260036020526104b3606d60408320016121e7565b5034610160576020366003190112610160573381526003602052610c25610c1360043560636040852001611aca565b506005610c1e61203d565b9101611cc4565b7f114350837fa4fbc09f30bc6997d2929580625dfafecf29fb430024bd46694acb610c51610af961203d565b0390a1604051f35b5034610160576020366003190112610160576105b560046105ae61051b933381526003602052606360408435922001611aca565b5034610160578060031936011261016057606a604060209233815260038452200154604051908152f35b50346101605760208060031936011261051f57600435825b60068110610cdd5783604051f35b610cfb90338552600384526103e8610c138460636040892001611aca565b610ccf565b50346101605760208060031936011261051f576004356001600160401b0391828211610ef35736602383011215610ef35783826004013592610d41846116b6565b93610d4f6040519586611695565b8085523660248284010111610eef578060248593018387013784010152338452600381526040842060638101604086209460698601948051918211610edb57610da282610d9c85546117c0565b85611c7d565b8490601f8311600114610e6d57936005979593838994606694606c9a988d92610e62575b50508160011b916000199060031b1c19161790555b601e60648201558260658201550155610df482546117c0565b601f8111610e44575b5050600662109bdd60ea1b019055601e606a820155606b810183905501556040517f29d3e2e5ff5c602e246b6e37383e06720dd4b95fb255e101ceb33358f9f747ee8282a1f35b601f610e5b9284895288209101861c810190611c66565b3880610dfd565b015190503880610dc6565b8389528589209190601f1984168a5b818110610ec4575084606694606c9a989460059c9a98948d9860019510610eab575b505050811b019055610ddb565b015160001960f88460031b161c19169055388080610e9e565b929388600181928786015181550195019301610e7c565b634e487b7160e01b88526041600452602488fd5b8280fd5b8380fd5b50346101605760208060031936011261051f576004358060ff600654160361103c577fffba4f5b59315b99e6a53cdb69ccf9db48d73d6b16b96896d2e2687f39b6c37383604051a13383526003908183526063600a6005610f5d848460408a2001611aca565b5001541061101f575b338552828452600a6002610f7f848460408a2001611aca565b50015410610fba575b5050505060065460ff811615600014610fae5750600160ff196006541617600655604051f35b60ff1916600655604051f35b3385528284526002610fd183836040892001611aca565b500180549060018201809211610871579061101393929155338652838552836002611001848460408b2001611aca565b50015495338852526040862001611aca565b50015538808080610f88565b338552828452611037610c1383836040892001611aca565b610f66565b60405162461bcd60e51b815260048101839052601160248201527034ba39903737ba103cb7bab9103a3ab93760791b6044820152606490fd5b5034610160576104b36110a66004610c1e61108f36611555565b939093338752600360205260636040882001611aca565b50926124c5565b50346101605760803660031901126101605760043560248035604435927f9e9c27539e247f05c5c2897a7ea1bc1678374bc53fd25a29457b8152c5e4f5de85604051a1836114ea5760406001915b33875260039060209682885261111e8260046101dc848d6063998a912001611aca565b50966001809801549661029a81146000146111ad57505050503387528086526111598486611151868660408d2001611aca565b50015461218e565b611179575050505050506201000062ffff00196006541617600655604051f35b6111966111a59433895282885286611151868660408d2001611aca565b95338852526040862001611aca565b500155604051f35b84959a999491929697989398338b5282865289888d8d898d8a6111db8960046101dc858960408a2001611aca565b500154988997338552818452806111fd8b60046101dc878b60408c2001611aca565b50541161149857509091888c5b6113c6575b509261124161124e9899876101dc979560409560049a983387525261123c8a6102b4838a8a8a2001611aca565b61270d565b3381528d8d522001611aca565b505411611333575086825b61127f575b5050506102b4836104b3979861123c94600494338c525260408a2001611aca565b3389528484526004611296878c60408d2001611aca565b50015460001981019081116113205781101561131b573389528484526112c1868b60408c2001611aca565b508382019081831161130857916103e88661025c838f8f8d60049260408f936101dc948f9d6113029d886112f59201611c4a565b5099338352522001611aca565b90611259565b634e487b7160e01b8b526011600452838bfd5b61125e565b634e487b7160e01b8a526011600452828afd5b60029650600492506101dc9150948985858b6113928c829f819f889f9b82889f6113a29f6040918f96888f966101dc8861137d94886101dc9c611384998f96338352522001611aca565b505461218e565b973381528a8a522001611aca565b5055338d525260408b2001611aca565b500154146113b2575b5050604051f35b6113bf91606435906125ab565b38806113ab565b975050509190600494506113e593506040903381528c8c522001611aca565b5001546000198101908111611485578c8c858d8c8c8f968d9089101561147757505050505090604061141f93923381528b8b522001611aca565b508582019081831161146457916103e8888f8f60048f6101dc908f9460408f9b9561025c976112f56114549d888e9a01611c4a565b888d8d8c8b8f958c908a9861120a565b634e487b7160e01b8d526011600452858dfd5b90919594939796929661120f565b634e487b7160e01b8c526011600452848cfd5b926114e38a60046101dc868661124e9e9f8c9a61137d869f9d9a926101dc9f6101dc60409e8f928f938f946114d4998e96338352522001611aca565b96338952528888882001611aca565b5055611241565b604085916110fb565b5034610160578060031936011261016057602060ff60065416604051908152f35b90503461051f57610a909060046101dc608060636040610a969761153736611555565b949097611543816115f7565b36903733815260036020522001611aca565b604090600319011261156b576004359060243590565b600080fd5b60005b8381106115835750506000910152565b8181015183820152602001611573565b906020916115ac81518092818552858086019101611570565b601f01601f1916010190565b90600090825b600483106115e0575050509060a0828160806115dd9501520190611593565b90565b6001908251815260208091019201920191906115be565b608081019081106001600160401b0382111761161257604052565b634e487b7160e01b600052604160045260246000fd5b606081019081106001600160401b0382111761161257604052565b604081019081106001600160401b0382111761161257604052565b61016081019081106001600160401b0382111761161257604052565b60c081019081106001600160401b0382111761161257604052565b90601f801991011681019081106001600160401b0382111761161257604052565b6001600160401b03811161161257601f01601f191660200190565b90815181526020820151602082015260408201516040820152606082015160608201526117226117106080840151610160806080860152840190611593565b60a084015183820360a0850152611593565b9160c0810151151560c083015260e0810151151560e0830152610100808201511515908301526101208082015115159083015261014080910151151591015290565b908082519081815260208091019281808460051b8301019501936000915b8483106117925750505050505090565b90919293949584806117b0600193601f198682030187528a516116d1565b9801930193019194939290611782565b90600182811c921680156117f0575b60208310146117da57565b634e487b7160e01b600052602260045260246000fd5b91607f16916117cf565b906000929180549161180b836117c0565b91828252600193848116908160001461186d575060011461182d575b50505050565b90919394506000526020928360002092846000945b838610611859575050505001019038808080611827565b805485870183015294019385908201611842565b9294505050602093945060ff191683830152151560051b01019038808080611827565b9060405161189d8161165e565b61014060ff60068395805485526001810154602086015260028101546040860152600381015460608601526040516118dc8161050081600486016117fa565b60808601526040516118f58161050081600586016117fa565b60a08601520154818116151560c0850152818160081c16151560e0850152818160101c161515610100850152818160181c16151561012085015260201c161515910152565b906040519060e082018281106001600160401b03821117611612576040526000825b600790818310156119845790602060019261197688611890565b81520195019101909361195c565b505050909150565b9060405161199981611643565b60206119b3603183956119ab8161193a565b85520161193a565b910152565b60e08201918060005b600781106119d0575050505090565b909192936119e6818560019303855286516116d1565b94602090810194930191016119c1565b6115dd916020611a0f83516040845260408401906119b8565b9201519060208184039101526119b8565b6115dd9160a0611a6c611a3c845160c0855260c0850190611593565b60208501516020850152604085015160408501526060850151606085015260808501518482036080860152611764565b9201519060a0818403910152611764565b606090600319011261156b57600435906024359060443590565b60405190611aa48261167a565b606060a08382815260006020820152600060408201526000838201528260808201520152565b906002811015611ade576006020190600090565b634e487b7160e01b600052603260045260246000fd5b9081546001600160401b03811161161257604051926020611b1a818460051b0186611695565b82855260009182528082208186015b848410611b37575050505050565b600783600192611b4685611890565b815201920193019290611b29565b90604051611b618161167a565b60a06119b360058395604051611b7b8161050081856117fa565b8552600181015460208601526002810154604086015260038101546060860152611ba760048201611af4565b608086015201611af4565b60405190611bbf8261165e565b8161014060009182815282602082015282604082015282606082015260606080820152606060a08201528260c08201528260e082015282610100820152826101208201520152565b6040519060e08083018381106001600160401b03821117611612576040528260005b828110611c3557505050565b602090611c40611bb2565b8184015201611c29565b8054821015611ade576000526007602060002091020190600090565b818110611c71575050565b60008155600101611c66565b9190601f8111611c8c57505050565b611cb8926000526020600020906020601f840160051c83019310611cba575b601f0160051c0190611c66565b565b9091508190611cab565b908154600160401b81101561161257611ce4906001938482018155611c4a565b611f3c5781518155602092838301518183015560408301516002830155606083015160038301556004820160808401519081516001600160401b0392838211611612578190611d3d82611d3786546117c0565b86611c7d565b8890601f8311600114611ed957600092611ece575b5050600019600383901b1c191690841b1790555b600583019160a085015195865192831161161257611d8883611d3786546117c0565b80601f8411600114611e595750918080600695936101409795611cb89a600094611e4e575b50501b916000199060031b1c19161790555b0191611ddd60c08201511515849060ff801983541691151516179055565b60e0810151835461ff00191690151560081b61ff0016178355610100810151835462ff0000191690151560101b62ff000016178355610120810151835463ff000000191690151560181b63ff000000161783550151815464ff00000000191690151560201b64ff0000000016179055565b015192503880611dad565b9193949596601f1984168660005283600020936000905b828210611eb757505092600695928592611cb89a9996610140999610611e9e575b505050811b019055611dbf565b015160001960f88460031b161c19169055388080611e91565b808886978294978701518155019601940190611e70565b015190503880611d52565b90869350601f19831691856000528a6000209260005b8c828210611f265750508411611f0d575b505050811b019055611d66565b015160001960f88460031b161c19169055388080611f00565b8385015186558a97909501949384019301611eef565b634e487b7160e01b600052600060045260246000fd5b81601f8201121561156b578051611f68816116b6565b92611f766040519485611695565b8184526020828401011161156b576115dd9160208085019101611570565b5190811515820361156b57565b6101608183031261156b5780519260208201519260408301519260608101519260808201516001600160401b039081811161156b5784611fe2918501611f52565b9360a084015191821161156b57611ffa918401611f52565b9161200760c08201611f94565b9161201460e08301611f94565b916120226101008201611f94565b916115dd6101406120366101208501611f94565b9301611f94565b612045611bb2565b50600060018060a01b038154166001549180600560409461208d865160208101904282523360601b8982015283605482015260548152612084816115f7565b51902091612169565b600155068015612161575b602485518095819363dabb053160e01b835260048301525afa91821561215557819382908384859086928794889689988a809c612120575b505081519b6120de8d61165e565b8c5260208c01528a01526060890152608088015260a0870152151560c0860152151560e085015215156101008401521515610120830152151561014082015290565b9950995050995050505050505061214192503d8091833e6106a68183611695565b999a909891979296939593929138806120d0565b508251903d90823e3d90fd5b506001612098565b60001981146121785760010190565b634e487b7160e01b600052601160045260246000fd5b9190820391821161217857565b6121a581546117c0565b90816121af575050565b81601f600093116001146121c1575055565b818352602083206121dd91601f0160051c810190600101611c66565b8160208120915555565b8054906000808255826121f957505050565b6001917f24924924924924924924924924924924924924924924924924924924924924928411831661227d578152602081209160079384028301925b838110612243575050505050565b808386925583838201558360028201558360038201556122656004820161219b565b6122716005820161219b565b83600682015501612235565b634e487b7160e01b82526011600452602482fd5b90808214612365576122a381546117c0565b906001600160401b0382116116125781906122c282611d3786546117c0565b600090601f83116001146122f9576000926122ee575b50508160011b916000199060031b1c1916179055565b0154905038806122d8565b81526020808220858352818320935090601f1985169083905b82821061234c575050908460019594939210612333575b505050811b019055565b015460001960f88460031b161c19169055388080612329565b8495819295850154815560018091019601940190612312565b5050565b9190611f3c5780820361237a575050565b60ff600680611cb894845481556001850154600182015560028501546002820155600385015460038201556123b56004860160048301612291565b6123c56005860160058301612291565b0192016123e182825416849060ff801983541691151516179055565b8054835461ff001916600891821c8416151590911b61ff00161783558054835462ff00001916601091821c8416151590911b62ff0000161783558054835463ff0000001916601891821c8416151590911b63ff000000161783555460201c1664ff00000000825491151560201b169064ff000000001916179055565b805480156124af5760001901906124748282611c4a565b611f3c57600681600080935582600182015582600282015582600382015561249e6004820161219b565b6124aa6005820161219b565b015555565b634e487b7160e01b600052603160045260246000fd5b6124cd611bb2565b506000805460405163dabb053160e01b815260048101939093528190839060249082906001600160a01b03165afa90811561259f57809281828384859186938795889789809b61256b575b50506040519a6125278c61165e565b8b5260208b015260408a01526060890152608088015260a0870152151560c0860152151560e085015215156101008401521515610120830152151561014082015290565b99509950505050505050505061258b92503d8091833e6106a68183611695565b989097919692959394939291903880612518565b604051903d90823e3d90fd5b9291906000338152600391826020526002836125f9886125d18860636040892001611aca565b506101dc6125e460049c8d809401611c4a565b509933895285602052606360408a2001611aca565b5001541461260a575b505050509050565b600181146126e3575b600281146126bd575b8083600592146126a3575b86811461268f575b14612679575b60018301908154928301809311612666575055600601805462ffff0019166201010017905590508038808080612602565b634e487b7160e01b815260118652602490fd5b60068301805461ff001916610100179055612635565b60068501805460ff1916600117905561262f565b60068501805463ff00000019166301000000179055612627565b83548381018091116126d057845561261c565b634e487b7160e01b835260118752602483fd5b600184018054908482018092116126fa5755612613565b634e487b7160e01b845260118852602484fd5b600091338352600390602091808352606392604092826127318787878b2001611aca565b50987f1c5855762459f104c774489fcf507c937081ec2700dd5bb70d3247b98a645e1886612763836004809e01611c4a565b50928151908b825287820152a1019088825414612a05575b600b8254146129d9575b600e825414612956575b50600d815414612875575b600f815414612836575b546010146127b6575b50505050505050565b33865281815260016127cc8686868a2001611aca565b500180549088820180921161282357553386525283206001926127f192909101611aca565b50019081549280840180941161281057505055388080808080806127ad565b634e487b7160e01b825260119052602490fd5b634e487b7160e01b885260118952602488fd5b338752828252600161284c8787878b2001611aca565b50018054906008820180921161286257556127a4565b634e487b7160e01b895260118a52602489fd5b9697869594939291965b338752828852896128948787878b2001611aca565b500154600019810190811161294357811015612934573387528288526128c3818b6101dc8989898d2001611aca565b50805460019182820180921161292157838d6101dc8b8b8f8f8c8e928b9a6128f19a55338352522001611aca565b5001805491820180921161290e575561290990612169565b61287f565b634e487b7160e01b895260118c52602489fd5b634e487b7160e01b8a5260118d5260248afd5b5097969590919293949561279a565b634e487b7160e01b885260118b52602488fd5b338852838352600161296c8288888c2001611aca565b50015460011991908281019081116129c65761299c5750506201000062ffff001960065416176006555b3861278f565b6129b2600191338b5286865288888c2001611aca565b500180549182019182116128625755612996565b634e487b7160e01b8a5260118b5260248afd5b33885283835260016129ef8288888c2001611aca565b5001805490600582018092116129c65755612785565b3388528383526001612a1b8888888c2001611aca565b5001805490600282018092116129c6575561277b56fea2646970667358221220d022d51982a4045cf2c541c1bffce9e0ab99be0c894463c99a004258d6e7406364736f6c63430008100033",
  "linkReferences": {},
  "deployedLinkReferences": {}
}