{
  "_format": "hh-sol-artifact-1",
  "contractName": "Hearthstone",
  "sourceName": "contracts/Hearthstone.sol",
  "abi": [
    {
      "inputs": [
        {
          "internalType": "address",
          "name": "_address",
          "type": "address"
        }
      ],
      "stateMutability": "nonpayable",
      "type": "constructor"
    },
    {
      "anonymous": false,
      "inputs": [
        {
          "indexed": false,
          "internalType": "string",
          "name": "errorMessage",
          "type": "string"
        }
      ],
      "name": "MinionAsleepError",
      "type": "event"
    },
    {
      "anonymous": false,
      "inputs": [],
      "name": "attackEvent",
      "type": "event"
    },
    {
      "anonymous": false,
      "inputs": [
        {
          "indexed": false,
          "internalType": "uint256",
          "name": "player",
          "type": "uint256"
        },
        {
          "indexed": false,
          "internalType": "uint256",
          "name": "minion",
          "type": "uint256"
        }
      ],
      "name": "deathRattleEvent",
      "type": "event"
    },
    {
      "anonymous": false,
      "inputs": [
        {
          "components": [
            {
              "internalType": "uint8",
              "name": "health",
              "type": "uint8"
            },
            {
              "internalType": "uint8",
              "name": "attack",
              "type": "uint8"
            },
            {
              "internalType": "uint8",
              "name": "manaCost",
              "type": "uint8"
            },
            {
              "internalType": "uint8",
              "name": "id",
              "type": "uint8"
            },
            {
              "internalType": "string",
              "name": "name",
              "type": "string"
            },
            {
              "internalType": "string",
              "name": "description",
              "type": "string"
            },
            {
              "internalType": "bool",
              "name": "taunt",
              "type": "bool"
            },
            {
              "internalType": "bool",
              "name": "windfury",
              "type": "bool"
            },
            {
              "internalType": "bool",
              "name": "divineshield",
              "type": "bool"
            },
            {
              "internalType": "bool",
              "name": "stealth",
              "type": "bool"
            },
            {
              "internalType": "bool",
              "name": "poisonious",
              "type": "bool"
            },
            {
              "internalType": "bool",
              "name": "asleep",
              "type": "bool"
            }
          ],
          "indexed": false,
          "internalType": "struct Hearthstone.Champs",
          "name": "str",
          "type": "tuple"
        }
      ],
      "name": "drawn",
      "type": "event"
    },
    {
      "anonymous": false,
      "inputs": [],
      "name": "endTurnEvent",
      "type": "event"
    },
    {
      "anonymous": false,
      "inputs": [],
      "name": "gameCreatedEvent",
      "type": "event"
    },
    {
      "anonymous": false,
      "inputs": [],
      "name": "playMinionEvent",
      "type": "event"
    },
    {
      "anonymous": false,
      "inputs": [
        {
          "indexed": false,
          "internalType": "uint256",
          "name": "player",
          "type": "uint256"
        }
      ],
      "name": "victoryEvent",
      "type": "event"
    },
    {
      "inputs": [
        {
          "internalType": "uint256",
          "name": "minion",
          "type": "uint256"
        },
        {
          "internalType": "uint256",
          "name": "target",
          "type": "uint256"
        },
        {
          "internalType": "uint256",
          "name": "_player",
          "type": "uint256"
        },
        {
          "internalType": "uint256",
          "name": "_chosen",
          "type": "uint256"
        }
      ],
      "name": "attack",
      "outputs": [],
      "stateMutability": "nonpayable",
      "type": "function"
    },
    {
      "inputs": [
        {
          "internalType": "uint256",
          "name": "_player",
          "type": "uint256"
        }
      ],
      "name": "boardSize",
      "outputs": [
        {
          "internalType": "uint256",
          "name": "",
          "type": "uint256"
        }
      ],
      "stateMutability": "view",
      "type": "function"
    },
    {
      "inputs": [],
      "name": "charC",
      "outputs": [
        {
          "internalType": "contract Characters",
          "name": "",
          "type": "address"
        }
      ],
      "stateMutability": "view",
      "type": "function"
    },
    {
      "inputs": [],
      "name": "clear",
      "outputs": [],
      "stateMutability": "nonpayable",
      "type": "function"
    },
    {
      "inputs": [
        {
          "internalType": "string",
          "name": "_username",
          "type": "string"
        }
      ],
      "name": "createGame",
      "outputs": [],
      "stateMutability": "nonpayable",
      "type": "function"
    },
    {
      "inputs": [
        {
          "internalType": "uint256",
          "name": "_player",
          "type": "uint256"
        }
      ],
      "name": "drawCards",
      "outputs": [],
      "stateMutability": "nonpayable",
      "type": "function"
    },
    {
      "inputs": [
        {
          "internalType": "uint256",
          "name": "_player",
          "type": "uint256"
        }
      ],
      "name": "endTurn",
      "outputs": [],
      "stateMutability": "nonpayable",
      "type": "function"
    },
    {
      "inputs": [
        {
          "internalType": "address",
          "name": "",
          "type": "address"
        }
      ],
      "name": "games",
      "outputs": [
        {
          "internalType": "uint256",
          "name": "gameId",
          "type": "uint256"
        }
      ],
      "stateMutability": "view",
      "type": "function"
    },
    {
      "inputs": [
        {
          "internalType": "uint8",
          "name": "id",
          "type": "uint8"
        }
      ],
      "name": "getAttack",
      "outputs": [
        {
          "internalType": "uint8",
          "name": "",
          "type": "uint8"
        }
      ],
      "stateMutability": "view",
      "type": "function"
    },
    {
      "inputs": [
        {
          "internalType": "uint256",
          "name": "_player",
          "type": "uint256"
        }
      ],
      "name": "getBoard",
      "outputs": [
        {
          "components": [
            {
              "internalType": "uint8",
              "name": "health",
              "type": "uint8"
            },
            {
              "internalType": "uint8",
              "name": "attack",
              "type": "uint8"
            },
            {
              "internalType": "uint8",
              "name": "manaCost",
              "type": "uint8"
            },
            {
              "internalType": "uint8",
              "name": "id",
              "type": "uint8"
            },
            {
              "internalType": "string",
              "name": "name",
              "type": "string"
            },
            {
              "internalType": "string",
              "name": "description",
              "type": "string"
            },
            {
              "internalType": "bool",
              "name": "taunt",
              "type": "bool"
            },
            {
              "internalType": "bool",
              "name": "windfury",
              "type": "bool"
            },
            {
              "internalType": "bool",
              "name": "divineshield",
              "type": "bool"
            },
            {
              "internalType": "bool",
              "name": "stealth",
              "type": "bool"
            },
            {
              "internalType": "bool",
              "name": "poisonious",
              "type": "bool"
            },
            {
              "internalType": "bool",
              "name": "asleep",
              "type": "bool"
            }
          ],
          "internalType": "struct Hearthstone.Champs[]",
          "name": "",
          "type": "tuple[]"
        }
      ],
      "stateMutability": "view",
      "type": "function"
    },
    {
      "inputs": [],
      "name": "getGame",
      "outputs": [
        {
          "components": [
            {
              "internalType": "uint256",
              "name": "gameId",
              "type": "uint256"
            },
            {
              "components": [
                {
                  "internalType": "string",
                  "name": "username",
                  "type": "string"
                },
                {
                  "internalType": "uint256",
                  "name": "health",
                  "type": "uint256"
                },
                {
                  "internalType": "uint256",
                  "name": "mana",
                  "type": "uint256"
                },
                {
                  "internalType": "uint256",
                  "name": "unspendMana",
                  "type": "uint256"
                },
                {
                  "components": [
                    {
                      "internalType": "uint8",
                      "name": "health",
                      "type": "uint8"
                    },
                    {
                      "internalType": "uint8",
                      "name": "attack",
                      "type": "uint8"
                    },
                    {
                      "internalType": "uint8",
                      "name": "manaCost",
                      "type": "uint8"
                    },
                    {
                      "internalType": "uint8",
                      "name": "id",
                      "type": "uint8"
                    },
                    {
                      "internalType": "string",
                      "name": "name",
                      "type": "string"
                    },
                    {
                      "internalType": "string",
                      "name": "description",
                      "type": "string"
                    },
                    {
                      "internalType": "bool",
                      "name": "taunt",
                      "type": "bool"
                    },
                    {
                      "internalType": "bool",
                      "name": "windfury",
                      "type": "bool"
                    },
                    {
                      "internalType": "bool",
                      "name": "divineshield",
                      "type": "bool"
                    },
                    {
                      "internalType": "bool",
                      "name": "stealth",
                      "type": "bool"
                    },
                    {
                      "internalType": "bool",
                      "name": "poisonious",
                      "type": "bool"
                    },
                    {
                      "internalType": "bool",
                      "name": "asleep",
                      "type": "bool"
                    }
                  ],
                  "internalType": "struct Hearthstone.Champs[]",
                  "name": "minions",
                  "type": "tuple[]"
                },
                {
                  "internalType": "uint8[]",
                  "name": "hand",
                  "type": "uint8[]"
                }
              ],
              "internalType": "struct Hearthstone.Player[2]",
              "name": "player",
              "type": "tuple[2]"
            }
          ],
          "internalType": "struct Hearthstone.Game",
          "name": "",
          "type": "tuple"
        }
      ],
      "stateMutability": "view",
      "type": "function"
    },
    {
      "inputs": [],
      "name": "getHealthBot",
      "outputs": [
        {
          "internalType": "uint256",
          "name": "",
          "type": "uint256"
        }
      ],
      "stateMutability": "view",
      "type": "function"
    },
    {
      "inputs": [],
      "name": "getHealthPlayer",
      "outputs": [
        {
          "internalType": "uint256",
          "name": "",
          "type": "uint256"
        }
      ],
      "stateMutability": "view",
      "type": "function"
    },
    {
      "inputs": [
        {
          "internalType": "uint256",
          "name": "minionId",
          "type": "uint256"
        }
      ],
      "name": "getMinionById",
      "outputs": [
        {
          "components": [
            {
              "internalType": "uint8",
              "name": "health",
              "type": "uint8"
            },
            {
              "internalType": "uint8",
              "name": "attack",
              "type": "uint8"
            },
            {
              "internalType": "uint8",
              "name": "manaCost",
              "type": "uint8"
            },
            {
              "internalType": "uint8",
              "name": "id",
              "type": "uint8"
            },
            {
              "internalType": "string",
              "name": "name",
              "type": "string"
            },
            {
              "internalType": "string",
              "name": "description",
              "type": "string"
            },
            {
              "internalType": "bool",
              "name": "taunt",
              "type": "bool"
            },
            {
              "internalType": "bool",
              "name": "windfury",
              "type": "bool"
            },
            {
              "internalType": "bool",
              "name": "divineshield",
              "type": "bool"
            },
            {
              "internalType": "bool",
              "name": "stealth",
              "type": "bool"
            },
            {
              "internalType": "bool",
              "name": "poisonious",
              "type": "bool"
            },
            {
              "internalType": "bool",
              "name": "asleep",
              "type": "bool"
            }
          ],
          "internalType": "struct Hearthstone.Champs",
          "name": "",
          "type": "tuple"
        }
      ],
      "stateMutability": "nonpayable",
      "type": "function"
    },
    {
      "inputs": [
        {
          "internalType": "uint256",
          "name": "_player",
          "type": "uint256"
        }
      ],
      "name": "getPlayer",
      "outputs": [
        {
          "components": [
            {
              "internalType": "string",
              "name": "username",
              "type": "string"
            },
            {
              "internalType": "uint256",
              "name": "health",
              "type": "uint256"
            },
            {
              "internalType": "uint256",
              "name": "mana",
              "type": "uint256"
            },
            {
              "internalType": "uint256",
              "name": "unspendMana",
              "type": "uint256"
            },
            {
              "components": [
                {
                  "internalType": "uint8",
                  "name": "health",
                  "type": "uint8"
                },
                {
                  "internalType": "uint8",
                  "name": "attack",
                  "type": "uint8"
                },
                {
                  "internalType": "uint8",
                  "name": "manaCost",
                  "type": "uint8"
                },
                {
                  "internalType": "uint8",
                  "name": "id",
                  "type": "uint8"
                },
                {
                  "internalType": "string",
                  "name": "name",
                  "type": "string"
                },
                {
                  "internalType": "string",
                  "name": "description",
                  "type": "string"
                },
                {
                  "internalType": "bool",
                  "name": "taunt",
                  "type": "bool"
                },
                {
                  "internalType": "bool",
                  "name": "windfury",
                  "type": "bool"
                },
                {
                  "internalType": "bool",
                  "name": "divineshield",
                  "type": "bool"
                },
                {
                  "internalType": "bool",
                  "name": "stealth",
                  "type": "bool"
                },
                {
                  "internalType": "bool",
                  "name": "poisonious",
                  "type": "bool"
                },
                {
                  "internalType": "bool",
                  "name": "asleep",
                  "type": "bool"
                }
              ],
              "internalType": "struct Hearthstone.Champs[]",
              "name": "minions",
              "type": "tuple[]"
            },
            {
              "internalType": "uint8[]",
              "name": "hand",
              "type": "uint8[]"
            }
          ],
          "internalType": "struct Hearthstone.Player",
          "name": "",
          "type": "tuple"
        }
      ],
      "stateMutability": "view",
      "type": "function"
    },
    {
      "inputs": [],
      "name": "getTurn",
      "outputs": [
        {
          "internalType": "uint8",
          "name": "",
          "type": "uint8"
        }
      ],
      "stateMutability": "view",
      "type": "function"
    },
    {
      "inputs": [],
      "name": "getXdd",
      "outputs": [
        {
          "components": [
            {
              "internalType": "uint8",
              "name": "health",
              "type": "uint8"
            },
            {
              "internalType": "uint8",
              "name": "attack",
              "type": "uint8"
            },
            {
              "internalType": "uint8",
              "name": "manaCost",
              "type": "uint8"
            },
            {
              "internalType": "uint8",
              "name": "id",
              "type": "uint8"
            },
            {
              "internalType": "string",
              "name": "name",
              "type": "string"
            },
            {
              "internalType": "string",
              "name": "description",
              "type": "string"
            },
            {
              "internalType": "bool",
              "name": "taunt",
              "type": "bool"
            },
            {
              "internalType": "bool",
              "name": "windfury",
              "type": "bool"
            },
            {
              "internalType": "bool",
              "name": "divineshield",
              "type": "bool"
            },
            {
              "internalType": "bool",
              "name": "stealth",
              "type": "bool"
            },
            {
              "internalType": "bool",
              "name": "poisonious",
              "type": "bool"
            },
            {
              "internalType": "bool",
              "name": "asleep",
              "type": "bool"
            }
          ],
          "internalType": "struct Hearthstone.Champs",
          "name": "",
          "type": "tuple"
        }
      ],
      "stateMutability": "view",
      "type": "function"
    },
    {
      "inputs": [],
      "name": "handSize1",
      "outputs": [
        {
          "internalType": "uint256",
          "name": "",
          "type": "uint256"
        }
      ],
      "stateMutability": "view",
      "type": "function"
    },
    {
      "inputs": [],
      "name": "handSize2",
      "outputs": [
        {
          "internalType": "uint256",
          "name": "",
          "type": "uint256"
        }
      ],
      "stateMutability": "view",
      "type": "function"
    },
    {
      "inputs": [
        {
          "internalType": "uint256",
          "name": "_player",
          "type": "uint256"
        },
        {
          "internalType": "uint256",
          "name": "_handIndex",
          "type": "uint256"
        }
      ],
      "name": "playMinion",
      "outputs": [],
      "stateMutability": "nonpayable",
      "type": "function"
    },
    {
      "inputs": [
        {
          "internalType": "uint256",
          "name": "minionId",
          "type": "uint256"
        },
        {
          "internalType": "uint256",
          "name": "_player",
          "type": "uint256"
        }
      ],
      "name": "playMinionById",
      "outputs": [],
      "stateMutability": "nonpayable",
      "type": "function"
    },
    {
      "inputs": [
        {
          "internalType": "uint256",
          "name": "id",
          "type": "uint256"
        },
        {
          "internalType": "uint256",
          "name": "_player",
          "type": "uint256"
        }
      ],
      "name": "showboardplace",
      "outputs": [
        {
          "internalType": "uint8[4]",
          "name": "",
          "type": "uint8[4]"
        },
        {
          "internalType": "string",
          "name": "",
          "type": "string"
        }
      ],
      "stateMutability": "view",
      "type": "function"
    },
    {
      "inputs": [
        {
          "internalType": "uint256",
          "name": "minion",
          "type": "uint256"
        },
        {
          "internalType": "uint256",
          "name": "chosen",
          "type": "uint256"
        },
        {
          "internalType": "uint256",
          "name": "player",
          "type": "uint256"
        }
      ],
      "name": "trigger",
      "outputs": [],
      "stateMutability": "nonpayable",
      "type": "function"
    },
    {
      "inputs": [
        {
          "internalType": "address",
          "name": "",
          "type": "address"
        }
      ],
      "name": "usernames",
      "outputs": [
        {
          "internalType": "string",
          "name": "",
          "type": "string"
        }
      ],
      "stateMutability": "view",
      "type": "function"
    }
  ],
  "bytecode": "0x60803461009657601f62002d1b38819003918201601f19168301916001600160401b0383118484101761009b5780849260209460405283398101031261009657516001600160a01b03811690819003610096576000600155600060055561010062ffffff19600654161760065560018060a01b0319338160025416176002556000541617600055604051612c699081620000b28239f35b600080fd5b634e487b7160e01b600052604160045260246000fdfe608080604052600436101561001357600080fd5b60003560e01c90816304c51d5b146115585750806321ae62251461143f57806328e072441461141e57806329b62c2c14610e1557806329d48b2714610dd55780632e4851b314610bbe5780632ebc0504146109bf578063361aeddf14610966578063428e8661146109395780634494fd9f1461082657806345e09e54146107d757806352efea6e14610794578063605aa4991461075957806379131a191461071b5780638219b00c146106e85780639dbc88a3146106bf578063ac2f592b14610567578063b2cd5a741461053a578063b63688131461050d578063b6ead707146104e0578063e55ae4e81461048a578063ee91877c14610434578063f7f39fb5146104105763faa421cb1461012757600080fd5b3461040b5761013536611638565b33600052600360205261015460406000209260016040600020016119dd565b5091600060ff61017160018060a01b038354169460058701612109565b90549060031b1c1660246040518095819363dabb053160e01b835260048301525afa9081156103ff57600091600080916000946000926000806000906000926000946000966000986103b6575b6101d39c9d509060ff80926040519e8f611696565b168d521660208c015260ff60408c01991697888a5260ff60608d019d168d5260808c015260a08b0152151560c08a0152151560e089015215156101008801521515610120870152151561014086015215156101608501526003860194855491821061037f576102629561024e60ff93846005965116906121a8565b9055511614610361575b5060048301612402565b60005b600582015460001981019081116102db578110156102f15760018101908181116102db576102d160ff61029e6102d69460058701612109565b90549060031b1c166102b38360058701612109565b90919060ff9183549160031b83811b93849216901b16911916179055565b6120de565b610265565b634e487b7160e01b600052601160045260246000fd5b506005810154801561034b57600019019060059061031183828401612109565b60ff82549160031b1b19169055015560006040517f9d834392f57c159720f66a479989ac6a20017fc8cc60f0a04f78dfedfce8f7be8282a1f35b634e487b7160e01b600052603160045260246000fd5b600b8161037360056103799401612383565b01612383565b38610258565b60405162461bcd60e51b815260206004820152600f60248201526e6e6f7420656e6f756768206d616e6160881b6044820152606490fd5b50505050505050505050506101d3915060ff6103e581943d806000833e6103dd8183611703565b810190612270565b979e508e9d50979a509498959794959094919391906101be565b6040513d6000823e3d90fd5b600080fd5b3461040b57606036600319011261040b57610432604435602435600435612afd565b005b3461040b57602036600319011261040b576004356001600160a01b0381169081900361040b5760005260046020526104866104726040600020611904565b604051918291602083526020830190611671565b0390f35b3461040b57602036600319011261040b576104a36119aa565b503360005260036020526104866104cc6104c660043560016040600020016119dd565b50611b00565b604051918291602083526020830190611840565b3461040b57600036600319011261040b573360005260036020526020600260406000200154604051908152f35b3461040b57600036600319011261040b573360005260036020526020600c60406000200154604051908152f35b3461040b57600036600319011261040b573360005260036020526020600660406000200154604051908152f35b3461040b57600036600319011261040b576105806126d8565b5033600052600360205260406000206105976126d8565b50600660018060a01b036000541691018054156106a957600052600060ff60208220541660246040518094819363dabb053160e01b835260048301525afa80156103ff576000916000806000806000809160009360009560009760009960009b610675575b506040519b61060a8d611696565b60ff168c5260ff1660208c015260ff1660408b015260ff1660608a0152608089015260a0880152151560c0870152151560e08601521515610100850152151561012084015215156101408301521515610160820152604051809160208252602082016104869161173f565b9a505050505050505050505061069691503d806000833e6103dd8183611703565b999098919792969395939291908c6105fc565b634e487b7160e01b600052603260045260246000fd5b3461040b57600036600319011261040b576000546040516001600160a01b039091168152602090f35b3461040b57602036600319011261040b57610486610707600435612734565b60405191829160208352602083019061173f565b3461040b57602036600319011261040b576004356001600160a01b0381169081900361040b5760005260036020526020604060002054604051908152f35b3461040b57602036600319011261040b5733600052600360205260206004610789813560016040600020016119dd565b500154604051908152f35b3461040b57600036600319011261040b573360005260036020526107be6005604060002001612383565b336000526003602052610432600b604060002001612383565b3461040b57602036600319011261040b57336000526003602052610486610812600461080b813560016040600020016119dd565b5001611aa0565b6040519182916020835260208301906117eb565b3461040b57600036600319011261040b57604051610843816116b2565b60008152604051610853816116b2565b60005b604081106109245750602080920152336000526003815260406000209060405191610880836116b2565b8054835260405191610891836116b2565b60019182016000845b60028210610903575050508084019283526040519281845260608401945182850152519360408085015260a08401949160005b600281106108db5785870386f35b9091929382806108f68399605f198a82030188528851611840565b98960194019291016108cd565b9360068482989661091386611b00565b81520193019101909195939561089a565b60209061092f6119aa565b8184015201610856565b3461040b57600036600319011261040b573360005260036020526020600860406000200154604051908152f35b3461040b5760208060031936011261040b576004359060005b60039081811015610432576109ba913360005283526102d16109a88560016040600020016119dd565b5060056109b36121b5565b9101612129565b61097f565b3461040b5760208060031936011261040b576004356001600160401b039182821161040b573660238301121561040b5781600401356109fd81611724565b92610a0b6040519485611703565b818452366024838301011161040b578160009260248593018387013784010152336000526003815260406000206001938482019060406000209560078701958051928311610ba857610a6783610a6186546118ca565b86612163565b8590601f8411600114610b365793838060059a989695600495600a9b99958d98600094610b2b575b50501b916000199060031b1c19161790555b601e60028201558260038201550155610aba82546118ca565b601f8111610b0b575b5050600662109bdd60ea1b019055601e6008820155826009820155015560006040517f29d3e2e5ff5c602e246b6e37383e06720dd4b95fb255e101ceb33358f9f747ee8282a1f35b601f610b2492846000526000209101861c81019061214c565b8480610ac3565b015192508d80610a8f565b90601f9392931983169185600052876000209260005b818110610b93575093600a99979360059b9997938c97938360049810610b7a575b505050811b019055610aa1565b015160001960f88460031b161c191690558b8080610b6d565b82840151855593860193928901928901610b4c565b634e487b7160e01b600052604160045260246000fd5b3461040b5760208060031936011261040b57600435908160ff6006541603610d9d573360005260038082526001926004610bfe82866040600020016119dd565b500154610d23575b33600052818352600a6005610c2183876040600020016119dd565b50015410610d04575b33600052818352600a6002610c4583876040600020016119dd565b50015410610cd4575b610c819033600052828452826002610c6c83886040600020016119dd565b500154943360005252846040600020016119dd565b50015560065460ff8116610cc7575060ff1960065416176006555b60006040517fffba4f5b59315b99e6a53cdb69ccf9db48d73d6b16b96896d2e2687f39b6c3738282a1f35b60ff191660065550610c9c565b336000528183526002610ced82866040600020016119dd565b50019081548581018091116102db57909155610c4e565b33600052818352610d1e6109a882866040600020016119dd565b610c2a565b836000815b610d34575b5050610c06565b336000528385526004610d4d84846040600020016119dd565b500154811015610d9857610d92903360005284865284610d80826004610d7988886040600020016119dd565b50016120ed565b5001805460ff60281b191690556120de565b81610d28565b610d2d565b6064906040519062461bcd60e51b82526004820152601160248201527034ba39903737ba103cb7bab9103a3ab93760791b6044820152fd5b3461040b57610432610e076004610e0e610dee36611638565b93909333600052600360205260016040600020016119dd565b5092612734565b9101612402565b3461040b57608036600319011261040b5733600052600360205260ff6003610e55610e4960443560016040600020016119dd565b506004803591016120ed565b50015460281c16611401577f8dd33dd794cb50f662495c5208cbfae8afc914f463880805493ff3c83d77402c60405180610e8e81612831565b0390a16044356113fa5760015b33600052600360205260ff610ebc610e4960443560016040600020016119dd565b505460081c166024803561029a03610fda5750336000526003602052610ef6816001610eee85826040600020016119dd565b5001546121a8565b610f655750506201000062ffff001960065416176006557f48d3181a3c4a9996aa8d7e23996532aeb8471a0e745e756a2599bdd6d0caf60760206040516044358152a15b60006040517f9e9c27539e247f05c5c2897a7ea1bc1678374bc53fd25a29457b8152c5e4f5de8282a1f35b610f9e610f8860019233600052600360205283610eee86826040600020016119dd565b92336000526003602052826040600020016119dd565b5001553360005260036020526003610fc2610e4960443560016040600020016119dd565b5001805460ff60281b1916600160281b179055610f3a565b336000526003602052610ff48360016040600020016119dd565b506004823591015411156113be5733600052600360205261101e60443560016040600020016119dd565b5060048035910154111561137f5733600052600360205260ff61105761104b8560016040600020016119dd565b506004843591016120ed565b5054161561133b5733600052600360205260ff61107e61104b8560016040600020016119dd565b505460081c16913360005260036020526110a261104b8560016040600020016119dd565b503360005260036020526110c2610e4960443560016040600020016119dd565b5060038101805460ff60281b1916600160281b1790558154909260ff821681811161131a575050505081355b336000526003602052600461110a8660016040600020016119dd565b500154600019810190811161128e5781101561119c5733600052600360205261113a8560016040600020016119dd565b5060018201908183116111875761115b611182939260046102d193016120ed565b5033600052600360205261117c836004610d798b60016040600020016119dd565b90612962565b6110ee565b84634e487b7160e01b60005260116004526000fd5b5091909260046111bf6111c69233600052600360205260016040600020016119dd565b5001612aab565b3360005260036020528060ff6111e8610e4960443560016040600020016119dd565b505416116112e05750506004355b336000526003602052600461121460443560016040600020016119dd565b50015460001981019081116112cb578110156112a35733600052600360205261124660443560016040600020016119dd565b50906001810180821161128e576112666102d191600461128995016120ed565b5033600052600360205261117c836004610d7960443560016040600020016119dd565b6111f6565b83634e487b7160e01b60005260116004526000fd5b50503360005260036020526112c660046111bf60443560016040600020016119dd565b610f3a565b82634e487b7160e01b60005260116004526000fd5b600292509060ff91826112f7835492828416612876565b16908319161780915560181c1603610f3a576112c6604435606435600435612afd565b60ff929394969597509061132d91612876565b169060ff19161790556111c6565b606490601d6040519162461bcd60e51b8352602060048401528201527f546172676574206d696e696f6e20697320616c726561647920646561640000006044820152fd5b60649060186040519162461bcd60e51b8352602060048401528201527724b73b30b634b21030ba3a30b1b5b4b7339036b4b734b7b760411b6044820152fd5b60649060156040519162461bcd60e51b8352602060048401528201527424b73b30b634b2103a30b933b2ba1036b4b734b7b760591b6044820152fd5b6000610e9b565b60405162461bcd60e51b81528061141a60048201612831565b0390fd5b3461040b57600036600319011261040b57602060ff60065416604051908152f35b3461040b57602036600319011261040b5760043560ff811680910361040b576000805460405163dabb053160e01b81526004810193909352829060249082906001600160a01b03165afa80156103ff5760009060009260009360008060008060009260009460009660009860009a611522575b506040519a6114c08c611696565b60ff168b5260ff169a8b60208c015260ff1660408b015260ff1660608a0152608089015260a0880152151560c0870152151560e08601521515610100850152151561012084015215156101408301521515906101600152604051908152602090f35b9a505050505050505050505061154391503d806000833e6103dd8183611703565b989a999097919692959394939291908c6114b2565b3461040b5760809061156936611638565b929091611575816116e8565b369037336000526115a361159d602092600384526004610d79600196876040600020016119dd565b506119f1565b9160405192608084018481106001600160401b03821117610ba857604092919252608060ff92838151168652838582015116858701528360408201511660408701528360608201511660608701520151916040519384958695906000915b600483106116205787806104868960a0608084015260a0830190611671565b81518516815288975091850191908301908301611601565b604090600319011261040b576004359060243590565b60005b8381106116615750506000910152565b8181015183820152602001611651565b9060209161168a8151809281855285808601910161164e565b601f01601f1916010190565b61018081019081106001600160401b03821117610ba857604052565b604081019081106001600160401b03821117610ba857604052565b60c081019081106001600160401b03821117610ba857604052565b608081019081106001600160401b03821117610ba857604052565b90601f801991011681019081106001600160401b03821117610ba857604052565b6001600160401b038111610ba857601f01601f191660200190565b9060ff825116815260ff602083015116602082015260ff604083015116604082015260ff606083015116606082015261179c61178a6080840151610180806080860152840190611671565b60a084015183820360a0850152611671565b9160c0810151151560c083015260e0810151151560e083015261010080820151151590830152610120808201511515908301526101408082015115159083015261016080910151151591015290565b90815180825260208092019182818360051b85019501936000915b8483106118165750505050505090565b909192939495848061183083856001950387528a5161173f565b9801930193019194939290611806565b611853815160c0845260c0840190611671565b9060a061188a60209384840151858701526040840151604087015260608401516060870152608084015186820360808801526117eb565b9101519260a081830391015281808451928381520193019160005b8281106118b3575050505090565b835160ff16855293810193928101926001016118a5565b90600182811c921680156118fa575b60208310146118e457565b634e487b7160e01b600052602260045260246000fd5b91607f16916118d9565b9060405191826000825492611918846118ca565b9081845260019485811690816000146119875750600114611944575b505061194292500383611703565b565b9093915060005260209081600020936000915b81831061196f57505061194293508201013880611934565b85548884018501529485019487945091830191611957565b91505061194294506020925060ff191682840152151560051b8201013880611934565b604051906119b7826116cd565b606060a08382815260006020820152600060408201526000838201528260808201520152565b9060028110156106a9576006020190600090565b906040516119fe81611696565b6101608193600381549160ff83818095168752818160081c166020880152818160101c16604088015260181c166060860152611a3c60018201611904565b6080860152611a4d60028201611904565b60a08601520154818116151560c0850152818160081c16151560e0850152818160101c161515610100850152818160181c161515610120850152818160201c16151561014085015260281c161515910152565b9081546001600160401b038111610ba857604051926020611ac6818460051b0186611703565b82855260009182528082208186015b848410611ae3575050505050565b600483600192611af2856119f1565b815201920193019290611ad5565b90604051611b0d816116cd565b8092611b1881611904565b825260019160058383015492602093848401526002810154604084015260038101546060840152611b4b60048201611aa0565b608084015201916040519081948592828654918281520195600052826000206000905b82601f830110611f475791611c919594939160a09893549285838310611f34575b838310611f1e575b838310611f08575b838310611ef2575b838310611edd575b838310611ec7575b838310611eb1575b838310611e9b575b838310611e85575b838310611e6f575b838310611e59575b838310611e43575b838310611e2d575b838310611e17575b838310611e01575b838310611deb575b838310611dd5575b838310611dbf575b838310611da9575b838310611d93575b838310611d7e575b838310611d68575b838310611d52575b838310611d3c575b838310611d26575b838310611d10575b838310611cfa575b838310611ce4575b838310611cce575b838310611cb8575b838310611ca2575b505010611c95575b5090500384611703565b0152565b60f81c8152018038611c87565b90919460ff8560f01c1681520193013885611c7f565b81929560ff8660e81c1681520194019085611c77565b81929560ff8660e01c1681520194019085611c6f565b81929560ff8660d81c1681520194019085611c67565b81929560ff8660d01c1681520194019085611c5f565b81929560ff8660c81c1681520194019085611c57565b81929560ff8660c01c1681520194019085611c4f565b81929560ff8660b81c1681520194019085611c47565b81929560ff8660b01c1681520194019085611c3f565b81929560ff8660a81c1681520194019085611c37565b81929560ff868d1c1681520194019085611c2f565b81929560ff8660981c1681520194019085611c27565b81929560ff8660901c1681520194019085611c1f565b81929560ff8660881c1681520194019085611c17565b81929560ff8660801c1681520194019085611c0f565b81929560ff8660781c1681520194019085611c07565b81929560ff8660701c1681520194019085611bff565b81929560ff8660681c1681520194019085611bf7565b81929560ff8660601c1681520194019085611bef565b81929560ff8660581c1681520194019085611be7565b81929560ff8660501c1681520194019085611bdf565b81929560ff8660481c1681520194019085611bd7565b81929560ff8660401c1681520194019085611bcf565b81929560ff8660381c1681520194019085611bc7565b81929560ff8660301c1681520194019085611bbf565b81929560ff8660281c1681520194019085611bb7565b81929560ff86831c1681520194019085611baf565b81929560ff8660181c1681520194019085611ba7565b81929560ff8660101c1681520194019085611b9f565b81929560ff8660081c1681520194019085611b97565b81929560ff861681520194019085611b8f565b945090919283610400829798875460ff8116825260ff8160081c168583015260ff8160101c16604083015260ff8160181c16606083015260ff81861c16608083015260ff8160a0828260281c1681860152828260c092828260301c1684890152828260381c1660e0890152828260401c16610100890152828260481c16610120890152828260501c16610140890152828260581c16610160890152828260601c16610180890152828260681c166101a0890152828260701c166101c0890152828260781c166101e0890152828260801c16610200890152828260881c16610220890152828260901c16610240890152828260981c166102608901521c16610280860152828260a81c166102a0860152828260b01c166102c0860152828260b81c166102e08601521c1661030083015260ff8160c81c1661032083015260ff8160d01c1661034083015260ff8160d81c1661036083015260ff8160e01c1661038083015260ff8160e81c166103a083015260ff8160f01c166103c083015260f81c6103e0820152019501910187949695939291611b6e565b60001981146102db5760010190565b80548210156106a95760005260206000209060021b0190600090565b91909180548310156106a957600052601f60206000208360051c01921690565b80549190600160401b831015610ba857826102b391600161194295018155612109565b818110612157575050565b6000815560010161214c565b9190601f811161217257505050565b611942926000526020600020906020601f840160051c8301931061219e575b601f0160051c019061214c565b9091508190612191565b919082039182116102db57565b60001943014381116102db57600d906121fb6001549160405160208101914082523360601b6040820152836054820152605481526121f2816116e8565b519020916120de565b60015506600181018091116102db5760ff1690565b519060ff8216820361040b57565b81601f8201121561040b57805161223481611724565b926122426040519485611703565b8184526020828401011161040b57612260916020808501910161164e565b90565b5190811515820361040b57565b916101808383031261040b5761228583612210565b9261229260208201612210565b9261229f60408301612210565b926122ac60608401612210565b9260808101516001600160401b039081811161040b57846122ce91840161221e565b9360a083015191821161040b576122e691830161221e565b916122f360c08301612263565b9161230060e08201612263565b9161230e6101008301612263565b9161231c6101208201612263565b916122606101606123306101408501612263565b9301612263565b61234181546118ca565b908161234b575050565b81601f6000931160011461235d575055565b8183526020832061237991601f0160051c81019060010161214c565b8160208120915555565b80546000908183558061239557505050565b6001926001600160fe1b03821184166123ee5782526020822092600291821b8401935b8481106123c6575050505050565b8084600492556123d7838201612337565b6123e2848201612337565b846003820155016123b8565b634e487b7160e01b83526011600452602483fd5b908154600160401b811015610ba8576124229060019384820181556120ed565b6126c257815181546020808501516040860151606087015160109190911b62ff00001660089290921b61ff001660ff90951663ffffffff1990941693909317939093179290921760189190911b63ff00000016178255608083015180519194916001600160401b03918385019190838211610ba85781906124a782610a6186546118ca565b8890601f831160011461265f57600092612654575b5050600019600383901b1c191690841b1790555b600283019160a0850151958651928311610ba8576124f283610a6186546118ca565b80601f84116001146125e057509180806003959361016097956119429a6000946125d5575b50501b9160001990861b1c19161790555b019161254660c08201511515849060ff801983541691151516179055565b60e0810151835461ff00191690151560081b61ff0016178355610100810151835462ff0000191690151560101b62ff000016178355610120810151835463ff000000191690151560181b63ff00000016178355610140810151835464ff00000000191690151560201b64ff00000000161783550151815460ff60281b191690151560281b60ff60281b16179055565b015192503880612517565b9193949596601f1984168660005283600020936000905b82821061263d575050926003959285926119429a9996610160999610612625575b505050811b019055612528565b015160001983881b60f8161c19169055388080612618565b8088869782949787015181550196019401906125f7565b0151905038806124bc565b90869350601f19831691856000528a6000209260005b8c8282106126ac5750508411612693575b505050811b0190556124d0565b015160001960f88460031b161c19169055388080612686565b8385015186558a97909501949384019301612675565b634e487b7160e01b600052600060045260246000fd5b604051906126e582611696565b8161016060009182815282602082015282604082015282606082015260606080820152606060a08201528260c08201528260e08201528261010082015282610120820152826101408201520152565b61273c6126d8565b506000805460405163dabb053160e01b815260048101939093528190839060249082906001600160a01b03165afa90811561282557809281828384859086928794889689988a809c6127f0575b50506040519b6127988d611696565b60ff168c5260ff1660208c015260ff1660408b015260ff1660608a0152608089015260a0880152151560c0870152151560e0860152151561010085015215156101208401521515610140830152151561016082015290565b9a509a5050505050505050505061281192503d8091833e6103dd8183611703565b999098919792969395939291903880612789565b604051903d90823e3d90fd5b60809060208152602460208201527f596f75277265206d696e696f6e2069732061736c6565702c20776169742061206040820152633a3ab93760e11b60608201520190565b9060ff8091169116039060ff82116102db57565b9080821461295e5761289c81546118ca565b906001600160401b038211610ba85781906128bb82610a6186546118ca565b600090601f83116001146128f2576000926128e7575b50508160011b916000199060031b1c1916179055565b0154905038806128d1565b81526020808220858352818320935090601f1985169083905b82821061294557505090846001959493921061292c575b505050811b019055565b015460001960f88460031b161c19169055388080612922565b849581929585015481556001809101960194019061290b565b5050565b91906126c257808203612973575050565b8054825460ff19811660ff9283169081178555835461ffff198316821761ff009091169081178655845462ff00001662ffffff1984168317821781178755855463ff0000001663ffffffff1990941690921717171783556119429260039081906129e3600180870190830161288a565b6129f3600286016002830161288a565b019201612a0f82825416849060ff801983541691151516179055565b8054835461ff001916600891821c8416151590911b61ff00161783558054835462ff00001916601091821c8416151590911b62ff0000161783558054835463ff0000001916601891821c8416151590911b63ff000000161783558054835464ff000000001916602091821c8416151590911b64ff00000000161783555460281c1660ff60281b825491151560281b169060ff60281b1916179055565b8054801561034b576000190190612ac282826120ed565b6126c2576003816000809355612ada60018201612337565b612ae660028201612337565b015555565b60ff60039116019060ff82116102db57565b612b1e90336000526004610d796003958660205260016040600020016119dd565b5090815490600260ff8360181c1614612b38575b50505050565b60059160018214612c05575b5060028114612be8575b838114612bcf575b60048114612bbc575b14612ba7575b612b8e612b7860ff835460081c16612aeb565b825461ff00191660089190911b61ff0016178255565b01805462ffff0019166201010017905538808080612b32565b808201805461ff001916610100179055612b65565b828401805460ff19166001179055612b5f565b828401805463ff00000019166301000000179055612b56565b825460ff612bf7818316612aeb565b169060ff1916178355612b4e565b612c1760ff612c2d9260081c16612aeb565b845461ff00191660089190911b61ff0016178455565b38612b4456fea2646970667358221220aa33d2c9a773ba8fc46a7770ca2cc2a2803d1bf22072f0f10056a6a20af531e164736f6c63430008100033",
  "linkReferences": {},
  "deployedLinkReferences": {}
}