{
  "_format": "hh-sol-artifact-1",
  "contractName": "Hearthstone",
  "sourceName": "contracts/Hearthstone.sol",
  "abi": [
    {
      "inputs": [
        {
          "internalType": "address",
          "name": "_address",
          "type": "address"
        }
      ],
      "stateMutability": "nonpayable",
      "type": "constructor"
    },
    {
      "anonymous": false,
      "inputs": [
        {
          "components": [
            {
              "internalType": "uint256",
              "name": "health",
              "type": "uint256"
            },
            {
              "internalType": "uint256",
              "name": "attack",
              "type": "uint256"
            },
            {
              "internalType": "uint256",
              "name": "manaCost",
              "type": "uint256"
            },
            {
              "internalType": "uint256",
              "name": "id",
              "type": "uint256"
            },
            {
              "internalType": "string",
              "name": "name",
              "type": "string"
            },
            {
              "internalType": "string",
              "name": "description",
              "type": "string"
            },
            {
              "internalType": "bool",
              "name": "taunt",
              "type": "bool"
            },
            {
              "internalType": "bool",
              "name": "windfury",
              "type": "bool"
            },
            {
              "internalType": "bool",
              "name": "divineshield",
              "type": "bool"
            },
            {
              "internalType": "bool",
              "name": "stealth",
              "type": "bool"
            },
            {
              "internalType": "bool",
              "name": "poisonious",
              "type": "bool"
            }
          ],
          "indexed": false,
          "internalType": "struct Hearthstone.Champs",
          "name": "str",
          "type": "tuple"
        }
      ],
      "name": "drawn",
      "type": "event"
    },
    {
      "anonymous": false,
      "inputs": [
        {
          "components": [
            {
              "internalType": "uint256",
              "name": "health",
              "type": "uint256"
            },
            {
              "internalType": "uint256",
              "name": "attack",
              "type": "uint256"
            },
            {
              "internalType": "uint256",
              "name": "manaCost",
              "type": "uint256"
            },
            {
              "internalType": "uint256",
              "name": "id",
              "type": "uint256"
            },
            {
              "internalType": "string",
              "name": "name",
              "type": "string"
            },
            {
              "internalType": "string",
              "name": "description",
              "type": "string"
            },
            {
              "internalType": "bool",
              "name": "taunt",
              "type": "bool"
            },
            {
              "internalType": "bool",
              "name": "windfury",
              "type": "bool"
            },
            {
              "internalType": "bool",
              "name": "divineshield",
              "type": "bool"
            },
            {
              "internalType": "bool",
              "name": "stealth",
              "type": "bool"
            },
            {
              "internalType": "bool",
              "name": "poisonious",
              "type": "bool"
            }
          ],
          "indexed": false,
          "internalType": "struct Hearthstone.Champs",
          "name": "str",
          "type": "tuple"
        }
      ],
      "name": "playMinionEvent",
      "type": "event"
    },
    {
      "inputs": [
        {
          "internalType": "uint256",
          "name": "_handCardChosen",
          "type": "uint256"
        },
        {
          "internalType": "uint256",
          "name": "_posistion",
          "type": "uint256"
        }
      ],
      "name": "ability",
      "outputs": [],
      "stateMutability": "nonpayable",
      "type": "function"
    },
    {
      "inputs": [
        {
          "internalType": "uint256",
          "name": "minion",
          "type": "uint256"
        },
        {
          "internalType": "uint256",
          "name": "target",
          "type": "uint256"
        },
        {
          "internalType": "uint256",
          "name": "_player",
          "type": "uint256"
        }
      ],
      "name": "attack",
      "outputs": [],
      "stateMutability": "nonpayable",
      "type": "function"
    },
    {
      "inputs": [
        {
          "internalType": "uint256",
          "name": "minion",
          "type": "uint256"
        },
        {
          "internalType": "uint256",
          "name": "target",
          "type": "uint256"
        },
        {
          "internalType": "uint256",
          "name": "chosen",
          "type": "uint256"
        }
      ],
      "name": "attackWithChooseOption",
      "outputs": [],
      "stateMutability": "nonpayable",
      "type": "function"
    },
    {
      "inputs": [
        {
          "internalType": "uint256",
          "name": "minion",
          "type": "uint256"
        },
        {
          "internalType": "uint256",
          "name": "target",
          "type": "uint256"
        },
        {
          "internalType": "uint256",
          "name": "chosen",
          "type": "uint256"
        }
      ],
      "name": "battleCryWithChooseOption",
      "outputs": [],
      "stateMutability": "nonpayable",
      "type": "function"
    },
    {
      "inputs": [],
      "name": "boardSize",
      "outputs": [
        {
          "internalType": "uint256",
          "name": "",
          "type": "uint256"
        }
      ],
      "stateMutability": "view",
      "type": "function"
    },
    {
      "inputs": [],
      "name": "charC",
      "outputs": [
        {
          "internalType": "contract Characters",
          "name": "",
          "type": "address"
        }
      ],
      "stateMutability": "view",
      "type": "function"
    },
    {
      "inputs": [],
      "name": "createGame",
      "outputs": [],
      "stateMutability": "nonpayable",
      "type": "function"
    },
    {
      "inputs": [
        {
          "internalType": "uint256",
          "name": "_player",
          "type": "uint256"
        }
      ],
      "name": "endTurn",
      "outputs": [],
      "stateMutability": "nonpayable",
      "type": "function"
    },
    {
      "inputs": [
        {
          "internalType": "address",
          "name": "",
          "type": "address"
        }
      ],
      "name": "games",
      "outputs": [
        {
          "internalType": "uint256",
          "name": "gameId",
          "type": "uint256"
        },
        {
          "components": [
            {
              "components": [
                {
                  "internalType": "uint256",
                  "name": "health",
                  "type": "uint256"
                },
                {
                  "internalType": "uint256",
                  "name": "attack",
                  "type": "uint256"
                },
                {
                  "internalType": "uint256",
                  "name": "manaCost",
                  "type": "uint256"
                },
                {
                  "internalType": "uint256",
                  "name": "id",
                  "type": "uint256"
                },
                {
                  "internalType": "string",
                  "name": "name",
                  "type": "string"
                },
                {
                  "internalType": "string",
                  "name": "description",
                  "type": "string"
                },
                {
                  "internalType": "bool",
                  "name": "taunt",
                  "type": "bool"
                },
                {
                  "internalType": "bool",
                  "name": "windfury",
                  "type": "bool"
                },
                {
                  "internalType": "bool",
                  "name": "divineshield",
                  "type": "bool"
                },
                {
                  "internalType": "bool",
                  "name": "stealth",
                  "type": "bool"
                },
                {
                  "internalType": "bool",
                  "name": "poisonious",
                  "type": "bool"
                }
              ],
              "internalType": "struct Hearthstone.Champs[7]",
              "name": "player1Row",
              "type": "tuple[7]"
            },
            {
              "components": [
                {
                  "internalType": "uint256",
                  "name": "health",
                  "type": "uint256"
                },
                {
                  "internalType": "uint256",
                  "name": "attack",
                  "type": "uint256"
                },
                {
                  "internalType": "uint256",
                  "name": "manaCost",
                  "type": "uint256"
                },
                {
                  "internalType": "uint256",
                  "name": "id",
                  "type": "uint256"
                },
                {
                  "internalType": "string",
                  "name": "name",
                  "type": "string"
                },
                {
                  "internalType": "string",
                  "name": "description",
                  "type": "string"
                },
                {
                  "internalType": "bool",
                  "name": "taunt",
                  "type": "bool"
                },
                {
                  "internalType": "bool",
                  "name": "windfury",
                  "type": "bool"
                },
                {
                  "internalType": "bool",
                  "name": "divineshield",
                  "type": "bool"
                },
                {
                  "internalType": "bool",
                  "name": "stealth",
                  "type": "bool"
                },
                {
                  "internalType": "bool",
                  "name": "poisonious",
                  "type": "bool"
                }
              ],
              "internalType": "struct Hearthstone.Champs[7]",
              "name": "player2Row",
              "type": "tuple[7]"
            }
          ],
          "internalType": "struct Hearthstone.Board",
          "name": "board",
          "type": "tuple"
        }
      ],
      "stateMutability": "view",
      "type": "function"
    },
    {
      "inputs": [
        {
          "internalType": "uint256",
          "name": "id",
          "type": "uint256"
        }
      ],
      "name": "getAttack",
      "outputs": [
        {
          "internalType": "uint256",
          "name": "",
          "type": "uint256"
        }
      ],
      "stateMutability": "view",
      "type": "function"
    },
    {
      "inputs": [],
      "name": "getBoard",
      "outputs": [
        {
          "internalType": "uint256",
          "name": "",
          "type": "uint256"
        }
      ],
      "stateMutability": "view",
      "type": "function"
    },
    {
      "inputs": [],
      "name": "getHealthBot",
      "outputs": [
        {
          "internalType": "uint256",
          "name": "",
          "type": "uint256"
        }
      ],
      "stateMutability": "view",
      "type": "function"
    },
    {
      "inputs": [],
      "name": "getHealthPlayer",
      "outputs": [
        {
          "internalType": "uint256",
          "name": "",
          "type": "uint256"
        }
      ],
      "stateMutability": "view",
      "type": "function"
    },
    {
      "inputs": [],
      "name": "getTurn",
      "outputs": [
        {
          "internalType": "uint8",
          "name": "",
          "type": "uint8"
        }
      ],
      "stateMutability": "view",
      "type": "function"
    },
    {
      "inputs": [],
      "name": "handSize",
      "outputs": [
        {
          "internalType": "uint256",
          "name": "",
          "type": "uint256"
        }
      ],
      "stateMutability": "view",
      "type": "function"
    },
    {
      "inputs": [
        {
          "internalType": "uint256",
          "name": "_player",
          "type": "uint256"
        },
        {
          "internalType": "uint256",
          "name": "_handIndex",
          "type": "uint256"
        }
      ],
      "name": "playMinion",
      "outputs": [],
      "stateMutability": "nonpayable",
      "type": "function"
    },
    {
      "inputs": [
        {
          "internalType": "uint256",
          "name": "minionId",
          "type": "uint256"
        },
        {
          "internalType": "uint256",
          "name": "_player",
          "type": "uint256"
        }
      ],
      "name": "playMinionById",
      "outputs": [],
      "stateMutability": "nonpayable",
      "type": "function"
    },
    {
      "inputs": [
        {
          "internalType": "uint256",
          "name": "_player",
          "type": "uint256"
        }
      ],
      "name": "playerDrawCard",
      "outputs": [],
      "stateMutability": "nonpayable",
      "type": "function"
    },
    {
      "inputs": [
        {
          "internalType": "uint256",
          "name": "id",
          "type": "uint256"
        },
        {
          "internalType": "uint256",
          "name": "_player",
          "type": "uint256"
        }
      ],
      "name": "showboardplace",
      "outputs": [
        {
          "internalType": "uint256[4]",
          "name": "",
          "type": "uint256[4]"
        },
        {
          "internalType": "string",
          "name": "",
          "type": "string"
        }
      ],
      "stateMutability": "view",
      "type": "function"
    },
    {
      "inputs": [
        {
          "internalType": "uint256",
          "name": "id",
          "type": "uint256"
        }
      ],
      "name": "showcard",
      "outputs": [
        {
          "internalType": "uint256[4]",
          "name": "",
          "type": "uint256[4]"
        },
        {
          "internalType": "string",
          "name": "",
          "type": "string"
        }
      ],
      "stateMutability": "view",
      "type": "function"
    },
    {
      "inputs": [
        {
          "internalType": "uint256",
          "name": "minion",
          "type": "uint256"
        },
        {
          "internalType": "uint256",
          "name": "chosen",
          "type": "uint256"
        }
      ],
      "name": "trigger",
      "outputs": [],
      "stateMutability": "nonpayable",
      "type": "function"
    },
    {
      "inputs": [
        {
          "internalType": "address",
          "name": "",
          "type": "address"
        }
      ],
      "name": "usernames",
      "outputs": [
        {
          "internalType": "string",
          "name": "",
          "type": "string"
        }
      ],
      "stateMutability": "view",
      "type": "function"
    }
  ],
  "bytecode": "0x60803461008a57601f61224738819003918201601f19168301916001600160401b0383118484101761008f5780849260209460405283398101031261008a57516001600160a01b0381169081900361008a576000600155600060045561010062ffffff19600554161760055560018060a01b031960005416176000556040516121a190816100a68239f35b600080fd5b634e487b7160e01b600052604160045260246000fdfe608060408181526004918236101561001657600080fd5b600092833560e01c91826304c51d5b146114d55750816328e07244146114b357816329d48b271461139b5781632aa76db5146113455781632e4851b31461125d5781633264a34b1461120e578163407f85f814610f6a578163428e866114610f4157816346bb488214610afc57816349045d0414610a775781637255d729146108a657816379131a19146107e3578163848ae3011461075f578163919d1f3f146107365781639dbc88a31461070e578163b6ead707146106e5578163c51d69f4146106bc578163cff840f0146105b8578163ed0a8b591461047a578163ee91877c14610417578163faa421cb1461012f575063ffa245cf1461011757600080fd5b3461012b57610125366115b8565b50505051f35b5080fd5b905034610413578161014036611516565b923386526002936020928584528488208887610163846063809a819520016118e4565b50015491019087610180858761017987876118e4565b50016119b9565b500154116103de57886101be886101b4858a8d846101a38b8d610179878d6118e4565b50015496338152858d5220016118e4565b5001918254611ede565b905560036101cc83836118e4565b5001956101de848661017986866118e4565b508754600160401b8110156103cb57906102026102089260019a8b820181556119b9565b90611fc3565b888a80895b61030d575b508461026a946102658961025e60ff997fa76f195005ba54e5875e803ae21db8b4059e956d003be5f8fdd6210483c625279f9e9d9c9b988f98610179988f9a869b3383525220016118e4565b5001612103565b6118e4565b509287519586958287528554838801528501548987015284015460608601526003840154608086015260066102c76102b2610160958660a08a0152610180890190880161167a565b878103601f190160c08901526005870161167a565b94015490828216151560e0870152828260081c161515610100870152828260101c161515610120870152828260181c1615156101408701521c161515908301520390a151f35b918584610323928a948e3382528d5220016118e4565b50015460001981019081116103b8578b8b918310156103b157836103509287923381528d8c5220016118e4565b508882019081831161039e5791610390896102028f8f8f8f988a8f9389958f93946103836103959d8861017998016119b9565b50993383525220016118e4565b61190e565b8b908b9261020d565b634e487b7160e01b8d526011885260248dfd5b9091610212565b634e487b7160e01b8c526011875260248cfd5b634e487b7160e01b8c526041875260248cfd5b875162461bcd60e51b8152808501869052600f60248201526e6e6f7420656e6f756768206d616e6160881b6044820152606490fd5b8280fd5b90503461041357602036600319011261041357356001600160a01b038116908190036104135790610464818461045d94610476965260036020522082519384809261167a565b038361161f565b51918291602083526020830190611554565b0390f35b83833461012b5761048a36611516565b3384526002602052600260036104bc6104a8856066888a20016119b9565b5094338852836020526066878920016119b9565b500154146104c957505051f35b6001811461058d575b60028114610579575b8060036005921461055f575b85811461054b575b14610535575b60018101805490600382018092116105225755600601805462ffff00191662010100179055519091508190f35b634e487b7160e01b855260118652602485fd5b60068101805461ff0019166101001790556104f5565b60068301805460ff191660011790556104ef565b60068301805463ff000000191663010000001790556104e7565b8154600381018091116105225782556104db565b60018201805490600382018092116105a557556104d2565b634e487b7160e01b865260118752602486fd5b8391503461012b57602036600319011261012b578154835163dabb053160e01b81528235928101929092528290829060249082906001600160a01b03165afa80156106b25792602093839084938586878889918a938b958c978d99610670575b508a6101409a9b9c9d50519a61062d8c611603565b8b528c8e8c01528b8b015260608a0152608089015260a0880152151560c0870152151560e086015215156101008501521515610120840152151591015251908152f35b995050505050505050505061069c919250610140933d8091833e610694818361161f565b810190611d16565b989b8c9b9a999891979296939593929190610618565b83513d84823e3d90fd5b50503461012b578160031936011261012b57606681602093338152600285522001549051908152f35b50503461012b578160031936011261012b57606481602093338152600285522001549051908152f35b50503461012b578160031936011261012b57905490516001600160a01b039091168152602090f35b50503461012b578160031936011261012b57606781602093338152600285522001549051908152f35b8391503461012b57602036600319011261012b576107a59160678461079f936080825161078b816115d2565b3690373384526002602052359220016119b9565b50611710565b61047660808351926107b6846115d2565b80518452602081015160208501528481015185850152606081015160608501520151925192839283611579565b919050346104135760203660031901126104135781356001600160a01b038116908190036108a25783526002602052808320805492825194838601918683106001600160401b0384111761088f5750506108576032849361087c93610476965261084f600182016117c1565b8852016117c1565b91602086019283528051958695865281602087015251908086015260808501906118a6565b9051838203603f190160608501526118a6565b634e487b7160e01b825260419052602490fd5b8380fd5b905034610413578260031936011261041357338352600260205281832081549091606883019160679084906063820190826108e08261190e565b8655556108f66108f08254611640565b8261194a565b6014691c185d1c9bdb985cd61960b21b019055601e606482015560016065820155855191019161092582611603565b6001825260026020830152600186830152600160608301528551868101906001600160401b039181811083821117610a6457885260088152673232b332b73232b960c11b602082015260808401528651916060830191821183831017610a515750926109fc606c9593610a1b93610a4e98968a52602581527f476976652061646a7573746564206d696e696f6e73202b312f2b3120616e64206020820152641d185d5b9d60da1b8a82015260a08201528960c08201528960e0820152896101008201528961012082015289610140820152826119d5565b610a0d610a07611db2565b826119d5565b610a15611db2565b906119d5565b610a286108f08254611640565b600662109bdd60ea1b019055601e60698201556001606a820155016109fc610a07611db2565b51f35b634e487b7160e01b895260419052602488fd5b634e487b7160e01b8a526041845260248afd5b90503461041357602036600319011261041357610ab7903384526002602052610aa681356063858720016118e4565b5090610ab0611db2565b91016119d5565b7f114350837fa4fbc09f30bc6997d2929580625dfafecf29fb430024bd46694acb610af6610ae3611db2565b8351918291602083526020830190611813565b0390a151f35b90503461041357600390610b0f36611516565b913386526002602052610b2e60668688200154926067878920016119b9565b50913387526002602052606686882001926001958691015414610b5057868651f35b8085148080610f38575b610eda575b80610ed2575b610e76575b8481118080610e6d575b80610e64575b610dae575b80610da5575b610cdc575b838114908180610cd3575b610c4f575b81610c45575b50610bac575b80868651f35b838301809311610c325783610bc184846119b9565b5001805490858201809211610c1f5755610bdb83836119b9565b50805491858301809311610c0c575055600691610bf7916119b9565b50019060ff1982541617905538808080610ba6565b634e487b7160e01b885260119052602487fd5b634e487b7160e01b885260118352602488fd5b634e487b7160e01b865260119052602485fd5b9050831038610ba0565b6000198501858111610cc05786610c6682876119b9565b5001805490888201809211610cad5755610c8081866119b9565b50805490888201809211610cad5755600690610c9c90866119b9565b5001805460ff191687179055610b9a565b634e487b7160e01b8b526011865260248bfd5b634e487b7160e01b895260118452602489fd5b50808511610b95565b6000198401848111610c1f5785610cf382866119b9565b5001805490878201809211610d925755610d0d81856119b9565b50805490878201809211610d925755600690610d2990856119b9565b500160ff19908682825416179055858501808611610cc05786610d4c82876119b9565b5001805490888201809211610cad5755610d6681866119b9565b50805490888201809211610cad578892600692610d849255876119b9565b500191825416179055610b8a565b634e487b7160e01b8a526011855260248afd5b50808410610b85565b6000198501858111610cc05786610dc582876119b9565b5001805490888201809211610cad5755610ddf81866119b9565b50805490888201809211610cad5755600690610dfb90866119b9565b500160ff19908782825416179055868601808711610d925787610e1e82886119b9565b50018054908982018092116103b85755610e3881876119b9565b508054908982018092116103b8578992600692610e569255886119b9565b500191825416179055610b7f565b50841515610b7a565b50818510610b74565b848401808511610c1f5785610e8b82866119b9565b5001805490878201809211610d925755610ea581856119b9565b50805490878201809211610d925755600690610ec190856119b9565b5001805460ff191686179055610b6a565b508315610b65565b6000198501858111610cc05786610ef182876119b9565b5001805490888201809211610cad5755610f0b81866119b9565b50805490888201809211610cad5755600690610f2790866119b9565b5001805460ff191687179055610b5f565b50858514610b5a565b50503461012b578160031936011261012b57606981602093338152600285522001549051908152f35b90503461041357610f7a366115b8565b919290338652600290602094828652606393610f9a86868a8c20016118e4565b509160038093015496600019978881019081116111fb578510156111c35783929187969594610179610fe4938c9a8f8f9083156000146111bb578b60019e5b3383525220016118e4565b50966001809801549361029a81146000146110735750505050908787949392338252828852611024818861101c88888b8820016118e4565b500154611ede565b6110445750505050505050506201000062ffff0019600554161760055551f35b8661101c868661106d9961105f96888e3383525220016118e4565b9533895252858720016118e4565b50015551f35b9091938061109983868d9f9e9d8f8f999e998d908f928e610179953383525220016118e4565b50541161116c5750825b6110c5575b505050509061025e9291610a4e95969733895252858720016118e4565b876110dc88888c8f8f908b903383525220016118e4565b5001548281019081116111595781101561115457338a52848b5261110487878b8d20016118e4565b508382019081831161114157916103908d610202838f8f8f918f908f90928f93610179948f9e9d61113a9d8861038392016119b9565b90916110a3565b634e487b7160e01b8c526011865260248cfd5b6110a8565b634e487b7160e01b8b526011855260248bfd5b8794508693508592506111a1828a6101798e9f9d9e9b8f9b8f9c6111b69f9d9e6111a8999f9d6101799e3383525220016118e4565b5054611ede565b97338b5252878920016118e4565b505551f35b8b819e610fd9565b895162461bcd60e51b81528084018a905260126024820152711d185c99d948191bd95cdb9d08195e1a5cdd60721b6044820152606490fd5b634e487b7160e01b8c526011845260248cfd5b8391503461012b578160031936011261012b5733825260026020526066838320019081541561124a578183526020808420600301548551908152f35b634e487b7160e01b835260329052602482fd5b9050346104135760203660031901126104135780358060ff600554160361130e573384526002602052600a6002611299836063878920016118e4565b500154106112ca575b505060055460ff81166112c05750600160ff19600554161760055551f35b60ff191660055551f35b6112e2600291338652826020526063858720016118e4565b5001805491600183018093116112fb57505538806112a2565b634e487b7160e01b855260119052602484fd5b506020606492519162461bcd60e51b8352820152601160248201527034ba39903737ba103cb7bab9103a3ab93760791b6044820152fd5b50503461012b57611389600161137261135d366115b8565b505033865260026020526067858720016119b9565b500154338452600260205260698385200154611ede565b33835260026020526069828420015551f35b905082346114b0576113c791816113b136611516565b94909433835260026020526063878420016118e4565b50936113d1611c63565b508154865163dabb053160e01b815293840191909152829060249082906001600160a01b03165afa9283156114a657610a4e93836003938761142a9683848586918793889589978a998b9c611470575b50519d8e611603565b8d5260208d01528d8c015260608b015260808a015260a0890152151560c0880152151560e0870152151561010086015215156101208501521515610140840152016119d5565b99509a50505050505050505061149091503d808a833e610694818361161f565b9a90999198929793969495949392919038611421565b84513d84823e3d90fd5b80fd5b50503461012b578160031936011261012b5760209060ff600554169051908152f35b839085346114b0576107a5916003610179608060638761079f966114f836611516565b949097611504816115d2565b369037338152600260205220016118e4565b604090600319011261152c576004359060243590565b600080fd5b60005b8381106115445750506000910152565b8181015183820152602001611534565b9060209161156d81518092818552858086019101611531565b601f01601f1916010190565b90600090825b600483106115a1575050509060a08281608061159e9501520190611554565b90565b60019082518152602080910192019201919061157f565b606090600319011261152c57600435906024359060443590565b608081019081106001600160401b038211176115ed57604052565b634e487b7160e01b600052604160045260246000fd5b61016081019081106001600160401b038211176115ed57604052565b90601f801991011681019081106001600160401b038211176115ed57604052565b90600182811c92168015611670575b602083101461165a57565b634e487b7160e01b600052602260045260246000fd5b91607f169161164f565b906000929180549161168b83611640565b9182825260019384811690816000146116ed57506001146116ad575b50505050565b90919394506000526020928360002092846000945b8386106116d95750505050010190388080806116a7565b8054858701830152940193859082016116c2565b9294505050602093945060ff191683830152151560051b010190388080806116a7565b9060405161171d81611603565b61014060ff60068395805485526001810154602086015260028101546040860152600381015460608601526040516117638161175c816004860161167a565b038261161f565b608086015260405161177c8161175c816005860161167a565b60a08601520154818116151560c0850152818160081c16151560e0850152818160101c161515610100850152818160181c16151561012085015260201c161515910152565b906040519060e082018281106001600160401b038211176115ed576040526000825b6007908183101561180b579060206001926117fd88611710565b8152019501910190936117e3565b505050909150565b90815181526020820151602082015260408201516040820152606082015160608201526118646118526080840151610160806080860152840190611554565b60a084015183820360a0850152611554565b9160c0810151151560c083015260e0810151151560e0830152610100808201511515908301526101208082015115159083015261014080910151151591015290565b60e08201918060005b600781106118be575050505090565b909192936118d481856001930385528651611813565b94602090810194930191016118af565b9060028110156118f8576005020190600090565b634e487b7160e01b600052603260045260246000fd5b600019811461191d5760010190565b634e487b7160e01b600052601160045260246000fd5b81811061193e575050565b60008155600101611933565b90601f8111611957575050565b61197291600052601f6020600020910160051c810190611933565b565b9190601f811161198357505050565b611972926000526020600020906020601f840160051c830193106119af575b601f0160051c0190611933565b90915081906119a2565b80548210156118f8576000526007602060002091020190600090565b908154600160401b8110156115ed576119f59060019384820181556119b9565b611c4d5781518155602092838301518183015560408301516002830155606083015160038301556004820160808401519081516001600160401b03928382116115ed578190611a4e82611a488654611640565b86611974565b8890601f8311600114611bea57600092611bdf575b5050600019600383901b1c191690841b1790555b600583019160a08501519586519283116115ed57611a9983611a488654611640565b80601f8411600114611b6a57509180806006959361014097956119729a600094611b5f575b50501b916000199060031b1c19161790555b0191611aee60c08201511515849060ff801983541691151516179055565b60e0810151835461ff00191690151560081b61ff0016178355610100810151835462ff0000191690151560101b62ff000016178355610120810151835463ff000000191690151560181b63ff000000161783550151815464ff00000000191690151560201b64ff0000000016179055565b015192503880611abe565b9193949596601f1984168660005283600020936000905b828210611bc8575050926006959285926119729a9996610140999610611baf575b505050811b019055611ad0565b015160001960f88460031b161c19169055388080611ba2565b808886978294978701518155019601940190611b81565b015190503880611a63565b90869350601f19831691856000528a6000209260005b8c828210611c375750508411611c1e575b505050811b019055611a77565b015160001960f88460031b161c19169055388080611c11565b8385015186558a97909501949384019301611c00565b634e487b7160e01b600052600060045260246000fd5b60405190611c7082611603565b8161014060009182815282602082015282604082015282606082015260606080820152606060a08201528260c08201528260e082015282610100820152826101208201520152565b81601f8201121561152c5780516001600160401b0381116115ed5760405192611ceb601f8301601f19166020018561161f565b8184526020828401011161152c5761159e9160208085019101611531565b5190811515820361152c57565b6101608183031261152c5780519260208201519260408301519260608101519260808201516001600160401b039081811161152c5784611d57918501611cb8565b9360a084015191821161152c57611d6f918401611cb8565b91611d7c60c08201611d09565b91611d8960e08301611d09565b91611d976101008201611d09565b9161159e610140611dab6101208501611d09565b9301611d09565b611dba611c63565b50600060018060a01b0381541660015491806005604094611e02865160208101904282523360601b8982015283605482015260548152611df9816115d2565b5190209161190e565b600155068015611ed6575b602485518095819363dabb053160e01b835260048301525afa918215611eca57819382908384859086928794889689988a809c611e95575b505081519b611e538d611603565b8c5260208c01528a01526060890152608088015260a0870152151560c0860152151560e085015215156101008401521515610120830152151561014082015290565b99509950509950505050505050611eb692503d8091833e610694818361161f565b999a90989197929693959392913880611e45565b508251903d90823e3d90fd5b506001611e0d565b9190820391821161191d57565b90808214611fbf57611efd8154611640565b906001600160401b0382116115ed578190611f1c82611a488654611640565b600090601f8311600114611f5357600092611f48575b50508160011b916000199060031b1c1916179055565b015490503880611f32565b81526020808220858352818320935090601f1985169083905b828210611fa6575050908460019594939210611f8d575b505050811b019055565b015460001960f88460031b161c19169055388080611f83565b8495819295850154815560018091019601940190611f6c565b5050565b9190611c4d57808203611fd4575050565b60ff600680611972948454815560018501546001820155600285015460028201556003850154600382015561200f6004860160048301611eeb565b61201f6005860160058301611eeb565b01920161203b82825416849060ff801983541691151516179055565b8054835461ff001916600891821c8416151590911b61ff00161783558054835462ff00001916601091821c8416151590911b62ff0000161783558054835463ff0000001916601891821c8416151590911b63ff000000161783555460201c1664ff00000000825491151560201b169064ff000000001916179055565b6120c18154611640565b90816120cb575050565b81601f600093116001146120dd575055565b818352602083206120f991601f0160051c810190600101611933565b8160208120915555565b8054801561215557600019019061211a82826119b9565b611c4d576006816000809355826001820155826002820155826003820155612144600482016120b7565b612150600582016120b7565b015555565b634e487b7160e01b600052603160045260246000fdfea2646970667358221220c6a041905b53ec3c00d496f7cac9bbf93ec50134e55872ada83bcfcc3288ed7064736f6c63430008100033",
  "linkReferences": {},
  "deployedLinkReferences": {}
}