{
  "_format": "hh-sol-artifact-1",
  "contractName": "Hearthstone",
  "sourceName": "contracts/Hearthstone.sol",
  "abi": [
    {
      "inputs": [
        {
          "internalType": "address",
          "name": "_address",
          "type": "address"
        }
      ],
      "stateMutability": "nonpayable",
      "type": "constructor"
    },
    {
      "anonymous": false,
      "inputs": [],
      "name": "attackEvent",
      "type": "event"
    },
    {
      "anonymous": false,
      "inputs": [
        {
          "indexed": false,
          "internalType": "uint256",
          "name": "player",
          "type": "uint256"
        },
        {
          "indexed": false,
          "internalType": "uint256",
          "name": "minion",
          "type": "uint256"
        }
      ],
      "name": "deathRattleEvent",
      "type": "event"
    },
    {
      "anonymous": false,
      "inputs": [
        {
          "components": [
            {
              "internalType": "uint256",
              "name": "health",
              "type": "uint256"
            },
            {
              "internalType": "uint256",
              "name": "attack",
              "type": "uint256"
            },
            {
              "internalType": "uint256",
              "name": "manaCost",
              "type": "uint256"
            },
            {
              "internalType": "uint256",
              "name": "id",
              "type": "uint256"
            },
            {
              "internalType": "string",
              "name": "name",
              "type": "string"
            },
            {
              "internalType": "string",
              "name": "description",
              "type": "string"
            },
            {
              "internalType": "bool",
              "name": "taunt",
              "type": "bool"
            },
            {
              "internalType": "bool",
              "name": "windfury",
              "type": "bool"
            },
            {
              "internalType": "bool",
              "name": "divineshield",
              "type": "bool"
            },
            {
              "internalType": "bool",
              "name": "stealth",
              "type": "bool"
            },
            {
              "internalType": "bool",
              "name": "poisonious",
              "type": "bool"
            },
            {
              "internalType": "bool",
              "name": "asleep",
              "type": "bool"
            }
          ],
          "indexed": false,
          "internalType": "struct Hearthstone.Champs",
          "name": "str",
          "type": "tuple"
        }
      ],
      "name": "drawn",
      "type": "event"
    },
    {
      "anonymous": false,
      "inputs": [],
      "name": "endTurnEvent",
      "type": "event"
    },
    {
      "anonymous": false,
      "inputs": [],
      "name": "gameCreatedEvent",
      "type": "event"
    },
    {
      "anonymous": false,
      "inputs": [],
      "name": "playMinionEvent",
      "type": "event"
    },
    {
      "anonymous": false,
      "inputs": [
        {
          "indexed": false,
          "internalType": "uint256",
          "name": "player",
          "type": "uint256"
        }
      ],
      "name": "victoryEvent",
      "type": "event"
    },
    {
      "inputs": [
        {
          "internalType": "uint256",
          "name": "_handCardChosen",
          "type": "uint256"
        },
        {
          "internalType": "uint256",
          "name": "_posistion",
          "type": "uint256"
        },
        {
          "internalType": "uint256",
          "name": "_player",
          "type": "uint256"
        }
      ],
      "name": "ability",
      "outputs": [],
      "stateMutability": "nonpayable",
      "type": "function"
    },
    {
      "inputs": [
        {
          "internalType": "uint256",
          "name": "minion",
          "type": "uint256"
        },
        {
          "internalType": "uint256",
          "name": "target",
          "type": "uint256"
        },
        {
          "internalType": "uint256",
          "name": "_player",
          "type": "uint256"
        },
        {
          "internalType": "uint256",
          "name": "_chosen",
          "type": "uint256"
        }
      ],
      "name": "attack",
      "outputs": [],
      "stateMutability": "nonpayable",
      "type": "function"
    },
    {
      "inputs": [
        {
          "internalType": "uint256",
          "name": "_player",
          "type": "uint256"
        }
      ],
      "name": "boardSize",
      "outputs": [
        {
          "internalType": "uint256",
          "name": "",
          "type": "uint256"
        }
      ],
      "stateMutability": "view",
      "type": "function"
    },
    {
      "inputs": [],
      "name": "charC",
      "outputs": [
        {
          "internalType": "contract Characters",
          "name": "",
          "type": "address"
        }
      ],
      "stateMutability": "view",
      "type": "function"
    },
    {
      "inputs": [],
      "name": "clear",
      "outputs": [],
      "stateMutability": "nonpayable",
      "type": "function"
    },
    {
      "inputs": [
        {
          "internalType": "string",
          "name": "_username",
          "type": "string"
        }
      ],
      "name": "createGame",
      "outputs": [],
      "stateMutability": "nonpayable",
      "type": "function"
    },
    {
      "inputs": [
        {
          "internalType": "uint256",
          "name": "_player",
          "type": "uint256"
        }
      ],
      "name": "drawCards",
      "outputs": [],
      "stateMutability": "nonpayable",
      "type": "function"
    },
    {
      "inputs": [
        {
          "internalType": "uint256",
          "name": "_player",
          "type": "uint256"
        }
      ],
      "name": "endTurn",
      "outputs": [],
      "stateMutability": "nonpayable",
      "type": "function"
    },
    {
      "inputs": [
        {
          "internalType": "address",
          "name": "",
          "type": "address"
        }
      ],
      "name": "games",
      "outputs": [
        {
          "internalType": "uint256",
          "name": "gameId",
          "type": "uint256"
        },
        {
          "components": [
            {
              "components": [
                {
                  "internalType": "uint256",
                  "name": "health",
                  "type": "uint256"
                },
                {
                  "internalType": "uint256",
                  "name": "attack",
                  "type": "uint256"
                },
                {
                  "internalType": "uint256",
                  "name": "manaCost",
                  "type": "uint256"
                },
                {
                  "internalType": "uint256",
                  "name": "id",
                  "type": "uint256"
                },
                {
                  "internalType": "string",
                  "name": "name",
                  "type": "string"
                },
                {
                  "internalType": "string",
                  "name": "description",
                  "type": "string"
                },
                {
                  "internalType": "bool",
                  "name": "taunt",
                  "type": "bool"
                },
                {
                  "internalType": "bool",
                  "name": "windfury",
                  "type": "bool"
                },
                {
                  "internalType": "bool",
                  "name": "divineshield",
                  "type": "bool"
                },
                {
                  "internalType": "bool",
                  "name": "stealth",
                  "type": "bool"
                },
                {
                  "internalType": "bool",
                  "name": "poisonious",
                  "type": "bool"
                },
                {
                  "internalType": "bool",
                  "name": "asleep",
                  "type": "bool"
                }
              ],
              "internalType": "struct Hearthstone.Champs[7]",
              "name": "player1Row",
              "type": "tuple[7]"
            },
            {
              "components": [
                {
                  "internalType": "uint256",
                  "name": "health",
                  "type": "uint256"
                },
                {
                  "internalType": "uint256",
                  "name": "attack",
                  "type": "uint256"
                },
                {
                  "internalType": "uint256",
                  "name": "manaCost",
                  "type": "uint256"
                },
                {
                  "internalType": "uint256",
                  "name": "id",
                  "type": "uint256"
                },
                {
                  "internalType": "string",
                  "name": "name",
                  "type": "string"
                },
                {
                  "internalType": "string",
                  "name": "description",
                  "type": "string"
                },
                {
                  "internalType": "bool",
                  "name": "taunt",
                  "type": "bool"
                },
                {
                  "internalType": "bool",
                  "name": "windfury",
                  "type": "bool"
                },
                {
                  "internalType": "bool",
                  "name": "divineshield",
                  "type": "bool"
                },
                {
                  "internalType": "bool",
                  "name": "stealth",
                  "type": "bool"
                },
                {
                  "internalType": "bool",
                  "name": "poisonious",
                  "type": "bool"
                },
                {
                  "internalType": "bool",
                  "name": "asleep",
                  "type": "bool"
                }
              ],
              "internalType": "struct Hearthstone.Champs[7]",
              "name": "player2Row",
              "type": "tuple[7]"
            }
          ],
          "internalType": "struct Hearthstone.Board",
          "name": "board",
          "type": "tuple"
        }
      ],
      "stateMutability": "view",
      "type": "function"
    },
    {
      "inputs": [
        {
          "internalType": "uint256",
          "name": "id",
          "type": "uint256"
        }
      ],
      "name": "getAttack",
      "outputs": [
        {
          "internalType": "uint256",
          "name": "",
          "type": "uint256"
        }
      ],
      "stateMutability": "view",
      "type": "function"
    },
    {
      "inputs": [
        {
          "internalType": "uint256",
          "name": "_player",
          "type": "uint256"
        }
      ],
      "name": "getBoard",
      "outputs": [
        {
          "components": [
            {
              "internalType": "uint256",
              "name": "health",
              "type": "uint256"
            },
            {
              "internalType": "uint256",
              "name": "attack",
              "type": "uint256"
            },
            {
              "internalType": "uint256",
              "name": "manaCost",
              "type": "uint256"
            },
            {
              "internalType": "uint256",
              "name": "id",
              "type": "uint256"
            },
            {
              "internalType": "string",
              "name": "name",
              "type": "string"
            },
            {
              "internalType": "string",
              "name": "description",
              "type": "string"
            },
            {
              "internalType": "bool",
              "name": "taunt",
              "type": "bool"
            },
            {
              "internalType": "bool",
              "name": "windfury",
              "type": "bool"
            },
            {
              "internalType": "bool",
              "name": "divineshield",
              "type": "bool"
            },
            {
              "internalType": "bool",
              "name": "stealth",
              "type": "bool"
            },
            {
              "internalType": "bool",
              "name": "poisonious",
              "type": "bool"
            },
            {
              "internalType": "bool",
              "name": "asleep",
              "type": "bool"
            }
          ],
          "internalType": "struct Hearthstone.Champs[]",
          "name": "",
          "type": "tuple[]"
        }
      ],
      "stateMutability": "view",
      "type": "function"
    },
    {
      "inputs": [],
      "name": "getGame",
      "outputs": [
        {
          "components": [
            {
              "internalType": "uint256",
              "name": "gameId",
              "type": "uint256"
            },
            {
              "components": [
                {
                  "components": [
                    {
                      "internalType": "uint256",
                      "name": "health",
                      "type": "uint256"
                    },
                    {
                      "internalType": "uint256",
                      "name": "attack",
                      "type": "uint256"
                    },
                    {
                      "internalType": "uint256",
                      "name": "manaCost",
                      "type": "uint256"
                    },
                    {
                      "internalType": "uint256",
                      "name": "id",
                      "type": "uint256"
                    },
                    {
                      "internalType": "string",
                      "name": "name",
                      "type": "string"
                    },
                    {
                      "internalType": "string",
                      "name": "description",
                      "type": "string"
                    },
                    {
                      "internalType": "bool",
                      "name": "taunt",
                      "type": "bool"
                    },
                    {
                      "internalType": "bool",
                      "name": "windfury",
                      "type": "bool"
                    },
                    {
                      "internalType": "bool",
                      "name": "divineshield",
                      "type": "bool"
                    },
                    {
                      "internalType": "bool",
                      "name": "stealth",
                      "type": "bool"
                    },
                    {
                      "internalType": "bool",
                      "name": "poisonious",
                      "type": "bool"
                    },
                    {
                      "internalType": "bool",
                      "name": "asleep",
                      "type": "bool"
                    }
                  ],
                  "internalType": "struct Hearthstone.Champs[7]",
                  "name": "player1Row",
                  "type": "tuple[7]"
                },
                {
                  "components": [
                    {
                      "internalType": "uint256",
                      "name": "health",
                      "type": "uint256"
                    },
                    {
                      "internalType": "uint256",
                      "name": "attack",
                      "type": "uint256"
                    },
                    {
                      "internalType": "uint256",
                      "name": "manaCost",
                      "type": "uint256"
                    },
                    {
                      "internalType": "uint256",
                      "name": "id",
                      "type": "uint256"
                    },
                    {
                      "internalType": "string",
                      "name": "name",
                      "type": "string"
                    },
                    {
                      "internalType": "string",
                      "name": "description",
                      "type": "string"
                    },
                    {
                      "internalType": "bool",
                      "name": "taunt",
                      "type": "bool"
                    },
                    {
                      "internalType": "bool",
                      "name": "windfury",
                      "type": "bool"
                    },
                    {
                      "internalType": "bool",
                      "name": "divineshield",
                      "type": "bool"
                    },
                    {
                      "internalType": "bool",
                      "name": "stealth",
                      "type": "bool"
                    },
                    {
                      "internalType": "bool",
                      "name": "poisonious",
                      "type": "bool"
                    },
                    {
                      "internalType": "bool",
                      "name": "asleep",
                      "type": "bool"
                    }
                  ],
                  "internalType": "struct Hearthstone.Champs[7]",
                  "name": "player2Row",
                  "type": "tuple[7]"
                }
              ],
              "internalType": "struct Hearthstone.Board",
              "name": "board",
              "type": "tuple"
            },
            {
              "components": [
                {
                  "internalType": "string",
                  "name": "username",
                  "type": "string"
                },
                {
                  "internalType": "uint256",
                  "name": "health",
                  "type": "uint256"
                },
                {
                  "internalType": "uint256",
                  "name": "mana",
                  "type": "uint256"
                },
                {
                  "internalType": "uint256",
                  "name": "unspendMana",
                  "type": "uint256"
                },
                {
                  "components": [
                    {
                      "internalType": "uint256",
                      "name": "health",
                      "type": "uint256"
                    },
                    {
                      "internalType": "uint256",
                      "name": "attack",
                      "type": "uint256"
                    },
                    {
                      "internalType": "uint256",
                      "name": "manaCost",
                      "type": "uint256"
                    },
                    {
                      "internalType": "uint256",
                      "name": "id",
                      "type": "uint256"
                    },
                    {
                      "internalType": "string",
                      "name": "name",
                      "type": "string"
                    },
                    {
                      "internalType": "string",
                      "name": "description",
                      "type": "string"
                    },
                    {
                      "internalType": "bool",
                      "name": "taunt",
                      "type": "bool"
                    },
                    {
                      "internalType": "bool",
                      "name": "windfury",
                      "type": "bool"
                    },
                    {
                      "internalType": "bool",
                      "name": "divineshield",
                      "type": "bool"
                    },
                    {
                      "internalType": "bool",
                      "name": "stealth",
                      "type": "bool"
                    },
                    {
                      "internalType": "bool",
                      "name": "poisonious",
                      "type": "bool"
                    },
                    {
                      "internalType": "bool",
                      "name": "asleep",
                      "type": "bool"
                    }
                  ],
                  "internalType": "struct Hearthstone.Champs[]",
                  "name": "minions",
                  "type": "tuple[]"
                },
                {
                  "components": [
                    {
                      "internalType": "uint256",
                      "name": "health",
                      "type": "uint256"
                    },
                    {
                      "internalType": "uint256",
                      "name": "attack",
                      "type": "uint256"
                    },
                    {
                      "internalType": "uint256",
                      "name": "manaCost",
                      "type": "uint256"
                    },
                    {
                      "internalType": "uint256",
                      "name": "id",
                      "type": "uint256"
                    },
                    {
                      "internalType": "string",
                      "name": "name",
                      "type": "string"
                    },
                    {
                      "internalType": "string",
                      "name": "description",
                      "type": "string"
                    },
                    {
                      "internalType": "bool",
                      "name": "taunt",
                      "type": "bool"
                    },
                    {
                      "internalType": "bool",
                      "name": "windfury",
                      "type": "bool"
                    },
                    {
                      "internalType": "bool",
                      "name": "divineshield",
                      "type": "bool"
                    },
                    {
                      "internalType": "bool",
                      "name": "stealth",
                      "type": "bool"
                    },
                    {
                      "internalType": "bool",
                      "name": "poisonious",
                      "type": "bool"
                    },
                    {
                      "internalType": "bool",
                      "name": "asleep",
                      "type": "bool"
                    }
                  ],
                  "internalType": "struct Hearthstone.Champs[]",
                  "name": "hand",
                  "type": "tuple[]"
                }
              ],
              "internalType": "struct Hearthstone.Player[2]",
              "name": "player",
              "type": "tuple[2]"
            }
          ],
          "internalType": "struct Hearthstone.Game",
          "name": "",
          "type": "tuple"
        }
      ],
      "stateMutability": "view",
      "type": "function"
    },
    {
      "inputs": [
        {
          "internalType": "uint256",
          "name": "_player",
          "type": "uint256"
        }
      ],
      "name": "getHand",
      "outputs": [
        {
          "components": [
            {
              "internalType": "uint256",
              "name": "health",
              "type": "uint256"
            },
            {
              "internalType": "uint256",
              "name": "attack",
              "type": "uint256"
            },
            {
              "internalType": "uint256",
              "name": "manaCost",
              "type": "uint256"
            },
            {
              "internalType": "uint256",
              "name": "id",
              "type": "uint256"
            },
            {
              "internalType": "string",
              "name": "name",
              "type": "string"
            },
            {
              "internalType": "string",
              "name": "description",
              "type": "string"
            },
            {
              "internalType": "bool",
              "name": "taunt",
              "type": "bool"
            },
            {
              "internalType": "bool",
              "name": "windfury",
              "type": "bool"
            },
            {
              "internalType": "bool",
              "name": "divineshield",
              "type": "bool"
            },
            {
              "internalType": "bool",
              "name": "stealth",
              "type": "bool"
            },
            {
              "internalType": "bool",
              "name": "poisonious",
              "type": "bool"
            },
            {
              "internalType": "bool",
              "name": "asleep",
              "type": "bool"
            }
          ],
          "internalType": "struct Hearthstone.Champs[]",
          "name": "",
          "type": "tuple[]"
        }
      ],
      "stateMutability": "view",
      "type": "function"
    },
    {
      "inputs": [],
      "name": "getHealthBot",
      "outputs": [
        {
          "internalType": "uint256",
          "name": "",
          "type": "uint256"
        }
      ],
      "stateMutability": "view",
      "type": "function"
    },
    {
      "inputs": [],
      "name": "getHealthPlayer",
      "outputs": [
        {
          "internalType": "uint256",
          "name": "",
          "type": "uint256"
        }
      ],
      "stateMutability": "view",
      "type": "function"
    },
    {
      "inputs": [
        {
          "internalType": "uint256",
          "name": "minionId",
          "type": "uint256"
        }
      ],
      "name": "getMinionById",
      "outputs": [
        {
          "components": [
            {
              "internalType": "uint256",
              "name": "health",
              "type": "uint256"
            },
            {
              "internalType": "uint256",
              "name": "attack",
              "type": "uint256"
            },
            {
              "internalType": "uint256",
              "name": "manaCost",
              "type": "uint256"
            },
            {
              "internalType": "uint256",
              "name": "id",
              "type": "uint256"
            },
            {
              "internalType": "string",
              "name": "name",
              "type": "string"
            },
            {
              "internalType": "string",
              "name": "description",
              "type": "string"
            },
            {
              "internalType": "bool",
              "name": "taunt",
              "type": "bool"
            },
            {
              "internalType": "bool",
              "name": "windfury",
              "type": "bool"
            },
            {
              "internalType": "bool",
              "name": "divineshield",
              "type": "bool"
            },
            {
              "internalType": "bool",
              "name": "stealth",
              "type": "bool"
            },
            {
              "internalType": "bool",
              "name": "poisonious",
              "type": "bool"
            },
            {
              "internalType": "bool",
              "name": "asleep",
              "type": "bool"
            }
          ],
          "internalType": "struct Hearthstone.Champs",
          "name": "",
          "type": "tuple"
        }
      ],
      "stateMutability": "nonpayable",
      "type": "function"
    },
    {
      "inputs": [
        {
          "internalType": "uint256",
          "name": "_player",
          "type": "uint256"
        }
      ],
      "name": "getPlayer",
      "outputs": [
        {
          "components": [
            {
              "internalType": "string",
              "name": "username",
              "type": "string"
            },
            {
              "internalType": "uint256",
              "name": "health",
              "type": "uint256"
            },
            {
              "internalType": "uint256",
              "name": "mana",
              "type": "uint256"
            },
            {
              "internalType": "uint256",
              "name": "unspendMana",
              "type": "uint256"
            },
            {
              "components": [
                {
                  "internalType": "uint256",
                  "name": "health",
                  "type": "uint256"
                },
                {
                  "internalType": "uint256",
                  "name": "attack",
                  "type": "uint256"
                },
                {
                  "internalType": "uint256",
                  "name": "manaCost",
                  "type": "uint256"
                },
                {
                  "internalType": "uint256",
                  "name": "id",
                  "type": "uint256"
                },
                {
                  "internalType": "string",
                  "name": "name",
                  "type": "string"
                },
                {
                  "internalType": "string",
                  "name": "description",
                  "type": "string"
                },
                {
                  "internalType": "bool",
                  "name": "taunt",
                  "type": "bool"
                },
                {
                  "internalType": "bool",
                  "name": "windfury",
                  "type": "bool"
                },
                {
                  "internalType": "bool",
                  "name": "divineshield",
                  "type": "bool"
                },
                {
                  "internalType": "bool",
                  "name": "stealth",
                  "type": "bool"
                },
                {
                  "internalType": "bool",
                  "name": "poisonious",
                  "type": "bool"
                },
                {
                  "internalType": "bool",
                  "name": "asleep",
                  "type": "bool"
                }
              ],
              "internalType": "struct Hearthstone.Champs[]",
              "name": "minions",
              "type": "tuple[]"
            },
            {
              "components": [
                {
                  "internalType": "uint256",
                  "name": "health",
                  "type": "uint256"
                },
                {
                  "internalType": "uint256",
                  "name": "attack",
                  "type": "uint256"
                },
                {
                  "internalType": "uint256",
                  "name": "manaCost",
                  "type": "uint256"
                },
                {
                  "internalType": "uint256",
                  "name": "id",
                  "type": "uint256"
                },
                {
                  "internalType": "string",
                  "name": "name",
                  "type": "string"
                },
                {
                  "internalType": "string",
                  "name": "description",
                  "type": "string"
                },
                {
                  "internalType": "bool",
                  "name": "taunt",
                  "type": "bool"
                },
                {
                  "internalType": "bool",
                  "name": "windfury",
                  "type": "bool"
                },
                {
                  "internalType": "bool",
                  "name": "divineshield",
                  "type": "bool"
                },
                {
                  "internalType": "bool",
                  "name": "stealth",
                  "type": "bool"
                },
                {
                  "internalType": "bool",
                  "name": "poisonious",
                  "type": "bool"
                },
                {
                  "internalType": "bool",
                  "name": "asleep",
                  "type": "bool"
                }
              ],
              "internalType": "struct Hearthstone.Champs[]",
              "name": "hand",
              "type": "tuple[]"
            }
          ],
          "internalType": "struct Hearthstone.Player",
          "name": "",
          "type": "tuple"
        }
      ],
      "stateMutability": "view",
      "type": "function"
    },
    {
      "inputs": [],
      "name": "getTurn",
      "outputs": [
        {
          "internalType": "uint8",
          "name": "",
          "type": "uint8"
        }
      ],
      "stateMutability": "view",
      "type": "function"
    },
    {
      "inputs": [],
      "name": "handSize",
      "outputs": [
        {
          "internalType": "uint256",
          "name": "",
          "type": "uint256"
        }
      ],
      "stateMutability": "view",
      "type": "function"
    },
    {
      "inputs": [
        {
          "internalType": "uint256",
          "name": "_player",
          "type": "uint256"
        },
        {
          "internalType": "uint256",
          "name": "_handIndex",
          "type": "uint256"
        }
      ],
      "name": "playMinion",
      "outputs": [],
      "stateMutability": "nonpayable",
      "type": "function"
    },
    {
      "inputs": [
        {
          "internalType": "uint256",
          "name": "minionId",
          "type": "uint256"
        },
        {
          "internalType": "uint256",
          "name": "_player",
          "type": "uint256"
        }
      ],
      "name": "playMinionById",
      "outputs": [],
      "stateMutability": "nonpayable",
      "type": "function"
    },
    {
      "inputs": [
        {
          "internalType": "uint256",
          "name": "_player",
          "type": "uint256"
        }
      ],
      "name": "playerDrawCard",
      "outputs": [],
      "stateMutability": "nonpayable",
      "type": "function"
    },
    {
      "inputs": [
        {
          "internalType": "uint256",
          "name": "id",
          "type": "uint256"
        },
        {
          "internalType": "uint256",
          "name": "_player",
          "type": "uint256"
        }
      ],
      "name": "showboardplace",
      "outputs": [
        {
          "internalType": "uint256[4]",
          "name": "",
          "type": "uint256[4]"
        },
        {
          "internalType": "string",
          "name": "",
          "type": "string"
        }
      ],
      "stateMutability": "view",
      "type": "function"
    },
    {
      "inputs": [
        {
          "internalType": "uint256",
          "name": "id",
          "type": "uint256"
        }
      ],
      "name": "showcard",
      "outputs": [
        {
          "internalType": "uint256[4]",
          "name": "",
          "type": "uint256[4]"
        },
        {
          "internalType": "string",
          "name": "",
          "type": "string"
        }
      ],
      "stateMutability": "view",
      "type": "function"
    },
    {
      "inputs": [
        {
          "internalType": "uint256",
          "name": "minion",
          "type": "uint256"
        },
        {
          "internalType": "uint256",
          "name": "chosen",
          "type": "uint256"
        },
        {
          "internalType": "uint256",
          "name": "player",
          "type": "uint256"
        }
      ],
      "name": "trigger",
      "outputs": [],
      "stateMutability": "nonpayable",
      "type": "function"
    },
    {
      "inputs": [
        {
          "internalType": "address",
          "name": "",
          "type": "address"
        }
      ],
      "name": "usernames",
      "outputs": [
        {
          "internalType": "string",
          "name": "",
          "type": "string"
        }
      ],
      "stateMutability": "view",
      "type": "function"
    }
  ],
  "bytecode": "0x60803461009457601f6129d538819003918201601f19168301916001600160401b038311848410176100995780849260209460405283398101031261009457516001600160a01b03811690819003610094576000600155600060055561010062ffffff19600654161760065560018060a01b031933816002541617600255600054161760005560405161292590816100b08239f35b600080fd5b634e487b7160e01b600052604160045260246000fdfe608080604052600436101561001357600080fd5b60003560e01c90816304c51d5b146113a65750806328e072441461138557806329b62c2c14610f3257806329d48b2714610ef95780632e4851b314610ce85780632ebc050414610b02578063361aeddf14610abb578063428e866114610a8e5780634494fd9f1461092257806345e09e54146108ee57806349045d041461087b57806352efea6e14610838578063605aa499146107fd57806379131a191461079f5780638219b00c1461076c578063848ae301146106e2578063919d1f3f146106b55780639dbc88a31461068c578063a52fcee214610541578063b6ead70714610514578063cff840f0146103fd578063d47f269e146103ad578063e55ae4e814610357578063ee91877c14610301578063f7f39fb5146102e85763faa421cb1461013d57600080fd5b346102e35761014b366113e7565b9033600052600360205261016b604060002091606360406000200161195d565b509061017b600583019384611af8565b509160038101918254926002850154938481106102ac5760049461019e91611aeb565b9055600560038501541461028e575b500180549091600160401b821015610278576101d36101d9926001948582018155611af8565b90612221565b6000815b610216575b6101eb83612336565b60006040517f9d834392f57c159720f66a479989ac6a20017fc8cc60f0a04f78dfedfce8f7be8282a1f35b8254600019810190811161025d578110156102735781810180821161025d5782916102526102476102579387611af8565b506101d38388611af8565b611adc565b906101dd565b634e487b7160e01b600052601160045260246000fd5b6101e2565b634e487b7160e01b600052604160045260246000fd5b606d816102a060676102a6940161209f565b0161209f565b386101ad565b60405162461bcd60e51b815260206004820152600f60248201526e6e6f7420656e6f756768206d616e6160881b6044820152606490fd5b600080fd5b346102e3576102ff6102f936611910565b9161248f565b005b346102e35760203660031901126102e3576004356001600160a01b038116908190036102e357600052600460205261035361033f6040600020611743565b604051918291602083526020830190611420565b0390f35b346102e35760203660031901126102e35761037061192a565b50336000526003602052610353610399610393600435606360406000200161195d565b506119e7565b6040519182916020835260208301906116ac565b346102e35760203660031901126102e3573360005260036020526103536103e960056103e2600435606360406000200161195d565b5001611987565b604051918291602083526020830190611650565b346102e35760203660031901126102e3576000805460405163dabb053160e01b815260048035908201529190829060249082906001600160a01b03165afa9081156105085760209160008091600080600080600080916000936000956000976000996104c5575b6040519b9c506101609a6104778d6114d5565b8c528c8e8d015260408c015260608b015260808a015260a0890152151560c0880152151560e08701521515610100860152151561012085015215156101408401521515910152604051908152f35b5050505050505050505050506104f0610160913d806000833e6104e8818361150c565b810190611e6b565b999b508b9a9998909791969295939493929190610464565b6040513d6000823e3d90fd5b346102e35760003660031901126102e3573360005260036020526020606460406000200154604051908152f35b346102e357600361055136611910565b91336000528360205260046105b161059a8261057487606360406000200161195d565b500154933360005287602052600561059388606360406000200161195d565b5001611af8565b50943360005286602052606360406000200161195d565b50019260019485910154146105c257005b6105c857005b82811461062e575b806102ff5782810180911161025d57826105ea8284611af8565b500180549084820180921161025d57556106048183611af8565b509081549284840180941161025d576006936106209355611af8565b50019060ff19825416179055005b600019810181811161025d57836106458285611af8565b500180549085820180921161025d575561065f8184611af8565b5080549185830180931161025d5760069261067b925584611af8565b5001805460ff1916841790556105d0565b346102e35760003660031901126102e3576000546040516001600160a01b039091168152602090f35b346102e35760003660031901126102e3573360005260036020526020606860406000200154604051908152f35b346102e35760203660031901126102e357608060405161070181611484565b3690373360005260036020526107296107236004356068604060002001611af8565b506117e9565b60806040519161073883611484565b8051835260208101516020840152604081015160408401526060810151606084015201519061035360405192839283611445565b346102e35760203660031901126102e35761035361078b60043561239e565b604051918291602083526020830190611548565b346102e35760203660031901126102e3576004356001600160a01b038116908190036102e357600052600360205260406000206107e06001825492016118e4565b906103536040519283928352604060208401526040830190611626565b346102e35760203660031901126102e3573360005260036020526020600461082d8135606360406000200161195d565b500154604051908152f35b346102e35760003660031901126102e357336000526003602052610862606760406000200161209f565b3360005260036020526102ff606d60406000200161209f565b346102e35760203660031901126102e3573360005260036020526108bd6108ab600435606360406000200161195d565b5060056108b6611f16565b9101611b70565b7f9d25e243cca950cc84edd521cfa7190d7f336098c9a7b12886a7b37092e2b3c66108e961078b611f16565b0390a1005b346102e35760203660031901126102e3573360005260036020526103536103e960046103e28135606360406000200161195d565b346102e35760003660031901126102e35760405161093f8161149f565b6000815260405190610950826114ba565b610958611a99565b8252610962611a99565b91602092838201528282015260405161097a816114ba565b8260005b60408110610a7a575091604001523360005260038152604060002090604051906109a78261149f565b825482526001906109b98285016118e4565b818401908152604051946109cc866114ba565b6063016000865b60028210610a5757505050610a07906040850195865260405194838652518386015251606060408601526080850190611626565b9351838503601f19016060850152604085019490916000825b60028210610a2e5786880387f35b90919293948380610a468a88859c03865289516116ac565b999701959493919091019101610a20565b9460068582999697610a68866119e7565b815201930191019091969493966109d3565b610a8261192a565b8184015201839061097e565b346102e35760003660031901126102e3573360005260036020526020606a60406000200154604051908152f35b346102e3576020806003193601126102e35760043560005b60068110610add57005b610afd9033600052600384526102526108ab84606360406000200161195d565b610ad3565b346102e3576020806003193601126102e3576004356001600160401b03918282116102e357366023830112156102e3578160040135610b408161152d565b92610b4e604051948561150c565b81845236602483830101116102e357816000926024859301838701378401015233600052600381526040600020606381016040600020946069860194805191821161027857610ba782610ba18554611709565b85611b2b565b8490601f8311600114610c7657936005979593838994606694606c9a98600092610c6b575b50508160011b916000199060031b1c19161790555b601e60648201558260658201550155610bfa8254611709565b601f8111610c4b575b5050600662109bdd60ea1b019055601e606a82015582606b820155015560006040517f29d3e2e5ff5c602e246b6e37383e06720dd4b95fb255e101ceb33358f9f747ee8282a1f35b601f610c6492846000526000209101861c810190611b14565b8480610c03565b015190508b80610bcc565b90601f1983169184600052866000209260005b818110610cd1575084606694606c9a989460059c9a98948d9860019510610cb8575b505050811b019055610be1565b015160001960f88460031b161c191690558b8080610cab565b929388600181928786015181550195019301610c89565b346102e3576020806003193601126102e357600435906006918060ff84541603610ec057336000526003908183526063906004610d2b828460406000200161195d565b500154610e4d575b33600052828452600a6005610d4e838560406000200161195d565b50015410610e2e575b33600052828452600a6002610d72838560406000200161195d565b50015410610dfd575b610dad9133600052838552836002610d99848460406000200161195d565b50015495336000525260406000200161195d565b500155805460ff8116610df25750805460ff191660011790555b60006040517fffba4f5b59315b99e6a53cdb69ccf9db48d73d6b16b96896d2e2687f39b6c3738282a1f35b60ff19169055610dc7565b336000528284526002610e16828460406000200161195d565b50019182546001810180911161025d57909255610d7b565b33600052828452610e486108ab828460406000200161195d565b610d57565b9160005b336000528185526004610e6a858560406000200161195d565b500154600019810190811161025d57811015610eb957610eb4903360005282865286610ea2826004610593898960406000200161195d565b5001805460ff60281b19169055611adc565b610e51565b5091610d33565b60405162461bcd60e51b815260048101839052601160248201527034ba39903737ba103cb7bab9103a3ab93760791b6044820152606490fd5b346102e3576102ff610f2b60046108b6610f12366113e7565b939093336000526003602052606360406000200161195d565b509261239e565b346102e35760803660031901126102e35733600052600360205260ff6006610f72610f66604435606360406000200161195d565b50600480359101611af8565b50015460281c166113345760443561132d5760015b3360005260036020526001610fa8610f66604435606360406000200161195d565b50015460243561029a0361109057336000526003602052610fde816001610fd685606360406000200161195d565b500154611aeb565b61104d5750506201000062ffff001960065416176006557f48d3181a3c4a9996aa8d7e23996532aeb8471a0e745e756a2599bdd6d0caf60760206040516044358152a15b60006040517f9e9c27539e247f05c5c2897a7ea1bc1678374bc53fd25a29457b8152c5e4f5de8282a1f35b61108861107160019233600052600360205283610fd686606360406000200161195d565b92336000526003602052606360406000200161195d565b500155611022565b33600052600360205260016110bc6110af84606360406000200161195d565b5060046024359101611af8565b5001543360005260036020526110dc6110af84606360406000200161195d565b503360005260036020526110fc610f66604435606360406000200161195d565b5060068101805460ff60281b191665010000000000179055815490939081811161131c57505050906024355b336000526003602052600461114485606360406000200161195d565b500154600019810190811161025d578110156111bd5733600052600360205261117484606360406000200161195d565b509060018101811161025d576102526111976111b8936004600185019101611af8565b503360005260036020526101d38360046105938a606360406000200161195d565b611128565b50903360005260036020526111e560046111de85606360406000200161195d565b5001612336565b6111f4602435604435856125cb565b33600052600360205280611214610f66604435606360406000200161195d565b5054116112f05750506004355b336000526003602052600461123f604435606360406000200161195d565b500154600019810190811161025d578110156112b957336000526003602052611271604435606360406000200161195d565b50906001810180821161025d576112916102529160046112b49501611af8565b503360005260036020526101d3836004610593604435606360406000200161195d565b611221565b506112eb903360005260036020526112df60046111de604435606360406000200161195d565b600435906044356125cb565b611022565b60029250906113026003928254611aeb565b8155015403611022576112eb60443560643560043561248f565b9061132691611aeb565b90556111f4565b6000610f87565b60405162461bcd60e51b8152602060048201526024808201527f596f75277265206d696e696f6e2069732061736c6565702c20776169742061206044820152633a3ab93760e11b6064820152608490fd5b346102e35760003660031901126102e357602060ff60065416604051908152f35b346102e35761072361072991600461059360806113c2366113e7565b9190946113ce81611484565b369037336000526003602052606360406000200161195d565b60409060031901126102e3576004359060243590565b60005b8381106114105750506000910152565b8181015183820152602001611400565b90602091611439815180928185528580860191016113fd565b601f01601f1916010190565b90600090825b6004831061146d575050509060a08281608061146a9501520190611420565b90565b60019082518152602080910192019201919061144b565b608081019081106001600160401b0382111761027857604052565b606081019081106001600160401b0382111761027857604052565b604081019081106001600160401b0382111761027857604052565b61018081019081106001600160401b0382111761027857604052565b60c081019081106001600160401b0382111761027857604052565b90601f801991011681019081106001600160401b0382111761027857604052565b6001600160401b03811161027857601f01601f191660200190565b90815181526020820151602082015260408201516040820152606082015160608201526115996115876080840151610180806080860152840190611420565b60a084015183820360a0850152611420565b9160c0810151151560c083015260e0810151151560e083015261010080820151151590830152610120808201511515908301526101408082015115159083015261016080910151151591015290565b60e08201918060005b60078110611600575050505090565b9091929361161681856001930385528651611548565b94602090810194930191016115f1565b61146a91602061163f83516040845260408401906115e8565b9201519060208184039101526115e8565b908082519081815260208091019281808460051b8301019501936000915b84831061167e5750505050505090565b909192939495848061169c600193601f198682030187528a51611548565b980193019301919493929061166e565b61146a9160a06116f86116c8845160c0855260c0850190611420565b60208501516020850152604085015160408501526060850151606085015260808501518482036080860152611650565b9201519060a0818403910152611650565b90600182811c92168015611739575b602083101461172357565b634e487b7160e01b600052602260045260246000fd5b91607f1691611718565b906040519182600082549261175784611709565b9081845260019485811690816000146117c65750600114611783575b50506117819250038361150c565b565b9093915060005260209081600020936000915b8183106117ae57505061178193508201013880611773565b85548884018501529485019487945091830191611796565b91505061178194506020925060ff191682840152151560051b8201013880611773565b906040516117f6816114d5565b610160600682948054845260018101546020850152600281015460408501526003810154606085015261182b60048201611743565b608085015261183c60058201611743565b60a0850152015460ff90818116151560c0850152818160081c16151560e0850152818160101c161515610100850152818160181c161515610120850152818160201c16151561014085015260281c161515910152565b906040519060e082018281106001600160401b03821117610278576040526000825b600790818310156118dc579060206001926118ce886117e9565b8152019501910190936118b4565b505050909150565b906040516118f1816114ba565b602061190b6031839561190381611892565b855201611892565b910152565b60609060031901126102e357600435906024359060443590565b60405190611937826114f1565b606060a08382815260006020820152600060408201526000838201528260808201520152565b906002811015611971576006020190600090565b634e487b7160e01b600052603260045260246000fd5b9081546001600160401b038111610278576040519260206119ad818460051b018661150c565b82855260009182528082208186015b8484106119ca575050505050565b6007836001926119d9856117e9565b8152019201930192906119bc565b906040516119f4816114f1565b60a061190b60058395611a0681611743565b8552600181015460208601526002810154604086015260038101546060860152611a3260048201611987565b608086015201611987565b60405190611a4a826114d5565b8161016060009182815282602082015282604082015282606082015260606080820152606060a08201528260c08201528260e08201528261010082015282610120820152826101408201520152565b6040519060e08083018381106001600160401b03821117610278576040528260005b828110611ac757505050565b602090611ad2611a3d565b8184015201611abb565b600019811461025d5760010190565b9190820391821161025d57565b8054821015611971576000526007602060002091020190600090565b818110611b1f575050565b60008155600101611b14565b9190601f8111611b3a57505050565b611781926000526020600020906020601f840160051c83019310611b66575b601f0160051c0190611b14565b9091508190611b59565b908154600160401b81101561027857611b90906001938482018155611af8565b611e065781518155602092838301518183015560408301516002830155606083015160038301556004820160808401519081516001600160401b0392838211610278578190611be982611be38654611709565b86611b2b565b8890601f8311600114611da357600092611d98575b5050600019600383901b1c191690841b1790555b600583019160a085015195865192831161027857611c3483611be38654611709565b80601f8411600114611d2357509180806006959361016097956117819a600094611d18575b50501b916000199060031b1c19161790555b0191611c8960c08201511515849060ff801983541691151516179055565b60e0810151835461ff00191690151560081b61ff0016178355610100810151835462ff0000191690151560101b62ff000016178355610120810151835463ff000000191690151560181b63ff00000016178355610140810151835464ff00000000191690151560201b64ff00000000161783550151815460ff60281b191690151560281b60ff60281b16179055565b015192503880611c59565b9193949596601f1984168660005283600020936000905b828210611d81575050926006959285926117819a9996610160999610611d68575b505050811b019055611c6b565b015160001960f88460031b161c19169055388080611d5b565b808886978294978701518155019601940190611d3a565b015190503880611bfe565b90869350601f19831691856000528a6000209260005b8c828210611df05750508411611dd7575b505050811b019055611c12565b015160001960f88460031b161c19169055388080611dca565b8385015186558a97909501949384019301611db9565b634e487b7160e01b600052600060045260246000fd5b81601f820112156102e3578051611e328161152d565b92611e40604051948561150c565b818452602082840101116102e35761146a91602080850191016113fd565b519081151582036102e357565b91610180838303126102e35782519260208101519260408201519260608301519260808101516001600160401b03908181116102e35784611ead918401611e1c565b9360a08301519182116102e357611ec5918301611e1c565b91611ed260c08301611e5e565b91611edf60e08201611e5e565b91611eed6101008301611e5e565b91611efb6101208201611e5e565b9161146a610160611f0f6101408501611e5e565b9301611e5e565b611f1e611a3d565b5060009060018060a01b038254166001549280600f604095611f67875160208101904282523360601b8a82015283605482015260548152611f5e81611484565b51902091611adc565b60015516801561204b575b602486518095819363dabb053160e01b835260048301525afa91821561203f57611fbc939482908390848586908792889489968a988b9a8c809e612006575b505082519d8e6114d5565b8d5260208d01528b015260608a0152608089015260a0880152151560c0870152151560e0860152151561010085015215156101208401521515610140830152151561016082015290565b9a509a505050995050505050505061202892503d8091833e6104e8818361150c565b9b909a919992989397949694939290913880611fb1565b508351903d90823e3d90fd5b506001611f72565b61205d8154611709565b9081612067575050565b81601f60009311600114612079575055565b8183526020832061209591601f0160051c810190600101611b14565b8160208120915555565b8054906000808255826120b157505050565b6001917f249249249249249249249249249249249249249249249249249249249249249284118316612135578152602081209160079384028301925b8381106120fb575050505050565b8083869255838382015583600282015583600382015561211d60048201612053565b61212960058201612053565b836006820155016120ed565b634e487b7160e01b82526011600452602482fd5b9080821461221d5761215b8154611709565b906001600160401b03821161027857819061217a82611be38654611709565b600090601f83116001146121b1576000926121a6575b50508160011b916000199060031b1c1916179055565b015490503880612190565b81526020808220858352818320935090601f1985169083905b8282106122045750509084600195949392106121eb575b505050811b019055565b015460001960f88460031b161c191690553880806121e1565b84958192958501548155600180910196019401906121ca565b5050565b9190611e0657808203612232575050565b600680611781938354815560018401546001820155600284015460028201556003840154600382015561226b6004850160048301612149565b61227b6005850160058301612149565b01910160ff9061229a82825416849060ff801983541691151516179055565b8054835461ff001916600891821c8416151590911b61ff00161783558054835462ff00001916601091821c8416151590911b62ff0000161783558054835463ff0000001916601891821c8416151590911b63ff000000161783558054835464ff000000001916602091821c8416151590911b64ff00000000161783555460281c1660ff60281b825491151560281b169060ff60281b1916179055565b8054801561238857600019019061234d8282611af8565b611e0657600681600080935582600182015582600282015582600382015561237760048201612053565b61238360058201612053565b015555565b634e487b7160e01b600052603160045260246000fd5b6123a6611a3d565b506000805460405163dabb053160e01b815260048101939093528190839060249082906001600160a01b03165afa90811561248357809281828384859086928794889689988a809c61244e575b50506040519b6124028d6114d5565b8c5260208c015260408b015260608a0152608089015260a0880152151560c0870152151560e0860152151561010085015215156101208401521515610140830152151561016082015290565b9a509a5050505050505050505061246f92503d8091833e6104e8818361150c565b9990989197929693959392919038806123f3565b604051903d90823e3d90fd5b92916124b2600094338652600461059360039485602052606360408a200161195d565b5091600282840154146124c7575b5050509050565b600181146125a0575b60028114612579575b80826005921461255f575b6004811461254b575b14612535575b6001820180549182018092116125215755600601805462ffff001916620101001790559050803880806124c0565b634e487b7160e01b85526011600452602485fd5b60068201805461ff0019166101001790556124f3565b60068401805460ff191660011790556124ed565b60068401805463ff000000191663010000001790556124e4565b825482810180911161258c5783556124d9565b634e487b7160e01b86526011600452602486fd5b600183018054908382018092116125b757556124d0565b634e487b7160e01b87526011600452602487fd5b600091338352600390602091808352606392604092826125ef8787878b200161195d565b50987f1c5855762459f104c774489fcf507c937081ec2700dd5bb70d3247b98a645e1886612621836004809e01611af8565b50928151908b825287820152a10190888254146128c3575b600b825414612897575b600e825414612814575b50600d815414612733575b600f8154146126f4575b54601014612674575b50505050505050565b338652818152600161268a8686868a200161195d565b50018054908882018092116126e157553386525283206001926126af9290910161195d565b5001908154928084018094116126ce575050553880808080808061266b565b634e487b7160e01b825260119052602490fd5b634e487b7160e01b885260118952602488fd5b338752828252600161270a8787878b200161195d565b5001805490600882018092116127205755612662565b634e487b7160e01b895260118a52602489fd5b9697869594939291965b338752828852896127528787878b200161195d565b5001546000198101908111612801578110156127f257338752828852612781818b6105938989898d200161195d565b5080546001918282018092116127df57838d6105938b8b8f8f8c8e928b9a6127af9a5533835252200161195d565b500180549182018092116127cc57556127c790611adc565b61273d565b634e487b7160e01b895260118c52602489fd5b634e487b7160e01b8a5260118d5260248afd5b50979695909192939495612658565b634e487b7160e01b885260118b52602488fd5b338852838352600161282a8288888c200161195d565b50015460011991908281019081116128845761285a5750506201000062ffff001960065416176006555b3861264d565b612870600191338b5286865288888c200161195d565b500180549182019182116127205755612854565b634e487b7160e01b8a5260118b5260248afd5b33885283835260016128ad8288888c200161195d565b5001805490600582018092116128845755612643565b33885283835260016128d98888888c200161195d565b500180549060028201809211612884575561263956fea2646970667358221220f311b4108fea2e59b1c8e3f4d405d8d229d8663bd53d2115975bb02e27a5172b64736f6c63430008100033",
  "linkReferences": {},
  "deployedLinkReferences": {}
}