{
  "_format": "hh-sol-artifact-1",
  "contractName": "Hearthstone",
  "sourceName": "contracts/Hearthstone.sol",
  "abi": [
    {
      "inputs": [
        {
          "internalType": "address",
          "name": "_address",
          "type": "address"
        }
      ],
      "stateMutability": "nonpayable",
      "type": "constructor"
    },
    {
      "anonymous": false,
      "inputs": [
        {
          "components": [
            {
              "internalType": "uint256",
              "name": "health",
              "type": "uint256"
            },
            {
              "internalType": "uint256",
              "name": "attack",
              "type": "uint256"
            },
            {
              "internalType": "uint256",
              "name": "manaCost",
              "type": "uint256"
            },
            {
              "internalType": "uint256",
              "name": "id",
              "type": "uint256"
            },
            {
              "internalType": "string",
              "name": "name",
              "type": "string"
            },
            {
              "internalType": "string",
              "name": "description",
              "type": "string"
            },
            {
              "internalType": "bool",
              "name": "taunt",
              "type": "bool"
            },
            {
              "internalType": "bool",
              "name": "windfury",
              "type": "bool"
            },
            {
              "internalType": "bool",
              "name": "divineshield",
              "type": "bool"
            },
            {
              "internalType": "bool",
              "name": "stealth",
              "type": "bool"
            },
            {
              "internalType": "bool",
              "name": "poisonious",
              "type": "bool"
            }
          ],
          "indexed": false,
          "internalType": "struct Hearthstone.Champs",
          "name": "str",
          "type": "tuple"
        }
      ],
      "name": "drawn",
      "type": "event"
    },
    {
      "anonymous": false,
      "inputs": [
        {
          "components": [
            {
              "internalType": "uint256",
              "name": "health",
              "type": "uint256"
            },
            {
              "internalType": "uint256",
              "name": "attack",
              "type": "uint256"
            },
            {
              "internalType": "uint256",
              "name": "manaCost",
              "type": "uint256"
            },
            {
              "internalType": "uint256",
              "name": "id",
              "type": "uint256"
            },
            {
              "internalType": "string",
              "name": "name",
              "type": "string"
            },
            {
              "internalType": "string",
              "name": "description",
              "type": "string"
            },
            {
              "internalType": "bool",
              "name": "taunt",
              "type": "bool"
            },
            {
              "internalType": "bool",
              "name": "windfury",
              "type": "bool"
            },
            {
              "internalType": "bool",
              "name": "divineshield",
              "type": "bool"
            },
            {
              "internalType": "bool",
              "name": "stealth",
              "type": "bool"
            },
            {
              "internalType": "bool",
              "name": "poisonious",
              "type": "bool"
            }
          ],
          "indexed": false,
          "internalType": "struct Hearthstone.Champs",
          "name": "str",
          "type": "tuple"
        }
      ],
      "name": "playMinionEvent",
      "type": "event"
    },
    {
      "inputs": [
        {
          "internalType": "uint256",
          "name": "_handCardChosen",
          "type": "uint256"
        },
        {
          "internalType": "uint256",
          "name": "_posistion",
          "type": "uint256"
        }
      ],
      "name": "ability",
      "outputs": [],
      "stateMutability": "nonpayable",
      "type": "function"
    },
    {
      "inputs": [
        {
          "internalType": "uint256",
          "name": "minion",
          "type": "uint256"
        },
        {
          "internalType": "uint256",
          "name": "target",
          "type": "uint256"
        },
        {
          "internalType": "uint256",
          "name": "_player",
          "type": "uint256"
        }
      ],
      "name": "attack",
      "outputs": [],
      "stateMutability": "nonpayable",
      "type": "function"
    },
    {
      "inputs": [
        {
          "internalType": "uint256",
          "name": "minion",
          "type": "uint256"
        },
        {
          "internalType": "uint256",
          "name": "target",
          "type": "uint256"
        },
        {
          "internalType": "uint256",
          "name": "chosen",
          "type": "uint256"
        }
      ],
      "name": "attackWithChooseOption",
      "outputs": [],
      "stateMutability": "nonpayable",
      "type": "function"
    },
    {
      "inputs": [
        {
          "internalType": "uint256",
          "name": "minion",
          "type": "uint256"
        },
        {
          "internalType": "uint256",
          "name": "target",
          "type": "uint256"
        },
        {
          "internalType": "uint256",
          "name": "chosen",
          "type": "uint256"
        }
      ],
      "name": "battleCryWithChooseOption",
      "outputs": [],
      "stateMutability": "nonpayable",
      "type": "function"
    },
    {
      "inputs": [],
      "name": "boardSize",
      "outputs": [
        {
          "internalType": "uint256",
          "name": "",
          "type": "uint256"
        }
      ],
      "stateMutability": "view",
      "type": "function"
    },
    {
      "inputs": [],
      "name": "charC",
      "outputs": [
        {
          "internalType": "contract Characters",
          "name": "",
          "type": "address"
        }
      ],
      "stateMutability": "view",
      "type": "function"
    },
    {
      "inputs": [
        {
          "internalType": "string",
          "name": "_username",
          "type": "string"
        }
      ],
      "name": "createGame",
      "outputs": [],
      "stateMutability": "nonpayable",
      "type": "function"
    },
    {
      "inputs": [
        {
          "internalType": "uint256",
          "name": "_player",
          "type": "uint256"
        }
      ],
      "name": "endTurn",
      "outputs": [],
      "stateMutability": "nonpayable",
      "type": "function"
    },
    {
      "inputs": [
        {
          "internalType": "address",
          "name": "",
          "type": "address"
        }
      ],
      "name": "games",
      "outputs": [
        {
          "internalType": "uint256",
          "name": "gameId",
          "type": "uint256"
        },
        {
          "components": [
            {
              "components": [
                {
                  "internalType": "uint256",
                  "name": "health",
                  "type": "uint256"
                },
                {
                  "internalType": "uint256",
                  "name": "attack",
                  "type": "uint256"
                },
                {
                  "internalType": "uint256",
                  "name": "manaCost",
                  "type": "uint256"
                },
                {
                  "internalType": "uint256",
                  "name": "id",
                  "type": "uint256"
                },
                {
                  "internalType": "string",
                  "name": "name",
                  "type": "string"
                },
                {
                  "internalType": "string",
                  "name": "description",
                  "type": "string"
                },
                {
                  "internalType": "bool",
                  "name": "taunt",
                  "type": "bool"
                },
                {
                  "internalType": "bool",
                  "name": "windfury",
                  "type": "bool"
                },
                {
                  "internalType": "bool",
                  "name": "divineshield",
                  "type": "bool"
                },
                {
                  "internalType": "bool",
                  "name": "stealth",
                  "type": "bool"
                },
                {
                  "internalType": "bool",
                  "name": "poisonious",
                  "type": "bool"
                }
              ],
              "internalType": "struct Hearthstone.Champs[7]",
              "name": "player1Row",
              "type": "tuple[7]"
            },
            {
              "components": [
                {
                  "internalType": "uint256",
                  "name": "health",
                  "type": "uint256"
                },
                {
                  "internalType": "uint256",
                  "name": "attack",
                  "type": "uint256"
                },
                {
                  "internalType": "uint256",
                  "name": "manaCost",
                  "type": "uint256"
                },
                {
                  "internalType": "uint256",
                  "name": "id",
                  "type": "uint256"
                },
                {
                  "internalType": "string",
                  "name": "name",
                  "type": "string"
                },
                {
                  "internalType": "string",
                  "name": "description",
                  "type": "string"
                },
                {
                  "internalType": "bool",
                  "name": "taunt",
                  "type": "bool"
                },
                {
                  "internalType": "bool",
                  "name": "windfury",
                  "type": "bool"
                },
                {
                  "internalType": "bool",
                  "name": "divineshield",
                  "type": "bool"
                },
                {
                  "internalType": "bool",
                  "name": "stealth",
                  "type": "bool"
                },
                {
                  "internalType": "bool",
                  "name": "poisonious",
                  "type": "bool"
                }
              ],
              "internalType": "struct Hearthstone.Champs[7]",
              "name": "player2Row",
              "type": "tuple[7]"
            }
          ],
          "internalType": "struct Hearthstone.Board",
          "name": "board",
          "type": "tuple"
        }
      ],
      "stateMutability": "view",
      "type": "function"
    },
    {
      "inputs": [
        {
          "internalType": "uint256",
          "name": "id",
          "type": "uint256"
        }
      ],
      "name": "getAttack",
      "outputs": [
        {
          "internalType": "uint256",
          "name": "",
          "type": "uint256"
        }
      ],
      "stateMutability": "view",
      "type": "function"
    },
    {
      "inputs": [
        {
          "internalType": "uint256",
          "name": "_player",
          "type": "uint256"
        }
      ],
      "name": "getBoard",
      "outputs": [
        {
          "components": [
            {
              "internalType": "uint256",
              "name": "health",
              "type": "uint256"
            },
            {
              "internalType": "uint256",
              "name": "attack",
              "type": "uint256"
            },
            {
              "internalType": "uint256",
              "name": "manaCost",
              "type": "uint256"
            },
            {
              "internalType": "uint256",
              "name": "id",
              "type": "uint256"
            },
            {
              "internalType": "string",
              "name": "name",
              "type": "string"
            },
            {
              "internalType": "string",
              "name": "description",
              "type": "string"
            },
            {
              "internalType": "bool",
              "name": "taunt",
              "type": "bool"
            },
            {
              "internalType": "bool",
              "name": "windfury",
              "type": "bool"
            },
            {
              "internalType": "bool",
              "name": "divineshield",
              "type": "bool"
            },
            {
              "internalType": "bool",
              "name": "stealth",
              "type": "bool"
            },
            {
              "internalType": "bool",
              "name": "poisonious",
              "type": "bool"
            }
          ],
          "internalType": "struct Hearthstone.Champs[]",
          "name": "",
          "type": "tuple[]"
        }
      ],
      "stateMutability": "view",
      "type": "function"
    },
    {
      "inputs": [
        {
          "internalType": "uint256",
          "name": "_player",
          "type": "uint256"
        }
      ],
      "name": "getGame",
      "outputs": [
        {
          "components": [
            {
              "internalType": "uint256",
              "name": "gameId",
              "type": "uint256"
            },
            {
              "components": [
                {
                  "components": [
                    {
                      "internalType": "uint256",
                      "name": "health",
                      "type": "uint256"
                    },
                    {
                      "internalType": "uint256",
                      "name": "attack",
                      "type": "uint256"
                    },
                    {
                      "internalType": "uint256",
                      "name": "manaCost",
                      "type": "uint256"
                    },
                    {
                      "internalType": "uint256",
                      "name": "id",
                      "type": "uint256"
                    },
                    {
                      "internalType": "string",
                      "name": "name",
                      "type": "string"
                    },
                    {
                      "internalType": "string",
                      "name": "description",
                      "type": "string"
                    },
                    {
                      "internalType": "bool",
                      "name": "taunt",
                      "type": "bool"
                    },
                    {
                      "internalType": "bool",
                      "name": "windfury",
                      "type": "bool"
                    },
                    {
                      "internalType": "bool",
                      "name": "divineshield",
                      "type": "bool"
                    },
                    {
                      "internalType": "bool",
                      "name": "stealth",
                      "type": "bool"
                    },
                    {
                      "internalType": "bool",
                      "name": "poisonious",
                      "type": "bool"
                    }
                  ],
                  "internalType": "struct Hearthstone.Champs[7]",
                  "name": "player1Row",
                  "type": "tuple[7]"
                },
                {
                  "components": [
                    {
                      "internalType": "uint256",
                      "name": "health",
                      "type": "uint256"
                    },
                    {
                      "internalType": "uint256",
                      "name": "attack",
                      "type": "uint256"
                    },
                    {
                      "internalType": "uint256",
                      "name": "manaCost",
                      "type": "uint256"
                    },
                    {
                      "internalType": "uint256",
                      "name": "id",
                      "type": "uint256"
                    },
                    {
                      "internalType": "string",
                      "name": "name",
                      "type": "string"
                    },
                    {
                      "internalType": "string",
                      "name": "description",
                      "type": "string"
                    },
                    {
                      "internalType": "bool",
                      "name": "taunt",
                      "type": "bool"
                    },
                    {
                      "internalType": "bool",
                      "name": "windfury",
                      "type": "bool"
                    },
                    {
                      "internalType": "bool",
                      "name": "divineshield",
                      "type": "bool"
                    },
                    {
                      "internalType": "bool",
                      "name": "stealth",
                      "type": "bool"
                    },
                    {
                      "internalType": "bool",
                      "name": "poisonious",
                      "type": "bool"
                    }
                  ],
                  "internalType": "struct Hearthstone.Champs[7]",
                  "name": "player2Row",
                  "type": "tuple[7]"
                }
              ],
              "internalType": "struct Hearthstone.Board",
              "name": "board",
              "type": "tuple"
            },
            {
              "components": [
                {
                  "internalType": "string",
                  "name": "username",
                  "type": "string"
                },
                {
                  "internalType": "uint256",
                  "name": "health",
                  "type": "uint256"
                },
                {
                  "internalType": "uint256",
                  "name": "mana",
                  "type": "uint256"
                },
                {
                  "components": [
                    {
                      "internalType": "uint256",
                      "name": "health",
                      "type": "uint256"
                    },
                    {
                      "internalType": "uint256",
                      "name": "attack",
                      "type": "uint256"
                    },
                    {
                      "internalType": "uint256",
                      "name": "manaCost",
                      "type": "uint256"
                    },
                    {
                      "internalType": "uint256",
                      "name": "id",
                      "type": "uint256"
                    },
                    {
                      "internalType": "string",
                      "name": "name",
                      "type": "string"
                    },
                    {
                      "internalType": "string",
                      "name": "description",
                      "type": "string"
                    },
                    {
                      "internalType": "bool",
                      "name": "taunt",
                      "type": "bool"
                    },
                    {
                      "internalType": "bool",
                      "name": "windfury",
                      "type": "bool"
                    },
                    {
                      "internalType": "bool",
                      "name": "divineshield",
                      "type": "bool"
                    },
                    {
                      "internalType": "bool",
                      "name": "stealth",
                      "type": "bool"
                    },
                    {
                      "internalType": "bool",
                      "name": "poisonious",
                      "type": "bool"
                    }
                  ],
                  "internalType": "struct Hearthstone.Champs[]",
                  "name": "minions",
                  "type": "tuple[]"
                },
                {
                  "components": [
                    {
                      "internalType": "uint256",
                      "name": "health",
                      "type": "uint256"
                    },
                    {
                      "internalType": "uint256",
                      "name": "attack",
                      "type": "uint256"
                    },
                    {
                      "internalType": "uint256",
                      "name": "manaCost",
                      "type": "uint256"
                    },
                    {
                      "internalType": "uint256",
                      "name": "id",
                      "type": "uint256"
                    },
                    {
                      "internalType": "string",
                      "name": "name",
                      "type": "string"
                    },
                    {
                      "internalType": "string",
                      "name": "description",
                      "type": "string"
                    },
                    {
                      "internalType": "bool",
                      "name": "taunt",
                      "type": "bool"
                    },
                    {
                      "internalType": "bool",
                      "name": "windfury",
                      "type": "bool"
                    },
                    {
                      "internalType": "bool",
                      "name": "divineshield",
                      "type": "bool"
                    },
                    {
                      "internalType": "bool",
                      "name": "stealth",
                      "type": "bool"
                    },
                    {
                      "internalType": "bool",
                      "name": "poisonious",
                      "type": "bool"
                    }
                  ],
                  "internalType": "struct Hearthstone.Champs[]",
                  "name": "hand",
                  "type": "tuple[]"
                }
              ],
              "internalType": "struct Hearthstone.Player[2]",
              "name": "player",
              "type": "tuple[2]"
            }
          ],
          "internalType": "struct Hearthstone.Game",
          "name": "",
          "type": "tuple"
        }
      ],
      "stateMutability": "view",
      "type": "function"
    },
    {
      "inputs": [
        {
          "internalType": "uint256",
          "name": "_player",
          "type": "uint256"
        }
      ],
      "name": "getHand",
      "outputs": [
        {
          "components": [
            {
              "internalType": "uint256",
              "name": "health",
              "type": "uint256"
            },
            {
              "internalType": "uint256",
              "name": "attack",
              "type": "uint256"
            },
            {
              "internalType": "uint256",
              "name": "manaCost",
              "type": "uint256"
            },
            {
              "internalType": "uint256",
              "name": "id",
              "type": "uint256"
            },
            {
              "internalType": "string",
              "name": "name",
              "type": "string"
            },
            {
              "internalType": "string",
              "name": "description",
              "type": "string"
            },
            {
              "internalType": "bool",
              "name": "taunt",
              "type": "bool"
            },
            {
              "internalType": "bool",
              "name": "windfury",
              "type": "bool"
            },
            {
              "internalType": "bool",
              "name": "divineshield",
              "type": "bool"
            },
            {
              "internalType": "bool",
              "name": "stealth",
              "type": "bool"
            },
            {
              "internalType": "bool",
              "name": "poisonious",
              "type": "bool"
            }
          ],
          "internalType": "struct Hearthstone.Champs[]",
          "name": "",
          "type": "tuple[]"
        }
      ],
      "stateMutability": "view",
      "type": "function"
    },
    {
      "inputs": [],
      "name": "getHealthBot",
      "outputs": [
        {
          "internalType": "uint256",
          "name": "",
          "type": "uint256"
        }
      ],
      "stateMutability": "view",
      "type": "function"
    },
    {
      "inputs": [],
      "name": "getHealthPlayer",
      "outputs": [
        {
          "internalType": "uint256",
          "name": "",
          "type": "uint256"
        }
      ],
      "stateMutability": "view",
      "type": "function"
    },
    {
      "inputs": [
        {
          "internalType": "uint256",
          "name": "_player",
          "type": "uint256"
        }
      ],
      "name": "getPlayer",
      "outputs": [
        {
          "components": [
            {
              "internalType": "string",
              "name": "username",
              "type": "string"
            },
            {
              "internalType": "uint256",
              "name": "health",
              "type": "uint256"
            },
            {
              "internalType": "uint256",
              "name": "mana",
              "type": "uint256"
            },
            {
              "components": [
                {
                  "internalType": "uint256",
                  "name": "health",
                  "type": "uint256"
                },
                {
                  "internalType": "uint256",
                  "name": "attack",
                  "type": "uint256"
                },
                {
                  "internalType": "uint256",
                  "name": "manaCost",
                  "type": "uint256"
                },
                {
                  "internalType": "uint256",
                  "name": "id",
                  "type": "uint256"
                },
                {
                  "internalType": "string",
                  "name": "name",
                  "type": "string"
                },
                {
                  "internalType": "string",
                  "name": "description",
                  "type": "string"
                },
                {
                  "internalType": "bool",
                  "name": "taunt",
                  "type": "bool"
                },
                {
                  "internalType": "bool",
                  "name": "windfury",
                  "type": "bool"
                },
                {
                  "internalType": "bool",
                  "name": "divineshield",
                  "type": "bool"
                },
                {
                  "internalType": "bool",
                  "name": "stealth",
                  "type": "bool"
                },
                {
                  "internalType": "bool",
                  "name": "poisonious",
                  "type": "bool"
                }
              ],
              "internalType": "struct Hearthstone.Champs[]",
              "name": "minions",
              "type": "tuple[]"
            },
            {
              "components": [
                {
                  "internalType": "uint256",
                  "name": "health",
                  "type": "uint256"
                },
                {
                  "internalType": "uint256",
                  "name": "attack",
                  "type": "uint256"
                },
                {
                  "internalType": "uint256",
                  "name": "manaCost",
                  "type": "uint256"
                },
                {
                  "internalType": "uint256",
                  "name": "id",
                  "type": "uint256"
                },
                {
                  "internalType": "string",
                  "name": "name",
                  "type": "string"
                },
                {
                  "internalType": "string",
                  "name": "description",
                  "type": "string"
                },
                {
                  "internalType": "bool",
                  "name": "taunt",
                  "type": "bool"
                },
                {
                  "internalType": "bool",
                  "name": "windfury",
                  "type": "bool"
                },
                {
                  "internalType": "bool",
                  "name": "divineshield",
                  "type": "bool"
                },
                {
                  "internalType": "bool",
                  "name": "stealth",
                  "type": "bool"
                },
                {
                  "internalType": "bool",
                  "name": "poisonious",
                  "type": "bool"
                }
              ],
              "internalType": "struct Hearthstone.Champs[]",
              "name": "hand",
              "type": "tuple[]"
            }
          ],
          "internalType": "struct Hearthstone.Player",
          "name": "",
          "type": "tuple"
        }
      ],
      "stateMutability": "view",
      "type": "function"
    },
    {
      "inputs": [],
      "name": "getTurn",
      "outputs": [
        {
          "internalType": "uint8",
          "name": "",
          "type": "uint8"
        }
      ],
      "stateMutability": "view",
      "type": "function"
    },
    {
      "inputs": [],
      "name": "handSize",
      "outputs": [
        {
          "internalType": "uint256",
          "name": "",
          "type": "uint256"
        }
      ],
      "stateMutability": "view",
      "type": "function"
    },
    {
      "inputs": [
        {
          "internalType": "uint256",
          "name": "_player",
          "type": "uint256"
        },
        {
          "internalType": "uint256",
          "name": "_handIndex",
          "type": "uint256"
        }
      ],
      "name": "playMinion",
      "outputs": [],
      "stateMutability": "nonpayable",
      "type": "function"
    },
    {
      "inputs": [
        {
          "internalType": "uint256",
          "name": "minionId",
          "type": "uint256"
        },
        {
          "internalType": "uint256",
          "name": "_player",
          "type": "uint256"
        }
      ],
      "name": "playMinionById",
      "outputs": [],
      "stateMutability": "nonpayable",
      "type": "function"
    },
    {
      "inputs": [
        {
          "internalType": "uint256",
          "name": "_player",
          "type": "uint256"
        }
      ],
      "name": "playerDrawCard",
      "outputs": [],
      "stateMutability": "nonpayable",
      "type": "function"
    },
    {
      "inputs": [
        {
          "internalType": "uint256",
          "name": "id",
          "type": "uint256"
        },
        {
          "internalType": "uint256",
          "name": "_player",
          "type": "uint256"
        }
      ],
      "name": "showboardplace",
      "outputs": [
        {
          "internalType": "uint256[4]",
          "name": "",
          "type": "uint256[4]"
        },
        {
          "internalType": "string",
          "name": "",
          "type": "string"
        }
      ],
      "stateMutability": "view",
      "type": "function"
    },
    {
      "inputs": [
        {
          "internalType": "uint256",
          "name": "id",
          "type": "uint256"
        }
      ],
      "name": "showcard",
      "outputs": [
        {
          "internalType": "uint256[4]",
          "name": "",
          "type": "uint256[4]"
        },
        {
          "internalType": "string",
          "name": "",
          "type": "string"
        }
      ],
      "stateMutability": "view",
      "type": "function"
    },
    {
      "inputs": [
        {
          "internalType": "uint256",
          "name": "minion",
          "type": "uint256"
        },
        {
          "internalType": "uint256",
          "name": "chosen",
          "type": "uint256"
        }
      ],
      "name": "trigger",
      "outputs": [],
      "stateMutability": "nonpayable",
      "type": "function"
    },
    {
      "inputs": [
        {
          "internalType": "address",
          "name": "",
          "type": "address"
        }
      ],
      "name": "usernames",
      "outputs": [
        {
          "internalType": "string",
          "name": "",
          "type": "string"
        }
      ],
      "stateMutability": "view",
      "type": "function"
    }
  ],
  "bytecode": "0x60803461009457601f61264c38819003918201601f19168301916001600160401b038311848410176100995780849260209460405283398101031261009457516001600160a01b03811690819003610094576000600155600060055561010062ffffff19600654161760065560018060a01b031933816002541617600255600054161760005560405161259c90816100b08239f35b600080fd5b634e487b7160e01b600052604160045260246000fdfe608060408181526004918236101561001657600080fd5b600092833560e01c91826304c51d5b146116745750816328e072441461165257816329d48b271461153d5781632aa76db5146114e75781632e4851b3146113da5781632ebc050414611219578163407f85f814610fa3578163428e866114610f7a57816345e09e5414610f4757816346bb488214610b0457816349045d0414610a7f57816379131a1914610a28578163848ae301146109a4578163919d1f3f1461097b5781639dbc88a314610953578163a2f77bcc146107eb578163b6ead707146107c2578163c51d69f414610799578163cff840f014610695578163d47f269e14610648578163e55ae4e8146105f4578163ed0a8b59146104a1578163ee91877c1461043a578163faa421cb14610150575063ffa245cf1461013857600080fd5b3461014c5761014636611756565b50505051f35b5080fd5b9050346104365781610161366116b4565b92338652600393602092858452848820886002610185846063809a81952001611c1f565b50015491019060026101a3858761019c8787611c1f565b5001611d95565b5001541161040157866101e260026101d8858a8d8f856101c88c8e61019c888e611c1f565b500154973382528d522001611c1f565b50019182546122d9565b9055866101ef8383611c1f565b500195610201848661019c8686611c1f565b508754600160401b8110156103ee579061022561022b9260019a8b82018155611d95565b906123be565b888a80895b610330575b508461028d946102888961028160ff997fa76f195005ba54e5875e803ae21db8b4059e956d003be5f8fdd6210483c625279f9e9d9c9b988f9861019c988f9a869b338352522001611c1f565b50016124fe565b611c1f565b509287519586958287528554838801528501548987015260028501546060870152840154608086015260066102ea6102d5610160958660a08a01526101808901908801611973565b878103601f190160c089015260058701611973565b94015490828216151560e0870152828260081c161515610100870152828260101c161515610120870152828260181c1615156101408701521c161515908301520390a151f35b918584610346928a948e3382528d522001611c1f565b50015460001981019081116103db578b8b918310156103d457836103739287923381528d8c522001611c1f565b50888201908183116103c157916103b3896102258f8f8f8f988a8f9389958f93946103a66103b89d8861019c9801611d95565b5099338352522001611c1f565b6122b4565b8b908b92610230565b634e487b7160e01b8d526011885260248dfd5b9091610235565b634e487b7160e01b8c526011875260248cfd5b634e487b7160e01b8c526041875260248cfd5b875162461bcd60e51b8152808501869052600f60248201526e6e6f7420656e6f756768206d616e6160881b6044820152606490fd5b8280fd5b9050346104365760203660031901126104365780356001600160a01b0381169081900361049d578284610480949361048793610499975260205220825193848092611973565b038361180e565b519182916020835260208301906116f2565b0390f35b8380fd5b83833461014c576104b1366116b4565b338452600390816020526002826104e46104d0866066898b2001611d95565b5095338952826020526066888a2001611d95565b500154146104f25750505051f35b600181146105ca575b600281146105a4575b80826005921461058a575b868114610576575b14610560575b60018201805491820180921161054d5755600601805462ffff001916620101001790559091508190838080610146565b634e487b7160e01b855260118652602485fd5b60068201805461ff00191661010017905561051d565b60068401805460ff19166001179055610517565b60068401805463ff0000001916630100000017905561050f565b82548281018091116105b7578355610504565b634e487b7160e01b865260118752602486fd5b600183018054908382018092116105e157556104fb565b634e487b7160e01b875260118852602487fd5b9050346104365760203660031901126104365761062f610499936063846106359461061d611bf3565b50338452600360205235922001611c1f565b50611ca9565b9051918291602083526020830190611ba0565b905034610436576020366003190112610436576106829061067b6104999433815260036020526063858435922001611c1f565b5001611c49565b90519182916020835260208301906118dd565b8391503461014c57602036600319011261014c578154835163dabb053160e01b81528235928101929092528290829060249082906001600160a01b03165afa801561078f5792602093839084938586878889918a938b958c978d9961074d575b508a6101409a9b9c9d50519a61070a8c6117a1565b8b528c8e8c01528b8b015260608a0152608089015260a0880152151560c0870152151560e086015215156101008501521515610120840152151591015251908152f35b9950505050505050505050610779919250610140933d8091833e610771818361180e565b8101906120ec565b989b8c9b9a9998919792969395939291906106f5565b83513d84823e3d90fd5b50503461014c578160031936011261014c57606681602093338152600385522001549051908152f35b50503461014c578160031936011261014c57606481602093338152600385522001549051908152f35b82843461095057602090816003193601126109505790825161080c816117bd565b828152835161081a816117d8565b610822611d52565b815261082c611d52565b838201528282015283805191610841836117d8565b845b828110610932575001523382526003815282822091835192610864846117bd565b80548452600192610876848301611b0c565b818601908152865192610888846117d8565b60630184845b6002821061090b575050506108bf908787019384528751968388525183880152516060888801526080870190611b76565b9151858303601f190160608701529582019592825b600282106108e25786880387f35b909192939483806108fa8a88859c0386528951611ba0565b9997019594939190910191016108d4565b96600585829b9697989961091e86611ca9565b81520193019101909198969594939861088e565b849594919250610940611bf3565b8185015201908591949394610843565b80fd5b50503461014c578160031936011261014c57905490516001600160a01b039091168152602090f35b50503461014c578160031936011261014c57606781602093338152600385522001549051908152f35b8391503461014c57602036600319011261014c576109ea916067846109e493608082516109d081611770565b369037338452600360205235922001611d95565b50611a09565b61049960808351926109fb84611770565b80518452602081015160208501528481015185850152606081015160608501520151925192839283611717565b90503461043657602036600319011261043657356001600160a01b03811690819003610436579181928152600360205220610499610a6a600183549301611b0c565b83519384938452806020850152830190611b76565b90503461043657602036600319011261043657610abf903384526003602052610aae8135606385872001611c1f565b5090610ab8612188565b9101611e0f565b7f114350837fa4fbc09f30bc6997d2929580625dfafecf29fb430024bd46694acb610afe610aeb612188565b835191829160208352602083019061184a565b0390a151f35b90503461043657600390610b17366116b4565b9133865283602052610b356066868820015492606787892001611d95565b509133875284602052606686882001926001958691015414610b5657868651f35b8085148080610f3e575b610ee0575b80610ed8575b610e7c575b8481118080610e73575b80610e6a575b610db4575b80610dab575b610ce2575b838114908180610cd9575b610c55575b81610c4b575b50610bb2575b80868651f35b838301809311610c385783610bc78484611d95565b5001805490858201809211610c255755610be18383611d95565b50805491858301809311610c12575055600691610bfd91611d95565b50019060ff1982541617905538808080610bac565b634e487b7160e01b885260119052602487fd5b634e487b7160e01b885260118352602488fd5b634e487b7160e01b865260119052602485fd5b9050831038610ba6565b6000198501858111610cc65786610c6c8287611d95565b5001805490888201809211610cb35755610c868186611d95565b50805490888201809211610cb35755600690610ca29086611d95565b5001805460ff191687179055610ba0565b634e487b7160e01b8b526011865260248bfd5b634e487b7160e01b895260118452602489fd5b50808511610b9b565b6000198401848111610c255785610cf98286611d95565b5001805490878201809211610d985755610d138185611d95565b50805490878201809211610d985755600690610d2f9085611d95565b500160ff19908682825416179055858501808611610cc65786610d528287611d95565b5001805490888201809211610cb35755610d6c8186611d95565b50805490888201809211610cb3578892600692610d8a925587611d95565b500191825416179055610b90565b634e487b7160e01b8a526011855260248afd5b50808410610b8b565b6000198501858111610cc65786610dcb8287611d95565b5001805490888201809211610cb35755610de58186611d95565b50805490888201809211610cb35755600690610e019086611d95565b500160ff19908782825416179055868601808711610d985787610e248288611d95565b50018054908982018092116103db5755610e3e8187611d95565b508054908982018092116103db578992600692610e5c925588611d95565b500191825416179055610b85565b50841515610b80565b50818510610b7a565b848401808511610c255785610e918286611d95565b5001805490878201809211610d985755610eab8185611d95565b50805490878201809211610d985755600690610ec79085611d95565b5001805460ff191686179055610b70565b508315610b6b565b6000198501858111610cc65786610ef78287611d95565b5001805490888201809211610cb35755610f118186611d95565b50805490888201809211610cb35755600690610f2d9086611d95565b5001805460ff191687179055610b65565b50858514610b60565b90503461043657602036600319011261043657600361067b61049994606385610682953384528560205235922001611c1f565b50503461014c578160031936011261014c57606981602093338152600385522001549051908152f35b83833461014c57610fb336611756565b909491338552600360209381855260639282610fd386868a8c2001611c1f565b5001546000199590868101908111611206578a10156111ce57839291859461019c611015938a988c8e83156000146111c6578560019c5b338352522001611c1f565b50946001809601549961029a81146000146110a6575050508686979896949596338252828852611056818861104e88888b882001611c1f565b5001546122d9565b6110775750505050505050506201000062ffff001960065416176006555b51f35b8661104e86866110a09961109296888e338352522001611c1f565b953389525285872001611c1f565b50015551f35b8a6110c8828661019c8a8d9f9e9d8f8f90859f9b9c8e93338352522001611c1f565b50541161117b5782939495969798999a50919091905b611100575b505050509061028191836110749596973389525285872001611c1f565b338952868a528661111587878b8d2001611c1f565b500154828101908111610d985781101561117657338952868a5261113d86868a8c2001611c1f565b5083820190818311610cb357916103b38c610225838c8f8f8d8f9161019c93858f9e9d61116f9d826103a69201611d95565b90916110de565b6110e3565b95949250505081836111b3889a6111ac888461019c888d9f9e9a8f9e6111c19f9c8561019c9e338352522001611c1f565b50546122d9565b97338b525287892001611c1f565b505551f35b85819c61100a565b875162461bcd60e51b815280840188905260126024820152711d185c99d948191bd95cdb9d08195e1a5cdd60721b6044820152606490fd5b634e487b7160e01b8a526011845260248afd5b905034610436576020908160031936011261049d578035916001600160401b038084116113d657366023850112156113d65785848401359461125a8661182f565b956112678851978861180e565b80875236602482840101116104365780602486930183890137860101523386526003825284862090606382019086882095606887019581519283116113c357506112bb826112b58554611939565b85611dc8565b849089601f8411600114611355579383600199979594606594606a9a98948c979261134a575b5050600019600383901b1c191690851b1790555b601e606482015501556113088254611939565b601f811161132b575b5050600662109bdd60ea1b019055601e6069820155015551f35b601f61134392848a528920910160051c810190611db1565b3880611311565b0151905038806112e1565b50838a52858a209190601f1984168b5b8181106113ac575084606594606a9a989460019c9a98948d98899510611393575b505050811b0190556112f5565b015160001960f88460031b161c19169055388080611386565b929388600181928786015181550195019301611365565b634e487b7160e01b8a5260419052602489fd5b8580fd5b9050346104365760203660031901126104365780358060ff60065416036114b057338452600360205261141f61141582606386882001611c1f565b5083610ab8612188565b3384526003602052600a600261143a83606387892001611c1f565b5001541061146b575b505060065460ff81166114615750600160ff19600654161760065551f35b60ff191660065551f35b6114846002913386526003602052606385872001611c1f565b50018054916001830180931161149d5750553880611443565b634e487b7160e01b855260119052602484fd5b506020606492519162461bcd60e51b8352820152601160248201527034ba39903737ba103cb7bab9103a3ab93760791b6044820152fd5b50503461014c5761152b60016115146114ff36611756565b50503386526003602052606785872001611d95565b5001543384526003602052606983852001546122d9565b33835260036020526069828420015551f35b90508234610950576115699181611553366116b4565b9490943383526003602052606387842001611c1f565b5093611573611cfd565b508154865163dabb053160e01b815293840191909152829060249082906001600160a01b03165afa928315611648576110749383600393876115cc9683848586918793889589978a998b9c611612575b50519d8e6117a1565b8d5260208d01528d8c015260608b015260808a015260a0890152151560c0880152151560e087015215156101008601521515610120850152151561014084015201611e0f565b99509a50505050505050505061163291503d808a833e610771818361180e565b9a909991989297939694959493929190386115c3565b84513d84823e3d90fd5b50503461014c578160031936011261014c5760209060ff600654169051908152f35b83908534610950576109ea91600361019c60806063876109e496611697366116b4565b9490976116a381611770565b369037338152856020522001611c1f565b60409060031901126116ca576004359060243590565b600080fd5b60005b8381106116e25750506000910152565b81810151838201526020016116d2565b9060209161170b815180928185528580860191016116cf565b601f01601f1916010190565b90600090825b6004831061173f575050509060a08281608061173c95015201906116f2565b90565b60019082518152602080910192019201919061171d565b60609060031901126116ca57600435906024359060443590565b608081019081106001600160401b0382111761178b57604052565b634e487b7160e01b600052604160045260246000fd5b61016081019081106001600160401b0382111761178b57604052565b606081019081106001600160401b0382111761178b57604052565b604081019081106001600160401b0382111761178b57604052565b60a081019081106001600160401b0382111761178b57604052565b90601f801991011681019081106001600160401b0382111761178b57604052565b6001600160401b03811161178b57601f01601f191660200190565b908151815260208201516020820152604082015160408201526060820151606082015261189b61188960808401516101608060808601528401906116f2565b60a084015183820360a08501526116f2565b9160c0810151151560c083015260e0810151151560e0830152610100808201511515908301526101208082015115159083015261014080910151151591015290565b908082519081815260208091019281808460051b8301019501936000915b84831061190b5750505050505090565b9091929394958480611929600193601f198682030187528a5161184a565b98019301930191949392906118fb565b90600182811c92168015611969575b602083101461195357565b634e487b7160e01b600052602260045260246000fd5b91607f1691611948565b906000929180549161198483611939565b9182825260019384811690816000146119e657506001146119a6575b50505050565b90919394506000526020928360002092846000945b8386106119d25750505050010190388080806119a0565b8054858701830152940193859082016119bb565b9294505050602093945060ff191683830152151560051b010190388080806119a0565b90604051611a16816117a1565b61014060ff6006839580548552600181015460208601526002810154604086015260038101546060860152604051611a5c81611a558160048601611973565b038261180e565b6080860152604051611a7581611a558160058601611973565b60a08601520154818116151560c0850152818160081c16151560e0850152818160101c161515610100850152818160181c16151561012085015260201c161515910152565b906040519060e082018281106001600160401b0382111761178b576040526000825b60079081831015611b0457906020600192611af688611a09565b815201950191019093611adc565b505050909150565b90604051611b19816117d8565b6020611b3360318395611b2b81611aba565b855201611aba565b910152565b60e08201918060005b60078110611b50575050505090565b90919293611b668185600193038552865161184a565b9460209081019493019101611b41565b61173c916020611b8f8351604084526040840190611b38565b920151906020818403910152611b38565b61173c916080611be2611bbc845160a0855260a08501906116f2565b6020850151602085015260408501516040850152606085015184820360608601526118dd565b9201519060808184039101526118dd565b60405190611c00826117f3565b6060608083828152600060208201526000604082015282808201520152565b906002811015611c33576005020190600090565b634e487b7160e01b600052603260045260246000fd5b9081546001600160401b03811161178b57604051926020611c6f818460051b018661180e565b82855260009182528082208186015b848410611c8c575050505050565b600783600192611c9b85611a09565b815201920193019290611c7e565b90604051611cb6816117f3565b6080611b3360048395604051611cd081611a558185611973565b85526001810154602086015260028101546040860152611cf260038201611c49565b606086015201611c49565b60405190611d0a826117a1565b8161014060009182815282602082015282604082015282606082015260606080820152606060a08201528260c08201528260e082015282610100820152826101208201520152565b6040519060e08083018381106001600160401b0382111761178b576040528260005b828110611d8057505050565b602090611d8b611cfd565b8184015201611d74565b8054821015611c33576000526007602060002091020190600090565b818110611dbc575050565b60008155600101611db1565b9190601f8111611dd757505050565b611e03926000526020600020906020601f840160051c83019310611e05575b601f0160051c0190611db1565b565b9091508190611df6565b908154600160401b81101561178b57611e2f906001938482018155611d95565b6120875781518155602092838301518183015560408301516002830155606083015160038301556004820160808401519081516001600160401b039283821161178b578190611e8882611e828654611939565b86611dc8565b8890601f831160011461202457600092612019575b5050600019600383901b1c191690841b1790555b600583019160a085015195865192831161178b57611ed383611e828654611939565b80601f8411600114611fa45750918080600695936101409795611e039a600094611f99575b50501b916000199060031b1c19161790555b0191611f2860c08201511515849060ff801983541691151516179055565b60e0810151835461ff00191690151560081b61ff0016178355610100810151835462ff0000191690151560101b62ff000016178355610120810151835463ff000000191690151560181b63ff000000161783550151815464ff00000000191690151560201b64ff0000000016179055565b015192503880611ef8565b9193949596601f1984168660005283600020936000905b82821061200257505092600695928592611e039a9996610140999610611fe9575b505050811b019055611f0a565b015160001960f88460031b161c19169055388080611fdc565b808886978294978701518155019601940190611fbb565b015190503880611e9d565b90869350601f19831691856000528a6000209260005b8c8282106120715750508411612058575b505050811b019055611eb1565b015160001960f88460031b161c1916905538808061204b565b8385015186558a9790950194938401930161203a565b634e487b7160e01b600052600060045260246000fd5b81601f820112156116ca5780516120b38161182f565b926120c1604051948561180e565b818452602082840101116116ca5761173c91602080850191016116cf565b519081151582036116ca57565b610160818303126116ca5780519260208201519260408301519260608101519260808201516001600160401b03908181116116ca578461212d91850161209d565b9360a08401519182116116ca5761214591840161209d565b9161215260c082016120df565b9161215f60e083016120df565b9161216d61010082016120df565b9161173c61014061218161012085016120df565b93016120df565b612190611cfd565b50600060018060a01b03815416600154918060056040946121d8865160208101904282523360601b89820152836054820152605481526121cf81611770565b519020916122b4565b6001550680156122ac575b602485518095819363dabb053160e01b835260048301525afa9182156122a057819382908384859086928794889689988a809c61226b575b505081519b6122298d6117a1565b8c5260208c01528a01526060890152608088015260a0870152151560c0860152151560e085015215156101008401521515610120830152151561014082015290565b9950995050995050505050505061228c92503d8091833e610771818361180e565b999a9098919792969395939291388061221b565b508251903d90823e3d90fd5b5060016121e3565b60001981146122c35760010190565b634e487b7160e01b600052601160045260246000fd5b919082039182116122c357565b908082146123ba576122f88154611939565b906001600160401b03821161178b57819061231782611e828654611939565b600090601f831160011461234e57600092612343575b50508160011b916000199060031b1c1916179055565b01549050388061232d565b81526020808220858352818320935090601f1985169083905b8282106123a1575050908460019594939210612388575b505050811b019055565b015460001960f88460031b161c1916905538808061237e565b8495819295850154815560018091019601940190612367565b5050565b9190612087578082036123cf575050565b60ff600680611e03948454815560018501546001820155600285015460028201556003850154600382015561240a60048601600483016122e6565b61241a60058601600583016122e6565b01920161243682825416849060ff801983541691151516179055565b8054835461ff001916600891821c8416151590911b61ff00161783558054835462ff00001916601091821c8416151590911b62ff0000161783558054835463ff0000001916601891821c8416151590911b63ff000000161783555460201c1664ff00000000825491151560201b169064ff000000001916179055565b6124bc8154611939565b90816124c6575050565b81601f600093116001146124d8575055565b818352602083206124f491601f0160051c810190600101611db1565b8160208120915555565b805480156125505760001901906125158282611d95565b61208757600681600080935582600182015582600282015582600382015561253f600482016124b2565b61254b600582016124b2565b015555565b634e487b7160e01b600052603160045260246000fdfea2646970667358221220812d9b4eee2affef6ebc49e496ceca5a1af13798e9d074a16d7f8b4c27f8d8a664736f6c63430008100033",
  "linkReferences": {},
  "deployedLinkReferences": {}
}